{
	"dapp-project/RoomShare.sol": {
		"RoomShare": {
			"abi": [
				{
					"anonymous": false,
					"inputs": [
						{
							"indexed": true,
							"internalType": "uint256",
							"name": "roomId",
							"type": "uint256"
						},
						{
							"indexed": true,
							"internalType": "uint256",
							"name": "rentId",
							"type": "uint256"
						}
					],
					"name": "NewRent",
					"type": "event"
				},
				{
					"anonymous": false,
					"inputs": [
						{
							"indexed": true,
							"internalType": "uint256",
							"name": "roomId",
							"type": "uint256"
						}
					],
					"name": "NewRoom",
					"type": "event"
				},
				{
					"anonymous": false,
					"inputs": [
						{
							"indexed": false,
							"internalType": "address",
							"name": "sender",
							"type": "address"
						},
						{
							"indexed": false,
							"internalType": "address",
							"name": "recipient",
							"type": "address"
						},
						{
							"indexed": false,
							"internalType": "uint256",
							"name": "amount",
							"type": "uint256"
						}
					],
					"name": "Transfer",
					"type": "event"
				},
				{
					"inputs": [],
					"name": "getMyRents",
					"outputs": [
						{
							"components": [
								{
									"internalType": "uint256",
									"name": "id",
									"type": "uint256"
								},
								{
									"internalType": "uint256",
									"name": "rId",
									"type": "uint256"
								},
								{
									"internalType": "uint256",
									"name": "yearOfRent",
									"type": "uint256"
								},
								{
									"internalType": "uint256",
									"name": "checkInDate",
									"type": "uint256"
								},
								{
									"internalType": "uint256",
									"name": "checkOutDate",
									"type": "uint256"
								},
								{
									"internalType": "address",
									"name": "renter",
									"type": "address"
								}
							],
							"internalType": "struct IRoomShare.Rent[]",
							"name": "",
							"type": "tuple[]"
						}
					],
					"stateMutability": "view",
					"type": "function"
				},
				{
					"inputs": [
						{
							"internalType": "uint256",
							"name": "_roomId",
							"type": "uint256"
						}
					],
					"name": "getRoomRentHistory",
					"outputs": [
						{
							"components": [
								{
									"internalType": "uint256",
									"name": "id",
									"type": "uint256"
								},
								{
									"internalType": "uint256",
									"name": "rId",
									"type": "uint256"
								},
								{
									"internalType": "uint256",
									"name": "yearOfRent",
									"type": "uint256"
								},
								{
									"internalType": "uint256",
									"name": "checkInDate",
									"type": "uint256"
								},
								{
									"internalType": "uint256",
									"name": "checkOutDate",
									"type": "uint256"
								},
								{
									"internalType": "address",
									"name": "renter",
									"type": "address"
								}
							],
							"internalType": "struct IRoomShare.Rent[]",
							"name": "",
							"type": "tuple[]"
						}
					],
					"stateMutability": "view",
					"type": "function"
				},
				{
					"inputs": [
						{
							"internalType": "uint256",
							"name": "_roomId",
							"type": "uint256"
						}
					],
					"name": "initializeRoomShare",
					"outputs": [],
					"stateMutability": "nonpayable",
					"type": "function"
				},
				{
					"inputs": [
						{
							"internalType": "uint256",
							"name": "_roomId",
							"type": "uint256"
						}
					],
					"name": "markRoomAsInactive",
					"outputs": [],
					"stateMutability": "nonpayable",
					"type": "function"
				},
				{
					"inputs": [
						{
							"internalType": "uint256",
							"name": "_roomId",
							"type": "uint256"
						},
						{
							"internalType": "uint256",
							"name": "checkInDate",
							"type": "uint256"
						},
						{
							"internalType": "uint256",
							"name": "checkOutDate",
							"type": "uint256"
						}
					],
					"name": "recommendDate",
					"outputs": [
						{
							"internalType": "uint256[2]",
							"name": "",
							"type": "uint256[2]"
						}
					],
					"stateMutability": "view",
					"type": "function"
				},
				{
					"inputs": [
						{
							"internalType": "address",
							"name": "",
							"type": "address"
						},
						{
							"internalType": "uint256",
							"name": "",
							"type": "uint256"
						}
					],
					"name": "rentDB_renter",
					"outputs": [
						{
							"internalType": "uint256",
							"name": "id",
							"type": "uint256"
						},
						{
							"internalType": "uint256",
							"name": "rId",
							"type": "uint256"
						},
						{
							"internalType": "uint256",
							"name": "yearOfRent",
							"type": "uint256"
						},
						{
							"internalType": "uint256",
							"name": "checkInDate",
							"type": "uint256"
						},
						{
							"internalType": "uint256",
							"name": "checkOutDate",
							"type": "uint256"
						},
						{
							"internalType": "address",
							"name": "renter",
							"type": "address"
						}
					],
					"stateMutability": "view",
					"type": "function"
				},
				{
					"inputs": [
						{
							"internalType": "uint256",
							"name": "",
							"type": "uint256"
						},
						{
							"internalType": "uint256",
							"name": "",
							"type": "uint256"
						}
					],
					"name": "rentDB_room",
					"outputs": [
						{
							"internalType": "uint256",
							"name": "id",
							"type": "uint256"
						},
						{
							"internalType": "uint256",
							"name": "rId",
							"type": "uint256"
						},
						{
							"internalType": "uint256",
							"name": "yearOfRent",
							"type": "uint256"
						},
						{
							"internalType": "uint256",
							"name": "checkInDate",
							"type": "uint256"
						},
						{
							"internalType": "uint256",
							"name": "checkOutDate",
							"type": "uint256"
						},
						{
							"internalType": "address",
							"name": "renter",
							"type": "address"
						}
					],
					"stateMutability": "view",
					"type": "function"
				},
				{
					"inputs": [],
					"name": "rentId",
					"outputs": [
						{
							"internalType": "uint256",
							"name": "",
							"type": "uint256"
						}
					],
					"stateMutability": "view",
					"type": "function"
				},
				{
					"inputs": [
						{
							"internalType": "uint256",
							"name": "_roomId",
							"type": "uint256"
						},
						{
							"internalType": "uint256",
							"name": "year",
							"type": "uint256"
						},
						{
							"internalType": "uint256",
							"name": "checkInDate",
							"type": "uint256"
						},
						{
							"internalType": "uint256",
							"name": "checkOutDate",
							"type": "uint256"
						}
					],
					"name": "rentRoom",
					"outputs": [],
					"stateMutability": "payable",
					"type": "function"
				},
				{
					"inputs": [
						{
							"internalType": "uint256",
							"name": "",
							"type": "uint256"
						}
					],
					"name": "roomDB",
					"outputs": [
						{
							"internalType": "uint256",
							"name": "id",
							"type": "uint256"
						},
						{
							"internalType": "string",
							"name": "name",
							"type": "string"
						},
						{
							"internalType": "string",
							"name": "location",
							"type": "string"
						},
						{
							"internalType": "bool",
							"name": "isActive",
							"type": "bool"
						},
						{
							"internalType": "uint256",
							"name": "price",
							"type": "uint256"
						},
						{
							"internalType": "address",
							"name": "owner",
							"type": "address"
						}
					],
					"stateMutability": "view",
					"type": "function"
				},
				{
					"inputs": [],
					"name": "roomId",
					"outputs": [
						{
							"internalType": "uint256",
							"name": "",
							"type": "uint256"
						}
					],
					"stateMutability": "view",
					"type": "function"
				},
				{
					"inputs": [
						{
							"internalType": "string",
							"name": "name",
							"type": "string"
						},
						{
							"internalType": "string",
							"name": "location",
							"type": "string"
						},
						{
							"internalType": "uint256",
							"name": "price",
							"type": "uint256"
						}
					],
					"name": "shareRoom",
					"outputs": [],
					"stateMutability": "nonpayable",
					"type": "function"
				}
			],
			"devdoc": {
				"kind": "dev",
				"methods": {},
				"version": 1
			},
			"evm": {
				"assembly": "    /* \"dapp-project/RoomShare.sol\":97:5083  contract RoomShare is IRoomShare {... */\n  mstore(0x40, 0x80)\n    /* \"dapp-project/RoomShare.sol\":156:157  0 */\n  0x00\n    /* \"dapp-project/RoomShare.sol\":135:157  uint public roomId = 0 */\n  dup1\n  sstore\n    /* \"dapp-project/RoomShare.sol\":182:183  0 */\n  0x00\n    /* \"dapp-project/RoomShare.sol\":161:183  uint public rentId = 0 */\n  0x01\n  sstore\n    /* \"dapp-project/RoomShare.sol\":97:5083  contract RoomShare is IRoomShare {... */\n  callvalue\n  dup1\n  iszero\n  tag_1\n  jumpi\n  0x00\n  dup1\n  revert\ntag_1:\n  pop\n  dataSize(sub_0)\n  dup1\n  dataOffset(sub_0)\n  0x00\n  codecopy\n  0x00\n  return\nstop\n\nsub_0: assembly {\n        /* \"dapp-project/RoomShare.sol\":97:5083  contract RoomShare is IRoomShare {... */\n      mstore(0x40, 0x80)\n      jumpi(tag_1, lt(calldatasize, 0x04))\n      shr(0xe0, calldataload(0x00))\n      dup1\n      0x835e5daf\n      gt\n      tag_14\n      jumpi\n      dup1\n      0x835e5daf\n      eq\n      tag_8\n      jumpi\n      dup1\n      0x85bfa356\n      eq\n      tag_9\n      jumpi\n      dup1\n      0x8c694034\n      eq\n      tag_10\n      jumpi\n      dup1\n      0xa165c0ba\n      eq\n      tag_11\n      jumpi\n      dup1\n      0xf954d0d9\n      eq\n      tag_12\n      jumpi\n      dup1\n      0xfacedf68\n      eq\n      tag_13\n      jumpi\n      jump(tag_1)\n    tag_14:\n      dup1\n      0x39b0dbed\n      eq\n      tag_2\n      jumpi\n      dup1\n      0x43064aa4\n      eq\n      tag_3\n      jumpi\n      dup1\n      0x6d4d8c28\n      eq\n      tag_4\n      jumpi\n      dup1\n      0x6decd419\n      eq\n      tag_5\n      jumpi\n      dup1\n      0x7b319135\n      eq\n      tag_6\n      jumpi\n      dup1\n      0x7dd9c1b2\n      eq\n      tag_7\n      jumpi\n    tag_1:\n      0x00\n      dup1\n      revert\n        /* \"dapp-project/RoomShare.sol\":187:222  mapping(uint => Room) public roomDB */\n    tag_2:\n      callvalue\n      dup1\n      iszero\n      tag_15\n      jumpi\n      0x00\n      dup1\n      revert\n    tag_15:\n      pop\n      tag_16\n      0x04\n      dup1\n      calldatasize\n      sub\n      dup2\n      add\n      swap1\n      tag_17\n      swap2\n      swap1\n      tag_18\n      jump\t// in\n    tag_17:\n      tag_19\n      jump\t// in\n    tag_16:\n      mload(0x40)\n      tag_20\n      swap7\n      swap6\n      swap5\n      swap4\n      swap3\n      swap2\n      swap1\n      tag_21\n      jump\t// in\n    tag_20:\n      mload(0x40)\n      dup1\n      swap2\n      sub\n      swap1\n      return\n        /* \"dapp-project/RoomShare.sol\":3458:4322  function recommendDate(uint _roomId, uint checkInDate, uint checkOutDate) external view returns(uint[2] memory) {... */\n    tag_3:\n      callvalue\n      dup1\n      iszero\n      tag_22\n      jumpi\n      0x00\n      dup1\n      revert\n    tag_22:\n      pop\n      tag_23\n      0x04\n      dup1\n      calldatasize\n      sub\n      dup2\n      add\n      swap1\n      tag_24\n      swap2\n      swap1\n      tag_25\n      jump\t// in\n    tag_24:\n      tag_26\n      jump\t// in\n    tag_23:\n      mload(0x40)\n      tag_27\n      swap2\n      swap1\n      tag_28\n      jump\t// in\n    tag_27:\n      mload(0x40)\n      dup1\n      swap2\n      sub\n      swap1\n      return\n        /* \"dapp-project/RoomShare.sol\":4441:4659  function markRoomAsInactive(uint256 _roomId) external {... */\n    tag_4:\n      callvalue\n      dup1\n      iszero\n      tag_29\n      jumpi\n      0x00\n      dup1\n      revert\n    tag_29:\n      pop\n      tag_30\n      0x04\n      dup1\n      calldatasize\n      sub\n      dup2\n      add\n      swap1\n      tag_31\n      swap2\n      swap1\n      tag_18\n      jump\t// in\n    tag_31:\n      tag_32\n      jump\t// in\n    tag_30:\n      stop\n        /* \"dapp-project/RoomShare.sol\":161:183  uint public rentId = 0 */\n    tag_5:\n      callvalue\n      dup1\n      iszero\n      tag_33\n      jumpi\n      0x00\n      dup1\n      revert\n    tag_33:\n      pop\n      tag_34\n      tag_35\n      jump\t// in\n    tag_34:\n      mload(0x40)\n      tag_36\n      swap2\n      swap1\n      tag_37\n      jump\t// in\n    tag_36:\n      mload(0x40)\n      dup1\n      swap2\n      sub\n      swap1\n      return\n        /* \"dapp-project/RoomShare.sol\":777:1317  function shareRoom( string calldata name, ... */\n    tag_6:\n      callvalue\n      dup1\n      iszero\n      tag_38\n      jumpi\n      0x00\n      dup1\n      revert\n    tag_38:\n      pop\n      tag_39\n      0x04\n      dup1\n      calldatasize\n      sub\n      dup2\n      add\n      swap1\n      tag_40\n      swap2\n      swap1\n      tag_41\n      jump\t// in\n    tag_40:\n      tag_42\n      jump\t// in\n    tag_39:\n      stop\n        /* \"dapp-project/RoomShare.sol\":328:375  mapping(address => Rent[]) public rentDB_renter */\n    tag_7:\n      callvalue\n      dup1\n      iszero\n      tag_43\n      jumpi\n      0x00\n      dup1\n      revert\n    tag_43:\n      pop\n      tag_44\n      0x04\n      dup1\n      calldatasize\n      sub\n      dup2\n      add\n      swap1\n      tag_45\n      swap2\n      swap1\n      tag_46\n      jump\t// in\n    tag_45:\n      tag_47\n      jump\t// in\n    tag_44:\n      mload(0x40)\n      tag_48\n      swap7\n      swap6\n      swap5\n      swap4\n      swap3\n      swap2\n      swap1\n      tag_49\n      jump\t// in\n    tag_48:\n      mload(0x40)\n      dup1\n      swap2\n      sub\n      swap1\n      return\n        /* \"dapp-project/RoomShare.sol\":248:290  mapping(uint => Rent[]) public rentDB_room */\n    tag_8:\n      callvalue\n      dup1\n      iszero\n      tag_50\n      jumpi\n      0x00\n      dup1\n      revert\n    tag_50:\n      pop\n      tag_51\n      0x04\n      dup1\n      calldatasize\n      sub\n      dup2\n      add\n      swap1\n      tag_52\n      swap2\n      swap1\n      tag_53\n      jump\t// in\n    tag_52:\n      tag_54\n      jump\t// in\n    tag_51:\n      mload(0x40)\n      tag_55\n      swap7\n      swap6\n      swap5\n      swap4\n      swap3\n      swap2\n      swap1\n      tag_49\n      jump\t// in\n    tag_55:\n      mload(0x40)\n      dup1\n      swap2\n      sub\n      swap1\n      return\n        /* \"dapp-project/RoomShare.sol\":417:590  function getMyRents() external view returns(Rent[] memory) {... */\n    tag_9:\n      callvalue\n      dup1\n      iszero\n      tag_56\n      jumpi\n      0x00\n      dup1\n      revert\n    tag_56:\n      pop\n      tag_57\n      tag_58\n      jump\t// in\n    tag_57:\n      mload(0x40)\n      tag_59\n      swap2\n      swap1\n      tag_60\n      jump\t// in\n    tag_59:\n      mload(0x40)\n      dup1\n      swap2\n      sub\n      swap1\n      return\n        /* \"dapp-project/RoomShare.sol\":594:773  function getRoomRentHistory(uint _roomId) external view  returns(Rent[] memory) {... */\n    tag_10:\n      callvalue\n      dup1\n      iszero\n      tag_61\n      jumpi\n      0x00\n      dup1\n      revert\n    tag_61:\n      pop\n      tag_62\n      0x04\n      dup1\n      calldatasize\n      sub\n      dup2\n      add\n      swap1\n      tag_63\n      swap2\n      swap1\n      tag_18\n      jump\t// in\n    tag_63:\n      tag_64\n      jump\t// in\n    tag_62:\n      mload(0x40)\n      tag_65\n      swap2\n      swap1\n      tag_60\n      jump\t// in\n    tag_65:\n      mload(0x40)\n      dup1\n      swap2\n      sub\n      swap1\n      return\n        /* \"dapp-project/RoomShare.sol\":1321:2523  function rentRoom(uint _roomId, uint year, uint checkInDate, uint checkOutDate) payable external {... */\n    tag_11:\n      tag_66\n      0x04\n      dup1\n      calldatasize\n      sub\n      dup2\n      add\n      swap1\n      tag_67\n      swap2\n      swap1\n      tag_68\n      jump\t// in\n    tag_67:\n      tag_69\n      jump\t// in\n    tag_66:\n      stop\n        /* \"dapp-project/RoomShare.sol\":135:157  uint public roomId = 0 */\n    tag_12:\n      callvalue\n      dup1\n      iszero\n      tag_70\n      jumpi\n      0x00\n      dup1\n      revert\n    tag_70:\n      pop\n      tag_71\n      tag_72\n      jump\t// in\n    tag_71:\n      mload(0x40)\n      tag_73\n      swap2\n      swap1\n      tag_37\n      jump\t// in\n    tag_73:\n      mload(0x40)\n      dup1\n      swap2\n      sub\n      swap1\n      return\n        /* \"dapp-project/RoomShare.sol\":4791:5080  function initializeRoomShare(uint _roomId) external {... */\n    tag_13:\n      callvalue\n      dup1\n      iszero\n      tag_74\n      jumpi\n      0x00\n      dup1\n      revert\n    tag_74:\n      pop\n      tag_75\n      0x04\n      dup1\n      calldatasize\n      sub\n      dup2\n      add\n      swap1\n      tag_76\n      swap2\n      swap1\n      tag_18\n      jump\t// in\n    tag_76:\n      tag_77\n      jump\t// in\n    tag_75:\n      stop\n        /* \"dapp-project/RoomShare.sol\":187:222  mapping(uint => Room) public roomDB */\n    tag_19:\n      mstore(0x20, 0x02)\n      dup1\n      0x00\n      mstore\n      keccak256(0x00, 0x40)\n      0x00\n      swap2\n      pop\n      swap1\n      pop\n      dup1\n      0x00\n      add\n      sload\n      swap1\n      dup1\n      0x01\n      add\n      dup1\n      sload\n      tag_78\n      swap1\n      tag_79\n      jump\t// in\n    tag_78:\n      dup1\n      0x1f\n      add\n      0x20\n      dup1\n      swap2\n      div\n      mul\n      0x20\n      add\n      mload(0x40)\n      swap1\n      dup2\n      add\n      0x40\n      mstore\n      dup1\n      swap3\n      swap2\n      swap1\n      dup2\n      dup2\n      mstore\n      0x20\n      add\n      dup3\n      dup1\n      sload\n      tag_80\n      swap1\n      tag_79\n      jump\t// in\n    tag_80:\n      dup1\n      iszero\n      tag_81\n      jumpi\n      dup1\n      0x1f\n      lt\n      tag_82\n      jumpi\n      0x0100\n      dup1\n      dup4\n      sload\n      div\n      mul\n      dup4\n      mstore\n      swap2\n      0x20\n      add\n      swap2\n      jump(tag_81)\n    tag_82:\n      dup3\n      add\n      swap2\n      swap1\n      0x00\n      mstore\n      keccak256(0x00, 0x20)\n      swap1\n    tag_83:\n      dup2\n      sload\n      dup2\n      mstore\n      swap1\n      0x01\n      add\n      swap1\n      0x20\n      add\n      dup1\n      dup4\n      gt\n      tag_83\n      jumpi\n      dup3\n      swap1\n      sub\n      0x1f\n      and\n      dup3\n      add\n      swap2\n    tag_81:\n      pop\n      pop\n      pop\n      pop\n      pop\n      swap1\n      dup1\n      0x02\n      add\n      dup1\n      sload\n      tag_84\n      swap1\n      tag_79\n      jump\t// in\n    tag_84:\n      dup1\n      0x1f\n      add\n      0x20\n      dup1\n      swap2\n      div\n      mul\n      0x20\n      add\n      mload(0x40)\n      swap1\n      dup2\n      add\n      0x40\n      mstore\n      dup1\n      swap3\n      swap2\n      swap1\n      dup2\n      dup2\n      mstore\n      0x20\n      add\n      dup3\n      dup1\n      sload\n      tag_85\n      swap1\n      tag_79\n      jump\t// in\n    tag_85:\n      dup1\n      iszero\n      tag_86\n      jumpi\n      dup1\n      0x1f\n      lt\n      tag_87\n      jumpi\n      0x0100\n      dup1\n      dup4\n      sload\n      div\n      mul\n      dup4\n      mstore\n      swap2\n      0x20\n      add\n      swap2\n      jump(tag_86)\n    tag_87:\n      dup3\n      add\n      swap2\n      swap1\n      0x00\n      mstore\n      keccak256(0x00, 0x20)\n      swap1\n    tag_88:\n      dup2\n      sload\n      dup2\n      mstore\n      swap1\n      0x01\n      add\n      swap1\n      0x20\n      add\n      dup1\n      dup4\n      gt\n      tag_88\n      jumpi\n      dup3\n      swap1\n      sub\n      0x1f\n      and\n      dup3\n      add\n      swap2\n    tag_86:\n      pop\n      pop\n      pop\n      pop\n      pop\n      swap1\n      dup1\n      0x03\n      add\n      0x00\n      swap1\n      sload\n      swap1\n      0x0100\n      exp\n      swap1\n      div\n      0xff\n      and\n      swap1\n      dup1\n      0x04\n      add\n      sload\n      swap1\n      dup1\n      0x05\n      add\n      0x00\n      swap1\n      sload\n      swap1\n      0x0100\n      exp\n      swap1\n      div\n      0xffffffffffffffffffffffffffffffffffffffff\n      and\n      swap1\n      pop\n      dup7\n      jump\t// out\n        /* \"dapp-project/RoomShare.sol\":3458:4322  function recommendDate(uint _roomId, uint checkInDate, uint checkOutDate) external view returns(uint[2] memory) {... */\n    tag_26:\n        /* \"dapp-project/RoomShare.sol\":3554:3568  uint[2] memory */\n      tag_89\n      tag_90\n      jump\t// in\n    tag_89:\n        /* \"dapp-project/RoomShare.sol\":3915:3931  Room memory room */\n      0x00\n        /* \"dapp-project/RoomShare.sol\":3934:3940  roomDB */\n      0x02\n        /* \"dapp-project/RoomShare.sol\":3934:3949  roomDB[_roomId] */\n      0x00\n        /* \"dapp-project/RoomShare.sol\":3941:3948  _roomId */\n      dup7\n        /* \"dapp-project/RoomShare.sol\":3934:3949  roomDB[_roomId] */\n      dup2\n      mstore\n      0x20\n      add\n      swap1\n      dup2\n      mstore\n      0x20\n      add\n      0x00\n      keccak256\n        /* \"dapp-project/RoomShare.sol\":3915:3949  Room memory room = roomDB[_roomId] */\n      mload(0x40)\n      dup1\n      0xe0\n      add\n      0x40\n      mstore\n      swap1\n      dup2\n      0x00\n      dup3\n      add\n      sload\n      dup2\n      mstore\n      0x20\n      add\n      0x01\n      dup3\n      add\n      dup1\n      sload\n      tag_92\n      swap1\n      tag_79\n      jump\t// in\n    tag_92:\n      dup1\n      0x1f\n      add\n      0x20\n      dup1\n      swap2\n      div\n      mul\n      0x20\n      add\n      mload(0x40)\n      swap1\n      dup2\n      add\n      0x40\n      mstore\n      dup1\n      swap3\n      swap2\n      swap1\n      dup2\n      dup2\n      mstore\n      0x20\n      add\n      dup3\n      dup1\n      sload\n      tag_93\n      swap1\n      tag_79\n      jump\t// in\n    tag_93:\n      dup1\n      iszero\n      tag_94\n      jumpi\n      dup1\n      0x1f\n      lt\n      tag_95\n      jumpi\n      0x0100\n      dup1\n      dup4\n      sload\n      div\n      mul\n      dup4\n      mstore\n      swap2\n      0x20\n      add\n      swap2\n      jump(tag_94)\n    tag_95:\n      dup3\n      add\n      swap2\n      swap1\n      0x00\n      mstore\n      keccak256(0x00, 0x20)\n      swap1\n    tag_96:\n      dup2\n      sload\n      dup2\n      mstore\n      swap1\n      0x01\n      add\n      swap1\n      0x20\n      add\n      dup1\n      dup4\n      gt\n      tag_96\n      jumpi\n      dup3\n      swap1\n      sub\n      0x1f\n      and\n      dup3\n      add\n      swap2\n    tag_94:\n      pop\n      pop\n      pop\n      pop\n      pop\n      dup2\n      mstore\n      0x20\n      add\n      0x02\n      dup3\n      add\n      dup1\n      sload\n      tag_97\n      swap1\n      tag_79\n      jump\t// in\n    tag_97:\n      dup1\n      0x1f\n      add\n      0x20\n      dup1\n      swap2\n      div\n      mul\n      0x20\n      add\n      mload(0x40)\n      swap1\n      dup2\n      add\n      0x40\n      mstore\n      dup1\n      swap3\n      swap2\n      swap1\n      dup2\n      dup2\n      mstore\n      0x20\n      add\n      dup3\n      dup1\n      sload\n      tag_98\n      swap1\n      tag_79\n      jump\t// in\n    tag_98:\n      dup1\n      iszero\n      tag_99\n      jumpi\n      dup1\n      0x1f\n      lt\n      tag_100\n      jumpi\n      0x0100\n      dup1\n      dup4\n      sload\n      div\n      mul\n      dup4\n      mstore\n      swap2\n      0x20\n      add\n      swap2\n      jump(tag_99)\n    tag_100:\n      dup3\n      add\n      swap2\n      swap1\n      0x00\n      mstore\n      keccak256(0x00, 0x20)\n      swap1\n    tag_101:\n      dup2\n      sload\n      dup2\n      mstore\n      swap1\n      0x01\n      add\n      swap1\n      0x20\n      add\n      dup1\n      dup4\n      gt\n      tag_101\n      jumpi\n      dup3\n      swap1\n      sub\n      0x1f\n      and\n      dup3\n      add\n      swap2\n    tag_99:\n      pop\n      pop\n      pop\n      pop\n      pop\n      dup2\n      mstore\n      0x20\n      add\n      0x03\n      dup3\n      add\n      0x00\n      swap1\n      sload\n      swap1\n      0x0100\n      exp\n      swap1\n      div\n      0xff\n      and\n      iszero\n      iszero\n      iszero\n      iszero\n      dup2\n      mstore\n      0x20\n      add\n      0x04\n      dup3\n      add\n      sload\n      dup2\n      mstore\n      0x20\n      add\n      0x05\n      dup3\n      add\n      0x00\n      swap1\n      sload\n      swap1\n      0x0100\n      exp\n      swap1\n      div\n      0xffffffffffffffffffffffffffffffffffffffff\n      and\n      0xffffffffffffffffffffffffffffffffffffffff\n      and\n      0xffffffffffffffffffffffffffffffffffffffff\n      and\n      dup2\n      mstore\n      0x20\n      add\n      0x06\n      dup3\n      add\n      dup1\n      sload\n      dup1\n      0x20\n      mul\n      0x20\n      add\n      mload(0x40)\n      swap1\n      dup2\n      add\n      0x40\n      mstore\n      dup1\n      swap3\n      swap2\n      swap1\n      dup2\n      dup2\n      mstore\n      0x20\n      add\n      dup3\n      dup1\n      sload\n      dup1\n      iszero\n      tag_102\n      jumpi\n      0x20\n      mul\n      dup3\n      add\n      swap2\n      swap1\n      0x00\n      mstore\n      keccak256(0x00, 0x20)\n      swap1\n      0x00\n      swap1\n    tag_103:\n      dup3\n      dup3\n      swap1\n      sload\n      swap1\n      0x0100\n      exp\n      swap1\n      div\n      0xff\n      and\n      iszero\n      iszero\n      dup2\n      mstore\n      0x20\n      add\n      swap1\n      0x01\n      add\n      swap1\n      0x20\n      dup3\n      0x00\n      add\n      div\n      swap3\n      dup4\n      add\n      swap3\n      0x01\n      sub\n      dup3\n      mul\n      swap2\n      pop\n      dup1\n      dup5\n      gt\n      tag_103\n      jumpi\n      swap1\n      pop\n    tag_102:\n      pop\n      pop\n      pop\n      pop\n      pop\n      dup2\n      mstore\n      pop\n      pop\n      swap1\n      pop\n        /* \"dapp-project/RoomShare.sol\":3955:3982  uint[2] memory reservedDate */\n      tag_104\n      tag_90\n      jump\t// in\n    tag_104:\n        /* \"dapp-project/RoomShare.sol\":3994:4000  uint i */\n      0x00\n        /* \"dapp-project/RoomShare.sol\":4003:4014  checkInDate */\n      dup6\n        /* \"dapp-project/RoomShare.sol\":3994:4014  uint i = checkInDate */\n      swap1\n      pop\n        /* \"dapp-project/RoomShare.sol\":3989:4134  for (uint i = checkInDate; i < checkOutDate; i++){... */\n    tag_105:\n        /* \"dapp-project/RoomShare.sol\":4020:4032  checkOutDate */\n      dup5\n        /* \"dapp-project/RoomShare.sol\":4016:4017  i */\n      dup2\n        /* \"dapp-project/RoomShare.sol\":4016:4032  i < checkOutDate */\n      lt\n        /* \"dapp-project/RoomShare.sol\":3989:4134  for (uint i = checkInDate; i < checkOutDate; i++){... */\n      iszero\n      tag_106\n      jumpi\n        /* \"dapp-project/RoomShare.sol\":4070:4074  true */\n      0x01\n        /* \"dapp-project/RoomShare.sol\":4050:4074  room.isRented[i] == true */\n      iszero\n      iszero\n        /* \"dapp-project/RoomShare.sol\":4050:4054  room */\n      dup4\n        /* \"dapp-project/RoomShare.sol\":4050:4063  room.isRented */\n      0xc0\n      add\n      mload\n        /* \"dapp-project/RoomShare.sol\":4064:4065  i */\n      dup3\n        /* \"dapp-project/RoomShare.sol\":4050:4066  room.isRented[i] */\n      dup2\n      mload\n      dup2\n      lt\n      tag_108\n      jumpi\n      tag_109\n      tag_110\n      jump\t// in\n    tag_109:\n    tag_108:\n      0x20\n      mul\n      0x20\n      add\n      add\n      mload\n        /* \"dapp-project/RoomShare.sol\":4050:4074  room.isRented[i] == true */\n      iszero\n      iszero\n      sub\n        /* \"dapp-project/RoomShare.sol\":4046:4128  if (room.isRented[i] == true){... */\n      tag_111\n      jumpi\n        /* \"dapp-project/RoomShare.sol\":4103:4104  i */\n      dup1\n        /* \"dapp-project/RoomShare.sol\":4085:4097  reservedDate */\n      dup3\n        /* \"dapp-project/RoomShare.sol\":4098:4099  0 */\n      0x00\n        /* \"dapp-project/RoomShare.sol\":4085:4100  reservedDate[0] */\n      0x02\n      dup2\n      lt\n      tag_112\n      jumpi\n      tag_113\n      tag_110\n      jump\t// in\n    tag_113:\n    tag_112:\n      0x20\n      mul\n      add\n        /* \"dapp-project/RoomShare.sol\":4085:4104  reservedDate[0] = i */\n      dup2\n      dup2\n      mstore\n      pop\n      pop\n        /* \"dapp-project/RoomShare.sol\":4114:4119  break */\n      jump(tag_106)\n        /* \"dapp-project/RoomShare.sol\":4046:4128  if (room.isRented[i] == true){... */\n    tag_111:\n        /* \"dapp-project/RoomShare.sol\":4034:4037  i++ */\n      dup1\n      dup1\n      tag_114\n      swap1\n      tag_115\n      jump\t// in\n    tag_114:\n      swap2\n      pop\n      pop\n        /* \"dapp-project/RoomShare.sol\":3989:4134  for (uint i = checkInDate; i < checkOutDate; i++){... */\n      jump(tag_105)\n    tag_106:\n      pop\n        /* \"dapp-project/RoomShare.sol\":4144:4150  uint i */\n      0x00\n        /* \"dapp-project/RoomShare.sol\":4153:4165  reservedDate */\n      dup2\n        /* \"dapp-project/RoomShare.sol\":4166:4167  0 */\n      0x00\n        /* \"dapp-project/RoomShare.sol\":4153:4168  reservedDate[0] */\n      0x02\n      dup2\n      lt\n      tag_119\n      jumpi\n      tag_120\n      tag_110\n      jump\t// in\n    tag_120:\n    tag_119:\n      0x20\n      mul\n      add\n      mload\n        /* \"dapp-project/RoomShare.sol\":4144:4168  uint i = reservedDate[0] */\n      swap1\n      pop\n        /* \"dapp-project/RoomShare.sol\":4139:4292  for (uint i = reservedDate[0]; i <= checkOutDate; i++){... */\n    tag_116:\n        /* \"dapp-project/RoomShare.sol\":4175:4187  checkOutDate */\n      dup5\n        /* \"dapp-project/RoomShare.sol\":4170:4171  i */\n      dup2\n        /* \"dapp-project/RoomShare.sol\":4170:4187  i <= checkOutDate */\n      gt\n        /* \"dapp-project/RoomShare.sol\":4139:4292  for (uint i = reservedDate[0]; i <= checkOutDate; i++){... */\n      tag_117\n      jumpi\n        /* \"dapp-project/RoomShare.sol\":4225:4230  false */\n      0x00\n        /* \"dapp-project/RoomShare.sol\":4205:4230  room.isRented[i] == false */\n      iszero\n      iszero\n        /* \"dapp-project/RoomShare.sol\":4205:4209  room */\n      dup4\n        /* \"dapp-project/RoomShare.sol\":4205:4218  room.isRented */\n      0xc0\n      add\n      mload\n        /* \"dapp-project/RoomShare.sol\":4219:4220  i */\n      dup3\n        /* \"dapp-project/RoomShare.sol\":4205:4221  room.isRented[i] */\n      dup2\n      mload\n      dup2\n      lt\n      tag_121\n      jumpi\n      tag_122\n      tag_110\n      jump\t// in\n    tag_122:\n    tag_121:\n      0x20\n      mul\n      0x20\n      add\n      add\n      mload\n        /* \"dapp-project/RoomShare.sol\":4205:4230  room.isRented[i] == false */\n      iszero\n      iszero\n      sub\n        /* \"dapp-project/RoomShare.sol\":4201:4286  if (room.isRented[i] == false){... */\n      tag_123\n      jumpi\n        /* \"dapp-project/RoomShare.sol\":4261:4262  1 */\n      0x01\n        /* \"dapp-project/RoomShare.sol\":4259:4260  i */\n      dup2\n        /* \"dapp-project/RoomShare.sol\":4259:4262  i-1 */\n      tag_124\n      swap2\n      swap1\n      tag_125\n      jump\t// in\n    tag_124:\n        /* \"dapp-project/RoomShare.sol\":4241:4253  reservedDate */\n      dup3\n        /* \"dapp-project/RoomShare.sol\":4254:4255  1 */\n      0x01\n        /* \"dapp-project/RoomShare.sol\":4241:4256  reservedDate[1] */\n      0x02\n      dup2\n      lt\n      tag_126\n      jumpi\n      tag_127\n      tag_110\n      jump\t// in\n    tag_127:\n    tag_126:\n      0x20\n      mul\n      add\n        /* \"dapp-project/RoomShare.sol\":4241:4262  reservedDate[1] = i-1 */\n      dup2\n      dup2\n      mstore\n      pop\n      pop\n        /* \"dapp-project/RoomShare.sol\":4272:4277  break */\n      jump(tag_117)\n        /* \"dapp-project/RoomShare.sol\":4201:4286  if (room.isRented[i] == false){... */\n    tag_123:\n        /* \"dapp-project/RoomShare.sol\":4189:4192  i++ */\n      dup1\n      dup1\n      tag_128\n      swap1\n      tag_115\n      jump\t// in\n    tag_128:\n      swap2\n      pop\n      pop\n        /* \"dapp-project/RoomShare.sol\":4139:4292  for (uint i = reservedDate[0]; i <= checkOutDate; i++){... */\n      jump(tag_116)\n    tag_117:\n      pop\n        /* \"dapp-project/RoomShare.sol\":4305:4317  reservedDate */\n      dup1\n        /* \"dapp-project/RoomShare.sol\":4298:4317  return reservedDate */\n      swap3\n      pop\n      pop\n      pop\n        /* \"dapp-project/RoomShare.sol\":3458:4322  function recommendDate(uint _roomId, uint checkInDate, uint checkOutDate) external view returns(uint[2] memory) {... */\n      swap4\n      swap3\n      pop\n      pop\n      pop\n      jump\t// out\n        /* \"dapp-project/RoomShare.sol\":4441:4659  function markRoomAsInactive(uint256 _roomId) external {... */\n    tag_32:\n        /* \"dapp-project/RoomShare.sol\":4501:4518  Room storage room */\n      0x00\n        /* \"dapp-project/RoomShare.sol\":4521:4527  roomDB */\n      0x02\n        /* \"dapp-project/RoomShare.sol\":4521:4536  roomDB[_roomId] */\n      0x00\n        /* \"dapp-project/RoomShare.sol\":4528:4535  _roomId */\n      dup4\n        /* \"dapp-project/RoomShare.sol\":4521:4536  roomDB[_roomId] */\n      dup2\n      mstore\n      0x20\n      add\n      swap1\n      dup2\n      mstore\n      0x20\n      add\n      0x00\n      keccak256\n        /* \"dapp-project/RoomShare.sol\":4501:4536  Room storage room = roomDB[_roomId] */\n      swap1\n      pop\n        /* \"dapp-project/RoomShare.sol\":4595:4605  msg.sender */\n      caller\n        /* \"dapp-project/RoomShare.sol\":4581:4605  room.owner == msg.sender */\n      0xffffffffffffffffffffffffffffffffffffffff\n      and\n        /* \"dapp-project/RoomShare.sol\":4581:4585  room */\n      dup2\n        /* \"dapp-project/RoomShare.sol\":4581:4591  room.owner */\n      0x05\n      add\n      0x00\n      swap1\n      sload\n      swap1\n      0x0100\n      exp\n      swap1\n      div\n      0xffffffffffffffffffffffffffffffffffffffff\n      and\n        /* \"dapp-project/RoomShare.sol\":4581:4605  room.owner == msg.sender */\n      0xffffffffffffffffffffffffffffffffffffffff\n      and\n      eq\n        /* \"dapp-project/RoomShare.sol\":4573:4627  require(room.owner == msg.sender, \"Not owner of room\") */\n      tag_130\n      jumpi\n      mload(0x40)\n      0x08c379a000000000000000000000000000000000000000000000000000000000\n      dup2\n      mstore\n      0x04\n      add\n      tag_131\n      swap1\n      tag_132\n      jump\t// in\n    tag_131:\n      mload(0x40)\n      dup1\n      swap2\n      sub\n      swap1\n      revert\n    tag_130:\n        /* \"dapp-project/RoomShare.sol\":4649:4654  false */\n      0x00\n        /* \"dapp-project/RoomShare.sol\":4633:4637  room */\n      dup2\n        /* \"dapp-project/RoomShare.sol\":4633:4646  room.isActive */\n      0x03\n      add\n      0x00\n        /* \"dapp-project/RoomShare.sol\":4633:4654  room.isActive = false */\n      0x0100\n      exp\n      dup2\n      sload\n      dup2\n      0xff\n      mul\n      not\n      and\n      swap1\n      dup4\n      iszero\n      iszero\n      mul\n      or\n      swap1\n      sstore\n      pop\n        /* \"dapp-project/RoomShare.sol\":4495:4659  {... */\n      pop\n        /* \"dapp-project/RoomShare.sol\":4441:4659  function markRoomAsInactive(uint256 _roomId) external {... */\n      pop\n      jump\t// out\n        /* \"dapp-project/RoomShare.sol\":161:183  uint public rentId = 0 */\n    tag_35:\n      sload(0x01)\n      dup2\n      jump\t// out\n        /* \"dapp-project/RoomShare.sol\":777:1317  function shareRoom( string calldata name, ... */\n    tag_42:\n        /* \"dapp-project/RoomShare.sol\":1162:1178  Room memory room */\n      0x00\n        /* \"dapp-project/RoomShare.sol\":1181:1251  Room(roomId, name, location, true, price, msg.sender, new bool[](365)) */\n      mload(0x40)\n      dup1\n      0xe0\n      add\n      0x40\n      mstore\n      dup1\n        /* \"dapp-project/RoomShare.sol\":1186:1192  roomId */\n      sload(0x00)\n        /* \"dapp-project/RoomShare.sol\":1181:1251  Room(roomId, name, location, true, price, msg.sender, new bool[](365)) */\n      dup2\n      mstore\n      0x20\n      add\n        /* \"dapp-project/RoomShare.sol\":1194:1198  name */\n      dup8\n      dup8\n        /* \"dapp-project/RoomShare.sol\":1181:1251  Room(roomId, name, location, true, price, msg.sender, new bool[](365)) */\n      dup1\n      dup1\n      0x1f\n      add\n      0x20\n      dup1\n      swap2\n      div\n      mul\n      0x20\n      add\n      mload(0x40)\n      swap1\n      dup2\n      add\n      0x40\n      mstore\n      dup1\n      swap4\n      swap3\n      swap2\n      swap1\n      dup2\n      dup2\n      mstore\n      0x20\n      add\n      dup4\n      dup4\n      dup1\n      dup3\n      dup5\n      calldatacopy\n      0x00\n      dup2\n      dup5\n      add\n      mstore\n      not(0x1f)\n      0x1f\n      dup3\n      add\n      and\n      swap1\n      pop\n      dup1\n      dup4\n      add\n      swap3\n      pop\n      pop\n      pop\n      pop\n      pop\n      pop\n      pop\n      dup2\n      mstore\n      0x20\n      add\n        /* \"dapp-project/RoomShare.sol\":1200:1208  location */\n      dup6\n      dup6\n        /* \"dapp-project/RoomShare.sol\":1181:1251  Room(roomId, name, location, true, price, msg.sender, new bool[](365)) */\n      dup1\n      dup1\n      0x1f\n      add\n      0x20\n      dup1\n      swap2\n      div\n      mul\n      0x20\n      add\n      mload(0x40)\n      swap1\n      dup2\n      add\n      0x40\n      mstore\n      dup1\n      swap4\n      swap3\n      swap2\n      swap1\n      dup2\n      dup2\n      mstore\n      0x20\n      add\n      dup4\n      dup4\n      dup1\n      dup3\n      dup5\n      calldatacopy\n      0x00\n      dup2\n      dup5\n      add\n      mstore\n      not(0x1f)\n      0x1f\n      dup3\n      add\n      and\n      swap1\n      pop\n      dup1\n      dup4\n      add\n      swap3\n      pop\n      pop\n      pop\n      pop\n      pop\n      pop\n      pop\n      dup2\n      mstore\n      0x20\n      add\n        /* \"dapp-project/RoomShare.sol\":1210:1214  true */\n      0x01\n        /* \"dapp-project/RoomShare.sol\":1181:1251  Room(roomId, name, location, true, price, msg.sender, new bool[](365)) */\n      iszero\n      iszero\n      dup2\n      mstore\n      0x20\n      add\n        /* \"dapp-project/RoomShare.sol\":1216:1221  price */\n      dup4\n        /* \"dapp-project/RoomShare.sol\":1181:1251  Room(roomId, name, location, true, price, msg.sender, new bool[](365)) */\n      dup2\n      mstore\n      0x20\n      add\n        /* \"dapp-project/RoomShare.sol\":1223:1233  msg.sender */\n      caller\n        /* \"dapp-project/RoomShare.sol\":1181:1251  Room(roomId, name, location, true, price, msg.sender, new bool[](365)) */\n      0xffffffffffffffffffffffffffffffffffffffff\n      and\n      dup2\n      mstore\n      0x20\n      add\n        /* \"dapp-project/RoomShare.sol\":1246:1249  365 */\n      0x016d\n        /* \"dapp-project/RoomShare.sol\":1235:1250  new bool[](365) */\n      0xffffffffffffffff\n      dup2\n      gt\n      iszero\n      tag_134\n      jumpi\n      tag_135\n      tag_136\n      jump\t// in\n    tag_135:\n    tag_134:\n      mload(0x40)\n      swap1\n      dup1\n      dup3\n      mstore\n      dup1\n      0x20\n      mul\n      0x20\n      add\n      dup3\n      add\n      0x40\n      mstore\n      dup1\n      iszero\n      tag_137\n      jumpi\n      dup2\n      0x20\n      add\n      0x20\n      dup3\n      mul\n      dup1\n      calldatasize\n      dup4\n      calldatacopy\n      dup1\n      dup3\n      add\n      swap2\n      pop\n      pop\n      swap1\n      pop\n    tag_137:\n      pop\n        /* \"dapp-project/RoomShare.sol\":1181:1251  Room(roomId, name, location, true, price, msg.sender, new bool[](365)) */\n      dup2\n      mstore\n      pop\n        /* \"dapp-project/RoomShare.sol\":1162:1251  Room memory room = Room(roomId, name, location, true, price, msg.sender, new bool[](365)) */\n      swap1\n      pop\n        /* \"dapp-project/RoomShare.sol\":1279:1283  room */\n      dup1\n        /* \"dapp-project/RoomShare.sol\":1262:1268  roomDB */\n      0x02\n        /* \"dapp-project/RoomShare.sol\":1262:1276  roomDB[roomId] */\n      0x00\n        /* \"dapp-project/RoomShare.sol\":1269:1275  roomId */\n      dup1\n      sload\n        /* \"dapp-project/RoomShare.sol\":1262:1276  roomDB[roomId] */\n      dup2\n      mstore\n      0x20\n      add\n      swap1\n      dup2\n      mstore\n      0x20\n      add\n      0x00\n      keccak256\n        /* \"dapp-project/RoomShare.sol\":1262:1283  roomDB[roomId] = room */\n      0x00\n      dup3\n      add\n      mload\n      dup2\n      0x00\n      add\n      sstore\n      0x20\n      dup3\n      add\n      mload\n      dup2\n      0x01\n      add\n      swap1\n      dup2\n      tag_138\n      swap2\n      swap1\n      tag_139\n      jump\t// in\n    tag_138:\n      pop\n      0x40\n      dup3\n      add\n      mload\n      dup2\n      0x02\n      add\n      swap1\n      dup2\n      tag_140\n      swap2\n      swap1\n      tag_139\n      jump\t// in\n    tag_140:\n      pop\n      0x60\n      dup3\n      add\n      mload\n      dup2\n      0x03\n      add\n      exp(0x0100, 0x00)\n      dup2\n      sload\n      dup2\n      0xff\n      mul\n      not\n      and\n      swap1\n      dup4\n      iszero\n      iszero\n      mul\n      or\n      swap1\n      sstore\n      pop\n      0x80\n      dup3\n      add\n      mload\n      dup2\n      0x04\n      add\n      sstore\n      0xa0\n      dup3\n      add\n      mload\n      dup2\n      0x05\n      add\n      exp(0x0100, 0x00)\n      dup2\n      sload\n      dup2\n      0xffffffffffffffffffffffffffffffffffffffff\n      mul\n      not\n      and\n      swap1\n      dup4\n      0xffffffffffffffffffffffffffffffffffffffff\n      and\n      mul\n      or\n      swap1\n      sstore\n      pop\n      0xc0\n      dup3\n      add\n      mload\n      dup2\n      0x06\n      add\n      swap1\n      dup1\n      mload\n      swap1\n      0x20\n      add\n      swap1\n      tag_141\n      swap3\n      swap2\n      swap1\n      tag_142\n      jump\t// in\n    tag_141:\n      pop\n      swap1\n      pop\n      pop\n        /* \"dapp-project/RoomShare.sol\":1303:1309  roomId */\n      0x00\n      dup1\n        /* \"dapp-project/RoomShare.sol\":1303:1311  roomId++ */\n      dup2\n      sload\n      dup1\n      swap3\n      swap2\n      swap1\n      tag_143\n      swap1\n      tag_115\n      jump\t// in\n    tag_143:\n      swap2\n      swap1\n      pop\n      sstore\n        /* \"dapp-project/RoomShare.sol\":1295:1312  NewRoom(roomId++) */\n      0xe3dfa06732e0549f98a5f6d34268fbb7da76b458e78c8ea5b1d7029396cc2164\n      mload(0x40)\n      mload(0x40)\n      dup1\n      swap2\n      sub\n      swap1\n      log2\n        /* \"dapp-project/RoomShare.sol\":914:1317  {... */\n      pop\n        /* \"dapp-project/RoomShare.sol\":777:1317  function shareRoom( string calldata name, ... */\n      pop\n      pop\n      pop\n      pop\n      pop\n      jump\t// out\n        /* \"dapp-project/RoomShare.sol\":328:375  mapping(address => Rent[]) public rentDB_renter */\n    tag_47:\n      mstore(0x20, 0x04)\n      dup2\n      0x00\n      mstore\n      keccak256(0x00, 0x40)\n      dup2\n      dup2\n      sload\n      dup2\n      lt\n      tag_144\n      jumpi\n      0x00\n      dup1\n      revert\n    tag_144:\n      swap1\n      0x00\n      mstore\n      keccak256(0x00, 0x20)\n      swap1\n      0x06\n      mul\n      add\n      0x00\n      swap2\n      pop\n      swap2\n      pop\n      pop\n      dup1\n      0x00\n      add\n      sload\n      swap1\n      dup1\n      0x01\n      add\n      sload\n      swap1\n      dup1\n      0x02\n      add\n      sload\n      swap1\n      dup1\n      0x03\n      add\n      sload\n      swap1\n      dup1\n      0x04\n      add\n      sload\n      swap1\n      dup1\n      0x05\n      add\n      0x00\n      swap1\n      sload\n      swap1\n      0x0100\n      exp\n      swap1\n      div\n      0xffffffffffffffffffffffffffffffffffffffff\n      and\n      swap1\n      pop\n      dup7\n      jump\t// out\n        /* \"dapp-project/RoomShare.sol\":248:290  mapping(uint => Rent[]) public rentDB_room */\n    tag_54:\n      mstore(0x20, 0x03)\n      dup2\n      0x00\n      mstore\n      keccak256(0x00, 0x40)\n      dup2\n      dup2\n      sload\n      dup2\n      lt\n      tag_146\n      jumpi\n      0x00\n      dup1\n      revert\n    tag_146:\n      swap1\n      0x00\n      mstore\n      keccak256(0x00, 0x20)\n      swap1\n      0x06\n      mul\n      add\n      0x00\n      swap2\n      pop\n      swap2\n      pop\n      pop\n      dup1\n      0x00\n      add\n      sload\n      swap1\n      dup1\n      0x01\n      add\n      sload\n      swap1\n      dup1\n      0x02\n      add\n      sload\n      swap1\n      dup1\n      0x03\n      add\n      sload\n      swap1\n      dup1\n      0x04\n      add\n      sload\n      swap1\n      dup1\n      0x05\n      add\n      0x00\n      swap1\n      sload\n      swap1\n      0x0100\n      exp\n      swap1\n      div\n      0xffffffffffffffffffffffffffffffffffffffff\n      and\n      swap1\n      pop\n      dup7\n      jump\t// out\n        /* \"dapp-project/RoomShare.sol\":417:590  function getMyRents() external view returns(Rent[] memory) {... */\n    tag_58:\n        /* \"dapp-project/RoomShare.sol\":461:474  Rent[] memory */\n      0x60\n        /* \"dapp-project/RoomShare.sol\":560:573  rentDB_renter */\n      0x04\n        /* \"dapp-project/RoomShare.sol\":560:585  rentDB_renter[msg.sender] */\n      0x00\n        /* \"dapp-project/RoomShare.sol\":574:584  msg.sender */\n      caller\n        /* \"dapp-project/RoomShare.sol\":560:585  rentDB_renter[msg.sender] */\n      0xffffffffffffffffffffffffffffffffffffffff\n      and\n      0xffffffffffffffffffffffffffffffffffffffff\n      and\n      dup2\n      mstore\n      0x20\n      add\n      swap1\n      dup2\n      mstore\n      0x20\n      add\n      0x00\n      keccak256\n        /* \"dapp-project/RoomShare.sol\":553:585  return rentDB_renter[msg.sender] */\n      dup1\n      sload\n      dup1\n      0x20\n      mul\n      0x20\n      add\n      mload(0x40)\n      swap1\n      dup2\n      add\n      0x40\n      mstore\n      dup1\n      swap3\n      swap2\n      swap1\n      dup2\n      dup2\n      mstore\n      0x20\n      add\n      0x00\n      swap1\n    tag_149:\n      dup3\n      dup3\n      lt\n      iszero\n      tag_150\n      jumpi\n      dup4\n      dup3\n      swap1\n      0x00\n      mstore\n      keccak256(0x00, 0x20)\n      swap1\n      0x06\n      mul\n      add\n      mload(0x40)\n      dup1\n      0xc0\n      add\n      0x40\n      mstore\n      swap1\n      dup2\n      0x00\n      dup3\n      add\n      sload\n      dup2\n      mstore\n      0x20\n      add\n      0x01\n      dup3\n      add\n      sload\n      dup2\n      mstore\n      0x20\n      add\n      0x02\n      dup3\n      add\n      sload\n      dup2\n      mstore\n      0x20\n      add\n      0x03\n      dup3\n      add\n      sload\n      dup2\n      mstore\n      0x20\n      add\n      0x04\n      dup3\n      add\n      sload\n      dup2\n      mstore\n      0x20\n      add\n      0x05\n      dup3\n      add\n      0x00\n      swap1\n      sload\n      swap1\n      0x0100\n      exp\n      swap1\n      div\n      0xffffffffffffffffffffffffffffffffffffffff\n      and\n      0xffffffffffffffffffffffffffffffffffffffff\n      and\n      0xffffffffffffffffffffffffffffffffffffffff\n      and\n      dup2\n      mstore\n      pop\n      pop\n      dup2\n      mstore\n      0x20\n      add\n      swap1\n      0x01\n      add\n      swap1\n      jump(tag_149)\n    tag_150:\n      pop\n      pop\n      pop\n      pop\n      swap1\n      pop\n        /* \"dapp-project/RoomShare.sol\":417:590  function getMyRents() external view returns(Rent[] memory) {... */\n      swap1\n      jump\t// out\n        /* \"dapp-project/RoomShare.sol\":594:773  function getRoomRentHistory(uint _roomId) external view  returns(Rent[] memory) {... */\n    tag_64:\n        /* \"dapp-project/RoomShare.sol\":659:672  Rent[] memory */\n      0x60\n        /* \"dapp-project/RoomShare.sol\":748:759  rentDB_room */\n      0x03\n        /* \"dapp-project/RoomShare.sol\":748:768  rentDB_room[_roomId] */\n      0x00\n        /* \"dapp-project/RoomShare.sol\":760:767  _roomId */\n      dup4\n        /* \"dapp-project/RoomShare.sol\":748:768  rentDB_room[_roomId] */\n      dup2\n      mstore\n      0x20\n      add\n      swap1\n      dup2\n      mstore\n      0x20\n      add\n      0x00\n      keccak256\n        /* \"dapp-project/RoomShare.sol\":741:768  return rentDB_room[_roomId] */\n      dup1\n      sload\n      dup1\n      0x20\n      mul\n      0x20\n      add\n      mload(0x40)\n      swap1\n      dup2\n      add\n      0x40\n      mstore\n      dup1\n      swap3\n      swap2\n      swap1\n      dup2\n      dup2\n      mstore\n      0x20\n      add\n      0x00\n      swap1\n    tag_153:\n      dup3\n      dup3\n      lt\n      iszero\n      tag_154\n      jumpi\n      dup4\n      dup3\n      swap1\n      0x00\n      mstore\n      keccak256(0x00, 0x20)\n      swap1\n      0x06\n      mul\n      add\n      mload(0x40)\n      dup1\n      0xc0\n      add\n      0x40\n      mstore\n      swap1\n      dup2\n      0x00\n      dup3\n      add\n      sload\n      dup2\n      mstore\n      0x20\n      add\n      0x01\n      dup3\n      add\n      sload\n      dup2\n      mstore\n      0x20\n      add\n      0x02\n      dup3\n      add\n      sload\n      dup2\n      mstore\n      0x20\n      add\n      0x03\n      dup3\n      add\n      sload\n      dup2\n      mstore\n      0x20\n      add\n      0x04\n      dup3\n      add\n      sload\n      dup2\n      mstore\n      0x20\n      add\n      0x05\n      dup3\n      add\n      0x00\n      swap1\n      sload\n      swap1\n      0x0100\n      exp\n      swap1\n      div\n      0xffffffffffffffffffffffffffffffffffffffff\n      and\n      0xffffffffffffffffffffffffffffffffffffffff\n      and\n      0xffffffffffffffffffffffffffffffffffffffff\n      and\n      dup2\n      mstore\n      pop\n      pop\n      dup2\n      mstore\n      0x20\n      add\n      swap1\n      0x01\n      add\n      swap1\n      jump(tag_153)\n    tag_154:\n      pop\n      pop\n      pop\n      pop\n      swap1\n      pop\n        /* \"dapp-project/RoomShare.sol\":594:773  function getRoomRentHistory(uint _roomId) external view  returns(Rent[] memory) {... */\n      swap2\n      swap1\n      pop\n      jump\t// out\n        /* \"dapp-project/RoomShare.sol\":1321:2523  function rentRoom(uint _roomId, uint year, uint checkInDate, uint checkOutDate) payable external {... */\n    tag_69:\n        /* \"dapp-project/RoomShare.sol\":2109:2125  Room memory room */\n      0x00\n        /* \"dapp-project/RoomShare.sol\":2128:2134  roomDB */\n      0x02\n        /* \"dapp-project/RoomShare.sol\":2128:2143  roomDB[_roomId] */\n      0x00\n        /* \"dapp-project/RoomShare.sol\":2135:2142  _roomId */\n      dup7\n        /* \"dapp-project/RoomShare.sol\":2128:2143  roomDB[_roomId] */\n      dup2\n      mstore\n      0x20\n      add\n      swap1\n      dup2\n      mstore\n      0x20\n      add\n      0x00\n      keccak256\n        /* \"dapp-project/RoomShare.sol\":2109:2143  Room memory room = roomDB[_roomId] */\n      mload(0x40)\n      dup1\n      0xe0\n      add\n      0x40\n      mstore\n      swap1\n      dup2\n      0x00\n      dup3\n      add\n      sload\n      dup2\n      mstore\n      0x20\n      add\n      0x01\n      dup3\n      add\n      dup1\n      sload\n      tag_157\n      swap1\n      tag_79\n      jump\t// in\n    tag_157:\n      dup1\n      0x1f\n      add\n      0x20\n      dup1\n      swap2\n      div\n      mul\n      0x20\n      add\n      mload(0x40)\n      swap1\n      dup2\n      add\n      0x40\n      mstore\n      dup1\n      swap3\n      swap2\n      swap1\n      dup2\n      dup2\n      mstore\n      0x20\n      add\n      dup3\n      dup1\n      sload\n      tag_158\n      swap1\n      tag_79\n      jump\t// in\n    tag_158:\n      dup1\n      iszero\n      tag_159\n      jumpi\n      dup1\n      0x1f\n      lt\n      tag_160\n      jumpi\n      0x0100\n      dup1\n      dup4\n      sload\n      div\n      mul\n      dup4\n      mstore\n      swap2\n      0x20\n      add\n      swap2\n      jump(tag_159)\n    tag_160:\n      dup3\n      add\n      swap2\n      swap1\n      0x00\n      mstore\n      keccak256(0x00, 0x20)\n      swap1\n    tag_161:\n      dup2\n      sload\n      dup2\n      mstore\n      swap1\n      0x01\n      add\n      swap1\n      0x20\n      add\n      dup1\n      dup4\n      gt\n      tag_161\n      jumpi\n      dup3\n      swap1\n      sub\n      0x1f\n      and\n      dup3\n      add\n      swap2\n    tag_159:\n      pop\n      pop\n      pop\n      pop\n      pop\n      dup2\n      mstore\n      0x20\n      add\n      0x02\n      dup3\n      add\n      dup1\n      sload\n      tag_162\n      swap1\n      tag_79\n      jump\t// in\n    tag_162:\n      dup1\n      0x1f\n      add\n      0x20\n      dup1\n      swap2\n      div\n      mul\n      0x20\n      add\n      mload(0x40)\n      swap1\n      dup2\n      add\n      0x40\n      mstore\n      dup1\n      swap3\n      swap2\n      swap1\n      dup2\n      dup2\n      mstore\n      0x20\n      add\n      dup3\n      dup1\n      sload\n      tag_163\n      swap1\n      tag_79\n      jump\t// in\n    tag_163:\n      dup1\n      iszero\n      tag_164\n      jumpi\n      dup1\n      0x1f\n      lt\n      tag_165\n      jumpi\n      0x0100\n      dup1\n      dup4\n      sload\n      div\n      mul\n      dup4\n      mstore\n      swap2\n      0x20\n      add\n      swap2\n      jump(tag_164)\n    tag_165:\n      dup3\n      add\n      swap2\n      swap1\n      0x00\n      mstore\n      keccak256(0x00, 0x20)\n      swap1\n    tag_166:\n      dup2\n      sload\n      dup2\n      mstore\n      swap1\n      0x01\n      add\n      swap1\n      0x20\n      add\n      dup1\n      dup4\n      gt\n      tag_166\n      jumpi\n      dup3\n      swap1\n      sub\n      0x1f\n      and\n      dup3\n      add\n      swap2\n    tag_164:\n      pop\n      pop\n      pop\n      pop\n      pop\n      dup2\n      mstore\n      0x20\n      add\n      0x03\n      dup3\n      add\n      0x00\n      swap1\n      sload\n      swap1\n      0x0100\n      exp\n      swap1\n      div\n      0xff\n      and\n      iszero\n      iszero\n      iszero\n      iszero\n      dup2\n      mstore\n      0x20\n      add\n      0x04\n      dup3\n      add\n      sload\n      dup2\n      mstore\n      0x20\n      add\n      0x05\n      dup3\n      add\n      0x00\n      swap1\n      sload\n      swap1\n      0x0100\n      exp\n      swap1\n      div\n      0xffffffffffffffffffffffffffffffffffffffff\n      and\n      0xffffffffffffffffffffffffffffffffffffffff\n      and\n      0xffffffffffffffffffffffffffffffffffffffff\n      and\n      dup2\n      mstore\n      0x20\n      add\n      0x06\n      dup3\n      add\n      dup1\n      sload\n      dup1\n      0x20\n      mul\n      0x20\n      add\n      mload(0x40)\n      swap1\n      dup2\n      add\n      0x40\n      mstore\n      dup1\n      swap3\n      swap2\n      swap1\n      dup2\n      dup2\n      mstore\n      0x20\n      add\n      dup3\n      dup1\n      sload\n      dup1\n      iszero\n      tag_167\n      jumpi\n      0x20\n      mul\n      dup3\n      add\n      swap2\n      swap1\n      0x00\n      mstore\n      keccak256(0x00, 0x20)\n      swap1\n      0x00\n      swap1\n    tag_168:\n      dup3\n      dup3\n      swap1\n      sload\n      swap1\n      0x0100\n      exp\n      swap1\n      div\n      0xff\n      and\n      iszero\n      iszero\n      dup2\n      mstore\n      0x20\n      add\n      swap1\n      0x01\n      add\n      swap1\n      0x20\n      dup3\n      0x00\n      add\n      div\n      swap3\n      dup4\n      add\n      swap3\n      0x01\n      sub\n      dup3\n      mul\n      swap2\n      pop\n      dup1\n      dup5\n      gt\n      tag_168\n      jumpi\n      swap1\n      pop\n    tag_167:\n      pop\n      pop\n      pop\n      pop\n      pop\n      dup2\n      mstore\n      pop\n      pop\n      swap1\n      pop\n        /* \"dapp-project/RoomShare.sol\":2176:2180  true */\n      0x01\n        /* \"dapp-project/RoomShare.sol\":2159:2180  room.isActive == true */\n      iszero\n      iszero\n        /* \"dapp-project/RoomShare.sol\":2159:2163  room */\n      dup2\n        /* \"dapp-project/RoomShare.sol\":2159:2172  room.isActive */\n      0x60\n      add\n      mload\n        /* \"dapp-project/RoomShare.sol\":2159:2180  room.isActive == true */\n      iszero\n      iszero\n      eq\n        /* \"dapp-project/RoomShare.sol\":2150:2198  require (room.isActive == true, \"Room inactive\") */\n      tag_169\n      jumpi\n      mload(0x40)\n      0x08c379a000000000000000000000000000000000000000000000000000000000\n      dup2\n      mstore\n      0x04\n      add\n      tag_170\n      swap1\n      tag_171\n      jump\t// in\n    tag_170:\n      mload(0x40)\n      dup1\n      swap2\n      sub\n      swap1\n      revert\n    tag_169:\n        /* \"dapp-project/RoomShare.sol\":2269:2275  10**15 */\n      0x038d7ea4c68000\n        /* \"dapp-project/RoomShare.sol\":2256:2260  room */\n      dup2\n        /* \"dapp-project/RoomShare.sol\":2256:2266  room.price */\n      0x80\n      add\n      mload\n        /* \"dapp-project/RoomShare.sol\":2242:2253  checkInDate */\n      dup5\n        /* \"dapp-project/RoomShare.sol\":2227:2239  checkOutDate */\n      dup5\n        /* \"dapp-project/RoomShare.sol\":2227:2253  checkOutDate - checkInDate */\n      tag_172\n      swap2\n      swap1\n      tag_125\n      jump\t// in\n    tag_172:\n        /* \"dapp-project/RoomShare.sol\":2226:2266  (checkOutDate - checkInDate)* room.price */\n      tag_173\n      swap2\n      swap1\n      tag_174\n      jump\t// in\n    tag_173:\n        /* \"dapp-project/RoomShare.sol\":2226:2275  (checkOutDate - checkInDate)* room.price * 10**15 */\n      tag_175\n      swap2\n      swap1\n      tag_174\n      jump\t// in\n    tag_175:\n        /* \"dapp-project/RoomShare.sol\":2212:2221  msg.value */\n      callvalue\n        /* \"dapp-project/RoomShare.sol\":2212:2276  msg.value == ((checkOutDate - checkInDate)* room.price * 10**15) */\n      eq\n        /* \"dapp-project/RoomShare.sol\":2204:2294  require(msg.value == ((checkOutDate - checkInDate)* room.price * 10**15), \"Invalid value\") */\n      tag_176\n      jumpi\n      mload(0x40)\n      0x08c379a000000000000000000000000000000000000000000000000000000000\n      dup2\n      mstore\n      0x04\n      add\n      tag_177\n      swap1\n      tag_178\n      jump\t// in\n    tag_177:\n      mload(0x40)\n      dup1\n      swap2\n      sub\n      swap1\n      revert\n    tag_176:\n        /* \"dapp-project/RoomShare.sol\":2305:2311  uint i */\n      0x00\n        /* \"dapp-project/RoomShare.sol\":2314:2325  checkInDate */\n      dup4\n        /* \"dapp-project/RoomShare.sol\":2305:2325  uint i = checkInDate */\n      swap1\n      pop\n        /* \"dapp-project/RoomShare.sol\":2300:2418  for (uint i = checkInDate; i < checkOutDate; i++){... */\n    tag_179:\n        /* \"dapp-project/RoomShare.sol\":2331:2343  checkOutDate */\n      dup3\n        /* \"dapp-project/RoomShare.sol\":2327:2328  i */\n      dup2\n        /* \"dapp-project/RoomShare.sol\":2327:2343  i < checkOutDate */\n      lt\n        /* \"dapp-project/RoomShare.sol\":2300:2418  for (uint i = checkInDate; i < checkOutDate; i++){... */\n      iszero\n      tag_180\n      jumpi\n        /* \"dapp-project/RoomShare.sol\":2385:2390  false */\n      0x00\n        /* \"dapp-project/RoomShare.sol\":2365:2390  room.isRented[i] == false */\n      iszero\n      iszero\n        /* \"dapp-project/RoomShare.sol\":2365:2369  room */\n      dup3\n        /* \"dapp-project/RoomShare.sol\":2365:2378  room.isRented */\n      0xc0\n      add\n      mload\n        /* \"dapp-project/RoomShare.sol\":2379:2380  i */\n      dup3\n        /* \"dapp-project/RoomShare.sol\":2365:2381  room.isRented[i] */\n      dup2\n      mload\n      dup2\n      lt\n      tag_182\n      jumpi\n      tag_183\n      tag_110\n      jump\t// in\n    tag_183:\n    tag_182:\n      0x20\n      mul\n      0x20\n      add\n      add\n      mload\n        /* \"dapp-project/RoomShare.sol\":2365:2390  room.isRented[i] == false */\n      iszero\n      iszero\n      eq\n        /* \"dapp-project/RoomShare.sol\":2357:2411  require(room.isRented[i] == false, \"Already reserved\") */\n      tag_184\n      jumpi\n      mload(0x40)\n      0x08c379a000000000000000000000000000000000000000000000000000000000\n      dup2\n      mstore\n      0x04\n      add\n      tag_185\n      swap1\n      tag_186\n      jump\t// in\n    tag_185:\n      mload(0x40)\n      dup1\n      swap2\n      sub\n      swap1\n      revert\n    tag_184:\n        /* \"dapp-project/RoomShare.sol\":2345:2348  i++ */\n      dup1\n      dup1\n      tag_187\n      swap1\n      tag_115\n      jump\t// in\n    tag_187:\n      swap2\n      pop\n      pop\n        /* \"dapp-project/RoomShare.sol\":2300:2418  for (uint i = checkInDate; i < checkOutDate; i++){... */\n      jump(tag_179)\n    tag_180:\n      pop\n        /* \"dapp-project/RoomShare.sol\":2426:2459  _sendFunds(room.owner, msg.value) */\n      tag_188\n        /* \"dapp-project/RoomShare.sol\":2437:2441  room */\n      dup2\n        /* \"dapp-project/RoomShare.sol\":2437:2447  room.owner */\n      0xa0\n      add\n      mload\n        /* \"dapp-project/RoomShare.sol\":2449:2458  msg.value */\n      callvalue\n        /* \"dapp-project/RoomShare.sol\":2426:2436  _sendFunds */\n      tag_189\n        /* \"dapp-project/RoomShare.sol\":2426:2459  _sendFunds(room.owner, msg.value) */\n      jump\t// in\n    tag_188:\n        /* \"dapp-project/RoomShare.sol\":2465:2518  _createRent(_roomId, year, checkInDate, checkOutDate) */\n      tag_190\n        /* \"dapp-project/RoomShare.sol\":2477:2484  _roomId */\n      dup6\n        /* \"dapp-project/RoomShare.sol\":2486:2490  year */\n      dup6\n        /* \"dapp-project/RoomShare.sol\":2492:2503  checkInDate */\n      dup6\n        /* \"dapp-project/RoomShare.sol\":2505:2517  checkOutDate */\n      dup6\n        /* \"dapp-project/RoomShare.sol\":2465:2476  _createRent */\n      tag_191\n        /* \"dapp-project/RoomShare.sol\":2465:2518  _createRent(_roomId, year, checkInDate, checkOutDate) */\n      jump\t// in\n    tag_190:\n        /* \"dapp-project/RoomShare.sol\":1418:2523  {... */\n      pop\n        /* \"dapp-project/RoomShare.sol\":1321:2523  function rentRoom(uint _roomId, uint year, uint checkInDate, uint checkOutDate) payable external {... */\n      pop\n      pop\n      pop\n      pop\n      jump\t// out\n        /* \"dapp-project/RoomShare.sol\":135:157  uint public roomId = 0 */\n    tag_72:\n      sload(0x00)\n      dup2\n      jump\t// out\n        /* \"dapp-project/RoomShare.sol\":4791:5080  function initializeRoomShare(uint _roomId) external {... */\n    tag_77:\n        /* \"dapp-project/RoomShare.sol\":4849:4866  Room storage room */\n      0x00\n        /* \"dapp-project/RoomShare.sol\":4869:4875  roomDB */\n      0x02\n        /* \"dapp-project/RoomShare.sol\":4869:4884  roomDB[_roomId] */\n      0x00\n        /* \"dapp-project/RoomShare.sol\":4876:4883  _roomId */\n      dup4\n        /* \"dapp-project/RoomShare.sol\":4869:4884  roomDB[_roomId] */\n      dup2\n      mstore\n      0x20\n      add\n      swap1\n      dup2\n      mstore\n      0x20\n      add\n      0x00\n      keccak256\n        /* \"dapp-project/RoomShare.sol\":4849:4884  Room storage room = roomDB[_roomId] */\n      swap1\n      pop\n        /* \"dapp-project/RoomShare.sol\":4943:4953  msg.sender */\n      caller\n        /* \"dapp-project/RoomShare.sol\":4929:4953  room.owner == msg.sender */\n      0xffffffffffffffffffffffffffffffffffffffff\n      and\n        /* \"dapp-project/RoomShare.sol\":4929:4933  room */\n      dup2\n        /* \"dapp-project/RoomShare.sol\":4929:4939  room.owner */\n      0x05\n      add\n      0x00\n      swap1\n      sload\n      swap1\n      0x0100\n      exp\n      swap1\n      div\n      0xffffffffffffffffffffffffffffffffffffffff\n      and\n        /* \"dapp-project/RoomShare.sol\":4929:4953  room.owner == msg.sender */\n      0xffffffffffffffffffffffffffffffffffffffff\n      and\n      eq\n        /* \"dapp-project/RoomShare.sol\":4921:4975  require(room.owner == msg.sender, \"Not owner of room\") */\n      tag_193\n      jumpi\n      mload(0x40)\n      0x08c379a000000000000000000000000000000000000000000000000000000000\n      dup2\n      mstore\n      0x04\n      add\n      tag_194\n      swap1\n      tag_132\n      jump\t// in\n    tag_194:\n      mload(0x40)\n      dup1\n      swap2\n      sub\n      swap1\n      revert\n    tag_193:\n        /* \"dapp-project/RoomShare.sol\":5016:5022  uint i */\n      0x00\n        /* \"dapp-project/RoomShare.sol\":5011:5076  for (uint i; i < 356; i++){... */\n    tag_195:\n        /* \"dapp-project/RoomShare.sol\":5028:5031  356 */\n      0x0164\n        /* \"dapp-project/RoomShare.sol\":5024:5025  i */\n      dup2\n        /* \"dapp-project/RoomShare.sol\":5024:5031  i < 356 */\n      lt\n        /* \"dapp-project/RoomShare.sol\":5011:5076  for (uint i; i < 356; i++){... */\n      iszero\n      tag_196\n      jumpi\n        /* \"dapp-project/RoomShare.sol\":5064:5069  false */\n      0x00\n        /* \"dapp-project/RoomShare.sol\":5045:5049  room */\n      dup3\n        /* \"dapp-project/RoomShare.sol\":5045:5058  room.isRented */\n      0x06\n      add\n        /* \"dapp-project/RoomShare.sol\":5059:5060  i */\n      dup3\n        /* \"dapp-project/RoomShare.sol\":5045:5061  room.isRented[i] */\n      dup2\n      sload\n      dup2\n      lt\n      tag_198\n      jumpi\n      tag_199\n      tag_110\n      jump\t// in\n    tag_199:\n    tag_198:\n      swap1\n      0x00\n      mstore\n      keccak256(0x00, 0x20)\n      swap1\n      0x20\n      swap2\n      dup3\n      dup3\n      div\n      add\n      swap2\n      swap1\n      mod\n        /* \"dapp-project/RoomShare.sol\":5045:5069  room.isRented[i] = false */\n      0x0100\n      exp\n      dup2\n      sload\n      dup2\n      0xff\n      mul\n      not\n      and\n      swap1\n      dup4\n      iszero\n      iszero\n      mul\n      or\n      swap1\n      sstore\n      pop\n        /* \"dapp-project/RoomShare.sol\":5033:5036  i++ */\n      dup1\n      dup1\n      tag_201\n      swap1\n      tag_115\n      jump\t// in\n    tag_201:\n      swap2\n      pop\n      pop\n        /* \"dapp-project/RoomShare.sol\":5011:5076  for (uint i; i < 356; i++){... */\n      jump(tag_195)\n    tag_196:\n      pop\n        /* \"dapp-project/RoomShare.sol\":4843:5080  {... */\n      pop\n        /* \"dapp-project/RoomShare.sol\":4791:5080  function initializeRoomShare(uint _roomId) external {... */\n      pop\n      jump\t// out\n        /* \"dapp-project/RoomShare.sol\":3351:3454  function _sendFunds (address owner, uint256 value) internal {... */\n    tag_189:\n        /* \"dapp-project/RoomShare.sol\":3427:3432  owner */\n      dup2\n        /* \"dapp-project/RoomShare.sol\":3419:3442  payable(owner).transfer */\n      0xffffffffffffffffffffffffffffffffffffffff\n      and\n        /* \"dapp-project/RoomShare.sol\":3419:3449  payable(owner).transfer(value) */\n      0x08fc\n        /* \"dapp-project/RoomShare.sol\":3443:3448  value */\n      dup3\n        /* \"dapp-project/RoomShare.sol\":3419:3449  payable(owner).transfer(value) */\n      swap1\n      dup2\n      iszero\n      mul\n      swap1\n      mload(0x40)\n      0x00\n      mload(0x40)\n      dup1\n      dup4\n      sub\n      dup2\n      dup6\n      dup9\n      dup9\n      call\n      swap4\n      pop\n      pop\n      pop\n      pop\n      iszero\n      dup1\n      iszero\n      tag_204\n      jumpi\n      returndatasize\n      0x00\n      dup1\n      returndatacopy\n      revert(0x00, returndatasize)\n    tag_204:\n      pop\n        /* \"dapp-project/RoomShare.sol\":3351:3454  function _sendFunds (address owner, uint256 value) internal {... */\n      pop\n      pop\n      jump\t// out\n        /* \"dapp-project/RoomShare.sol\":2527:3347  function _createRent(uint256 _roomId, uint year, uint256 checkInDate, uint256 checkOutDate) internal {... */\n    tag_191:\n        /* \"dapp-project/RoomShare.sol\":3032:3048  Rent memory rent */\n      0x00\n        /* \"dapp-project/RoomShare.sol\":3051:3117  Rent(rentId, _roomId, year, checkInDate, checkOutDate, msg.sender) */\n      mload(0x40)\n      dup1\n      0xc0\n      add\n      0x40\n      mstore\n      dup1\n        /* \"dapp-project/RoomShare.sol\":3056:3062  rentId */\n      sload(0x01)\n        /* \"dapp-project/RoomShare.sol\":3051:3117  Rent(rentId, _roomId, year, checkInDate, checkOutDate, msg.sender) */\n      dup2\n      mstore\n      0x20\n      add\n        /* \"dapp-project/RoomShare.sol\":3064:3071  _roomId */\n      dup7\n        /* \"dapp-project/RoomShare.sol\":3051:3117  Rent(rentId, _roomId, year, checkInDate, checkOutDate, msg.sender) */\n      dup2\n      mstore\n      0x20\n      add\n        /* \"dapp-project/RoomShare.sol\":3073:3077  year */\n      dup6\n        /* \"dapp-project/RoomShare.sol\":3051:3117  Rent(rentId, _roomId, year, checkInDate, checkOutDate, msg.sender) */\n      dup2\n      mstore\n      0x20\n      add\n        /* \"dapp-project/RoomShare.sol\":3079:3090  checkInDate */\n      dup5\n        /* \"dapp-project/RoomShare.sol\":3051:3117  Rent(rentId, _roomId, year, checkInDate, checkOutDate, msg.sender) */\n      dup2\n      mstore\n      0x20\n      add\n        /* \"dapp-project/RoomShare.sol\":3092:3104  checkOutDate */\n      dup4\n        /* \"dapp-project/RoomShare.sol\":3051:3117  Rent(rentId, _roomId, year, checkInDate, checkOutDate, msg.sender) */\n      dup2\n      mstore\n      0x20\n      add\n        /* \"dapp-project/RoomShare.sol\":3106:3116  msg.sender */\n      caller\n        /* \"dapp-project/RoomShare.sol\":3051:3117  Rent(rentId, _roomId, year, checkInDate, checkOutDate, msg.sender) */\n      0xffffffffffffffffffffffffffffffffffffffff\n      and\n      dup2\n      mstore\n      pop\n        /* \"dapp-project/RoomShare.sol\":3032:3117  Rent memory rent = Rent(rentId, _roomId, year, checkInDate, checkOutDate, msg.sender) */\n      swap1\n      pop\n        /* \"dapp-project/RoomShare.sol\":3129:3135  uint i */\n      0x00\n        /* \"dapp-project/RoomShare.sol\":3138:3149  checkInDate */\n      dup4\n        /* \"dapp-project/RoomShare.sol\":3129:3149  uint i = checkInDate */\n      swap1\n      pop\n        /* \"dapp-project/RoomShare.sol\":3124:3222  for (uint i = checkInDate; i < checkOutDate; i++){... */\n    tag_206:\n        /* \"dapp-project/RoomShare.sol\":3155:3167  checkOutDate */\n      dup3\n        /* \"dapp-project/RoomShare.sol\":3151:3152  i */\n      dup2\n        /* \"dapp-project/RoomShare.sol\":3151:3167  i < checkOutDate */\n      lt\n        /* \"dapp-project/RoomShare.sol\":3124:3222  for (uint i = checkInDate; i < checkOutDate; i++){... */\n      iszero\n      tag_207\n      jumpi\n        /* \"dapp-project/RoomShare.sol\":3211:3215  true */\n      0x01\n        /* \"dapp-project/RoomShare.sol\":3181:3187  roomDB */\n      0x02\n        /* \"dapp-project/RoomShare.sol\":3181:3196  roomDB[_roomId] */\n      0x00\n        /* \"dapp-project/RoomShare.sol\":3188:3195  _roomId */\n      dup9\n        /* \"dapp-project/RoomShare.sol\":3181:3196  roomDB[_roomId] */\n      dup2\n      mstore\n      0x20\n      add\n      swap1\n      dup2\n      mstore\n      0x20\n      add\n      0x00\n      keccak256\n        /* \"dapp-project/RoomShare.sol\":3181:3205  roomDB[_roomId].isRented */\n      0x06\n      add\n        /* \"dapp-project/RoomShare.sol\":3206:3207  i */\n      dup3\n        /* \"dapp-project/RoomShare.sol\":3181:3208  roomDB[_roomId].isRented[i] */\n      dup2\n      sload\n      dup2\n      lt\n      tag_209\n      jumpi\n      tag_210\n      tag_110\n      jump\t// in\n    tag_210:\n    tag_209:\n      swap1\n      0x00\n      mstore\n      keccak256(0x00, 0x20)\n      swap1\n      0x20\n      swap2\n      dup3\n      dup3\n      div\n      add\n      swap2\n      swap1\n      mod\n        /* \"dapp-project/RoomShare.sol\":3181:3215  roomDB[_roomId].isRented[i] = true */\n      0x0100\n      exp\n      dup2\n      sload\n      dup2\n      0xff\n      mul\n      not\n      and\n      swap1\n      dup4\n      iszero\n      iszero\n      mul\n      or\n      swap1\n      sstore\n      pop\n        /* \"dapp-project/RoomShare.sol\":3169:3172  i++ */\n      dup1\n      dup1\n      tag_212\n      swap1\n      tag_115\n      jump\t// in\n    tag_212:\n      swap2\n      pop\n      pop\n        /* \"dapp-project/RoomShare.sol\":3124:3222  for (uint i = checkInDate; i < checkOutDate; i++){... */\n      jump(tag_206)\n    tag_207:\n      pop\n        /* \"dapp-project/RoomShare.sol\":3228:3239  rentDB_room */\n      0x03\n        /* \"dapp-project/RoomShare.sol\":3228:3248  rentDB_room[_roomId] */\n      0x00\n        /* \"dapp-project/RoomShare.sol\":3240:3247  _roomId */\n      dup7\n        /* \"dapp-project/RoomShare.sol\":3228:3248  rentDB_room[_roomId] */\n      dup2\n      mstore\n      0x20\n      add\n      swap1\n      dup2\n      mstore\n      0x20\n      add\n      0x00\n      keccak256\n        /* \"dapp-project/RoomShare.sol\":3255:3259  rent */\n      dup2\n        /* \"dapp-project/RoomShare.sol\":3227:3260  (rentDB_room[_roomId]).push(rent) */\n      swap1\n      dup1\n      0x01\n      dup2\n      sload\n      add\n      dup1\n      dup3\n      sstore\n      dup1\n      swap2\n      pop\n      pop\n      0x01\n      swap1\n      sub\n      swap1\n      0x00\n      mstore\n      keccak256(0x00, 0x20)\n      swap1\n      0x06\n      mul\n      add\n      0x00\n      swap1\n      swap2\n      swap1\n      swap2\n      swap1\n      swap2\n      pop\n      0x00\n      dup3\n      add\n      mload\n      dup2\n      0x00\n      add\n      sstore\n      0x20\n      dup3\n      add\n      mload\n      dup2\n      0x01\n      add\n      sstore\n      0x40\n      dup3\n      add\n      mload\n      dup2\n      0x02\n      add\n      sstore\n      0x60\n      dup3\n      add\n      mload\n      dup2\n      0x03\n      add\n      sstore\n      0x80\n      dup3\n      add\n      mload\n      dup2\n      0x04\n      add\n      sstore\n      0xa0\n      dup3\n      add\n      mload\n      dup2\n      0x05\n      add\n      exp(0x0100, 0x00)\n      dup2\n      sload\n      dup2\n      0xffffffffffffffffffffffffffffffffffffffff\n      mul\n      not\n      and\n      swap1\n      dup4\n      0xffffffffffffffffffffffffffffffffffffffff\n      and\n      mul\n      or\n      swap1\n      sstore\n      pop\n      pop\n      pop\n        /* \"dapp-project/RoomShare.sol\":3267:3280  rentDB_renter */\n      0x04\n        /* \"dapp-project/RoomShare.sol\":3267:3292  rentDB_renter[msg.sender] */\n      0x00\n        /* \"dapp-project/RoomShare.sol\":3281:3291  msg.sender */\n      caller\n        /* \"dapp-project/RoomShare.sol\":3267:3292  rentDB_renter[msg.sender] */\n      0xffffffffffffffffffffffffffffffffffffffff\n      and\n      0xffffffffffffffffffffffffffffffffffffffff\n      and\n      dup2\n      mstore\n      0x20\n      add\n      swap1\n      dup2\n      mstore\n      0x20\n      add\n      0x00\n      keccak256\n        /* \"dapp-project/RoomShare.sol\":3299:3303  rent */\n      dup2\n        /* \"dapp-project/RoomShare.sol\":3266:3304  (rentDB_renter[msg.sender]).push(rent) */\n      swap1\n      dup1\n      0x01\n      dup2\n      sload\n      add\n      dup1\n      dup3\n      sstore\n      dup1\n      swap2\n      pop\n      pop\n      0x01\n      swap1\n      sub\n      swap1\n      0x00\n      mstore\n      keccak256(0x00, 0x20)\n      swap1\n      0x06\n      mul\n      add\n      0x00\n      swap1\n      swap2\n      swap1\n      swap2\n      swap1\n      swap2\n      pop\n      0x00\n      dup3\n      add\n      mload\n      dup2\n      0x00\n      add\n      sstore\n      0x20\n      dup3\n      add\n      mload\n      dup2\n      0x01\n      add\n      sstore\n      0x40\n      dup3\n      add\n      mload\n      dup2\n      0x02\n      add\n      sstore\n      0x60\n      dup3\n      add\n      mload\n      dup2\n      0x03\n      add\n      sstore\n      0x80\n      dup3\n      add\n      mload\n      dup2\n      0x04\n      add\n      sstore\n      0xa0\n      dup3\n      add\n      mload\n      dup2\n      0x05\n      add\n      exp(0x0100, 0x00)\n      dup2\n      sload\n      dup2\n      0xffffffffffffffffffffffffffffffffffffffff\n      mul\n      not\n      and\n      swap1\n      dup4\n      0xffffffffffffffffffffffffffffffffffffffff\n      and\n      mul\n      or\n      swap1\n      sstore\n      pop\n      pop\n      pop\n        /* \"dapp-project/RoomShare.sol\":3333:3339  rentId */\n      0x01\n      0x00\n        /* \"dapp-project/RoomShare.sol\":3333:3341  rentId++ */\n      dup2\n      sload\n      dup1\n      swap3\n      swap2\n      swap1\n      tag_215\n      swap1\n      tag_115\n      jump\t// in\n    tag_215:\n      swap2\n      swap1\n      pop\n      sstore\n        /* \"dapp-project/RoomShare.sol\":3324:3331  _roomId */\n      dup6\n        /* \"dapp-project/RoomShare.sol\":3316:3342  NewRent(_roomId, rentId++) */\n      0x84bad6e347d9aff08a38e6eb90827c7999f70bfaf3b0acbe288f512801b9c139\n      mload(0x40)\n      mload(0x40)\n      dup1\n      swap2\n      sub\n      swap1\n      log3\n        /* \"dapp-project/RoomShare.sol\":2628:3347  {... */\n      pop\n        /* \"dapp-project/RoomShare.sol\":2527:3347  function _createRent(uint256 _roomId, uint year, uint256 checkInDate, uint256 checkOutDate) internal {... */\n      pop\n      pop\n      pop\n      pop\n      jump\t// out\n    tag_90:\n      mload(0x40)\n      dup1\n      0x40\n      add\n      0x40\n      mstore\n      dup1\n      0x02\n      swap1\n      0x20\n      dup3\n      mul\n      dup1\n      calldatasize\n      dup4\n      calldatacopy\n      dup1\n      dup3\n      add\n      swap2\n      pop\n      pop\n      swap1\n      pop\n      pop\n      swap1\n      jump\t// out\n    tag_142:\n      dup3\n      dup1\n      sload\n      dup3\n      dup3\n      sstore\n      swap1\n      0x00\n      mstore\n      keccak256(0x00, 0x20)\n      swap1\n      0x1f\n      add\n      0x20\n      swap1\n      div\n      dup2\n      add\n      swap3\n      dup3\n      iszero\n      tag_216\n      jumpi\n      swap2\n      0x20\n      mul\n      dup3\n      add\n      0x00\n    tag_217:\n      dup4\n      dup3\n      gt\n      iszero\n      tag_218\n      jumpi\n      dup4\n      mload\n      dup4\n      dup3\n      0x0100\n      exp\n      dup2\n      sload\n      dup2\n      0xff\n      mul\n      not\n      and\n      swap1\n      dup4\n      iszero\n      iszero\n      mul\n      or\n      swap1\n      sstore\n      pop\n      swap3\n      0x20\n      add\n      swap3\n      0x01\n      add\n      0x20\n      dup2\n      0x00\n      add\n      div\n      swap3\n      dup4\n      add\n      swap3\n      0x01\n      sub\n      mul\n      jump(tag_217)\n    tag_218:\n      dup1\n      iszero\n      tag_219\n      jumpi\n      dup3\n      dup2\n      0x0100\n      exp\n      dup2\n      sload\n      swap1\n      0xff\n      mul\n      not\n      and\n      swap1\n      sstore\n      0x01\n      add\n      0x20\n      dup2\n      0x00\n      add\n      div\n      swap3\n      dup4\n      add\n      swap3\n      0x01\n      sub\n      mul\n      jump(tag_218)\n    tag_219:\n      pop\n    tag_216:\n      pop\n      swap1\n      pop\n      tag_220\n      swap2\n      swap1\n      tag_221\n      jump\t// in\n    tag_220:\n      pop\n      swap1\n      jump\t// out\n    tag_221:\n    tag_222:\n      dup1\n      dup3\n      gt\n      iszero\n      tag_223\n      jumpi\n      0x00\n      dup2\n      0x00\n      swap1\n      sstore\n      pop\n      0x01\n      add\n      jump(tag_222)\n    tag_223:\n      pop\n      swap1\n      jump\t// out\n        /* \"#utility.yul\":88:205   */\n    tag_225:\n        /* \"#utility.yul\":197:198   */\n      0x00\n        /* \"#utility.yul\":194:195   */\n      dup1\n        /* \"#utility.yul\":187:199   */\n      revert\n        /* \"#utility.yul\":211:328   */\n    tag_226:\n        /* \"#utility.yul\":320:321   */\n      0x00\n        /* \"#utility.yul\":317:318   */\n      dup1\n        /* \"#utility.yul\":310:322   */\n      revert\n        /* \"#utility.yul\":334:411   */\n    tag_227:\n        /* \"#utility.yul\":371:378   */\n      0x00\n        /* \"#utility.yul\":400:405   */\n      dup2\n        /* \"#utility.yul\":389:405   */\n      swap1\n      pop\n        /* \"#utility.yul\":334:411   */\n      swap2\n      swap1\n      pop\n      jump\t// out\n        /* \"#utility.yul\":417:539   */\n    tag_228:\n        /* \"#utility.yul\":490:514   */\n      tag_293\n        /* \"#utility.yul\":508:513   */\n      dup2\n        /* \"#utility.yul\":490:514   */\n      tag_227\n      jump\t// in\n    tag_293:\n        /* \"#utility.yul\":483:488   */\n      dup2\n        /* \"#utility.yul\":480:515   */\n      eq\n        /* \"#utility.yul\":470:533   */\n      tag_294\n      jumpi\n        /* \"#utility.yul\":529:530   */\n      0x00\n        /* \"#utility.yul\":526:527   */\n      dup1\n        /* \"#utility.yul\":519:531   */\n      revert\n        /* \"#utility.yul\":470:533   */\n    tag_294:\n        /* \"#utility.yul\":417:539   */\n      pop\n      jump\t// out\n        /* \"#utility.yul\":545:684   */\n    tag_229:\n        /* \"#utility.yul\":591:596   */\n      0x00\n        /* \"#utility.yul\":629:635   */\n      dup2\n        /* \"#utility.yul\":616:636   */\n      calldataload\n        /* \"#utility.yul\":607:636   */\n      swap1\n      pop\n        /* \"#utility.yul\":645:678   */\n      tag_296\n        /* \"#utility.yul\":672:677   */\n      dup2\n        /* \"#utility.yul\":645:678   */\n      tag_228\n      jump\t// in\n    tag_296:\n        /* \"#utility.yul\":545:684   */\n      swap3\n      swap2\n      pop\n      pop\n      jump\t// out\n        /* \"#utility.yul\":690:1019   */\n    tag_18:\n        /* \"#utility.yul\":749:755   */\n      0x00\n        /* \"#utility.yul\":798:800   */\n      0x20\n        /* \"#utility.yul\":786:795   */\n      dup3\n        /* \"#utility.yul\":777:784   */\n      dup5\n        /* \"#utility.yul\":773:796   */\n      sub\n        /* \"#utility.yul\":769:801   */\n      slt\n        /* \"#utility.yul\":766:885   */\n      iszero\n      tag_298\n      jumpi\n        /* \"#utility.yul\":804:883   */\n      tag_299\n      tag_225\n      jump\t// in\n    tag_299:\n        /* \"#utility.yul\":766:885   */\n    tag_298:\n        /* \"#utility.yul\":924:925   */\n      0x00\n        /* \"#utility.yul\":949:1002   */\n      tag_300\n        /* \"#utility.yul\":994:1001   */\n      dup5\n        /* \"#utility.yul\":985:991   */\n      dup3\n        /* \"#utility.yul\":974:983   */\n      dup6\n        /* \"#utility.yul\":970:992   */\n      add\n        /* \"#utility.yul\":949:1002   */\n      tag_229\n      jump\t// in\n    tag_300:\n        /* \"#utility.yul\":939:1002   */\n      swap2\n      pop\n        /* \"#utility.yul\":895:1012   */\n      pop\n        /* \"#utility.yul\":690:1019   */\n      swap3\n      swap2\n      pop\n      pop\n      jump\t// out\n        /* \"#utility.yul\":1025:1143   */\n    tag_230:\n        /* \"#utility.yul\":1112:1136   */\n      tag_302\n        /* \"#utility.yul\":1130:1135   */\n      dup2\n        /* \"#utility.yul\":1112:1136   */\n      tag_227\n      jump\t// in\n    tag_302:\n        /* \"#utility.yul\":1107:1110   */\n      dup3\n        /* \"#utility.yul\":1100:1137   */\n      mstore\n        /* \"#utility.yul\":1025:1143   */\n      pop\n      pop\n      jump\t// out\n        /* \"#utility.yul\":1149:1248   */\n    tag_231:\n        /* \"#utility.yul\":1201:1207   */\n      0x00\n        /* \"#utility.yul\":1235:1240   */\n      dup2\n        /* \"#utility.yul\":1229:1241   */\n      mload\n        /* \"#utility.yul\":1219:1241   */\n      swap1\n      pop\n        /* \"#utility.yul\":1149:1248   */\n      swap2\n      swap1\n      pop\n      jump\t// out\n        /* \"#utility.yul\":1254:1423   */\n    tag_232:\n        /* \"#utility.yul\":1338:1349   */\n      0x00\n        /* \"#utility.yul\":1372:1378   */\n      dup3\n        /* \"#utility.yul\":1367:1370   */\n      dup3\n        /* \"#utility.yul\":1360:1379   */\n      mstore\n        /* \"#utility.yul\":1412:1416   */\n      0x20\n        /* \"#utility.yul\":1407:1410   */\n      dup3\n        /* \"#utility.yul\":1403:1417   */\n      add\n        /* \"#utility.yul\":1388:1417   */\n      swap1\n      pop\n        /* \"#utility.yul\":1254:1423   */\n      swap3\n      swap2\n      pop\n      pop\n      jump\t// out\n        /* \"#utility.yul\":1429:1675   */\n    tag_233:\n        /* \"#utility.yul\":1510:1511   */\n      0x00\n        /* \"#utility.yul\":1520:1633   */\n    tag_306:\n        /* \"#utility.yul\":1534:1540   */\n      dup4\n        /* \"#utility.yul\":1531:1532   */\n      dup2\n        /* \"#utility.yul\":1528:1541   */\n      lt\n        /* \"#utility.yul\":1520:1633   */\n      iszero\n      tag_308\n      jumpi\n        /* \"#utility.yul\":1619:1620   */\n      dup1\n        /* \"#utility.yul\":1614:1617   */\n      dup3\n        /* \"#utility.yul\":1610:1621   */\n      add\n        /* \"#utility.yul\":1604:1622   */\n      mload\n        /* \"#utility.yul\":1600:1601   */\n      dup2\n        /* \"#utility.yul\":1595:1598   */\n      dup5\n        /* \"#utility.yul\":1591:1602   */\n      add\n        /* \"#utility.yul\":1584:1623   */\n      mstore\n        /* \"#utility.yul\":1556:1558   */\n      0x20\n        /* \"#utility.yul\":1553:1554   */\n      dup2\n        /* \"#utility.yul\":1549:1559   */\n      add\n        /* \"#utility.yul\":1544:1559   */\n      swap1\n      pop\n        /* \"#utility.yul\":1520:1633   */\n      jump(tag_306)\n    tag_308:\n        /* \"#utility.yul\":1667:1668   */\n      0x00\n        /* \"#utility.yul\":1658:1664   */\n      dup5\n        /* \"#utility.yul\":1653:1656   */\n      dup5\n        /* \"#utility.yul\":1649:1665   */\n      add\n        /* \"#utility.yul\":1642:1669   */\n      mstore\n        /* \"#utility.yul\":1491:1675   */\n      pop\n        /* \"#utility.yul\":1429:1675   */\n      pop\n      pop\n      pop\n      jump\t// out\n        /* \"#utility.yul\":1681:1783   */\n    tag_234:\n        /* \"#utility.yul\":1722:1728   */\n      0x00\n        /* \"#utility.yul\":1773:1775   */\n      0x1f\n        /* \"#utility.yul\":1769:1776   */\n      not\n        /* \"#utility.yul\":1764:1766   */\n      0x1f\n        /* \"#utility.yul\":1757:1762   */\n      dup4\n        /* \"#utility.yul\":1753:1767   */\n      add\n        /* \"#utility.yul\":1749:1777   */\n      and\n        /* \"#utility.yul\":1739:1777   */\n      swap1\n      pop\n        /* \"#utility.yul\":1681:1783   */\n      swap2\n      swap1\n      pop\n      jump\t// out\n        /* \"#utility.yul\":1789:2166   */\n    tag_235:\n        /* \"#utility.yul\":1877:1880   */\n      0x00\n        /* \"#utility.yul\":1905:1944   */\n      tag_311\n        /* \"#utility.yul\":1938:1943   */\n      dup3\n        /* \"#utility.yul\":1905:1944   */\n      tag_231\n      jump\t// in\n    tag_311:\n        /* \"#utility.yul\":1960:2031   */\n      tag_312\n        /* \"#utility.yul\":2024:2030   */\n      dup2\n        /* \"#utility.yul\":2019:2022   */\n      dup6\n        /* \"#utility.yul\":1960:2031   */\n      tag_232\n      jump\t// in\n    tag_312:\n        /* \"#utility.yul\":1953:2031   */\n      swap4\n      pop\n        /* \"#utility.yul\":2040:2105   */\n      tag_313\n        /* \"#utility.yul\":2098:2104   */\n      dup2\n        /* \"#utility.yul\":2093:2096   */\n      dup6\n        /* \"#utility.yul\":2086:2090   */\n      0x20\n        /* \"#utility.yul\":2079:2084   */\n      dup7\n        /* \"#utility.yul\":2075:2091   */\n      add\n        /* \"#utility.yul\":2040:2105   */\n      tag_233\n      jump\t// in\n    tag_313:\n        /* \"#utility.yul\":2130:2159   */\n      tag_314\n        /* \"#utility.yul\":2152:2158   */\n      dup2\n        /* \"#utility.yul\":2130:2159   */\n      tag_234\n      jump\t// in\n    tag_314:\n        /* \"#utility.yul\":2125:2128   */\n      dup5\n        /* \"#utility.yul\":2121:2160   */\n      add\n        /* \"#utility.yul\":2114:2160   */\n      swap2\n      pop\n        /* \"#utility.yul\":1881:2166   */\n      pop\n        /* \"#utility.yul\":1789:2166   */\n      swap3\n      swap2\n      pop\n      pop\n      jump\t// out\n        /* \"#utility.yul\":2172:2262   */\n    tag_236:\n        /* \"#utility.yul\":2206:2213   */\n      0x00\n        /* \"#utility.yul\":2249:2254   */\n      dup2\n        /* \"#utility.yul\":2242:2255   */\n      iszero\n        /* \"#utility.yul\":2235:2256   */\n      iszero\n        /* \"#utility.yul\":2224:2256   */\n      swap1\n      pop\n        /* \"#utility.yul\":2172:2262   */\n      swap2\n      swap1\n      pop\n      jump\t// out\n        /* \"#utility.yul\":2268:2377   */\n    tag_237:\n        /* \"#utility.yul\":2349:2370   */\n      tag_317\n        /* \"#utility.yul\":2364:2369   */\n      dup2\n        /* \"#utility.yul\":2349:2370   */\n      tag_236\n      jump\t// in\n    tag_317:\n        /* \"#utility.yul\":2344:2347   */\n      dup3\n        /* \"#utility.yul\":2337:2371   */\n      mstore\n        /* \"#utility.yul\":2268:2377   */\n      pop\n      pop\n      jump\t// out\n        /* \"#utility.yul\":2383:2509   */\n    tag_238:\n        /* \"#utility.yul\":2420:2427   */\n      0x00\n        /* \"#utility.yul\":2460:2502   */\n      0xffffffffffffffffffffffffffffffffffffffff\n        /* \"#utility.yul\":2453:2458   */\n      dup3\n        /* \"#utility.yul\":2449:2503   */\n      and\n        /* \"#utility.yul\":2438:2503   */\n      swap1\n      pop\n        /* \"#utility.yul\":2383:2509   */\n      swap2\n      swap1\n      pop\n      jump\t// out\n        /* \"#utility.yul\":2515:2611   */\n    tag_239:\n        /* \"#utility.yul\":2552:2559   */\n      0x00\n        /* \"#utility.yul\":2581:2605   */\n      tag_320\n        /* \"#utility.yul\":2599:2604   */\n      dup3\n        /* \"#utility.yul\":2581:2605   */\n      tag_238\n      jump\t// in\n    tag_320:\n        /* \"#utility.yul\":2570:2605   */\n      swap1\n      pop\n        /* \"#utility.yul\":2515:2611   */\n      swap2\n      swap1\n      pop\n      jump\t// out\n        /* \"#utility.yul\":2617:2735   */\n    tag_240:\n        /* \"#utility.yul\":2704:2728   */\n      tag_322\n        /* \"#utility.yul\":2722:2727   */\n      dup2\n        /* \"#utility.yul\":2704:2728   */\n      tag_239\n      jump\t// in\n    tag_322:\n        /* \"#utility.yul\":2699:2702   */\n      dup3\n        /* \"#utility.yul\":2692:2729   */\n      mstore\n        /* \"#utility.yul\":2617:2735   */\n      pop\n      pop\n      jump\t// out\n        /* \"#utility.yul\":2741:3686   */\n    tag_21:\n        /* \"#utility.yul\":3008:3012   */\n      0x00\n        /* \"#utility.yul\":3046:3049   */\n      0xc0\n        /* \"#utility.yul\":3035:3044   */\n      dup3\n        /* \"#utility.yul\":3031:3050   */\n      add\n        /* \"#utility.yul\":3023:3050   */\n      swap1\n      pop\n        /* \"#utility.yul\":3060:3131   */\n      tag_324\n        /* \"#utility.yul\":3128:3129   */\n      0x00\n        /* \"#utility.yul\":3117:3126   */\n      dup4\n        /* \"#utility.yul\":3113:3130   */\n      add\n        /* \"#utility.yul\":3104:3110   */\n      dup10\n        /* \"#utility.yul\":3060:3131   */\n      tag_230\n      jump\t// in\n    tag_324:\n        /* \"#utility.yul\":3178:3187   */\n      dup2\n        /* \"#utility.yul\":3172:3176   */\n      dup2\n        /* \"#utility.yul\":3168:3188   */\n      sub\n        /* \"#utility.yul\":3163:3165   */\n      0x20\n        /* \"#utility.yul\":3152:3161   */\n      dup4\n        /* \"#utility.yul\":3148:3166   */\n      add\n        /* \"#utility.yul\":3141:3189   */\n      mstore\n        /* \"#utility.yul\":3206:3284   */\n      tag_325\n        /* \"#utility.yul\":3279:3283   */\n      dup2\n        /* \"#utility.yul\":3270:3276   */\n      dup9\n        /* \"#utility.yul\":3206:3284   */\n      tag_235\n      jump\t// in\n    tag_325:\n        /* \"#utility.yul\":3198:3284   */\n      swap1\n      pop\n        /* \"#utility.yul\":3331:3340   */\n      dup2\n        /* \"#utility.yul\":3325:3329   */\n      dup2\n        /* \"#utility.yul\":3321:3341   */\n      sub\n        /* \"#utility.yul\":3316:3318   */\n      0x40\n        /* \"#utility.yul\":3305:3314   */\n      dup4\n        /* \"#utility.yul\":3301:3319   */\n      add\n        /* \"#utility.yul\":3294:3342   */\n      mstore\n        /* \"#utility.yul\":3359:3437   */\n      tag_326\n        /* \"#utility.yul\":3432:3436   */\n      dup2\n        /* \"#utility.yul\":3423:3429   */\n      dup8\n        /* \"#utility.yul\":3359:3437   */\n      tag_235\n      jump\t// in\n    tag_326:\n        /* \"#utility.yul\":3351:3437   */\n      swap1\n      pop\n        /* \"#utility.yul\":3447:3513   */\n      tag_327\n        /* \"#utility.yul\":3509:3511   */\n      0x60\n        /* \"#utility.yul\":3498:3507   */\n      dup4\n        /* \"#utility.yul\":3494:3512   */\n      add\n        /* \"#utility.yul\":3485:3491   */\n      dup7\n        /* \"#utility.yul\":3447:3513   */\n      tag_237\n      jump\t// in\n    tag_327:\n        /* \"#utility.yul\":3523:3596   */\n      tag_328\n        /* \"#utility.yul\":3591:3594   */\n      0x80\n        /* \"#utility.yul\":3580:3589   */\n      dup4\n        /* \"#utility.yul\":3576:3595   */\n      add\n        /* \"#utility.yul\":3567:3573   */\n      dup6\n        /* \"#utility.yul\":3523:3596   */\n      tag_230\n      jump\t// in\n    tag_328:\n        /* \"#utility.yul\":3606:3679   */\n      tag_329\n        /* \"#utility.yul\":3674:3677   */\n      0xa0\n        /* \"#utility.yul\":3663:3672   */\n      dup4\n        /* \"#utility.yul\":3659:3678   */\n      add\n        /* \"#utility.yul\":3650:3656   */\n      dup5\n        /* \"#utility.yul\":3606:3679   */\n      tag_240\n      jump\t// in\n    tag_329:\n        /* \"#utility.yul\":2741:3686   */\n      swap8\n      swap7\n      pop\n      pop\n      pop\n      pop\n      pop\n      pop\n      pop\n      jump\t// out\n        /* \"#utility.yul\":3692:4311   */\n    tag_25:\n        /* \"#utility.yul\":3769:3775   */\n      0x00\n        /* \"#utility.yul\":3777:3783   */\n      dup1\n        /* \"#utility.yul\":3785:3791   */\n      0x00\n        /* \"#utility.yul\":3834:3836   */\n      0x60\n        /* \"#utility.yul\":3822:3831   */\n      dup5\n        /* \"#utility.yul\":3813:3820   */\n      dup7\n        /* \"#utility.yul\":3809:3832   */\n      sub\n        /* \"#utility.yul\":3805:3837   */\n      slt\n        /* \"#utility.yul\":3802:3921   */\n      iszero\n      tag_331\n      jumpi\n        /* \"#utility.yul\":3840:3919   */\n      tag_332\n      tag_225\n      jump\t// in\n    tag_332:\n        /* \"#utility.yul\":3802:3921   */\n    tag_331:\n        /* \"#utility.yul\":3960:3961   */\n      0x00\n        /* \"#utility.yul\":3985:4038   */\n      tag_333\n        /* \"#utility.yul\":4030:4037   */\n      dup7\n        /* \"#utility.yul\":4021:4027   */\n      dup3\n        /* \"#utility.yul\":4010:4019   */\n      dup8\n        /* \"#utility.yul\":4006:4028   */\n      add\n        /* \"#utility.yul\":3985:4038   */\n      tag_229\n      jump\t// in\n    tag_333:\n        /* \"#utility.yul\":3975:4038   */\n      swap4\n      pop\n        /* \"#utility.yul\":3931:4048   */\n      pop\n        /* \"#utility.yul\":4087:4089   */\n      0x20\n        /* \"#utility.yul\":4113:4166   */\n      tag_334\n        /* \"#utility.yul\":4158:4165   */\n      dup7\n        /* \"#utility.yul\":4149:4155   */\n      dup3\n        /* \"#utility.yul\":4138:4147   */\n      dup8\n        /* \"#utility.yul\":4134:4156   */\n      add\n        /* \"#utility.yul\":4113:4166   */\n      tag_229\n      jump\t// in\n    tag_334:\n        /* \"#utility.yul\":4103:4166   */\n      swap3\n      pop\n        /* \"#utility.yul\":4058:4176   */\n      pop\n        /* \"#utility.yul\":4215:4217   */\n      0x40\n        /* \"#utility.yul\":4241:4294   */\n      tag_335\n        /* \"#utility.yul\":4286:4293   */\n      dup7\n        /* \"#utility.yul\":4277:4283   */\n      dup3\n        /* \"#utility.yul\":4266:4275   */\n      dup8\n        /* \"#utility.yul\":4262:4284   */\n      add\n        /* \"#utility.yul\":4241:4294   */\n      tag_229\n      jump\t// in\n    tag_335:\n        /* \"#utility.yul\":4231:4294   */\n      swap2\n      pop\n        /* \"#utility.yul\":4186:4304   */\n      pop\n        /* \"#utility.yul\":3692:4311   */\n      swap3\n      pop\n      swap3\n      pop\n      swap3\n      jump\t// out\n        /* \"#utility.yul\":4317:4421   */\n    tag_241:\n        /* \"#utility.yul\":4382:4388   */\n      0x00\n        /* \"#utility.yul\":4410:4414   */\n      0x02\n        /* \"#utility.yul\":4400:4414   */\n      swap1\n      pop\n        /* \"#utility.yul\":4317:4421   */\n      swap2\n      swap1\n      pop\n      jump\t// out\n        /* \"#utility.yul\":4427:4570   */\n    tag_242:\n        /* \"#utility.yul\":4524:4535   */\n      0x00\n        /* \"#utility.yul\":4561:4564   */\n      dup2\n        /* \"#utility.yul\":4546:4564   */\n      swap1\n      pop\n        /* \"#utility.yul\":4427:4570   */\n      swap3\n      swap2\n      pop\n      pop\n      jump\t// out\n        /* \"#utility.yul\":4576:4674   */\n    tag_243:\n        /* \"#utility.yul\":4641:4645   */\n      0x00\n        /* \"#utility.yul\":4664:4667   */\n      dup2\n        /* \"#utility.yul\":4656:4667   */\n      swap1\n      pop\n        /* \"#utility.yul\":4576:4674   */\n      swap2\n      swap1\n      pop\n      jump\t// out\n        /* \"#utility.yul\":4680:4788   */\n    tag_244:\n        /* \"#utility.yul\":4757:4781   */\n      tag_340\n        /* \"#utility.yul\":4775:4780   */\n      dup2\n        /* \"#utility.yul\":4757:4781   */\n      tag_227\n      jump\t// in\n    tag_340:\n        /* \"#utility.yul\":4752:4755   */\n      dup3\n        /* \"#utility.yul\":4745:4782   */\n      mstore\n        /* \"#utility.yul\":4680:4788   */\n      pop\n      pop\n      jump\t// out\n        /* \"#utility.yul\":4794:4973   */\n    tag_245:\n        /* \"#utility.yul\":4863:4873   */\n      0x00\n        /* \"#utility.yul\":4884:4930   */\n      tag_342\n        /* \"#utility.yul\":4926:4929   */\n      dup4\n        /* \"#utility.yul\":4918:4924   */\n      dup4\n        /* \"#utility.yul\":4884:4930   */\n      tag_244\n      jump\t// in\n    tag_342:\n        /* \"#utility.yul\":4962:4966   */\n      0x20\n        /* \"#utility.yul\":4957:4960   */\n      dup4\n        /* \"#utility.yul\":4953:4967   */\n      add\n        /* \"#utility.yul\":4939:4967   */\n      swap1\n      pop\n        /* \"#utility.yul\":4794:4973   */\n      swap3\n      swap2\n      pop\n      pop\n      jump\t// out\n        /* \"#utility.yul\":4979:5090   */\n    tag_246:\n        /* \"#utility.yul\":5047:5051   */\n      0x00\n        /* \"#utility.yul\":5079:5083   */\n      0x20\n        /* \"#utility.yul\":5074:5077   */\n      dup3\n        /* \"#utility.yul\":5070:5084   */\n      add\n        /* \"#utility.yul\":5062:5084   */\n      swap1\n      pop\n        /* \"#utility.yul\":4979:5090   */\n      swap2\n      swap1\n      pop\n      jump\t// out\n        /* \"#utility.yul\":5128:5822   */\n    tag_247:\n        /* \"#utility.yul\":5264:5316   */\n      tag_345\n        /* \"#utility.yul\":5310:5315   */\n      dup2\n        /* \"#utility.yul\":5264:5316   */\n      tag_241\n      jump\t// in\n    tag_345:\n        /* \"#utility.yul\":5332:5416   */\n      tag_346\n        /* \"#utility.yul\":5409:5415   */\n      dup2\n        /* \"#utility.yul\":5404:5407   */\n      dup5\n        /* \"#utility.yul\":5332:5416   */\n      tag_242\n      jump\t// in\n    tag_346:\n        /* \"#utility.yul\":5325:5416   */\n      swap3\n      pop\n        /* \"#utility.yul\":5440:5494   */\n      tag_347\n        /* \"#utility.yul\":5488:5493   */\n      dup3\n        /* \"#utility.yul\":5440:5494   */\n      tag_243\n      jump\t// in\n    tag_347:\n        /* \"#utility.yul\":5517:5524   */\n      dup1\n        /* \"#utility.yul\":5548:5549   */\n      0x00\n        /* \"#utility.yul\":5533:5815   */\n    tag_348:\n        /* \"#utility.yul\":5558:5564   */\n      dup4\n        /* \"#utility.yul\":5555:5556   */\n      dup2\n        /* \"#utility.yul\":5552:5565   */\n      lt\n        /* \"#utility.yul\":5533:5815   */\n      iszero\n      tag_350\n      jumpi\n        /* \"#utility.yul\":5634:5640   */\n      dup2\n        /* \"#utility.yul\":5628:5641   */\n      mload\n        /* \"#utility.yul\":5661:5724   */\n      tag_351\n        /* \"#utility.yul\":5720:5723   */\n      dup8\n        /* \"#utility.yul\":5705:5718   */\n      dup3\n        /* \"#utility.yul\":5661:5724   */\n      tag_245\n      jump\t// in\n    tag_351:\n        /* \"#utility.yul\":5654:5724   */\n      swap7\n      pop\n        /* \"#utility.yul\":5747:5805   */\n      tag_352\n        /* \"#utility.yul\":5798:5804   */\n      dup4\n        /* \"#utility.yul\":5747:5805   */\n      tag_246\n      jump\t// in\n    tag_352:\n        /* \"#utility.yul\":5737:5805   */\n      swap3\n      pop\n        /* \"#utility.yul\":5593:5815   */\n      pop\n        /* \"#utility.yul\":5580:5581   */\n      0x01\n        /* \"#utility.yul\":5577:5578   */\n      dup2\n        /* \"#utility.yul\":5573:5582   */\n      add\n        /* \"#utility.yul\":5568:5582   */\n      swap1\n      pop\n        /* \"#utility.yul\":5533:5815   */\n      jump(tag_348)\n    tag_350:\n        /* \"#utility.yul\":5537:5551   */\n      pop\n        /* \"#utility.yul\":5240:5822   */\n      pop\n      pop\n      pop\n        /* \"#utility.yul\":5128:5822   */\n      pop\n      pop\n      jump\t// out\n        /* \"#utility.yul\":5828:6142   */\n    tag_28:\n        /* \"#utility.yul\":5967:5971   */\n      0x00\n        /* \"#utility.yul\":6005:6007   */\n      0x40\n        /* \"#utility.yul\":5994:6003   */\n      dup3\n        /* \"#utility.yul\":5990:6008   */\n      add\n        /* \"#utility.yul\":5982:6008   */\n      swap1\n      pop\n        /* \"#utility.yul\":6018:6135   */\n      tag_354\n        /* \"#utility.yul\":6132:6133   */\n      0x00\n        /* \"#utility.yul\":6121:6130   */\n      dup4\n        /* \"#utility.yul\":6117:6134   */\n      add\n        /* \"#utility.yul\":6108:6114   */\n      dup5\n        /* \"#utility.yul\":6018:6135   */\n      tag_247\n      jump\t// in\n    tag_354:\n        /* \"#utility.yul\":5828:6142   */\n      swap3\n      swap2\n      pop\n      pop\n      jump\t// out\n        /* \"#utility.yul\":6148:6370   */\n    tag_37:\n        /* \"#utility.yul\":6241:6245   */\n      0x00\n        /* \"#utility.yul\":6279:6281   */\n      0x20\n        /* \"#utility.yul\":6268:6277   */\n      dup3\n        /* \"#utility.yul\":6264:6282   */\n      add\n        /* \"#utility.yul\":6256:6282   */\n      swap1\n      pop\n        /* \"#utility.yul\":6292:6363   */\n      tag_356\n        /* \"#utility.yul\":6360:6361   */\n      0x00\n        /* \"#utility.yul\":6349:6358   */\n      dup4\n        /* \"#utility.yul\":6345:6362   */\n      add\n        /* \"#utility.yul\":6336:6342   */\n      dup5\n        /* \"#utility.yul\":6292:6363   */\n      tag_230\n      jump\t// in\n    tag_356:\n        /* \"#utility.yul\":6148:6370   */\n      swap3\n      swap2\n      pop\n      pop\n      jump\t// out\n        /* \"#utility.yul\":6376:6493   */\n    tag_248:\n        /* \"#utility.yul\":6485:6486   */\n      0x00\n        /* \"#utility.yul\":6482:6483   */\n      dup1\n        /* \"#utility.yul\":6475:6487   */\n      revert\n        /* \"#utility.yul\":6499:6616   */\n    tag_249:\n        /* \"#utility.yul\":6608:6609   */\n      0x00\n        /* \"#utility.yul\":6605:6606   */\n      dup1\n        /* \"#utility.yul\":6598:6610   */\n      revert\n        /* \"#utility.yul\":6622:6739   */\n    tag_250:\n        /* \"#utility.yul\":6731:6732   */\n      0x00\n        /* \"#utility.yul\":6728:6729   */\n      dup1\n        /* \"#utility.yul\":6721:6733   */\n      revert\n        /* \"#utility.yul\":6759:7312   */\n    tag_251:\n        /* \"#utility.yul\":6817:6825   */\n      0x00\n        /* \"#utility.yul\":6827:6833   */\n      dup1\n        /* \"#utility.yul\":6877:6880   */\n      dup4\n        /* \"#utility.yul\":6870:6874   */\n      0x1f\n        /* \"#utility.yul\":6862:6868   */\n      dup5\n        /* \"#utility.yul\":6858:6875   */\n      add\n        /* \"#utility.yul\":6854:6881   */\n      slt\n        /* \"#utility.yul\":6844:6966   */\n      tag_361\n      jumpi\n        /* \"#utility.yul\":6885:6964   */\n      tag_362\n      tag_248\n      jump\t// in\n    tag_362:\n        /* \"#utility.yul\":6844:6966   */\n    tag_361:\n        /* \"#utility.yul\":6998:7004   */\n      dup3\n        /* \"#utility.yul\":6985:7005   */\n      calldataload\n        /* \"#utility.yul\":6975:7005   */\n      swap1\n      pop\n        /* \"#utility.yul\":7028:7046   */\n      0xffffffffffffffff\n        /* \"#utility.yul\":7020:7026   */\n      dup2\n        /* \"#utility.yul\":7017:7047   */\n      gt\n        /* \"#utility.yul\":7014:7131   */\n      iszero\n      tag_363\n      jumpi\n        /* \"#utility.yul\":7050:7129   */\n      tag_364\n      tag_249\n      jump\t// in\n    tag_364:\n        /* \"#utility.yul\":7014:7131   */\n    tag_363:\n        /* \"#utility.yul\":7164:7168   */\n      0x20\n        /* \"#utility.yul\":7156:7162   */\n      dup4\n        /* \"#utility.yul\":7152:7169   */\n      add\n        /* \"#utility.yul\":7140:7169   */\n      swap2\n      pop\n        /* \"#utility.yul\":7218:7221   */\n      dup4\n        /* \"#utility.yul\":7210:7214   */\n      0x01\n        /* \"#utility.yul\":7202:7208   */\n      dup3\n        /* \"#utility.yul\":7198:7215   */\n      mul\n        /* \"#utility.yul\":7188:7196   */\n      dup4\n        /* \"#utility.yul\":7184:7216   */\n      add\n        /* \"#utility.yul\":7181:7222   */\n      gt\n        /* \"#utility.yul\":7178:7306   */\n      iszero\n      tag_365\n      jumpi\n        /* \"#utility.yul\":7225:7304   */\n      tag_366\n      tag_250\n      jump\t// in\n    tag_366:\n        /* \"#utility.yul\":7178:7306   */\n    tag_365:\n        /* \"#utility.yul\":6759:7312   */\n      swap3\n      pop\n      swap3\n      swap1\n      pop\n      jump\t// out\n        /* \"#utility.yul\":7318:8337   */\n    tag_41:\n        /* \"#utility.yul\":7419:7425   */\n      0x00\n        /* \"#utility.yul\":7427:7433   */\n      dup1\n        /* \"#utility.yul\":7435:7441   */\n      0x00\n        /* \"#utility.yul\":7443:7449   */\n      dup1\n        /* \"#utility.yul\":7451:7457   */\n      0x00\n        /* \"#utility.yul\":7500:7502   */\n      0x60\n        /* \"#utility.yul\":7488:7497   */\n      dup7\n        /* \"#utility.yul\":7479:7486   */\n      dup9\n        /* \"#utility.yul\":7475:7498   */\n      sub\n        /* \"#utility.yul\":7471:7503   */\n      slt\n        /* \"#utility.yul\":7468:7587   */\n      iszero\n      tag_368\n      jumpi\n        /* \"#utility.yul\":7506:7585   */\n      tag_369\n      tag_225\n      jump\t// in\n    tag_369:\n        /* \"#utility.yul\":7468:7587   */\n    tag_368:\n        /* \"#utility.yul\":7654:7655   */\n      0x00\n        /* \"#utility.yul\":7643:7652   */\n      dup7\n        /* \"#utility.yul\":7639:7656   */\n      add\n        /* \"#utility.yul\":7626:7657   */\n      calldataload\n        /* \"#utility.yul\":7684:7702   */\n      0xffffffffffffffff\n        /* \"#utility.yul\":7676:7682   */\n      dup2\n        /* \"#utility.yul\":7673:7703   */\n      gt\n        /* \"#utility.yul\":7670:7787   */\n      iszero\n      tag_370\n      jumpi\n        /* \"#utility.yul\":7706:7785   */\n      tag_371\n      tag_226\n      jump\t// in\n    tag_371:\n        /* \"#utility.yul\":7670:7787   */\n    tag_370:\n        /* \"#utility.yul\":7819:7884   */\n      tag_372\n        /* \"#utility.yul\":7876:7883   */\n      dup9\n        /* \"#utility.yul\":7867:7873   */\n      dup3\n        /* \"#utility.yul\":7856:7865   */\n      dup10\n        /* \"#utility.yul\":7852:7874   */\n      add\n        /* \"#utility.yul\":7819:7884   */\n      tag_251\n      jump\t// in\n    tag_372:\n        /* \"#utility.yul\":7801:7884   */\n      swap6\n      pop\n      swap6\n      pop\n        /* \"#utility.yul\":7597:7894   */\n      pop\n        /* \"#utility.yul\":7961:7963   */\n      0x20\n        /* \"#utility.yul\":7950:7959   */\n      dup7\n        /* \"#utility.yul\":7946:7964   */\n      add\n        /* \"#utility.yul\":7933:7965   */\n      calldataload\n        /* \"#utility.yul\":7992:8010   */\n      0xffffffffffffffff\n        /* \"#utility.yul\":7984:7990   */\n      dup2\n        /* \"#utility.yul\":7981:8011   */\n      gt\n        /* \"#utility.yul\":7978:8095   */\n      iszero\n      tag_373\n      jumpi\n        /* \"#utility.yul\":8014:8093   */\n      tag_374\n      tag_226\n      jump\t// in\n    tag_374:\n        /* \"#utility.yul\":7978:8095   */\n    tag_373:\n        /* \"#utility.yul\":8127:8192   */\n      tag_375\n        /* \"#utility.yul\":8184:8191   */\n      dup9\n        /* \"#utility.yul\":8175:8181   */\n      dup3\n        /* \"#utility.yul\":8164:8173   */\n      dup10\n        /* \"#utility.yul\":8160:8182   */\n      add\n        /* \"#utility.yul\":8127:8192   */\n      tag_251\n      jump\t// in\n    tag_375:\n        /* \"#utility.yul\":8109:8192   */\n      swap4\n      pop\n      swap4\n      pop\n        /* \"#utility.yul\":7904:8202   */\n      pop\n        /* \"#utility.yul\":8241:8243   */\n      0x40\n        /* \"#utility.yul\":8267:8320   */\n      tag_376\n        /* \"#utility.yul\":8312:8319   */\n      dup9\n        /* \"#utility.yul\":8303:8309   */\n      dup3\n        /* \"#utility.yul\":8292:8301   */\n      dup10\n        /* \"#utility.yul\":8288:8310   */\n      add\n        /* \"#utility.yul\":8267:8320   */\n      tag_229\n      jump\t// in\n    tag_376:\n        /* \"#utility.yul\":8257:8320   */\n      swap2\n      pop\n        /* \"#utility.yul\":8212:8330   */\n      pop\n        /* \"#utility.yul\":7318:8337   */\n      swap3\n      swap6\n      pop\n      swap3\n      swap6\n      swap1\n      swap4\n      pop\n      jump\t// out\n        /* \"#utility.yul\":8343:8465   */\n    tag_252:\n        /* \"#utility.yul\":8416:8440   */\n      tag_378\n        /* \"#utility.yul\":8434:8439   */\n      dup2\n        /* \"#utility.yul\":8416:8440   */\n      tag_239\n      jump\t// in\n    tag_378:\n        /* \"#utility.yul\":8409:8414   */\n      dup2\n        /* \"#utility.yul\":8406:8441   */\n      eq\n        /* \"#utility.yul\":8396:8459   */\n      tag_379\n      jumpi\n        /* \"#utility.yul\":8455:8456   */\n      0x00\n        /* \"#utility.yul\":8452:8453   */\n      dup1\n        /* \"#utility.yul\":8445:8457   */\n      revert\n        /* \"#utility.yul\":8396:8459   */\n    tag_379:\n        /* \"#utility.yul\":8343:8465   */\n      pop\n      jump\t// out\n        /* \"#utility.yul\":8471:8610   */\n    tag_253:\n        /* \"#utility.yul\":8517:8522   */\n      0x00\n        /* \"#utility.yul\":8555:8561   */\n      dup2\n        /* \"#utility.yul\":8542:8562   */\n      calldataload\n        /* \"#utility.yul\":8533:8562   */\n      swap1\n      pop\n        /* \"#utility.yul\":8571:8604   */\n      tag_381\n        /* \"#utility.yul\":8598:8603   */\n      dup2\n        /* \"#utility.yul\":8571:8604   */\n      tag_252\n      jump\t// in\n    tag_381:\n        /* \"#utility.yul\":8471:8610   */\n      swap3\n      swap2\n      pop\n      pop\n      jump\t// out\n        /* \"#utility.yul\":8616:9090   */\n    tag_46:\n        /* \"#utility.yul\":8684:8690   */\n      0x00\n        /* \"#utility.yul\":8692:8698   */\n      dup1\n        /* \"#utility.yul\":8741:8743   */\n      0x40\n        /* \"#utility.yul\":8729:8738   */\n      dup4\n        /* \"#utility.yul\":8720:8727   */\n      dup6\n        /* \"#utility.yul\":8716:8739   */\n      sub\n        /* \"#utility.yul\":8712:8744   */\n      slt\n        /* \"#utility.yul\":8709:8828   */\n      iszero\n      tag_383\n      jumpi\n        /* \"#utility.yul\":8747:8826   */\n      tag_384\n      tag_225\n      jump\t// in\n    tag_384:\n        /* \"#utility.yul\":8709:8828   */\n    tag_383:\n        /* \"#utility.yul\":8867:8868   */\n      0x00\n        /* \"#utility.yul\":8892:8945   */\n      tag_385\n        /* \"#utility.yul\":8937:8944   */\n      dup6\n        /* \"#utility.yul\":8928:8934   */\n      dup3\n        /* \"#utility.yul\":8917:8926   */\n      dup7\n        /* \"#utility.yul\":8913:8935   */\n      add\n        /* \"#utility.yul\":8892:8945   */\n      tag_253\n      jump\t// in\n    tag_385:\n        /* \"#utility.yul\":8882:8945   */\n      swap3\n      pop\n        /* \"#utility.yul\":8838:8955   */\n      pop\n        /* \"#utility.yul\":8994:8996   */\n      0x20\n        /* \"#utility.yul\":9020:9073   */\n      tag_386\n        /* \"#utility.yul\":9065:9072   */\n      dup6\n        /* \"#utility.yul\":9056:9062   */\n      dup3\n        /* \"#utility.yul\":9045:9054   */\n      dup7\n        /* \"#utility.yul\":9041:9063   */\n      add\n        /* \"#utility.yul\":9020:9073   */\n      tag_229\n      jump\t// in\n    tag_386:\n        /* \"#utility.yul\":9010:9073   */\n      swap2\n      pop\n        /* \"#utility.yul\":8965:9083   */\n      pop\n        /* \"#utility.yul\":8616:9090   */\n      swap3\n      pop\n      swap3\n      swap1\n      pop\n      jump\t// out\n        /* \"#utility.yul\":9096:9871   */\n    tag_49:\n        /* \"#utility.yul\":9329:9333   */\n      0x00\n        /* \"#utility.yul\":9367:9370   */\n      0xc0\n        /* \"#utility.yul\":9356:9365   */\n      dup3\n        /* \"#utility.yul\":9352:9371   */\n      add\n        /* \"#utility.yul\":9344:9371   */\n      swap1\n      pop\n        /* \"#utility.yul\":9381:9452   */\n      tag_388\n        /* \"#utility.yul\":9449:9450   */\n      0x00\n        /* \"#utility.yul\":9438:9447   */\n      dup4\n        /* \"#utility.yul\":9434:9451   */\n      add\n        /* \"#utility.yul\":9425:9431   */\n      dup10\n        /* \"#utility.yul\":9381:9452   */\n      tag_230\n      jump\t// in\n    tag_388:\n        /* \"#utility.yul\":9462:9534   */\n      tag_389\n        /* \"#utility.yul\":9530:9532   */\n      0x20\n        /* \"#utility.yul\":9519:9528   */\n      dup4\n        /* \"#utility.yul\":9515:9533   */\n      add\n        /* \"#utility.yul\":9506:9512   */\n      dup9\n        /* \"#utility.yul\":9462:9534   */\n      tag_230\n      jump\t// in\n    tag_389:\n        /* \"#utility.yul\":9544:9616   */\n      tag_390\n        /* \"#utility.yul\":9612:9614   */\n      0x40\n        /* \"#utility.yul\":9601:9610   */\n      dup4\n        /* \"#utility.yul\":9597:9615   */\n      add\n        /* \"#utility.yul\":9588:9594   */\n      dup8\n        /* \"#utility.yul\":9544:9616   */\n      tag_230\n      jump\t// in\n    tag_390:\n        /* \"#utility.yul\":9626:9698   */\n      tag_391\n        /* \"#utility.yul\":9694:9696   */\n      0x60\n        /* \"#utility.yul\":9683:9692   */\n      dup4\n        /* \"#utility.yul\":9679:9697   */\n      add\n        /* \"#utility.yul\":9670:9676   */\n      dup7\n        /* \"#utility.yul\":9626:9698   */\n      tag_230\n      jump\t// in\n    tag_391:\n        /* \"#utility.yul\":9708:9781   */\n      tag_392\n        /* \"#utility.yul\":9776:9779   */\n      0x80\n        /* \"#utility.yul\":9765:9774   */\n      dup4\n        /* \"#utility.yul\":9761:9780   */\n      add\n        /* \"#utility.yul\":9752:9758   */\n      dup6\n        /* \"#utility.yul\":9708:9781   */\n      tag_230\n      jump\t// in\n    tag_392:\n        /* \"#utility.yul\":9791:9864   */\n      tag_393\n        /* \"#utility.yul\":9859:9862   */\n      0xa0\n        /* \"#utility.yul\":9848:9857   */\n      dup4\n        /* \"#utility.yul\":9844:9863   */\n      add\n        /* \"#utility.yul\":9835:9841   */\n      dup5\n        /* \"#utility.yul\":9791:9864   */\n      tag_240\n      jump\t// in\n    tag_393:\n        /* \"#utility.yul\":9096:9871   */\n      swap8\n      swap7\n      pop\n      pop\n      pop\n      pop\n      pop\n      pop\n      pop\n      jump\t// out\n        /* \"#utility.yul\":9877:10351   */\n    tag_53:\n        /* \"#utility.yul\":9945:9951   */\n      0x00\n        /* \"#utility.yul\":9953:9959   */\n      dup1\n        /* \"#utility.yul\":10002:10004   */\n      0x40\n        /* \"#utility.yul\":9990:9999   */\n      dup4\n        /* \"#utility.yul\":9981:9988   */\n      dup6\n        /* \"#utility.yul\":9977:10000   */\n      sub\n        /* \"#utility.yul\":9973:10005   */\n      slt\n        /* \"#utility.yul\":9970:10089   */\n      iszero\n      tag_395\n      jumpi\n        /* \"#utility.yul\":10008:10087   */\n      tag_396\n      tag_225\n      jump\t// in\n    tag_396:\n        /* \"#utility.yul\":9970:10089   */\n    tag_395:\n        /* \"#utility.yul\":10128:10129   */\n      0x00\n        /* \"#utility.yul\":10153:10206   */\n      tag_397\n        /* \"#utility.yul\":10198:10205   */\n      dup6\n        /* \"#utility.yul\":10189:10195   */\n      dup3\n        /* \"#utility.yul\":10178:10187   */\n      dup7\n        /* \"#utility.yul\":10174:10196   */\n      add\n        /* \"#utility.yul\":10153:10206   */\n      tag_229\n      jump\t// in\n    tag_397:\n        /* \"#utility.yul\":10143:10206   */\n      swap3\n      pop\n        /* \"#utility.yul\":10099:10216   */\n      pop\n        /* \"#utility.yul\":10255:10257   */\n      0x20\n        /* \"#utility.yul\":10281:10334   */\n      tag_398\n        /* \"#utility.yul\":10326:10333   */\n      dup6\n        /* \"#utility.yul\":10317:10323   */\n      dup3\n        /* \"#utility.yul\":10306:10315   */\n      dup7\n        /* \"#utility.yul\":10302:10324   */\n      add\n        /* \"#utility.yul\":10281:10334   */\n      tag_229\n      jump\t// in\n    tag_398:\n        /* \"#utility.yul\":10271:10334   */\n      swap2\n      pop\n        /* \"#utility.yul\":10226:10344   */\n      pop\n        /* \"#utility.yul\":9877:10351   */\n      swap3\n      pop\n      swap3\n      swap1\n      pop\n      jump\t// out\n        /* \"#utility.yul\":10357:10491   */\n    tag_254:\n        /* \"#utility.yul\":10444:10450   */\n      0x00\n        /* \"#utility.yul\":10478:10483   */\n      dup2\n        /* \"#utility.yul\":10472:10484   */\n      mload\n        /* \"#utility.yul\":10462:10484   */\n      swap1\n      pop\n        /* \"#utility.yul\":10357:10491   */\n      swap2\n      swap1\n      pop\n      jump\t// out\n        /* \"#utility.yul\":10497:10701   */\n    tag_255:\n        /* \"#utility.yul\":10616:10627   */\n      0x00\n        /* \"#utility.yul\":10650:10656   */\n      dup3\n        /* \"#utility.yul\":10645:10648   */\n      dup3\n        /* \"#utility.yul\":10638:10657   */\n      mstore\n        /* \"#utility.yul\":10690:10694   */\n      0x20\n        /* \"#utility.yul\":10685:10688   */\n      dup3\n        /* \"#utility.yul\":10681:10695   */\n      add\n        /* \"#utility.yul\":10666:10695   */\n      swap1\n      pop\n        /* \"#utility.yul\":10497:10701   */\n      swap3\n      swap2\n      pop\n      pop\n      jump\t// out\n        /* \"#utility.yul\":10707:10859   */\n    tag_256:\n        /* \"#utility.yul\":10794:10798   */\n      0x00\n        /* \"#utility.yul\":10817:10820   */\n      dup2\n        /* \"#utility.yul\":10809:10820   */\n      swap1\n      pop\n        /* \"#utility.yul\":10847:10851   */\n      0x20\n        /* \"#utility.yul\":10842:10845   */\n      dup3\n        /* \"#utility.yul\":10838:10852   */\n      add\n        /* \"#utility.yul\":10830:10852   */\n      swap1\n      pop\n        /* \"#utility.yul\":10707:10859   */\n      swap2\n      swap1\n      pop\n      jump\t// out\n        /* \"#utility.yul\":10865:10973   */\n    tag_257:\n        /* \"#utility.yul\":10942:10966   */\n      tag_403\n        /* \"#utility.yul\":10960:10965   */\n      dup2\n        /* \"#utility.yul\":10942:10966   */\n      tag_239\n      jump\t// in\n    tag_403:\n        /* \"#utility.yul\":10937:10940   */\n      dup3\n        /* \"#utility.yul\":10930:10967   */\n      mstore\n        /* \"#utility.yul\":10865:10973   */\n      pop\n      pop\n      jump\t// out\n        /* \"#utility.yul\":11035:12238   */\n    tag_258:\n        /* \"#utility.yul\":11162:11166   */\n      0xc0\n        /* \"#utility.yul\":11157:11160   */\n      dup3\n        /* \"#utility.yul\":11153:11167   */\n      add\n        /* \"#utility.yul\":11247:11251   */\n      0x00\n        /* \"#utility.yul\":11240:11245   */\n      dup3\n        /* \"#utility.yul\":11236:11252   */\n      add\n        /* \"#utility.yul\":11230:11253   */\n      mload\n        /* \"#utility.yul\":11266:11329   */\n      tag_405\n        /* \"#utility.yul\":11323:11327   */\n      0x00\n        /* \"#utility.yul\":11318:11321   */\n      dup6\n        /* \"#utility.yul\":11314:11328   */\n      add\n        /* \"#utility.yul\":11300:11312   */\n      dup3\n        /* \"#utility.yul\":11266:11329   */\n      tag_244\n      jump\t// in\n    tag_405:\n        /* \"#utility.yul\":11177:11339   */\n      pop\n        /* \"#utility.yul\":11420:11424   */\n      0x20\n        /* \"#utility.yul\":11413:11418   */\n      dup3\n        /* \"#utility.yul\":11409:11425   */\n      add\n        /* \"#utility.yul\":11403:11426   */\n      mload\n        /* \"#utility.yul\":11439:11502   */\n      tag_406\n        /* \"#utility.yul\":11496:11500   */\n      0x20\n        /* \"#utility.yul\":11491:11494   */\n      dup6\n        /* \"#utility.yul\":11487:11501   */\n      add\n        /* \"#utility.yul\":11473:11485   */\n      dup3\n        /* \"#utility.yul\":11439:11502   */\n      tag_244\n      jump\t// in\n    tag_406:\n        /* \"#utility.yul\":11349:11512   */\n      pop\n        /* \"#utility.yul\":11600:11604   */\n      0x40\n        /* \"#utility.yul\":11593:11598   */\n      dup3\n        /* \"#utility.yul\":11589:11605   */\n      add\n        /* \"#utility.yul\":11583:11606   */\n      mload\n        /* \"#utility.yul\":11619:11682   */\n      tag_407\n        /* \"#utility.yul\":11676:11680   */\n      0x40\n        /* \"#utility.yul\":11671:11674   */\n      dup6\n        /* \"#utility.yul\":11667:11681   */\n      add\n        /* \"#utility.yul\":11653:11665   */\n      dup3\n        /* \"#utility.yul\":11619:11682   */\n      tag_244\n      jump\t// in\n    tag_407:\n        /* \"#utility.yul\":11522:11692   */\n      pop\n        /* \"#utility.yul\":11781:11785   */\n      0x60\n        /* \"#utility.yul\":11774:11779   */\n      dup3\n        /* \"#utility.yul\":11770:11786   */\n      add\n        /* \"#utility.yul\":11764:11787   */\n      mload\n        /* \"#utility.yul\":11800:11863   */\n      tag_408\n        /* \"#utility.yul\":11857:11861   */\n      0x60\n        /* \"#utility.yul\":11852:11855   */\n      dup6\n        /* \"#utility.yul\":11848:11862   */\n      add\n        /* \"#utility.yul\":11834:11846   */\n      dup3\n        /* \"#utility.yul\":11800:11863   */\n      tag_244\n      jump\t// in\n    tag_408:\n        /* \"#utility.yul\":11702:11873   */\n      pop\n        /* \"#utility.yul\":11963:11967   */\n      0x80\n        /* \"#utility.yul\":11956:11961   */\n      dup3\n        /* \"#utility.yul\":11952:11968   */\n      add\n        /* \"#utility.yul\":11946:11969   */\n      mload\n        /* \"#utility.yul\":11982:12045   */\n      tag_409\n        /* \"#utility.yul\":12039:12043   */\n      0x80\n        /* \"#utility.yul\":12034:12037   */\n      dup6\n        /* \"#utility.yul\":12030:12044   */\n      add\n        /* \"#utility.yul\":12016:12028   */\n      dup3\n        /* \"#utility.yul\":11982:12045   */\n      tag_244\n      jump\t// in\n    tag_409:\n        /* \"#utility.yul\":11883:12055   */\n      pop\n        /* \"#utility.yul\":12139:12143   */\n      0xa0\n        /* \"#utility.yul\":12132:12137   */\n      dup3\n        /* \"#utility.yul\":12128:12144   */\n      add\n        /* \"#utility.yul\":12122:12145   */\n      mload\n        /* \"#utility.yul\":12158:12221   */\n      tag_410\n        /* \"#utility.yul\":12215:12219   */\n      0xa0\n        /* \"#utility.yul\":12210:12213   */\n      dup6\n        /* \"#utility.yul\":12206:12220   */\n      add\n        /* \"#utility.yul\":12192:12204   */\n      dup3\n        /* \"#utility.yul\":12158:12221   */\n      tag_257\n      jump\t// in\n    tag_410:\n        /* \"#utility.yul\":12065:12231   */\n      pop\n        /* \"#utility.yul\":11131:12238   */\n      pop\n        /* \"#utility.yul\":11035:12238   */\n      pop\n      pop\n      jump\t// out\n        /* \"#utility.yul\":12244:12503   */\n    tag_259:\n        /* \"#utility.yul\":12353:12363   */\n      0x00\n        /* \"#utility.yul\":12374:12460   */\n      tag_412\n        /* \"#utility.yul\":12456:12459   */\n      dup4\n        /* \"#utility.yul\":12448:12454   */\n      dup4\n        /* \"#utility.yul\":12374:12460   */\n      tag_258\n      jump\t// in\n    tag_412:\n        /* \"#utility.yul\":12492:12496   */\n      0xc0\n        /* \"#utility.yul\":12487:12490   */\n      dup4\n        /* \"#utility.yul\":12483:12497   */\n      add\n        /* \"#utility.yul\":12469:12497   */\n      swap1\n      pop\n        /* \"#utility.yul\":12244:12503   */\n      swap3\n      swap2\n      pop\n      pop\n      jump\t// out\n        /* \"#utility.yul\":12509:12642   */\n    tag_260:\n        /* \"#utility.yul\":12599:12603   */\n      0x00\n        /* \"#utility.yul\":12631:12635   */\n      0x20\n        /* \"#utility.yul\":12626:12629   */\n      dup3\n        /* \"#utility.yul\":12622:12636   */\n      add\n        /* \"#utility.yul\":12614:12636   */\n      swap1\n      pop\n        /* \"#utility.yul\":12509:12642   */\n      swap2\n      swap1\n      pop\n      jump\t// out\n        /* \"#utility.yul\":12708:13600   */\n    tag_261:\n        /* \"#utility.yul\":12867:12870   */\n      0x00\n        /* \"#utility.yul\":12896:12970   */\n      tag_415\n        /* \"#utility.yul\":12964:12969   */\n      dup3\n        /* \"#utility.yul\":12896:12970   */\n      tag_254\n      jump\t// in\n    tag_415:\n        /* \"#utility.yul\":12986:13092   */\n      tag_416\n        /* \"#utility.yul\":13085:13091   */\n      dup2\n        /* \"#utility.yul\":13080:13083   */\n      dup6\n        /* \"#utility.yul\":12986:13092   */\n      tag_255\n      jump\t// in\n    tag_416:\n        /* \"#utility.yul\":12979:13092   */\n      swap4\n      pop\n        /* \"#utility.yul\":13116:13192   */\n      tag_417\n        /* \"#utility.yul\":13186:13191   */\n      dup4\n        /* \"#utility.yul\":13116:13192   */\n      tag_256\n      jump\t// in\n    tag_417:\n        /* \"#utility.yul\":13215:13222   */\n      dup1\n        /* \"#utility.yul\":13246:13247   */\n      0x00\n        /* \"#utility.yul\":13231:13575   */\n    tag_418:\n        /* \"#utility.yul\":13256:13262   */\n      dup4\n        /* \"#utility.yul\":13253:13254   */\n      dup2\n        /* \"#utility.yul\":13250:13263   */\n      lt\n        /* \"#utility.yul\":13231:13575   */\n      iszero\n      tag_420\n      jumpi\n        /* \"#utility.yul\":13332:13338   */\n      dup2\n        /* \"#utility.yul\":13326:13339   */\n      mload\n        /* \"#utility.yul\":13359:13462   */\n      tag_421\n        /* \"#utility.yul\":13458:13461   */\n      dup9\n        /* \"#utility.yul\":13443:13456   */\n      dup3\n        /* \"#utility.yul\":13359:13462   */\n      tag_259\n      jump\t// in\n    tag_421:\n        /* \"#utility.yul\":13352:13462   */\n      swap8\n      pop\n        /* \"#utility.yul\":13485:13565   */\n      tag_422\n        /* \"#utility.yul\":13558:13564   */\n      dup4\n        /* \"#utility.yul\":13485:13565   */\n      tag_260\n      jump\t// in\n    tag_422:\n        /* \"#utility.yul\":13475:13565   */\n      swap3\n      pop\n        /* \"#utility.yul\":13291:13575   */\n      pop\n        /* \"#utility.yul\":13278:13279   */\n      0x01\n        /* \"#utility.yul\":13275:13276   */\n      dup2\n        /* \"#utility.yul\":13271:13280   */\n      add\n        /* \"#utility.yul\":13266:13280   */\n      swap1\n      pop\n        /* \"#utility.yul\":13231:13575   */\n      jump(tag_418)\n    tag_420:\n        /* \"#utility.yul\":13235:13249   */\n      pop\n        /* \"#utility.yul\":13591:13594   */\n      dup6\n        /* \"#utility.yul\":13584:13594   */\n      swap4\n      pop\n        /* \"#utility.yul\":12872:13600   */\n      pop\n      pop\n      pop\n        /* \"#utility.yul\":12708:13600   */\n      swap3\n      swap2\n      pop\n      pop\n      jump\t// out\n        /* \"#utility.yul\":13606:14059   */\n    tag_60:\n        /* \"#utility.yul\":13789:13793   */\n      0x00\n        /* \"#utility.yul\":13827:13829   */\n      0x20\n        /* \"#utility.yul\":13816:13825   */\n      dup3\n        /* \"#utility.yul\":13812:13830   */\n      add\n        /* \"#utility.yul\":13804:13830   */\n      swap1\n      pop\n        /* \"#utility.yul\":13876:13885   */\n      dup2\n        /* \"#utility.yul\":13870:13874   */\n      dup2\n        /* \"#utility.yul\":13866:13886   */\n      sub\n        /* \"#utility.yul\":13862:13863   */\n      0x00\n        /* \"#utility.yul\":13851:13860   */\n      dup4\n        /* \"#utility.yul\":13847:13864   */\n      add\n        /* \"#utility.yul\":13840:13887   */\n      mstore\n        /* \"#utility.yul\":13904:14052   */\n      tag_424\n        /* \"#utility.yul\":14047:14051   */\n      dup2\n        /* \"#utility.yul\":14038:14044   */\n      dup5\n        /* \"#utility.yul\":13904:14052   */\n      tag_261\n      jump\t// in\n    tag_424:\n        /* \"#utility.yul\":13896:14052   */\n      swap1\n      pop\n        /* \"#utility.yul\":13606:14059   */\n      swap3\n      swap2\n      pop\n      pop\n      jump\t// out\n        /* \"#utility.yul\":14065:14830   */\n    tag_68:\n        /* \"#utility.yul\":14151:14157   */\n      0x00\n        /* \"#utility.yul\":14159:14165   */\n      dup1\n        /* \"#utility.yul\":14167:14173   */\n      0x00\n        /* \"#utility.yul\":14175:14181   */\n      dup1\n        /* \"#utility.yul\":14224:14227   */\n      0x80\n        /* \"#utility.yul\":14212:14221   */\n      dup6\n        /* \"#utility.yul\":14203:14210   */\n      dup8\n        /* \"#utility.yul\":14199:14222   */\n      sub\n        /* \"#utility.yul\":14195:14228   */\n      slt\n        /* \"#utility.yul\":14192:14312   */\n      iszero\n      tag_426\n      jumpi\n        /* \"#utility.yul\":14231:14310   */\n      tag_427\n      tag_225\n      jump\t// in\n    tag_427:\n        /* \"#utility.yul\":14192:14312   */\n    tag_426:\n        /* \"#utility.yul\":14351:14352   */\n      0x00\n        /* \"#utility.yul\":14376:14429   */\n      tag_428\n        /* \"#utility.yul\":14421:14428   */\n      dup8\n        /* \"#utility.yul\":14412:14418   */\n      dup3\n        /* \"#utility.yul\":14401:14410   */\n      dup9\n        /* \"#utility.yul\":14397:14419   */\n      add\n        /* \"#utility.yul\":14376:14429   */\n      tag_229\n      jump\t// in\n    tag_428:\n        /* \"#utility.yul\":14366:14429   */\n      swap5\n      pop\n        /* \"#utility.yul\":14322:14439   */\n      pop\n        /* \"#utility.yul\":14478:14480   */\n      0x20\n        /* \"#utility.yul\":14504:14557   */\n      tag_429\n        /* \"#utility.yul\":14549:14556   */\n      dup8\n        /* \"#utility.yul\":14540:14546   */\n      dup3\n        /* \"#utility.yul\":14529:14538   */\n      dup9\n        /* \"#utility.yul\":14525:14547   */\n      add\n        /* \"#utility.yul\":14504:14557   */\n      tag_229\n      jump\t// in\n    tag_429:\n        /* \"#utility.yul\":14494:14557   */\n      swap4\n      pop\n        /* \"#utility.yul\":14449:14567   */\n      pop\n        /* \"#utility.yul\":14606:14608   */\n      0x40\n        /* \"#utility.yul\":14632:14685   */\n      tag_430\n        /* \"#utility.yul\":14677:14684   */\n      dup8\n        /* \"#utility.yul\":14668:14674   */\n      dup3\n        /* \"#utility.yul\":14657:14666   */\n      dup9\n        /* \"#utility.yul\":14653:14675   */\n      add\n        /* \"#utility.yul\":14632:14685   */\n      tag_229\n      jump\t// in\n    tag_430:\n        /* \"#utility.yul\":14622:14685   */\n      swap3\n      pop\n        /* \"#utility.yul\":14577:14695   */\n      pop\n        /* \"#utility.yul\":14734:14736   */\n      0x60\n        /* \"#utility.yul\":14760:14813   */\n      tag_431\n        /* \"#utility.yul\":14805:14812   */\n      dup8\n        /* \"#utility.yul\":14796:14802   */\n      dup3\n        /* \"#utility.yul\":14785:14794   */\n      dup9\n        /* \"#utility.yul\":14781:14803   */\n      add\n        /* \"#utility.yul\":14760:14813   */\n      tag_229\n      jump\t// in\n    tag_431:\n        /* \"#utility.yul\":14750:14813   */\n      swap2\n      pop\n        /* \"#utility.yul\":14705:14823   */\n      pop\n        /* \"#utility.yul\":14065:14830   */\n      swap3\n      swap6\n      swap2\n      swap5\n      pop\n      swap3\n      pop\n      jump\t// out\n        /* \"#utility.yul\":14836:15016   */\n    tag_262:\n        /* \"#utility.yul\":14884:14961   */\n      0x4e487b7100000000000000000000000000000000000000000000000000000000\n        /* \"#utility.yul\":14881:14882   */\n      0x00\n        /* \"#utility.yul\":14874:14962   */\n      mstore\n        /* \"#utility.yul\":14981:14985   */\n      0x22\n        /* \"#utility.yul\":14978:14979   */\n      0x04\n        /* \"#utility.yul\":14971:14986   */\n      mstore\n        /* \"#utility.yul\":15005:15009   */\n      0x24\n        /* \"#utility.yul\":15002:15003   */\n      0x00\n        /* \"#utility.yul\":14995:15010   */\n      revert\n        /* \"#utility.yul\":15022:15342   */\n    tag_79:\n        /* \"#utility.yul\":15066:15072   */\n      0x00\n        /* \"#utility.yul\":15103:15104   */\n      0x02\n        /* \"#utility.yul\":15097:15101   */\n      dup3\n        /* \"#utility.yul\":15093:15105   */\n      div\n        /* \"#utility.yul\":15083:15105   */\n      swap1\n      pop\n        /* \"#utility.yul\":15150:15151   */\n      0x01\n        /* \"#utility.yul\":15144:15148   */\n      dup3\n        /* \"#utility.yul\":15140:15152   */\n      and\n        /* \"#utility.yul\":15171:15189   */\n      dup1\n        /* \"#utility.yul\":15161:15242   */\n      tag_434\n      jumpi\n        /* \"#utility.yul\":15227:15231   */\n      0x7f\n        /* \"#utility.yul\":15219:15225   */\n      dup3\n        /* \"#utility.yul\":15215:15232   */\n      and\n        /* \"#utility.yul\":15205:15232   */\n      swap2\n      pop\n        /* \"#utility.yul\":15161:15242   */\n    tag_434:\n        /* \"#utility.yul\":15289:15291   */\n      0x20\n        /* \"#utility.yul\":15281:15287   */\n      dup3\n        /* \"#utility.yul\":15278:15292   */\n      lt\n        /* \"#utility.yul\":15258:15276   */\n      dup2\n        /* \"#utility.yul\":15255:15293   */\n      sub\n        /* \"#utility.yul\":15252:15336   */\n      tag_435\n      jumpi\n        /* \"#utility.yul\":15308:15326   */\n      tag_436\n      tag_262\n      jump\t// in\n    tag_436:\n        /* \"#utility.yul\":15252:15336   */\n    tag_435:\n        /* \"#utility.yul\":15073:15342   */\n      pop\n        /* \"#utility.yul\":15022:15342   */\n      swap2\n      swap1\n      pop\n      jump\t// out\n        /* \"#utility.yul\":15348:15528   */\n    tag_110:\n        /* \"#utility.yul\":15396:15473   */\n      0x4e487b7100000000000000000000000000000000000000000000000000000000\n        /* \"#utility.yul\":15393:15394   */\n      0x00\n        /* \"#utility.yul\":15386:15474   */\n      mstore\n        /* \"#utility.yul\":15493:15497   */\n      0x32\n        /* \"#utility.yul\":15490:15491   */\n      0x04\n        /* \"#utility.yul\":15483:15498   */\n      mstore\n        /* \"#utility.yul\":15517:15521   */\n      0x24\n        /* \"#utility.yul\":15514:15515   */\n      0x00\n        /* \"#utility.yul\":15507:15522   */\n      revert\n        /* \"#utility.yul\":15534:15714   */\n    tag_263:\n        /* \"#utility.yul\":15582:15659   */\n      0x4e487b7100000000000000000000000000000000000000000000000000000000\n        /* \"#utility.yul\":15579:15580   */\n      0x00\n        /* \"#utility.yul\":15572:15660   */\n      mstore\n        /* \"#utility.yul\":15679:15683   */\n      0x11\n        /* \"#utility.yul\":15676:15677   */\n      0x04\n        /* \"#utility.yul\":15669:15684   */\n      mstore\n        /* \"#utility.yul\":15703:15707   */\n      0x24\n        /* \"#utility.yul\":15700:15701   */\n      0x00\n        /* \"#utility.yul\":15693:15708   */\n      revert\n        /* \"#utility.yul\":15720:15953   */\n    tag_115:\n        /* \"#utility.yul\":15759:15762   */\n      0x00\n        /* \"#utility.yul\":15782:15806   */\n      tag_440\n        /* \"#utility.yul\":15800:15805   */\n      dup3\n        /* \"#utility.yul\":15782:15806   */\n      tag_227\n      jump\t// in\n    tag_440:\n        /* \"#utility.yul\":15773:15806   */\n      swap2\n      pop\n        /* \"#utility.yul\":15828:15894   */\n      0xffffffffffffffffffffffffffffffffffffffffffffffffffffffffffffffff\n        /* \"#utility.yul\":15821:15826   */\n      dup3\n        /* \"#utility.yul\":15818:15895   */\n      sub\n        /* \"#utility.yul\":15815:15918   */\n      tag_441\n      jumpi\n        /* \"#utility.yul\":15898:15916   */\n      tag_442\n      tag_263\n      jump\t// in\n    tag_442:\n        /* \"#utility.yul\":15815:15918   */\n    tag_441:\n        /* \"#utility.yul\":15945:15946   */\n      0x01\n        /* \"#utility.yul\":15938:15943   */\n      dup3\n        /* \"#utility.yul\":15934:15947   */\n      add\n        /* \"#utility.yul\":15927:15947   */\n      swap1\n      pop\n        /* \"#utility.yul\":15720:15953   */\n      swap2\n      swap1\n      pop\n      jump\t// out\n        /* \"#utility.yul\":15959:16153   */\n    tag_125:\n        /* \"#utility.yul\":15999:16003   */\n      0x00\n        /* \"#utility.yul\":16019:16039   */\n      tag_444\n        /* \"#utility.yul\":16037:16038   */\n      dup3\n        /* \"#utility.yul\":16019:16039   */\n      tag_227\n      jump\t// in\n    tag_444:\n        /* \"#utility.yul\":16014:16039   */\n      swap2\n      pop\n        /* \"#utility.yul\":16053:16073   */\n      tag_445\n        /* \"#utility.yul\":16071:16072   */\n      dup4\n        /* \"#utility.yul\":16053:16073   */\n      tag_227\n      jump\t// in\n    tag_445:\n        /* \"#utility.yul\":16048:16073   */\n      swap3\n      pop\n        /* \"#utility.yul\":16097:16098   */\n      dup3\n        /* \"#utility.yul\":16094:16095   */\n      dup3\n        /* \"#utility.yul\":16090:16099   */\n      sub\n        /* \"#utility.yul\":16082:16099   */\n      swap1\n      pop\n        /* \"#utility.yul\":16121:16122   */\n      dup2\n        /* \"#utility.yul\":16115:16119   */\n      dup2\n        /* \"#utility.yul\":16112:16123   */\n      gt\n        /* \"#utility.yul\":16109:16146   */\n      iszero\n      tag_446\n      jumpi\n        /* \"#utility.yul\":16126:16144   */\n      tag_447\n      tag_263\n      jump\t// in\n    tag_447:\n        /* \"#utility.yul\":16109:16146   */\n    tag_446:\n        /* \"#utility.yul\":15959:16153   */\n      swap3\n      swap2\n      pop\n      pop\n      jump\t// out\n        /* \"#utility.yul\":16159:16326   */\n    tag_264:\n        /* \"#utility.yul\":16299:16318   */\n      0x4e6f74206f776e6572206f6620726f6f6d000000000000000000000000000000\n        /* \"#utility.yul\":16295:16296   */\n      0x00\n        /* \"#utility.yul\":16287:16293   */\n      dup3\n        /* \"#utility.yul\":16283:16297   */\n      add\n        /* \"#utility.yul\":16276:16319   */\n      mstore\n        /* \"#utility.yul\":16159:16326   */\n      pop\n      jump\t// out\n        /* \"#utility.yul\":16332:16698   */\n    tag_265:\n        /* \"#utility.yul\":16474:16477   */\n      0x00\n        /* \"#utility.yul\":16495:16562   */\n      tag_450\n        /* \"#utility.yul\":16559:16561   */\n      0x11\n        /* \"#utility.yul\":16554:16557   */\n      dup4\n        /* \"#utility.yul\":16495:16562   */\n      tag_232\n      jump\t// in\n    tag_450:\n        /* \"#utility.yul\":16488:16562   */\n      swap2\n      pop\n        /* \"#utility.yul\":16571:16664   */\n      tag_451\n        /* \"#utility.yul\":16660:16663   */\n      dup3\n        /* \"#utility.yul\":16571:16664   */\n      tag_264\n      jump\t// in\n    tag_451:\n        /* \"#utility.yul\":16689:16691   */\n      0x20\n        /* \"#utility.yul\":16684:16687   */\n      dup3\n        /* \"#utility.yul\":16680:16692   */\n      add\n        /* \"#utility.yul\":16673:16692   */\n      swap1\n      pop\n        /* \"#utility.yul\":16332:16698   */\n      swap2\n      swap1\n      pop\n      jump\t// out\n        /* \"#utility.yul\":16704:17123   */\n    tag_132:\n        /* \"#utility.yul\":16870:16874   */\n      0x00\n        /* \"#utility.yul\":16908:16910   */\n      0x20\n        /* \"#utility.yul\":16897:16906   */\n      dup3\n        /* \"#utility.yul\":16893:16911   */\n      add\n        /* \"#utility.yul\":16885:16911   */\n      swap1\n      pop\n        /* \"#utility.yul\":16957:16966   */\n      dup2\n        /* \"#utility.yul\":16951:16955   */\n      dup2\n        /* \"#utility.yul\":16947:16967   */\n      sub\n        /* \"#utility.yul\":16943:16944   */\n      0x00\n        /* \"#utility.yul\":16932:16941   */\n      dup4\n        /* \"#utility.yul\":16928:16945   */\n      add\n        /* \"#utility.yul\":16921:16968   */\n      mstore\n        /* \"#utility.yul\":16985:17116   */\n      tag_453\n        /* \"#utility.yul\":17111:17115   */\n      dup2\n        /* \"#utility.yul\":16985:17116   */\n      tag_265\n      jump\t// in\n    tag_453:\n        /* \"#utility.yul\":16977:17116   */\n      swap1\n      pop\n        /* \"#utility.yul\":16704:17123   */\n      swap2\n      swap1\n      pop\n      jump\t// out\n        /* \"#utility.yul\":17129:17309   */\n    tag_136:\n        /* \"#utility.yul\":17177:17254   */\n      0x4e487b7100000000000000000000000000000000000000000000000000000000\n        /* \"#utility.yul\":17174:17175   */\n      0x00\n        /* \"#utility.yul\":17167:17255   */\n      mstore\n        /* \"#utility.yul\":17274:17278   */\n      0x41\n        /* \"#utility.yul\":17271:17272   */\n      0x04\n        /* \"#utility.yul\":17264:17279   */\n      mstore\n        /* \"#utility.yul\":17298:17302   */\n      0x24\n        /* \"#utility.yul\":17295:17296   */\n      0x00\n        /* \"#utility.yul\":17288:17303   */\n      revert\n        /* \"#utility.yul\":17315:17456   */\n    tag_266:\n        /* \"#utility.yul\":17364:17368   */\n      0x00\n        /* \"#utility.yul\":17387:17390   */\n      dup2\n        /* \"#utility.yul\":17379:17390   */\n      swap1\n      pop\n        /* \"#utility.yul\":17410:17413   */\n      dup2\n        /* \"#utility.yul\":17407:17408   */\n      0x00\n        /* \"#utility.yul\":17400:17414   */\n      mstore\n        /* \"#utility.yul\":17444:17448   */\n      0x20\n        /* \"#utility.yul\":17441:17442   */\n      0x00\n        /* \"#utility.yul\":17431:17449   */\n      keccak256\n        /* \"#utility.yul\":17423:17449   */\n      swap1\n      pop\n        /* \"#utility.yul\":17315:17456   */\n      swap2\n      swap1\n      pop\n      jump\t// out\n        /* \"#utility.yul\":17462:17555   */\n    tag_267:\n        /* \"#utility.yul\":17499:17505   */\n      0x00\n        /* \"#utility.yul\":17546:17548   */\n      0x20\n        /* \"#utility.yul\":17541:17543   */\n      0x1f\n        /* \"#utility.yul\":17534:17539   */\n      dup4\n        /* \"#utility.yul\":17530:17544   */\n      add\n        /* \"#utility.yul\":17526:17549   */\n      div\n        /* \"#utility.yul\":17516:17549   */\n      swap1\n      pop\n        /* \"#utility.yul\":17462:17555   */\n      swap2\n      swap1\n      pop\n      jump\t// out\n        /* \"#utility.yul\":17561:17668   */\n    tag_268:\n        /* \"#utility.yul\":17605:17613   */\n      0x00\n        /* \"#utility.yul\":17655:17660   */\n      dup3\n        /* \"#utility.yul\":17649:17653   */\n      dup3\n        /* \"#utility.yul\":17645:17661   */\n      shl\n        /* \"#utility.yul\":17624:17661   */\n      swap1\n      pop\n        /* \"#utility.yul\":17561:17668   */\n      swap3\n      swap2\n      pop\n      pop\n      jump\t// out\n        /* \"#utility.yul\":17674:18067   */\n    tag_269:\n        /* \"#utility.yul\":17743:17749   */\n      0x00\n        /* \"#utility.yul\":17793:17794   */\n      0x08\n        /* \"#utility.yul\":17781:17791   */\n      dup4\n        /* \"#utility.yul\":17777:17795   */\n      mul\n        /* \"#utility.yul\":17816:17913   */\n      tag_459\n        /* \"#utility.yul\":17846:17912   */\n      0xffffffffffffffffffffffffffffffffffffffffffffffffffffffffffffffff\n        /* \"#utility.yul\":17835:17844   */\n      dup3\n        /* \"#utility.yul\":17816:17913   */\n      tag_268\n      jump\t// in\n    tag_459:\n        /* \"#utility.yul\":17934:17973   */\n      tag_460\n        /* \"#utility.yul\":17964:17972   */\n      dup7\n        /* \"#utility.yul\":17953:17962   */\n      dup4\n        /* \"#utility.yul\":17934:17973   */\n      tag_268\n      jump\t// in\n    tag_460:\n        /* \"#utility.yul\":17922:17973   */\n      swap6\n      pop\n        /* \"#utility.yul\":18006:18010   */\n      dup1\n        /* \"#utility.yul\":18002:18011   */\n      not\n        /* \"#utility.yul\":17995:18000   */\n      dup5\n        /* \"#utility.yul\":17991:18012   */\n      and\n        /* \"#utility.yul\":17982:18012   */\n      swap4\n      pop\n        /* \"#utility.yul\":18055:18059   */\n      dup1\n        /* \"#utility.yul\":18045:18053   */\n      dup7\n        /* \"#utility.yul\":18041:18060   */\n      and\n        /* \"#utility.yul\":18034:18039   */\n      dup5\n        /* \"#utility.yul\":18031:18061   */\n      or\n        /* \"#utility.yul\":18021:18061   */\n      swap3\n      pop\n        /* \"#utility.yul\":17750:18067   */\n      pop\n      pop\n        /* \"#utility.yul\":17674:18067   */\n      swap4\n      swap3\n      pop\n      pop\n      pop\n      jump\t// out\n        /* \"#utility.yul\":18073:18133   */\n    tag_270:\n        /* \"#utility.yul\":18101:18104   */\n      0x00\n        /* \"#utility.yul\":18122:18127   */\n      dup2\n        /* \"#utility.yul\":18115:18127   */\n      swap1\n      pop\n        /* \"#utility.yul\":18073:18133   */\n      swap2\n      swap1\n      pop\n      jump\t// out\n        /* \"#utility.yul\":18139:18281   */\n    tag_271:\n        /* \"#utility.yul\":18189:18198   */\n      0x00\n        /* \"#utility.yul\":18222:18275   */\n      tag_463\n        /* \"#utility.yul\":18240:18274   */\n      tag_464\n        /* \"#utility.yul\":18249:18273   */\n      tag_465\n        /* \"#utility.yul\":18267:18272   */\n      dup5\n        /* \"#utility.yul\":18249:18273   */\n      tag_227\n      jump\t// in\n    tag_465:\n        /* \"#utility.yul\":18240:18274   */\n      tag_270\n      jump\t// in\n    tag_464:\n        /* \"#utility.yul\":18222:18275   */\n      tag_227\n      jump\t// in\n    tag_463:\n        /* \"#utility.yul\":18209:18275   */\n      swap1\n      pop\n        /* \"#utility.yul\":18139:18281   */\n      swap2\n      swap1\n      pop\n      jump\t// out\n        /* \"#utility.yul\":18287:18362   */\n    tag_272:\n        /* \"#utility.yul\":18330:18333   */\n      0x00\n        /* \"#utility.yul\":18351:18356   */\n      dup2\n        /* \"#utility.yul\":18344:18356   */\n      swap1\n      pop\n        /* \"#utility.yul\":18287:18362   */\n      swap2\n      swap1\n      pop\n      jump\t// out\n        /* \"#utility.yul\":18368:18637   */\n    tag_273:\n        /* \"#utility.yul\":18478:18517   */\n      tag_468\n        /* \"#utility.yul\":18509:18516   */\n      dup4\n        /* \"#utility.yul\":18478:18517   */\n      tag_271\n      jump\t// in\n    tag_468:\n        /* \"#utility.yul\":18539:18630   */\n      tag_469\n        /* \"#utility.yul\":18588:18629   */\n      tag_470\n        /* \"#utility.yul\":18612:18628   */\n      dup3\n        /* \"#utility.yul\":18588:18629   */\n      tag_272\n      jump\t// in\n    tag_470:\n        /* \"#utility.yul\":18580:18586   */\n      dup5\n        /* \"#utility.yul\":18573:18577   */\n      dup5\n        /* \"#utility.yul\":18567:18578   */\n      sload\n        /* \"#utility.yul\":18539:18630   */\n      tag_269\n      jump\t// in\n    tag_469:\n        /* \"#utility.yul\":18533:18537   */\n      dup3\n        /* \"#utility.yul\":18526:18631   */\n      sstore\n        /* \"#utility.yul\":18444:18637   */\n      pop\n        /* \"#utility.yul\":18368:18637   */\n      pop\n      pop\n      pop\n      jump\t// out\n        /* \"#utility.yul\":18643:18716   */\n    tag_274:\n        /* \"#utility.yul\":18688:18691   */\n      0x00\n        /* \"#utility.yul\":18643:18716   */\n      swap1\n      jump\t// out\n        /* \"#utility.yul\":18722:18911   */\n    tag_275:\n        /* \"#utility.yul\":18799:18831   */\n      tag_473\n      tag_274\n      jump\t// in\n    tag_473:\n        /* \"#utility.yul\":18840:18905   */\n      tag_474\n        /* \"#utility.yul\":18898:18904   */\n      dup2\n        /* \"#utility.yul\":18890:18896   */\n      dup5\n        /* \"#utility.yul\":18884:18888   */\n      dup5\n        /* \"#utility.yul\":18840:18905   */\n      tag_273\n      jump\t// in\n    tag_474:\n        /* \"#utility.yul\":18775:18911   */\n      pop\n        /* \"#utility.yul\":18722:18911   */\n      pop\n      pop\n      jump\t// out\n        /* \"#utility.yul\":18917:19103   */\n    tag_276:\n        /* \"#utility.yul\":18977:19097   */\n    tag_476:\n        /* \"#utility.yul\":18994:18997   */\n      dup2\n        /* \"#utility.yul\":18987:18992   */\n      dup2\n        /* \"#utility.yul\":18984:18998   */\n      lt\n        /* \"#utility.yul\":18977:19097   */\n      iszero\n      tag_478\n      jumpi\n        /* \"#utility.yul\":19048:19087   */\n      tag_479\n        /* \"#utility.yul\":19085:19086   */\n      0x00\n        /* \"#utility.yul\":19078:19083   */\n      dup3\n        /* \"#utility.yul\":19048:19087   */\n      tag_275\n      jump\t// in\n    tag_479:\n        /* \"#utility.yul\":19021:19022   */\n      0x01\n        /* \"#utility.yul\":19014:19019   */\n      dup2\n        /* \"#utility.yul\":19010:19023   */\n      add\n        /* \"#utility.yul\":19001:19023   */\n      swap1\n      pop\n        /* \"#utility.yul\":18977:19097   */\n      jump(tag_476)\n    tag_478:\n        /* \"#utility.yul\":18917:19103   */\n      pop\n      pop\n      jump\t// out\n        /* \"#utility.yul\":19109:19652   */\n    tag_277:\n        /* \"#utility.yul\":19210:19212   */\n      0x1f\n        /* \"#utility.yul\":19205:19208   */\n      dup3\n        /* \"#utility.yul\":19202:19213   */\n      gt\n        /* \"#utility.yul\":19199:19645   */\n      iszero\n      tag_481\n      jumpi\n        /* \"#utility.yul\":19244:19282   */\n      tag_482\n        /* \"#utility.yul\":19276:19281   */\n      dup2\n        /* \"#utility.yul\":19244:19282   */\n      tag_266\n      jump\t// in\n    tag_482:\n        /* \"#utility.yul\":19328:19357   */\n      tag_483\n        /* \"#utility.yul\":19346:19356   */\n      dup5\n        /* \"#utility.yul\":19328:19357   */\n      tag_267\n      jump\t// in\n    tag_483:\n        /* \"#utility.yul\":19318:19326   */\n      dup2\n        /* \"#utility.yul\":19314:19358   */\n      add\n        /* \"#utility.yul\":19511:19513   */\n      0x20\n        /* \"#utility.yul\":19499:19509   */\n      dup6\n        /* \"#utility.yul\":19496:19514   */\n      lt\n        /* \"#utility.yul\":19493:19542   */\n      iszero\n      tag_484\n      jumpi\n        /* \"#utility.yul\":19532:19540   */\n      dup2\n        /* \"#utility.yul\":19517:19540   */\n      swap1\n      pop\n        /* \"#utility.yul\":19493:19542   */\n    tag_484:\n        /* \"#utility.yul\":19555:19635   */\n      tag_485\n        /* \"#utility.yul\":19611:19633   */\n      tag_486\n        /* \"#utility.yul\":19629:19632   */\n      dup6\n        /* \"#utility.yul\":19611:19633   */\n      tag_267\n      jump\t// in\n    tag_486:\n        /* \"#utility.yul\":19601:19609   */\n      dup4\n        /* \"#utility.yul\":19597:19634   */\n      add\n        /* \"#utility.yul\":19584:19595   */\n      dup3\n        /* \"#utility.yul\":19555:19635   */\n      tag_276\n      jump\t// in\n    tag_485:\n        /* \"#utility.yul\":19214:19645   */\n      pop\n      pop\n        /* \"#utility.yul\":19199:19645   */\n    tag_481:\n        /* \"#utility.yul\":19109:19652   */\n      pop\n      pop\n      pop\n      jump\t// out\n        /* \"#utility.yul\":19658:19775   */\n    tag_278:\n        /* \"#utility.yul\":19712:19720   */\n      0x00\n        /* \"#utility.yul\":19762:19767   */\n      dup3\n        /* \"#utility.yul\":19756:19760   */\n      dup3\n        /* \"#utility.yul\":19752:19768   */\n      shr\n        /* \"#utility.yul\":19731:19768   */\n      swap1\n      pop\n        /* \"#utility.yul\":19658:19775   */\n      swap3\n      swap2\n      pop\n      pop\n      jump\t// out\n        /* \"#utility.yul\":19781:19950   */\n    tag_279:\n        /* \"#utility.yul\":19825:19831   */\n      0x00\n        /* \"#utility.yul\":19858:19909   */\n      tag_489\n        /* \"#utility.yul\":19906:19907   */\n      0x00\n        /* \"#utility.yul\":19902:19908   */\n      not\n        /* \"#utility.yul\":19894:19899   */\n      dup5\n        /* \"#utility.yul\":19891:19892   */\n      0x08\n        /* \"#utility.yul\":19887:19900   */\n      mul\n        /* \"#utility.yul\":19858:19909   */\n      tag_278\n      jump\t// in\n    tag_489:\n        /* \"#utility.yul\":19854:19910   */\n      not\n        /* \"#utility.yul\":19939:19943   */\n      dup1\n        /* \"#utility.yul\":19933:19937   */\n      dup4\n        /* \"#utility.yul\":19929:19944   */\n      and\n        /* \"#utility.yul\":19919:19944   */\n      swap2\n      pop\n        /* \"#utility.yul\":19832:19950   */\n      pop\n        /* \"#utility.yul\":19781:19950   */\n      swap3\n      swap2\n      pop\n      pop\n      jump\t// out\n        /* \"#utility.yul\":19955:20250   */\n    tag_280:\n        /* \"#utility.yul\":20031:20035   */\n      0x00\n        /* \"#utility.yul\":20177:20206   */\n      tag_491\n        /* \"#utility.yul\":20202:20205   */\n      dup4\n        /* \"#utility.yul\":20196:20200   */\n      dup4\n        /* \"#utility.yul\":20177:20206   */\n      tag_279\n      jump\t// in\n    tag_491:\n        /* \"#utility.yul\":20169:20206   */\n      swap2\n      pop\n        /* \"#utility.yul\":20239:20242   */\n      dup3\n        /* \"#utility.yul\":20236:20237   */\n      0x02\n        /* \"#utility.yul\":20232:20243   */\n      mul\n        /* \"#utility.yul\":20226:20230   */\n      dup3\n        /* \"#utility.yul\":20223:20244   */\n      or\n        /* \"#utility.yul\":20215:20244   */\n      swap1\n      pop\n        /* \"#utility.yul\":19955:20250   */\n      swap3\n      swap2\n      pop\n      pop\n      jump\t// out\n        /* \"#utility.yul\":20255:21650   */\n    tag_139:\n        /* \"#utility.yul\":20372:20409   */\n      tag_493\n        /* \"#utility.yul\":20405:20408   */\n      dup3\n        /* \"#utility.yul\":20372:20409   */\n      tag_231\n      jump\t// in\n    tag_493:\n        /* \"#utility.yul\":20474:20492   */\n      0xffffffffffffffff\n        /* \"#utility.yul\":20466:20472   */\n      dup2\n        /* \"#utility.yul\":20463:20493   */\n      gt\n        /* \"#utility.yul\":20460:20516   */\n      iszero\n      tag_494\n      jumpi\n        /* \"#utility.yul\":20496:20514   */\n      tag_495\n      tag_136\n      jump\t// in\n    tag_495:\n        /* \"#utility.yul\":20460:20516   */\n    tag_494:\n        /* \"#utility.yul\":20540:20578   */\n      tag_496\n        /* \"#utility.yul\":20572:20576   */\n      dup3\n        /* \"#utility.yul\":20566:20577   */\n      sload\n        /* \"#utility.yul\":20540:20578   */\n      tag_79\n      jump\t// in\n    tag_496:\n        /* \"#utility.yul\":20625:20692   */\n      tag_497\n        /* \"#utility.yul\":20685:20691   */\n      dup3\n        /* \"#utility.yul\":20677:20683   */\n      dup3\n        /* \"#utility.yul\":20671:20675   */\n      dup6\n        /* \"#utility.yul\":20625:20692   */\n      tag_277\n      jump\t// in\n    tag_497:\n        /* \"#utility.yul\":20719:20720   */\n      0x00\n        /* \"#utility.yul\":20743:20747   */\n      0x20\n        /* \"#utility.yul\":20730:20747   */\n      swap1\n      pop\n        /* \"#utility.yul\":20775:20777   */\n      0x1f\n        /* \"#utility.yul\":20767:20773   */\n      dup4\n        /* \"#utility.yul\":20764:20778   */\n      gt\n        /* \"#utility.yul\":20792:20793   */\n      0x01\n        /* \"#utility.yul\":20787:21405   */\n      dup2\n      eq\n      tag_499\n      jumpi\n        /* \"#utility.yul\":21449:21450   */\n      0x00\n        /* \"#utility.yul\":21466:21472   */\n      dup5\n        /* \"#utility.yul\":21463:21540   */\n      iszero\n      tag_500\n      jumpi\n        /* \"#utility.yul\":21515:21524   */\n      dup3\n        /* \"#utility.yul\":21510:21513   */\n      dup8\n        /* \"#utility.yul\":21506:21525   */\n      add\n        /* \"#utility.yul\":21500:21526   */\n      mload\n        /* \"#utility.yul\":21491:21526   */\n      swap1\n      pop\n        /* \"#utility.yul\":21463:21540   */\n    tag_500:\n        /* \"#utility.yul\":21566:21633   */\n      tag_501\n        /* \"#utility.yul\":21626:21632   */\n      dup6\n        /* \"#utility.yul\":21619:21624   */\n      dup3\n        /* \"#utility.yul\":21566:21633   */\n      tag_280\n      jump\t// in\n    tag_501:\n        /* \"#utility.yul\":21560:21564   */\n      dup7\n        /* \"#utility.yul\":21553:21634   */\n      sstore\n        /* \"#utility.yul\":21422:21644   */\n      pop\n        /* \"#utility.yul\":20757:21644   */\n      jump(tag_498)\n        /* \"#utility.yul\":20787:21405   */\n    tag_499:\n        /* \"#utility.yul\":20839:20843   */\n      0x1f\n        /* \"#utility.yul\":20835:20844   */\n      not\n        /* \"#utility.yul\":20827:20833   */\n      dup5\n        /* \"#utility.yul\":20823:20845   */\n      and\n        /* \"#utility.yul\":20873:20910   */\n      tag_502\n        /* \"#utility.yul\":20905:20909   */\n      dup7\n        /* \"#utility.yul\":20873:20910   */\n      tag_266\n      jump\t// in\n    tag_502:\n        /* \"#utility.yul\":20932:20933   */\n      0x00\n        /* \"#utility.yul\":20946:21154   */\n    tag_503:\n        /* \"#utility.yul\":20960:20967   */\n      dup3\n        /* \"#utility.yul\":20957:20958   */\n      dup2\n        /* \"#utility.yul\":20954:20968   */\n      lt\n        /* \"#utility.yul\":20946:21154   */\n      iszero\n      tag_505\n      jumpi\n        /* \"#utility.yul\":21039:21048   */\n      dup5\n        /* \"#utility.yul\":21034:21037   */\n      dup10\n        /* \"#utility.yul\":21030:21049   */\n      add\n        /* \"#utility.yul\":21024:21050   */\n      mload\n        /* \"#utility.yul\":21016:21022   */\n      dup3\n        /* \"#utility.yul\":21009:21051   */\n      sstore\n        /* \"#utility.yul\":21090:21091   */\n      0x01\n        /* \"#utility.yul\":21082:21088   */\n      dup3\n        /* \"#utility.yul\":21078:21092   */\n      add\n        /* \"#utility.yul\":21068:21092   */\n      swap2\n      pop\n        /* \"#utility.yul\":21137:21139   */\n      0x20\n        /* \"#utility.yul\":21126:21135   */\n      dup6\n        /* \"#utility.yul\":21122:21140   */\n      add\n        /* \"#utility.yul\":21109:21140   */\n      swap5\n      pop\n        /* \"#utility.yul\":20983:20987   */\n      0x20\n        /* \"#utility.yul\":20980:20981   */\n      dup2\n        /* \"#utility.yul\":20976:20988   */\n      add\n        /* \"#utility.yul\":20971:20988   */\n      swap1\n      pop\n        /* \"#utility.yul\":20946:21154   */\n      jump(tag_503)\n    tag_505:\n        /* \"#utility.yul\":21182:21188   */\n      dup7\n        /* \"#utility.yul\":21173:21180   */\n      dup4\n        /* \"#utility.yul\":21170:21189   */\n      lt\n        /* \"#utility.yul\":21167:21346   */\n      iszero\n      tag_506\n      jumpi\n        /* \"#utility.yul\":21240:21249   */\n      dup5\n        /* \"#utility.yul\":21235:21238   */\n      dup10\n        /* \"#utility.yul\":21231:21250   */\n      add\n        /* \"#utility.yul\":21225:21251   */\n      mload\n        /* \"#utility.yul\":21283:21331   */\n      tag_507\n        /* \"#utility.yul\":21325:21329   */\n      0x1f\n        /* \"#utility.yul\":21317:21323   */\n      dup10\n        /* \"#utility.yul\":21313:21330   */\n      and\n        /* \"#utility.yul\":21302:21311   */\n      dup3\n        /* \"#utility.yul\":21283:21331   */\n      tag_279\n      jump\t// in\n    tag_507:\n        /* \"#utility.yul\":21275:21281   */\n      dup4\n        /* \"#utility.yul\":21268:21332   */\n      sstore\n        /* \"#utility.yul\":21190:21346   */\n      pop\n        /* \"#utility.yul\":21167:21346   */\n    tag_506:\n        /* \"#utility.yul\":21392:21393   */\n      0x01\n        /* \"#utility.yul\":21388:21389   */\n      0x02\n        /* \"#utility.yul\":21380:21386   */\n      dup9\n        /* \"#utility.yul\":21376:21390   */\n      mul\n        /* \"#utility.yul\":21372:21394   */\n      add\n        /* \"#utility.yul\":21366:21370   */\n      dup9\n        /* \"#utility.yul\":21359:21395   */\n      sstore\n        /* \"#utility.yul\":20794:21405   */\n      pop\n      pop\n      pop\n        /* \"#utility.yul\":20757:21644   */\n    tag_498:\n      pop\n        /* \"#utility.yul\":20347:21650   */\n      pop\n      pop\n      pop\n        /* \"#utility.yul\":20255:21650   */\n      pop\n      pop\n      jump\t// out\n        /* \"#utility.yul\":21656:21819   */\n    tag_281:\n        /* \"#utility.yul\":21796:21811   */\n      0x526f6f6d20696e61637469766500000000000000000000000000000000000000\n        /* \"#utility.yul\":21792:21793   */\n      0x00\n        /* \"#utility.yul\":21784:21790   */\n      dup3\n        /* \"#utility.yul\":21780:21794   */\n      add\n        /* \"#utility.yul\":21773:21812   */\n      mstore\n        /* \"#utility.yul\":21656:21819   */\n      pop\n      jump\t// out\n        /* \"#utility.yul\":21825:22191   */\n    tag_282:\n        /* \"#utility.yul\":21967:21970   */\n      0x00\n        /* \"#utility.yul\":21988:22055   */\n      tag_510\n        /* \"#utility.yul\":22052:22054   */\n      0x0d\n        /* \"#utility.yul\":22047:22050   */\n      dup4\n        /* \"#utility.yul\":21988:22055   */\n      tag_232\n      jump\t// in\n    tag_510:\n        /* \"#utility.yul\":21981:22055   */\n      swap2\n      pop\n        /* \"#utility.yul\":22064:22157   */\n      tag_511\n        /* \"#utility.yul\":22153:22156   */\n      dup3\n        /* \"#utility.yul\":22064:22157   */\n      tag_281\n      jump\t// in\n    tag_511:\n        /* \"#utility.yul\":22182:22184   */\n      0x20\n        /* \"#utility.yul\":22177:22180   */\n      dup3\n        /* \"#utility.yul\":22173:22185   */\n      add\n        /* \"#utility.yul\":22166:22185   */\n      swap1\n      pop\n        /* \"#utility.yul\":21825:22191   */\n      swap2\n      swap1\n      pop\n      jump\t// out\n        /* \"#utility.yul\":22197:22616   */\n    tag_171:\n        /* \"#utility.yul\":22363:22367   */\n      0x00\n        /* \"#utility.yul\":22401:22403   */\n      0x20\n        /* \"#utility.yul\":22390:22399   */\n      dup3\n        /* \"#utility.yul\":22386:22404   */\n      add\n        /* \"#utility.yul\":22378:22404   */\n      swap1\n      pop\n        /* \"#utility.yul\":22450:22459   */\n      dup2\n        /* \"#utility.yul\":22444:22448   */\n      dup2\n        /* \"#utility.yul\":22440:22460   */\n      sub\n        /* \"#utility.yul\":22436:22437   */\n      0x00\n        /* \"#utility.yul\":22425:22434   */\n      dup4\n        /* \"#utility.yul\":22421:22438   */\n      add\n        /* \"#utility.yul\":22414:22461   */\n      mstore\n        /* \"#utility.yul\":22478:22609   */\n      tag_513\n        /* \"#utility.yul\":22604:22608   */\n      dup2\n        /* \"#utility.yul\":22478:22609   */\n      tag_282\n      jump\t// in\n    tag_513:\n        /* \"#utility.yul\":22470:22609   */\n      swap1\n      pop\n        /* \"#utility.yul\":22197:22616   */\n      swap2\n      swap1\n      pop\n      jump\t// out\n        /* \"#utility.yul\":22622:23032   */\n    tag_174:\n        /* \"#utility.yul\":22662:22669   */\n      0x00\n        /* \"#utility.yul\":22685:22705   */\n      tag_515\n        /* \"#utility.yul\":22703:22704   */\n      dup3\n        /* \"#utility.yul\":22685:22705   */\n      tag_227\n      jump\t// in\n    tag_515:\n        /* \"#utility.yul\":22680:22705   */\n      swap2\n      pop\n        /* \"#utility.yul\":22719:22739   */\n      tag_516\n        /* \"#utility.yul\":22737:22738   */\n      dup4\n        /* \"#utility.yul\":22719:22739   */\n      tag_227\n      jump\t// in\n    tag_516:\n        /* \"#utility.yul\":22714:22739   */\n      swap3\n      pop\n        /* \"#utility.yul\":22774:22775   */\n      dup3\n        /* \"#utility.yul\":22771:22772   */\n      dup3\n        /* \"#utility.yul\":22767:22776   */\n      mul\n        /* \"#utility.yul\":22796:22826   */\n      tag_517\n        /* \"#utility.yul\":22814:22825   */\n      dup2\n        /* \"#utility.yul\":22796:22826   */\n      tag_227\n      jump\t// in\n    tag_517:\n        /* \"#utility.yul\":22785:22826   */\n      swap2\n      pop\n        /* \"#utility.yul\":22975:22976   */\n      dup3\n        /* \"#utility.yul\":22966:22973   */\n      dup3\n        /* \"#utility.yul\":22962:22977   */\n      div\n        /* \"#utility.yul\":22959:22960   */\n      dup5\n        /* \"#utility.yul\":22956:22978   */\n      eq\n        /* \"#utility.yul\":22936:22937   */\n      dup4\n        /* \"#utility.yul\":22929:22938   */\n      iszero\n        /* \"#utility.yul\":22909:22992   */\n      or\n        /* \"#utility.yul\":22886:23025   */\n      tag_518\n      jumpi\n        /* \"#utility.yul\":23005:23023   */\n      tag_519\n      tag_263\n      jump\t// in\n    tag_519:\n        /* \"#utility.yul\":22886:23025   */\n    tag_518:\n        /* \"#utility.yul\":22670:23032   */\n      pop\n        /* \"#utility.yul\":22622:23032   */\n      swap3\n      swap2\n      pop\n      pop\n      jump\t// out\n        /* \"#utility.yul\":23038:23201   */\n    tag_283:\n        /* \"#utility.yul\":23178:23193   */\n      0x496e76616c69642076616c756500000000000000000000000000000000000000\n        /* \"#utility.yul\":23174:23175   */\n      0x00\n        /* \"#utility.yul\":23166:23172   */\n      dup3\n        /* \"#utility.yul\":23162:23176   */\n      add\n        /* \"#utility.yul\":23155:23194   */\n      mstore\n        /* \"#utility.yul\":23038:23201   */\n      pop\n      jump\t// out\n        /* \"#utility.yul\":23207:23573   */\n    tag_284:\n        /* \"#utility.yul\":23349:23352   */\n      0x00\n        /* \"#utility.yul\":23370:23437   */\n      tag_522\n        /* \"#utility.yul\":23434:23436   */\n      0x0d\n        /* \"#utility.yul\":23429:23432   */\n      dup4\n        /* \"#utility.yul\":23370:23437   */\n      tag_232\n      jump\t// in\n    tag_522:\n        /* \"#utility.yul\":23363:23437   */\n      swap2\n      pop\n        /* \"#utility.yul\":23446:23539   */\n      tag_523\n        /* \"#utility.yul\":23535:23538   */\n      dup3\n        /* \"#utility.yul\":23446:23539   */\n      tag_283\n      jump\t// in\n    tag_523:\n        /* \"#utility.yul\":23564:23566   */\n      0x20\n        /* \"#utility.yul\":23559:23562   */\n      dup3\n        /* \"#utility.yul\":23555:23567   */\n      add\n        /* \"#utility.yul\":23548:23567   */\n      swap1\n      pop\n        /* \"#utility.yul\":23207:23573   */\n      swap2\n      swap1\n      pop\n      jump\t// out\n        /* \"#utility.yul\":23579:23998   */\n    tag_178:\n        /* \"#utility.yul\":23745:23749   */\n      0x00\n        /* \"#utility.yul\":23783:23785   */\n      0x20\n        /* \"#utility.yul\":23772:23781   */\n      dup3\n        /* \"#utility.yul\":23768:23786   */\n      add\n        /* \"#utility.yul\":23760:23786   */\n      swap1\n      pop\n        /* \"#utility.yul\":23832:23841   */\n      dup2\n        /* \"#utility.yul\":23826:23830   */\n      dup2\n        /* \"#utility.yul\":23822:23842   */\n      sub\n        /* \"#utility.yul\":23818:23819   */\n      0x00\n        /* \"#utility.yul\":23807:23816   */\n      dup4\n        /* \"#utility.yul\":23803:23820   */\n      add\n        /* \"#utility.yul\":23796:23843   */\n      mstore\n        /* \"#utility.yul\":23860:23991   */\n      tag_525\n        /* \"#utility.yul\":23986:23990   */\n      dup2\n        /* \"#utility.yul\":23860:23991   */\n      tag_284\n      jump\t// in\n    tag_525:\n        /* \"#utility.yul\":23852:23991   */\n      swap1\n      pop\n        /* \"#utility.yul\":23579:23998   */\n      swap2\n      swap1\n      pop\n      jump\t// out\n        /* \"#utility.yul\":24004:24170   */\n    tag_285:\n        /* \"#utility.yul\":24144:24162   */\n      0x416c726561647920726573657276656400000000000000000000000000000000\n        /* \"#utility.yul\":24140:24141   */\n      0x00\n        /* \"#utility.yul\":24132:24138   */\n      dup3\n        /* \"#utility.yul\":24128:24142   */\n      add\n        /* \"#utility.yul\":24121:24163   */\n      mstore\n        /* \"#utility.yul\":24004:24170   */\n      pop\n      jump\t// out\n        /* \"#utility.yul\":24176:24542   */\n    tag_286:\n        /* \"#utility.yul\":24318:24321   */\n      0x00\n        /* \"#utility.yul\":24339:24406   */\n      tag_528\n        /* \"#utility.yul\":24403:24405   */\n      0x10\n        /* \"#utility.yul\":24398:24401   */\n      dup4\n        /* \"#utility.yul\":24339:24406   */\n      tag_232\n      jump\t// in\n    tag_528:\n        /* \"#utility.yul\":24332:24406   */\n      swap2\n      pop\n        /* \"#utility.yul\":24415:24508   */\n      tag_529\n        /* \"#utility.yul\":24504:24507   */\n      dup3\n        /* \"#utility.yul\":24415:24508   */\n      tag_285\n      jump\t// in\n    tag_529:\n        /* \"#utility.yul\":24533:24535   */\n      0x20\n        /* \"#utility.yul\":24528:24531   */\n      dup3\n        /* \"#utility.yul\":24524:24536   */\n      add\n        /* \"#utility.yul\":24517:24536   */\n      swap1\n      pop\n        /* \"#utility.yul\":24176:24542   */\n      swap2\n      swap1\n      pop\n      jump\t// out\n        /* \"#utility.yul\":24548:24967   */\n    tag_186:\n        /* \"#utility.yul\":24714:24718   */\n      0x00\n        /* \"#utility.yul\":24752:24754   */\n      0x20\n        /* \"#utility.yul\":24741:24750   */\n      dup3\n        /* \"#utility.yul\":24737:24755   */\n      add\n        /* \"#utility.yul\":24729:24755   */\n      swap1\n      pop\n        /* \"#utility.yul\":24801:24810   */\n      dup2\n        /* \"#utility.yul\":24795:24799   */\n      dup2\n        /* \"#utility.yul\":24791:24811   */\n      sub\n        /* \"#utility.yul\":24787:24788   */\n      0x00\n        /* \"#utility.yul\":24776:24785   */\n      dup4\n        /* \"#utility.yul\":24772:24789   */\n      add\n        /* \"#utility.yul\":24765:24812   */\n      mstore\n        /* \"#utility.yul\":24829:24960   */\n      tag_531\n        /* \"#utility.yul\":24955:24959   */\n      dup2\n        /* \"#utility.yul\":24829:24960   */\n      tag_286\n      jump\t// in\n    tag_531:\n        /* \"#utility.yul\":24821:24960   */\n      swap1\n      pop\n        /* \"#utility.yul\":24548:24967   */\n      swap2\n      swap1\n      pop\n      jump\t// out\n\n    auxdata: 0xa2646970667358221220c849d068dd5a640e721b5dc26b7638c2bec0ce2ba3821a23b722abba618eab5a64736f6c63430008110033\n}\n",
				"bytecode": {
					"linkReferences": {},
					"object": "608060405260008055600060015534801561001957600080fd5b50612382806100296000396000f3fe6080604052600436106100a75760003560e01c8063835e5daf11610064578063835e5daf146101ea57806385bfa3561461022c5780638c69403414610257578063a165c0ba14610294578063f954d0d9146102b0578063facedf68146102db576100a7565b806339b0dbed146100ac57806343064aa4146100ee5780636d4d8c281461012b5780636decd419146101545780637b3191351461017f5780637dd9c1b2146101a8575b600080fd5b3480156100b857600080fd5b506100d360048036038101906100ce91906116df565b610304565b6040516100e596959493929190611807565b60405180910390f35b3480156100fa57600080fd5b5061011560048036038101906101109190611876565b61047d565b6040516101229190611974565b60405180910390f35b34801561013757600080fd5b50610152600480360381019061014d91906116df565b6107e2565b005b34801561016057600080fd5b506101696108ac565b604051610176919061198f565b60405180910390f35b34801561018b57600080fd5b506101a660048036038101906101a19190611a0f565b6108b2565b005b3480156101b457600080fd5b506101cf60048036038101906101ca9190611ad0565b610afc565b6040516101e196959493929190611b10565b60405180910390f35b3480156101f657600080fd5b50610211600480360381019061020c9190611b71565b610b75565b60405161022396959493929190611b10565b60405180910390f35b34801561023857600080fd5b50610241610bee565b60405161024e9190611cea565b60405180910390f35b34801561026357600080fd5b5061027e600480360381019061027991906116df565b610d12565b60405161028b9190611cea565b60405180910390f35b6102ae60048036038101906102a99190611d0c565b610e0c565b005b3480156102bc57600080fd5b506102c56111b5565b6040516102d2919061198f565b60405180910390f35b3480156102e757600080fd5b5061030260048036038101906102fd91906116df565b6111bb565b005b600260205280600052604060002060009150905080600001549080600101805461032d90611da2565b80601f016020809104026020016040519081016040528092919081815260200182805461035990611da2565b80156103a65780601f1061037b576101008083540402835291602001916103a6565b820191906000526020600020905b81548152906001019060200180831161038957829003601f168201915b5050505050908060020180546103bb90611da2565b80601f01602080910402602001604051908101604052809291908181526020018280546103e790611da2565b80156104345780601f1061040957610100808354040283529160200191610434565b820191906000526020600020905b81548152906001019060200180831161041757829003601f168201915b5050505050908060030160009054906101000a900460ff16908060040154908060050160009054906101000a900473ffffffffffffffffffffffffffffffffffffffff16905086565b6104856115ba565b6000600260008681526020019081526020016000206040518060e0016040529081600082015481526020016001820180546104bf90611da2565b80601f01602080910402602001604051908101604052809291908181526020018280546104eb90611da2565b80156105385780601f1061050d57610100808354040283529160200191610538565b820191906000526020600020905b81548152906001019060200180831161051b57829003601f168201915b5050505050815260200160028201805461055190611da2565b80601f016020809104026020016040519081016040528092919081815260200182805461057d90611da2565b80156105ca5780601f1061059f576101008083540402835291602001916105ca565b820191906000526020600020905b8154815290600101906020018083116105ad57829003601f168201915b505050505081526020016003820160009054906101000a900460ff16151515158152602001600482015481526020016005820160009054906101000a900473ffffffffffffffffffffffffffffffffffffffff1673ffffffffffffffffffffffffffffffffffffffff1673ffffffffffffffffffffffffffffffffffffffff168152602001600682018054806020026020016040519081016040528092919081815260200182805480156106c257602002820191906000526020600020906000905b82829054906101000a900460ff1615158152602001906001019060208260000104928301926001038202915080841161068c5790505b50505050508152505090506106d56115ba565b60008590505b8481101561074357600115158360c0015182815181106106fe576106fd611dd3565b5b602002602001015115150361073057808260006002811061072257610721611dd3565b5b602002018181525050610743565b808061073b90611e31565b9150506106db565b5060008160006002811061075a57610759611dd3565b5b602002015190505b8481116107d557600015158360c00151828151811061078457610783611dd3565b5b60200260200101511515036107c2576001816107a09190611e79565b826001600281106107b4576107b3611dd3565b5b6020020181815250506107d5565b80806107cd90611e31565b915050610762565b5080925050509392505050565b60006002600083815260200190815260200160002090503373ffffffffffffffffffffffffffffffffffffffff168160050160009054906101000a900473ffffffffffffffffffffffffffffffffffffffff1673ffffffffffffffffffffffffffffffffffffffff161461088b576040517f08c379a000000000000000000000000000000000000000000000000000000000815260040161088290611ef9565b60405180910390fd5b60008160030160006101000a81548160ff0219169083151502179055505050565b60015481565b60006040518060e00160405280600054815260200187878080601f016020809104026020016040519081016040528093929190818152602001838380828437600081840152601f19601f82011690508083019250505050505050815260200185858080601f016020809104026020016040519081016040528093929190818152602001838380828437600081840152601f19601f8201169050808301925050505050505081526020016001151581526020018381526020013373ffffffffffffffffffffffffffffffffffffffff16815260200161016d67ffffffffffffffff8111156109a2576109a1611f19565b5b6040519080825280602002602001820160405280156109d05781602001602082028036833780820191505090505b508152509050806002600080548152602001908152602001600020600082015181600001556020820151816001019081610a0a91906120f4565b506040820151816002019081610a2091906120f4565b5060608201518160030160006101000a81548160ff0219169083151502179055506080820151816004015560a08201518160050160006101000a81548173ffffffffffffffffffffffffffffffffffffffff021916908373ffffffffffffffffffffffffffffffffffffffff16021790555060c0820151816006019080519060200190610aae9291906115dc565b50905050600080815480929190610ac490611e31565b919050557fe3dfa06732e0549f98a5f6d34268fbb7da76b458e78c8ea5b1d7029396cc216460405160405180910390a2505050505050565b60046020528160005260406000208181548110610b1857600080fd5b9060005260206000209060060201600091509150508060000154908060010154908060020154908060030154908060040154908060050160009054906101000a900473ffffffffffffffffffffffffffffffffffffffff16905086565b60036020528160005260406000208181548110610b9157600080fd5b9060005260206000209060060201600091509150508060000154908060010154908060020154908060030154908060040154908060050160009054906101000a900473ffffffffffffffffffffffffffffffffffffffff16905086565b6060600460003373ffffffffffffffffffffffffffffffffffffffff1673ffffffffffffffffffffffffffffffffffffffff168152602001908152602001600020805480602002602001604051908101604052809291908181526020016000905b82821015610d0957838290600052602060002090600602016040518060c001604052908160008201548152602001600182015481526020016002820154815260200160038201548152602001600482015481526020016005820160009054906101000a900473ffffffffffffffffffffffffffffffffffffffff1673ffffffffffffffffffffffffffffffffffffffff1673ffffffffffffffffffffffffffffffffffffffff168152505081526020019060010190610c4f565b50505050905090565b606060036000838152602001908152602001600020805480602002602001604051908101604052809291908181526020016000905b82821015610e0157838290600052602060002090600602016040518060c001604052908160008201548152602001600182015481526020016002820154815260200160038201548152602001600482015481526020016005820160009054906101000a900473ffffffffffffffffffffffffffffffffffffffff1673ffffffffffffffffffffffffffffffffffffffff1673ffffffffffffffffffffffffffffffffffffffff168152505081526020019060010190610d47565b505050509050919050565b6000600260008681526020019081526020016000206040518060e001604052908160008201548152602001600182018054610e4690611da2565b80601f0160208091040260200160405190810160405280929190818152602001828054610e7290611da2565b8015610ebf5780601f10610e9457610100808354040283529160200191610ebf565b820191906000526020600020905b815481529060010190602001808311610ea257829003601f168201915b50505050508152602001600282018054610ed890611da2565b80601f0160208091040260200160405190810160405280929190818152602001828054610f0490611da2565b8015610f515780601f10610f2657610100808354040283529160200191610f51565b820191906000526020600020905b815481529060010190602001808311610f3457829003601f168201915b505050505081526020016003820160009054906101000a900460ff16151515158152602001600482015481526020016005820160009054906101000a900473ffffffffffffffffffffffffffffffffffffffff1673ffffffffffffffffffffffffffffffffffffffff1673ffffffffffffffffffffffffffffffffffffffff1681526020016006820180548060200260200160405190810160405280929190818152602001828054801561104957602002820191906000526020600020906000905b82829054906101000a900460ff161515815260200190600101906020826000010492830192600103820291508084116110135790505b505050505081525050905060011515816060015115151461109f576040517f08c379a000000000000000000000000000000000000000000000000000000000815260040161109690612212565b60405180910390fd5b66038d7ea4c68000816080015184846110b89190611e79565b6110c29190612232565b6110cc9190612232565b341461110d576040517f08c379a0000000000000000000000000000000000000000000000000000000008152600401611104906122c0565b60405180910390fd5b60008390505b8281101561119357600015158260c00151828151811061113657611135611dd3565b5b6020026020010151151514611180576040517f08c379a00000000000000000000000000000000000000000000000000000000081526004016111779061232c565b60405180910390fd5b808061118b90611e31565b915050611113565b506111a28160a00151346112ca565b6111ae85858585611315565b5050505050565b60005481565b60006002600083815260200190815260200160002090503373ffffffffffffffffffffffffffffffffffffffff168160050160009054906101000a900473ffffffffffffffffffffffffffffffffffffffff1673ffffffffffffffffffffffffffffffffffffffff1614611264576040517f08c379a000000000000000000000000000000000000000000000000000000000815260040161125b90611ef9565b60405180910390fd5b60005b6101648110156112c557600082600601828154811061128957611288611dd3565b5b90600052602060002090602091828204019190066101000a81548160ff02191690831515021790555080806112bd90611e31565b915050611267565b505050565b8173ffffffffffffffffffffffffffffffffffffffff166108fc829081150290604051600060405180830381858888f19350505050158015611310573d6000803e3d6000fd5b505050565b60006040518060c0016040528060015481526020018681526020018581526020018481526020018381526020013373ffffffffffffffffffffffffffffffffffffffff16815250905060008390505b828110156113d257600160026000888152602001908152602001600020600601828154811061139657611395611dd3565b5b90600052602060002090602091828204019190066101000a81548160ff02191690831515021790555080806113ca90611e31565b915050611364565b5060036000868152602001908152602001600020819080600181540180825580915050600190039060005260206000209060060201600090919091909150600082015181600001556020820151816001015560408201518160020155606082015181600301556080820151816004015560a08201518160050160006101000a81548173ffffffffffffffffffffffffffffffffffffffff021916908373ffffffffffffffffffffffffffffffffffffffff1602179055505050600460003373ffffffffffffffffffffffffffffffffffffffff1673ffffffffffffffffffffffffffffffffffffffff168152602001908152602001600020819080600181540180825580915050600190039060005260206000209060060201600090919091909150600082015181600001556020820151816001015560408201518160020155606082015181600301556080820151816004015560a08201518160050160006101000a81548173ffffffffffffffffffffffffffffffffffffffff021916908373ffffffffffffffffffffffffffffffffffffffff16021790555050506001600081548092919061158290611e31565b91905055857f84bad6e347d9aff08a38e6eb90827c7999f70bfaf3b0acbe288f512801b9c13960405160405180910390a35050505050565b6040518060400160405280600290602082028036833780820191505090505090565b82805482825590600052602060002090601f016020900481019282156116715791602002820160005b8382111561164257835183826101000a81548160ff0219169083151502179055509260200192600101602081600001049283019260010302611605565b801561166f5782816101000a81549060ff0219169055600101602081600001049283019260010302611642565b505b50905061167e9190611682565b5090565b5b8082111561169b576000816000905550600101611683565b5090565b600080fd5b600080fd5b6000819050919050565b6116bc816116a9565b81146116c757600080fd5b50565b6000813590506116d9816116b3565b92915050565b6000602082840312156116f5576116f461169f565b5b6000611703848285016116ca565b91505092915050565b611715816116a9565b82525050565b600081519050919050565b600082825260208201905092915050565b60005b8381101561175557808201518184015260208101905061173a565b60008484015250505050565b6000601f19601f8301169050919050565b600061177d8261171b565b6117878185611726565b9350611797818560208601611737565b6117a081611761565b840191505092915050565b60008115159050919050565b6117c0816117ab565b82525050565b600073ffffffffffffffffffffffffffffffffffffffff82169050919050565b60006117f1826117c6565b9050919050565b611801816117e6565b82525050565b600060c08201905061181c600083018961170c565b818103602083015261182e8188611772565b905081810360408301526118428187611772565b905061185160608301866117b7565b61185e608083018561170c565b61186b60a08301846117f8565b979650505050505050565b60008060006060848603121561188f5761188e61169f565b5b600061189d868287016116ca565b93505060206118ae868287016116ca565b92505060406118bf868287016116ca565b9150509250925092565b600060029050919050565b600081905092915050565b6000819050919050565b6118f2816116a9565b82525050565b600061190483836118e9565b60208301905092915050565b6000602082019050919050565b611926816118c9565b61193081846118d4565b925061193b826118df565b8060005b8381101561196c57815161195387826118f8565b965061195e83611910565b92505060018101905061193f565b505050505050565b6000604082019050611989600083018461191d565b92915050565b60006020820190506119a4600083018461170c565b92915050565b600080fd5b600080fd5b600080fd5b60008083601f8401126119cf576119ce6119aa565b5b8235905067ffffffffffffffff8111156119ec576119eb6119af565b5b602083019150836001820283011115611a0857611a076119b4565b5b9250929050565b600080600080600060608688031215611a2b57611a2a61169f565b5b600086013567ffffffffffffffff811115611a4957611a486116a4565b5b611a55888289016119b9565b9550955050602086013567ffffffffffffffff811115611a7857611a776116a4565b5b611a84888289016119b9565b93509350506040611a97888289016116ca565b9150509295509295909350565b611aad816117e6565b8114611ab857600080fd5b50565b600081359050611aca81611aa4565b92915050565b60008060408385031215611ae757611ae661169f565b5b6000611af585828601611abb565b9250506020611b06858286016116ca565b9150509250929050565b600060c082019050611b25600083018961170c565b611b32602083018861170c565b611b3f604083018761170c565b611b4c606083018661170c565b611b59608083018561170c565b611b6660a08301846117f8565b979650505050505050565b60008060408385031215611b8857611b8761169f565b5b6000611b96858286016116ca565b9250506020611ba7858286016116ca565b9150509250929050565b600081519050919050565b600082825260208201905092915050565b6000819050602082019050919050565b611be6816117e6565b82525050565b60c082016000820151611c0260008501826118e9565b506020820151611c1560208501826118e9565b506040820151611c2860408501826118e9565b506060820151611c3b60608501826118e9565b506080820151611c4e60808501826118e9565b5060a0820151611c6160a0850182611bdd565b50505050565b6000611c738383611bec565b60c08301905092915050565b6000602082019050919050565b6000611c9782611bb1565b611ca18185611bbc565b9350611cac83611bcd565b8060005b83811015611cdd578151611cc48882611c67565b9750611ccf83611c7f565b925050600181019050611cb0565b5085935050505092915050565b60006020820190508181036000830152611d048184611c8c565b905092915050565b60008060008060808587031215611d2657611d2561169f565b5b6000611d34878288016116ca565b9450506020611d45878288016116ca565b9350506040611d56878288016116ca565b9250506060611d67878288016116ca565b91505092959194509250565b7f4e487b7100000000000000000000000000000000000000000000000000000000600052602260045260246000fd5b60006002820490506001821680611dba57607f821691505b602082108103611dcd57611dcc611d73565b5b50919050565b7f4e487b7100000000000000000000000000000000000000000000000000000000600052603260045260246000fd5b7f4e487b7100000000000000000000000000000000000000000000000000000000600052601160045260246000fd5b6000611e3c826116a9565b91507fffffffffffffffffffffffffffffffffffffffffffffffffffffffffffffffff8203611e6e57611e6d611e02565b5b600182019050919050565b6000611e84826116a9565b9150611e8f836116a9565b9250828203905081811115611ea757611ea6611e02565b5b92915050565b7f4e6f74206f776e6572206f6620726f6f6d000000000000000000000000000000600082015250565b6000611ee3601183611726565b9150611eee82611ead565b602082019050919050565b60006020820190508181036000830152611f1281611ed6565b9050919050565b7f4e487b7100000000000000000000000000000000000000000000000000000000600052604160045260246000fd5b60008190508160005260206000209050919050565b60006020601f8301049050919050565b600082821b905092915050565b600060088302611faa7fffffffffffffffffffffffffffffffffffffffffffffffffffffffffffffffff82611f6d565b611fb48683611f6d565b95508019841693508086168417925050509392505050565b6000819050919050565b6000611ff1611fec611fe7846116a9565b611fcc565b6116a9565b9050919050565b6000819050919050565b61200b83611fd6565b61201f61201782611ff8565b848454611f7a565b825550505050565b600090565b612034612027565b61203f818484612002565b505050565b5b818110156120635761205860008261202c565b600181019050612045565b5050565b601f8211156120a85761207981611f48565b61208284611f5d565b81016020851015612091578190505b6120a561209d85611f5d565b830182612044565b50505b505050565b600082821c905092915050565b60006120cb600019846008026120ad565b1980831691505092915050565b60006120e483836120ba565b9150826002028217905092915050565b6120fd8261171b565b67ffffffffffffffff81111561211657612115611f19565b5b6121208254611da2565b61212b828285612067565b600060209050601f83116001811461215e576000841561214c578287015190505b61215685826120d8565b8655506121be565b601f19841661216c86611f48565b60005b828110156121945784890151825560018201915060208501945060208101905061216f565b868310156121b157848901516121ad601f8916826120ba565b8355505b6001600288020188555050505b505050505050565b7f526f6f6d20696e61637469766500000000000000000000000000000000000000600082015250565b60006121fc600d83611726565b9150612207826121c6565b602082019050919050565b6000602082019050818103600083015261222b816121ef565b9050919050565b600061223d826116a9565b9150612248836116a9565b9250828202612256816116a9565b9150828204841483151761226d5761226c611e02565b5b5092915050565b7f496e76616c69642076616c756500000000000000000000000000000000000000600082015250565b60006122aa600d83611726565b91506122b582612274565b602082019050919050565b600060208201905081810360008301526122d98161229d565b9050919050565b7f416c726561647920726573657276656400000000000000000000000000000000600082015250565b6000612316601083611726565b9150612321826122e0565b602082019050919050565b6000602082019050818103600083015261234581612309565b905091905056fea2646970667358221220c849d068dd5a640e721b5dc26b7638c2bec0ce2ba3821a23b722abba618eab5a64736f6c63430008110033",
					"opcodes": "PUSH1 0x80 PUSH1 0x40 MSTORE PUSH1 0x0 DUP1 SSTORE PUSH1 0x0 PUSH1 0x1 SSTORE CALLVALUE DUP1 ISZERO PUSH2 0x19 JUMPI PUSH1 0x0 DUP1 REVERT JUMPDEST POP PUSH2 0x2382 DUP1 PUSH2 0x29 PUSH1 0x0 CODECOPY PUSH1 0x0 RETURN INVALID PUSH1 0x80 PUSH1 0x40 MSTORE PUSH1 0x4 CALLDATASIZE LT PUSH2 0xA7 JUMPI PUSH1 0x0 CALLDATALOAD PUSH1 0xE0 SHR DUP1 PUSH4 0x835E5DAF GT PUSH2 0x64 JUMPI DUP1 PUSH4 0x835E5DAF EQ PUSH2 0x1EA JUMPI DUP1 PUSH4 0x85BFA356 EQ PUSH2 0x22C JUMPI DUP1 PUSH4 0x8C694034 EQ PUSH2 0x257 JUMPI DUP1 PUSH4 0xA165C0BA EQ PUSH2 0x294 JUMPI DUP1 PUSH4 0xF954D0D9 EQ PUSH2 0x2B0 JUMPI DUP1 PUSH4 0xFACEDF68 EQ PUSH2 0x2DB JUMPI PUSH2 0xA7 JUMP JUMPDEST DUP1 PUSH4 0x39B0DBED EQ PUSH2 0xAC JUMPI DUP1 PUSH4 0x43064AA4 EQ PUSH2 0xEE JUMPI DUP1 PUSH4 0x6D4D8C28 EQ PUSH2 0x12B JUMPI DUP1 PUSH4 0x6DECD419 EQ PUSH2 0x154 JUMPI DUP1 PUSH4 0x7B319135 EQ PUSH2 0x17F JUMPI DUP1 PUSH4 0x7DD9C1B2 EQ PUSH2 0x1A8 JUMPI JUMPDEST PUSH1 0x0 DUP1 REVERT JUMPDEST CALLVALUE DUP1 ISZERO PUSH2 0xB8 JUMPI PUSH1 0x0 DUP1 REVERT JUMPDEST POP PUSH2 0xD3 PUSH1 0x4 DUP1 CALLDATASIZE SUB DUP2 ADD SWAP1 PUSH2 0xCE SWAP2 SWAP1 PUSH2 0x16DF JUMP JUMPDEST PUSH2 0x304 JUMP JUMPDEST PUSH1 0x40 MLOAD PUSH2 0xE5 SWAP7 SWAP6 SWAP5 SWAP4 SWAP3 SWAP2 SWAP1 PUSH2 0x1807 JUMP JUMPDEST PUSH1 0x40 MLOAD DUP1 SWAP2 SUB SWAP1 RETURN JUMPDEST CALLVALUE DUP1 ISZERO PUSH2 0xFA JUMPI PUSH1 0x0 DUP1 REVERT JUMPDEST POP PUSH2 0x115 PUSH1 0x4 DUP1 CALLDATASIZE SUB DUP2 ADD SWAP1 PUSH2 0x110 SWAP2 SWAP1 PUSH2 0x1876 JUMP JUMPDEST PUSH2 0x47D JUMP JUMPDEST PUSH1 0x40 MLOAD PUSH2 0x122 SWAP2 SWAP1 PUSH2 0x1974 JUMP JUMPDEST PUSH1 0x40 MLOAD DUP1 SWAP2 SUB SWAP1 RETURN JUMPDEST CALLVALUE DUP1 ISZERO PUSH2 0x137 JUMPI PUSH1 0x0 DUP1 REVERT JUMPDEST POP PUSH2 0x152 PUSH1 0x4 DUP1 CALLDATASIZE SUB DUP2 ADD SWAP1 PUSH2 0x14D SWAP2 SWAP1 PUSH2 0x16DF JUMP JUMPDEST PUSH2 0x7E2 JUMP JUMPDEST STOP JUMPDEST CALLVALUE DUP1 ISZERO PUSH2 0x160 JUMPI PUSH1 0x0 DUP1 REVERT JUMPDEST POP PUSH2 0x169 PUSH2 0x8AC JUMP JUMPDEST PUSH1 0x40 MLOAD PUSH2 0x176 SWAP2 SWAP1 PUSH2 0x198F JUMP JUMPDEST PUSH1 0x40 MLOAD DUP1 SWAP2 SUB SWAP1 RETURN JUMPDEST CALLVALUE DUP1 ISZERO PUSH2 0x18B JUMPI PUSH1 0x0 DUP1 REVERT JUMPDEST POP PUSH2 0x1A6 PUSH1 0x4 DUP1 CALLDATASIZE SUB DUP2 ADD SWAP1 PUSH2 0x1A1 SWAP2 SWAP1 PUSH2 0x1A0F JUMP JUMPDEST PUSH2 0x8B2 JUMP JUMPDEST STOP JUMPDEST CALLVALUE DUP1 ISZERO PUSH2 0x1B4 JUMPI PUSH1 0x0 DUP1 REVERT JUMPDEST POP PUSH2 0x1CF PUSH1 0x4 DUP1 CALLDATASIZE SUB DUP2 ADD SWAP1 PUSH2 0x1CA SWAP2 SWAP1 PUSH2 0x1AD0 JUMP JUMPDEST PUSH2 0xAFC JUMP JUMPDEST PUSH1 0x40 MLOAD PUSH2 0x1E1 SWAP7 SWAP6 SWAP5 SWAP4 SWAP3 SWAP2 SWAP1 PUSH2 0x1B10 JUMP JUMPDEST PUSH1 0x40 MLOAD DUP1 SWAP2 SUB SWAP1 RETURN JUMPDEST CALLVALUE DUP1 ISZERO PUSH2 0x1F6 JUMPI PUSH1 0x0 DUP1 REVERT JUMPDEST POP PUSH2 0x211 PUSH1 0x4 DUP1 CALLDATASIZE SUB DUP2 ADD SWAP1 PUSH2 0x20C SWAP2 SWAP1 PUSH2 0x1B71 JUMP JUMPDEST PUSH2 0xB75 JUMP JUMPDEST PUSH1 0x40 MLOAD PUSH2 0x223 SWAP7 SWAP6 SWAP5 SWAP4 SWAP3 SWAP2 SWAP1 PUSH2 0x1B10 JUMP JUMPDEST PUSH1 0x40 MLOAD DUP1 SWAP2 SUB SWAP1 RETURN JUMPDEST CALLVALUE DUP1 ISZERO PUSH2 0x238 JUMPI PUSH1 0x0 DUP1 REVERT JUMPDEST POP PUSH2 0x241 PUSH2 0xBEE JUMP JUMPDEST PUSH1 0x40 MLOAD PUSH2 0x24E SWAP2 SWAP1 PUSH2 0x1CEA JUMP JUMPDEST PUSH1 0x40 MLOAD DUP1 SWAP2 SUB SWAP1 RETURN JUMPDEST CALLVALUE DUP1 ISZERO PUSH2 0x263 JUMPI PUSH1 0x0 DUP1 REVERT JUMPDEST POP PUSH2 0x27E PUSH1 0x4 DUP1 CALLDATASIZE SUB DUP2 ADD SWAP1 PUSH2 0x279 SWAP2 SWAP1 PUSH2 0x16DF JUMP JUMPDEST PUSH2 0xD12 JUMP JUMPDEST PUSH1 0x40 MLOAD PUSH2 0x28B SWAP2 SWAP1 PUSH2 0x1CEA JUMP JUMPDEST PUSH1 0x40 MLOAD DUP1 SWAP2 SUB SWAP1 RETURN JUMPDEST PUSH2 0x2AE PUSH1 0x4 DUP1 CALLDATASIZE SUB DUP2 ADD SWAP1 PUSH2 0x2A9 SWAP2 SWAP1 PUSH2 0x1D0C JUMP JUMPDEST PUSH2 0xE0C JUMP JUMPDEST STOP JUMPDEST CALLVALUE DUP1 ISZERO PUSH2 0x2BC JUMPI PUSH1 0x0 DUP1 REVERT JUMPDEST POP PUSH2 0x2C5 PUSH2 0x11B5 JUMP JUMPDEST PUSH1 0x40 MLOAD PUSH2 0x2D2 SWAP2 SWAP1 PUSH2 0x198F JUMP JUMPDEST PUSH1 0x40 MLOAD DUP1 SWAP2 SUB SWAP1 RETURN JUMPDEST CALLVALUE DUP1 ISZERO PUSH2 0x2E7 JUMPI PUSH1 0x0 DUP1 REVERT JUMPDEST POP PUSH2 0x302 PUSH1 0x4 DUP1 CALLDATASIZE SUB DUP2 ADD SWAP1 PUSH2 0x2FD SWAP2 SWAP1 PUSH2 0x16DF JUMP JUMPDEST PUSH2 0x11BB JUMP JUMPDEST STOP JUMPDEST PUSH1 0x2 PUSH1 0x20 MSTORE DUP1 PUSH1 0x0 MSTORE PUSH1 0x40 PUSH1 0x0 KECCAK256 PUSH1 0x0 SWAP2 POP SWAP1 POP DUP1 PUSH1 0x0 ADD SLOAD SWAP1 DUP1 PUSH1 0x1 ADD DUP1 SLOAD PUSH2 0x32D SWAP1 PUSH2 0x1DA2 JUMP JUMPDEST DUP1 PUSH1 0x1F ADD PUSH1 0x20 DUP1 SWAP2 DIV MUL PUSH1 0x20 ADD PUSH1 0x40 MLOAD SWAP1 DUP2 ADD PUSH1 0x40 MSTORE DUP1 SWAP3 SWAP2 SWAP1 DUP2 DUP2 MSTORE PUSH1 0x20 ADD DUP3 DUP1 SLOAD PUSH2 0x359 SWAP1 PUSH2 0x1DA2 JUMP JUMPDEST DUP1 ISZERO PUSH2 0x3A6 JUMPI DUP1 PUSH1 0x1F LT PUSH2 0x37B JUMPI PUSH2 0x100 DUP1 DUP4 SLOAD DIV MUL DUP4 MSTORE SWAP2 PUSH1 0x20 ADD SWAP2 PUSH2 0x3A6 JUMP JUMPDEST DUP3 ADD SWAP2 SWAP1 PUSH1 0x0 MSTORE PUSH1 0x20 PUSH1 0x0 KECCAK256 SWAP1 JUMPDEST DUP2 SLOAD DUP2 MSTORE SWAP1 PUSH1 0x1 ADD SWAP1 PUSH1 0x20 ADD DUP1 DUP4 GT PUSH2 0x389 JUMPI DUP3 SWAP1 SUB PUSH1 0x1F AND DUP3 ADD SWAP2 JUMPDEST POP POP POP POP POP SWAP1 DUP1 PUSH1 0x2 ADD DUP1 SLOAD PUSH2 0x3BB SWAP1 PUSH2 0x1DA2 JUMP JUMPDEST DUP1 PUSH1 0x1F ADD PUSH1 0x20 DUP1 SWAP2 DIV MUL PUSH1 0x20 ADD PUSH1 0x40 MLOAD SWAP1 DUP2 ADD PUSH1 0x40 MSTORE DUP1 SWAP3 SWAP2 SWAP1 DUP2 DUP2 MSTORE PUSH1 0x20 ADD DUP3 DUP1 SLOAD PUSH2 0x3E7 SWAP1 PUSH2 0x1DA2 JUMP JUMPDEST DUP1 ISZERO PUSH2 0x434 JUMPI DUP1 PUSH1 0x1F LT PUSH2 0x409 JUMPI PUSH2 0x100 DUP1 DUP4 SLOAD DIV MUL DUP4 MSTORE SWAP2 PUSH1 0x20 ADD SWAP2 PUSH2 0x434 JUMP JUMPDEST DUP3 ADD SWAP2 SWAP1 PUSH1 0x0 MSTORE PUSH1 0x20 PUSH1 0x0 KECCAK256 SWAP1 JUMPDEST DUP2 SLOAD DUP2 MSTORE SWAP1 PUSH1 0x1 ADD SWAP1 PUSH1 0x20 ADD DUP1 DUP4 GT PUSH2 0x417 JUMPI DUP3 SWAP1 SUB PUSH1 0x1F AND DUP3 ADD SWAP2 JUMPDEST POP POP POP POP POP SWAP1 DUP1 PUSH1 0x3 ADD PUSH1 0x0 SWAP1 SLOAD SWAP1 PUSH2 0x100 EXP SWAP1 DIV PUSH1 0xFF AND SWAP1 DUP1 PUSH1 0x4 ADD SLOAD SWAP1 DUP1 PUSH1 0x5 ADD PUSH1 0x0 SWAP1 SLOAD SWAP1 PUSH2 0x100 EXP SWAP1 DIV PUSH20 0xFFFFFFFFFFFFFFFFFFFFFFFFFFFFFFFFFFFFFFFF AND SWAP1 POP DUP7 JUMP JUMPDEST PUSH2 0x485 PUSH2 0x15BA JUMP JUMPDEST PUSH1 0x0 PUSH1 0x2 PUSH1 0x0 DUP7 DUP2 MSTORE PUSH1 0x20 ADD SWAP1 DUP2 MSTORE PUSH1 0x20 ADD PUSH1 0x0 KECCAK256 PUSH1 0x40 MLOAD DUP1 PUSH1 0xE0 ADD PUSH1 0x40 MSTORE SWAP1 DUP2 PUSH1 0x0 DUP3 ADD SLOAD DUP2 MSTORE PUSH1 0x20 ADD PUSH1 0x1 DUP3 ADD DUP1 SLOAD PUSH2 0x4BF SWAP1 PUSH2 0x1DA2 JUMP JUMPDEST DUP1 PUSH1 0x1F ADD PUSH1 0x20 DUP1 SWAP2 DIV MUL PUSH1 0x20 ADD PUSH1 0x40 MLOAD SWAP1 DUP2 ADD PUSH1 0x40 MSTORE DUP1 SWAP3 SWAP2 SWAP1 DUP2 DUP2 MSTORE PUSH1 0x20 ADD DUP3 DUP1 SLOAD PUSH2 0x4EB SWAP1 PUSH2 0x1DA2 JUMP JUMPDEST DUP1 ISZERO PUSH2 0x538 JUMPI DUP1 PUSH1 0x1F LT PUSH2 0x50D JUMPI PUSH2 0x100 DUP1 DUP4 SLOAD DIV MUL DUP4 MSTORE SWAP2 PUSH1 0x20 ADD SWAP2 PUSH2 0x538 JUMP JUMPDEST DUP3 ADD SWAP2 SWAP1 PUSH1 0x0 MSTORE PUSH1 0x20 PUSH1 0x0 KECCAK256 SWAP1 JUMPDEST DUP2 SLOAD DUP2 MSTORE SWAP1 PUSH1 0x1 ADD SWAP1 PUSH1 0x20 ADD DUP1 DUP4 GT PUSH2 0x51B JUMPI DUP3 SWAP1 SUB PUSH1 0x1F AND DUP3 ADD SWAP2 JUMPDEST POP POP POP POP POP DUP2 MSTORE PUSH1 0x20 ADD PUSH1 0x2 DUP3 ADD DUP1 SLOAD PUSH2 0x551 SWAP1 PUSH2 0x1DA2 JUMP JUMPDEST DUP1 PUSH1 0x1F ADD PUSH1 0x20 DUP1 SWAP2 DIV MUL PUSH1 0x20 ADD PUSH1 0x40 MLOAD SWAP1 DUP2 ADD PUSH1 0x40 MSTORE DUP1 SWAP3 SWAP2 SWAP1 DUP2 DUP2 MSTORE PUSH1 0x20 ADD DUP3 DUP1 SLOAD PUSH2 0x57D SWAP1 PUSH2 0x1DA2 JUMP JUMPDEST DUP1 ISZERO PUSH2 0x5CA JUMPI DUP1 PUSH1 0x1F LT PUSH2 0x59F JUMPI PUSH2 0x100 DUP1 DUP4 SLOAD DIV MUL DUP4 MSTORE SWAP2 PUSH1 0x20 ADD SWAP2 PUSH2 0x5CA JUMP JUMPDEST DUP3 ADD SWAP2 SWAP1 PUSH1 0x0 MSTORE PUSH1 0x20 PUSH1 0x0 KECCAK256 SWAP1 JUMPDEST DUP2 SLOAD DUP2 MSTORE SWAP1 PUSH1 0x1 ADD SWAP1 PUSH1 0x20 ADD DUP1 DUP4 GT PUSH2 0x5AD JUMPI DUP3 SWAP1 SUB PUSH1 0x1F AND DUP3 ADD SWAP2 JUMPDEST POP POP POP POP POP DUP2 MSTORE PUSH1 0x20 ADD PUSH1 0x3 DUP3 ADD PUSH1 0x0 SWAP1 SLOAD SWAP1 PUSH2 0x100 EXP SWAP1 DIV PUSH1 0xFF AND ISZERO ISZERO ISZERO ISZERO DUP2 MSTORE PUSH1 0x20 ADD PUSH1 0x4 DUP3 ADD SLOAD DUP2 MSTORE PUSH1 0x20 ADD PUSH1 0x5 DUP3 ADD PUSH1 0x0 SWAP1 SLOAD SWAP1 PUSH2 0x100 EXP SWAP1 DIV PUSH20 0xFFFFFFFFFFFFFFFFFFFFFFFFFFFFFFFFFFFFFFFF AND PUSH20 0xFFFFFFFFFFFFFFFFFFFFFFFFFFFFFFFFFFFFFFFF AND PUSH20 0xFFFFFFFFFFFFFFFFFFFFFFFFFFFFFFFFFFFFFFFF AND DUP2 MSTORE PUSH1 0x20 ADD PUSH1 0x6 DUP3 ADD DUP1 SLOAD DUP1 PUSH1 0x20 MUL PUSH1 0x20 ADD PUSH1 0x40 MLOAD SWAP1 DUP2 ADD PUSH1 0x40 MSTORE DUP1 SWAP3 SWAP2 SWAP1 DUP2 DUP2 MSTORE PUSH1 0x20 ADD DUP3 DUP1 SLOAD DUP1 ISZERO PUSH2 0x6C2 JUMPI PUSH1 0x20 MUL DUP3 ADD SWAP2 SWAP1 PUSH1 0x0 MSTORE PUSH1 0x20 PUSH1 0x0 KECCAK256 SWAP1 PUSH1 0x0 SWAP1 JUMPDEST DUP3 DUP3 SWAP1 SLOAD SWAP1 PUSH2 0x100 EXP SWAP1 DIV PUSH1 0xFF AND ISZERO ISZERO DUP2 MSTORE PUSH1 0x20 ADD SWAP1 PUSH1 0x1 ADD SWAP1 PUSH1 0x20 DUP3 PUSH1 0x0 ADD DIV SWAP3 DUP4 ADD SWAP3 PUSH1 0x1 SUB DUP3 MUL SWAP2 POP DUP1 DUP5 GT PUSH2 0x68C JUMPI SWAP1 POP JUMPDEST POP POP POP POP POP DUP2 MSTORE POP POP SWAP1 POP PUSH2 0x6D5 PUSH2 0x15BA JUMP JUMPDEST PUSH1 0x0 DUP6 SWAP1 POP JUMPDEST DUP5 DUP2 LT ISZERO PUSH2 0x743 JUMPI PUSH1 0x1 ISZERO ISZERO DUP4 PUSH1 0xC0 ADD MLOAD DUP3 DUP2 MLOAD DUP2 LT PUSH2 0x6FE JUMPI PUSH2 0x6FD PUSH2 0x1DD3 JUMP JUMPDEST JUMPDEST PUSH1 0x20 MUL PUSH1 0x20 ADD ADD MLOAD ISZERO ISZERO SUB PUSH2 0x730 JUMPI DUP1 DUP3 PUSH1 0x0 PUSH1 0x2 DUP2 LT PUSH2 0x722 JUMPI PUSH2 0x721 PUSH2 0x1DD3 JUMP JUMPDEST JUMPDEST PUSH1 0x20 MUL ADD DUP2 DUP2 MSTORE POP POP PUSH2 0x743 JUMP JUMPDEST DUP1 DUP1 PUSH2 0x73B SWAP1 PUSH2 0x1E31 JUMP JUMPDEST SWAP2 POP POP PUSH2 0x6DB JUMP JUMPDEST POP PUSH1 0x0 DUP2 PUSH1 0x0 PUSH1 0x2 DUP2 LT PUSH2 0x75A JUMPI PUSH2 0x759 PUSH2 0x1DD3 JUMP JUMPDEST JUMPDEST PUSH1 0x20 MUL ADD MLOAD SWAP1 POP JUMPDEST DUP5 DUP2 GT PUSH2 0x7D5 JUMPI PUSH1 0x0 ISZERO ISZERO DUP4 PUSH1 0xC0 ADD MLOAD DUP3 DUP2 MLOAD DUP2 LT PUSH2 0x784 JUMPI PUSH2 0x783 PUSH2 0x1DD3 JUMP JUMPDEST JUMPDEST PUSH1 0x20 MUL PUSH1 0x20 ADD ADD MLOAD ISZERO ISZERO SUB PUSH2 0x7C2 JUMPI PUSH1 0x1 DUP2 PUSH2 0x7A0 SWAP2 SWAP1 PUSH2 0x1E79 JUMP JUMPDEST DUP3 PUSH1 0x1 PUSH1 0x2 DUP2 LT PUSH2 0x7B4 JUMPI PUSH2 0x7B3 PUSH2 0x1DD3 JUMP JUMPDEST JUMPDEST PUSH1 0x20 MUL ADD DUP2 DUP2 MSTORE POP POP PUSH2 0x7D5 JUMP JUMPDEST DUP1 DUP1 PUSH2 0x7CD SWAP1 PUSH2 0x1E31 JUMP JUMPDEST SWAP2 POP POP PUSH2 0x762 JUMP JUMPDEST POP DUP1 SWAP3 POP POP POP SWAP4 SWAP3 POP POP POP JUMP JUMPDEST PUSH1 0x0 PUSH1 0x2 PUSH1 0x0 DUP4 DUP2 MSTORE PUSH1 0x20 ADD SWAP1 DUP2 MSTORE PUSH1 0x20 ADD PUSH1 0x0 KECCAK256 SWAP1 POP CALLER PUSH20 0xFFFFFFFFFFFFFFFFFFFFFFFFFFFFFFFFFFFFFFFF AND DUP2 PUSH1 0x5 ADD PUSH1 0x0 SWAP1 SLOAD SWAP1 PUSH2 0x100 EXP SWAP1 DIV PUSH20 0xFFFFFFFFFFFFFFFFFFFFFFFFFFFFFFFFFFFFFFFF AND PUSH20 0xFFFFFFFFFFFFFFFFFFFFFFFFFFFFFFFFFFFFFFFF AND EQ PUSH2 0x88B JUMPI PUSH1 0x40 MLOAD PUSH32 0x8C379A000000000000000000000000000000000000000000000000000000000 DUP2 MSTORE PUSH1 0x4 ADD PUSH2 0x882 SWAP1 PUSH2 0x1EF9 JUMP JUMPDEST PUSH1 0x40 MLOAD DUP1 SWAP2 SUB SWAP1 REVERT JUMPDEST PUSH1 0x0 DUP2 PUSH1 0x3 ADD PUSH1 0x0 PUSH2 0x100 EXP DUP2 SLOAD DUP2 PUSH1 0xFF MUL NOT AND SWAP1 DUP4 ISZERO ISZERO MUL OR SWAP1 SSTORE POP POP POP JUMP JUMPDEST PUSH1 0x1 SLOAD DUP2 JUMP JUMPDEST PUSH1 0x0 PUSH1 0x40 MLOAD DUP1 PUSH1 0xE0 ADD PUSH1 0x40 MSTORE DUP1 PUSH1 0x0 SLOAD DUP2 MSTORE PUSH1 0x20 ADD DUP8 DUP8 DUP1 DUP1 PUSH1 0x1F ADD PUSH1 0x20 DUP1 SWAP2 DIV MUL PUSH1 0x20 ADD PUSH1 0x40 MLOAD SWAP1 DUP2 ADD PUSH1 0x40 MSTORE DUP1 SWAP4 SWAP3 SWAP2 SWAP1 DUP2 DUP2 MSTORE PUSH1 0x20 ADD DUP4 DUP4 DUP1 DUP3 DUP5 CALLDATACOPY PUSH1 0x0 DUP2 DUP5 ADD MSTORE PUSH1 0x1F NOT PUSH1 0x1F DUP3 ADD AND SWAP1 POP DUP1 DUP4 ADD SWAP3 POP POP POP POP POP POP POP DUP2 MSTORE PUSH1 0x20 ADD DUP6 DUP6 DUP1 DUP1 PUSH1 0x1F ADD PUSH1 0x20 DUP1 SWAP2 DIV MUL PUSH1 0x20 ADD PUSH1 0x40 MLOAD SWAP1 DUP2 ADD PUSH1 0x40 MSTORE DUP1 SWAP4 SWAP3 SWAP2 SWAP1 DUP2 DUP2 MSTORE PUSH1 0x20 ADD DUP4 DUP4 DUP1 DUP3 DUP5 CALLDATACOPY PUSH1 0x0 DUP2 DUP5 ADD MSTORE PUSH1 0x1F NOT PUSH1 0x1F DUP3 ADD AND SWAP1 POP DUP1 DUP4 ADD SWAP3 POP POP POP POP POP POP POP DUP2 MSTORE PUSH1 0x20 ADD PUSH1 0x1 ISZERO ISZERO DUP2 MSTORE PUSH1 0x20 ADD DUP4 DUP2 MSTORE PUSH1 0x20 ADD CALLER PUSH20 0xFFFFFFFFFFFFFFFFFFFFFFFFFFFFFFFFFFFFFFFF AND DUP2 MSTORE PUSH1 0x20 ADD PUSH2 0x16D PUSH8 0xFFFFFFFFFFFFFFFF DUP2 GT ISZERO PUSH2 0x9A2 JUMPI PUSH2 0x9A1 PUSH2 0x1F19 JUMP JUMPDEST JUMPDEST PUSH1 0x40 MLOAD SWAP1 DUP1 DUP3 MSTORE DUP1 PUSH1 0x20 MUL PUSH1 0x20 ADD DUP3 ADD PUSH1 0x40 MSTORE DUP1 ISZERO PUSH2 0x9D0 JUMPI DUP2 PUSH1 0x20 ADD PUSH1 0x20 DUP3 MUL DUP1 CALLDATASIZE DUP4 CALLDATACOPY DUP1 DUP3 ADD SWAP2 POP POP SWAP1 POP JUMPDEST POP DUP2 MSTORE POP SWAP1 POP DUP1 PUSH1 0x2 PUSH1 0x0 DUP1 SLOAD DUP2 MSTORE PUSH1 0x20 ADD SWAP1 DUP2 MSTORE PUSH1 0x20 ADD PUSH1 0x0 KECCAK256 PUSH1 0x0 DUP3 ADD MLOAD DUP2 PUSH1 0x0 ADD SSTORE PUSH1 0x20 DUP3 ADD MLOAD DUP2 PUSH1 0x1 ADD SWAP1 DUP2 PUSH2 0xA0A SWAP2 SWAP1 PUSH2 0x20F4 JUMP JUMPDEST POP PUSH1 0x40 DUP3 ADD MLOAD DUP2 PUSH1 0x2 ADD SWAP1 DUP2 PUSH2 0xA20 SWAP2 SWAP1 PUSH2 0x20F4 JUMP JUMPDEST POP PUSH1 0x60 DUP3 ADD MLOAD DUP2 PUSH1 0x3 ADD PUSH1 0x0 PUSH2 0x100 EXP DUP2 SLOAD DUP2 PUSH1 0xFF MUL NOT AND SWAP1 DUP4 ISZERO ISZERO MUL OR SWAP1 SSTORE POP PUSH1 0x80 DUP3 ADD MLOAD DUP2 PUSH1 0x4 ADD SSTORE PUSH1 0xA0 DUP3 ADD MLOAD DUP2 PUSH1 0x5 ADD PUSH1 0x0 PUSH2 0x100 EXP DUP2 SLOAD DUP2 PUSH20 0xFFFFFFFFFFFFFFFFFFFFFFFFFFFFFFFFFFFFFFFF MUL NOT AND SWAP1 DUP4 PUSH20 0xFFFFFFFFFFFFFFFFFFFFFFFFFFFFFFFFFFFFFFFF AND MUL OR SWAP1 SSTORE POP PUSH1 0xC0 DUP3 ADD MLOAD DUP2 PUSH1 0x6 ADD SWAP1 DUP1 MLOAD SWAP1 PUSH1 0x20 ADD SWAP1 PUSH2 0xAAE SWAP3 SWAP2 SWAP1 PUSH2 0x15DC JUMP JUMPDEST POP SWAP1 POP POP PUSH1 0x0 DUP1 DUP2 SLOAD DUP1 SWAP3 SWAP2 SWAP1 PUSH2 0xAC4 SWAP1 PUSH2 0x1E31 JUMP JUMPDEST SWAP2 SWAP1 POP SSTORE PUSH32 0xE3DFA06732E0549F98A5F6D34268FBB7DA76B458E78C8EA5B1D7029396CC2164 PUSH1 0x40 MLOAD PUSH1 0x40 MLOAD DUP1 SWAP2 SUB SWAP1 LOG2 POP POP POP POP POP POP JUMP JUMPDEST PUSH1 0x4 PUSH1 0x20 MSTORE DUP2 PUSH1 0x0 MSTORE PUSH1 0x40 PUSH1 0x0 KECCAK256 DUP2 DUP2 SLOAD DUP2 LT PUSH2 0xB18 JUMPI PUSH1 0x0 DUP1 REVERT JUMPDEST SWAP1 PUSH1 0x0 MSTORE PUSH1 0x20 PUSH1 0x0 KECCAK256 SWAP1 PUSH1 0x6 MUL ADD PUSH1 0x0 SWAP2 POP SWAP2 POP POP DUP1 PUSH1 0x0 ADD SLOAD SWAP1 DUP1 PUSH1 0x1 ADD SLOAD SWAP1 DUP1 PUSH1 0x2 ADD SLOAD SWAP1 DUP1 PUSH1 0x3 ADD SLOAD SWAP1 DUP1 PUSH1 0x4 ADD SLOAD SWAP1 DUP1 PUSH1 0x5 ADD PUSH1 0x0 SWAP1 SLOAD SWAP1 PUSH2 0x100 EXP SWAP1 DIV PUSH20 0xFFFFFFFFFFFFFFFFFFFFFFFFFFFFFFFFFFFFFFFF AND SWAP1 POP DUP7 JUMP JUMPDEST PUSH1 0x3 PUSH1 0x20 MSTORE DUP2 PUSH1 0x0 MSTORE PUSH1 0x40 PUSH1 0x0 KECCAK256 DUP2 DUP2 SLOAD DUP2 LT PUSH2 0xB91 JUMPI PUSH1 0x0 DUP1 REVERT JUMPDEST SWAP1 PUSH1 0x0 MSTORE PUSH1 0x20 PUSH1 0x0 KECCAK256 SWAP1 PUSH1 0x6 MUL ADD PUSH1 0x0 SWAP2 POP SWAP2 POP POP DUP1 PUSH1 0x0 ADD SLOAD SWAP1 DUP1 PUSH1 0x1 ADD SLOAD SWAP1 DUP1 PUSH1 0x2 ADD SLOAD SWAP1 DUP1 PUSH1 0x3 ADD SLOAD SWAP1 DUP1 PUSH1 0x4 ADD SLOAD SWAP1 DUP1 PUSH1 0x5 ADD PUSH1 0x0 SWAP1 SLOAD SWAP1 PUSH2 0x100 EXP SWAP1 DIV PUSH20 0xFFFFFFFFFFFFFFFFFFFFFFFFFFFFFFFFFFFFFFFF AND SWAP1 POP DUP7 JUMP JUMPDEST PUSH1 0x60 PUSH1 0x4 PUSH1 0x0 CALLER PUSH20 0xFFFFFFFFFFFFFFFFFFFFFFFFFFFFFFFFFFFFFFFF AND PUSH20 0xFFFFFFFFFFFFFFFFFFFFFFFFFFFFFFFFFFFFFFFF AND DUP2 MSTORE PUSH1 0x20 ADD SWAP1 DUP2 MSTORE PUSH1 0x20 ADD PUSH1 0x0 KECCAK256 DUP1 SLOAD DUP1 PUSH1 0x20 MUL PUSH1 0x20 ADD PUSH1 0x40 MLOAD SWAP1 DUP2 ADD PUSH1 0x40 MSTORE DUP1 SWAP3 SWAP2 SWAP1 DUP2 DUP2 MSTORE PUSH1 0x20 ADD PUSH1 0x0 SWAP1 JUMPDEST DUP3 DUP3 LT ISZERO PUSH2 0xD09 JUMPI DUP4 DUP3 SWAP1 PUSH1 0x0 MSTORE PUSH1 0x20 PUSH1 0x0 KECCAK256 SWAP1 PUSH1 0x6 MUL ADD PUSH1 0x40 MLOAD DUP1 PUSH1 0xC0 ADD PUSH1 0x40 MSTORE SWAP1 DUP2 PUSH1 0x0 DUP3 ADD SLOAD DUP2 MSTORE PUSH1 0x20 ADD PUSH1 0x1 DUP3 ADD SLOAD DUP2 MSTORE PUSH1 0x20 ADD PUSH1 0x2 DUP3 ADD SLOAD DUP2 MSTORE PUSH1 0x20 ADD PUSH1 0x3 DUP3 ADD SLOAD DUP2 MSTORE PUSH1 0x20 ADD PUSH1 0x4 DUP3 ADD SLOAD DUP2 MSTORE PUSH1 0x20 ADD PUSH1 0x5 DUP3 ADD PUSH1 0x0 SWAP1 SLOAD SWAP1 PUSH2 0x100 EXP SWAP1 DIV PUSH20 0xFFFFFFFFFFFFFFFFFFFFFFFFFFFFFFFFFFFFFFFF AND PUSH20 0xFFFFFFFFFFFFFFFFFFFFFFFFFFFFFFFFFFFFFFFF AND PUSH20 0xFFFFFFFFFFFFFFFFFFFFFFFFFFFFFFFFFFFFFFFF AND DUP2 MSTORE POP POP DUP2 MSTORE PUSH1 0x20 ADD SWAP1 PUSH1 0x1 ADD SWAP1 PUSH2 0xC4F JUMP JUMPDEST POP POP POP POP SWAP1 POP SWAP1 JUMP JUMPDEST PUSH1 0x60 PUSH1 0x3 PUSH1 0x0 DUP4 DUP2 MSTORE PUSH1 0x20 ADD SWAP1 DUP2 MSTORE PUSH1 0x20 ADD PUSH1 0x0 KECCAK256 DUP1 SLOAD DUP1 PUSH1 0x20 MUL PUSH1 0x20 ADD PUSH1 0x40 MLOAD SWAP1 DUP2 ADD PUSH1 0x40 MSTORE DUP1 SWAP3 SWAP2 SWAP1 DUP2 DUP2 MSTORE PUSH1 0x20 ADD PUSH1 0x0 SWAP1 JUMPDEST DUP3 DUP3 LT ISZERO PUSH2 0xE01 JUMPI DUP4 DUP3 SWAP1 PUSH1 0x0 MSTORE PUSH1 0x20 PUSH1 0x0 KECCAK256 SWAP1 PUSH1 0x6 MUL ADD PUSH1 0x40 MLOAD DUP1 PUSH1 0xC0 ADD PUSH1 0x40 MSTORE SWAP1 DUP2 PUSH1 0x0 DUP3 ADD SLOAD DUP2 MSTORE PUSH1 0x20 ADD PUSH1 0x1 DUP3 ADD SLOAD DUP2 MSTORE PUSH1 0x20 ADD PUSH1 0x2 DUP3 ADD SLOAD DUP2 MSTORE PUSH1 0x20 ADD PUSH1 0x3 DUP3 ADD SLOAD DUP2 MSTORE PUSH1 0x20 ADD PUSH1 0x4 DUP3 ADD SLOAD DUP2 MSTORE PUSH1 0x20 ADD PUSH1 0x5 DUP3 ADD PUSH1 0x0 SWAP1 SLOAD SWAP1 PUSH2 0x100 EXP SWAP1 DIV PUSH20 0xFFFFFFFFFFFFFFFFFFFFFFFFFFFFFFFFFFFFFFFF AND PUSH20 0xFFFFFFFFFFFFFFFFFFFFFFFFFFFFFFFFFFFFFFFF AND PUSH20 0xFFFFFFFFFFFFFFFFFFFFFFFFFFFFFFFFFFFFFFFF AND DUP2 MSTORE POP POP DUP2 MSTORE PUSH1 0x20 ADD SWAP1 PUSH1 0x1 ADD SWAP1 PUSH2 0xD47 JUMP JUMPDEST POP POP POP POP SWAP1 POP SWAP2 SWAP1 POP JUMP JUMPDEST PUSH1 0x0 PUSH1 0x2 PUSH1 0x0 DUP7 DUP2 MSTORE PUSH1 0x20 ADD SWAP1 DUP2 MSTORE PUSH1 0x20 ADD PUSH1 0x0 KECCAK256 PUSH1 0x40 MLOAD DUP1 PUSH1 0xE0 ADD PUSH1 0x40 MSTORE SWAP1 DUP2 PUSH1 0x0 DUP3 ADD SLOAD DUP2 MSTORE PUSH1 0x20 ADD PUSH1 0x1 DUP3 ADD DUP1 SLOAD PUSH2 0xE46 SWAP1 PUSH2 0x1DA2 JUMP JUMPDEST DUP1 PUSH1 0x1F ADD PUSH1 0x20 DUP1 SWAP2 DIV MUL PUSH1 0x20 ADD PUSH1 0x40 MLOAD SWAP1 DUP2 ADD PUSH1 0x40 MSTORE DUP1 SWAP3 SWAP2 SWAP1 DUP2 DUP2 MSTORE PUSH1 0x20 ADD DUP3 DUP1 SLOAD PUSH2 0xE72 SWAP1 PUSH2 0x1DA2 JUMP JUMPDEST DUP1 ISZERO PUSH2 0xEBF JUMPI DUP1 PUSH1 0x1F LT PUSH2 0xE94 JUMPI PUSH2 0x100 DUP1 DUP4 SLOAD DIV MUL DUP4 MSTORE SWAP2 PUSH1 0x20 ADD SWAP2 PUSH2 0xEBF JUMP JUMPDEST DUP3 ADD SWAP2 SWAP1 PUSH1 0x0 MSTORE PUSH1 0x20 PUSH1 0x0 KECCAK256 SWAP1 JUMPDEST DUP2 SLOAD DUP2 MSTORE SWAP1 PUSH1 0x1 ADD SWAP1 PUSH1 0x20 ADD DUP1 DUP4 GT PUSH2 0xEA2 JUMPI DUP3 SWAP1 SUB PUSH1 0x1F AND DUP3 ADD SWAP2 JUMPDEST POP POP POP POP POP DUP2 MSTORE PUSH1 0x20 ADD PUSH1 0x2 DUP3 ADD DUP1 SLOAD PUSH2 0xED8 SWAP1 PUSH2 0x1DA2 JUMP JUMPDEST DUP1 PUSH1 0x1F ADD PUSH1 0x20 DUP1 SWAP2 DIV MUL PUSH1 0x20 ADD PUSH1 0x40 MLOAD SWAP1 DUP2 ADD PUSH1 0x40 MSTORE DUP1 SWAP3 SWAP2 SWAP1 DUP2 DUP2 MSTORE PUSH1 0x20 ADD DUP3 DUP1 SLOAD PUSH2 0xF04 SWAP1 PUSH2 0x1DA2 JUMP JUMPDEST DUP1 ISZERO PUSH2 0xF51 JUMPI DUP1 PUSH1 0x1F LT PUSH2 0xF26 JUMPI PUSH2 0x100 DUP1 DUP4 SLOAD DIV MUL DUP4 MSTORE SWAP2 PUSH1 0x20 ADD SWAP2 PUSH2 0xF51 JUMP JUMPDEST DUP3 ADD SWAP2 SWAP1 PUSH1 0x0 MSTORE PUSH1 0x20 PUSH1 0x0 KECCAK256 SWAP1 JUMPDEST DUP2 SLOAD DUP2 MSTORE SWAP1 PUSH1 0x1 ADD SWAP1 PUSH1 0x20 ADD DUP1 DUP4 GT PUSH2 0xF34 JUMPI DUP3 SWAP1 SUB PUSH1 0x1F AND DUP3 ADD SWAP2 JUMPDEST POP POP POP POP POP DUP2 MSTORE PUSH1 0x20 ADD PUSH1 0x3 DUP3 ADD PUSH1 0x0 SWAP1 SLOAD SWAP1 PUSH2 0x100 EXP SWAP1 DIV PUSH1 0xFF AND ISZERO ISZERO ISZERO ISZERO DUP2 MSTORE PUSH1 0x20 ADD PUSH1 0x4 DUP3 ADD SLOAD DUP2 MSTORE PUSH1 0x20 ADD PUSH1 0x5 DUP3 ADD PUSH1 0x0 SWAP1 SLOAD SWAP1 PUSH2 0x100 EXP SWAP1 DIV PUSH20 0xFFFFFFFFFFFFFFFFFFFFFFFFFFFFFFFFFFFFFFFF AND PUSH20 0xFFFFFFFFFFFFFFFFFFFFFFFFFFFFFFFFFFFFFFFF AND PUSH20 0xFFFFFFFFFFFFFFFFFFFFFFFFFFFFFFFFFFFFFFFF AND DUP2 MSTORE PUSH1 0x20 ADD PUSH1 0x6 DUP3 ADD DUP1 SLOAD DUP1 PUSH1 0x20 MUL PUSH1 0x20 ADD PUSH1 0x40 MLOAD SWAP1 DUP2 ADD PUSH1 0x40 MSTORE DUP1 SWAP3 SWAP2 SWAP1 DUP2 DUP2 MSTORE PUSH1 0x20 ADD DUP3 DUP1 SLOAD DUP1 ISZERO PUSH2 0x1049 JUMPI PUSH1 0x20 MUL DUP3 ADD SWAP2 SWAP1 PUSH1 0x0 MSTORE PUSH1 0x20 PUSH1 0x0 KECCAK256 SWAP1 PUSH1 0x0 SWAP1 JUMPDEST DUP3 DUP3 SWAP1 SLOAD SWAP1 PUSH2 0x100 EXP SWAP1 DIV PUSH1 0xFF AND ISZERO ISZERO DUP2 MSTORE PUSH1 0x20 ADD SWAP1 PUSH1 0x1 ADD SWAP1 PUSH1 0x20 DUP3 PUSH1 0x0 ADD DIV SWAP3 DUP4 ADD SWAP3 PUSH1 0x1 SUB DUP3 MUL SWAP2 POP DUP1 DUP5 GT PUSH2 0x1013 JUMPI SWAP1 POP JUMPDEST POP POP POP POP POP DUP2 MSTORE POP POP SWAP1 POP PUSH1 0x1 ISZERO ISZERO DUP2 PUSH1 0x60 ADD MLOAD ISZERO ISZERO EQ PUSH2 0x109F JUMPI PUSH1 0x40 MLOAD PUSH32 0x8C379A000000000000000000000000000000000000000000000000000000000 DUP2 MSTORE PUSH1 0x4 ADD PUSH2 0x1096 SWAP1 PUSH2 0x2212 JUMP JUMPDEST PUSH1 0x40 MLOAD DUP1 SWAP2 SUB SWAP1 REVERT JUMPDEST PUSH7 0x38D7EA4C68000 DUP2 PUSH1 0x80 ADD MLOAD DUP5 DUP5 PUSH2 0x10B8 SWAP2 SWAP1 PUSH2 0x1E79 JUMP JUMPDEST PUSH2 0x10C2 SWAP2 SWAP1 PUSH2 0x2232 JUMP JUMPDEST PUSH2 0x10CC SWAP2 SWAP1 PUSH2 0x2232 JUMP JUMPDEST CALLVALUE EQ PUSH2 0x110D JUMPI PUSH1 0x40 MLOAD PUSH32 0x8C379A000000000000000000000000000000000000000000000000000000000 DUP2 MSTORE PUSH1 0x4 ADD PUSH2 0x1104 SWAP1 PUSH2 0x22C0 JUMP JUMPDEST PUSH1 0x40 MLOAD DUP1 SWAP2 SUB SWAP1 REVERT JUMPDEST PUSH1 0x0 DUP4 SWAP1 POP JUMPDEST DUP3 DUP2 LT ISZERO PUSH2 0x1193 JUMPI PUSH1 0x0 ISZERO ISZERO DUP3 PUSH1 0xC0 ADD MLOAD DUP3 DUP2 MLOAD DUP2 LT PUSH2 0x1136 JUMPI PUSH2 0x1135 PUSH2 0x1DD3 JUMP JUMPDEST JUMPDEST PUSH1 0x20 MUL PUSH1 0x20 ADD ADD MLOAD ISZERO ISZERO EQ PUSH2 0x1180 JUMPI PUSH1 0x40 MLOAD PUSH32 0x8C379A000000000000000000000000000000000000000000000000000000000 DUP2 MSTORE PUSH1 0x4 ADD PUSH2 0x1177 SWAP1 PUSH2 0x232C JUMP JUMPDEST PUSH1 0x40 MLOAD DUP1 SWAP2 SUB SWAP1 REVERT JUMPDEST DUP1 DUP1 PUSH2 0x118B SWAP1 PUSH2 0x1E31 JUMP JUMPDEST SWAP2 POP POP PUSH2 0x1113 JUMP JUMPDEST POP PUSH2 0x11A2 DUP2 PUSH1 0xA0 ADD MLOAD CALLVALUE PUSH2 0x12CA JUMP JUMPDEST PUSH2 0x11AE DUP6 DUP6 DUP6 DUP6 PUSH2 0x1315 JUMP JUMPDEST POP POP POP POP POP JUMP JUMPDEST PUSH1 0x0 SLOAD DUP2 JUMP JUMPDEST PUSH1 0x0 PUSH1 0x2 PUSH1 0x0 DUP4 DUP2 MSTORE PUSH1 0x20 ADD SWAP1 DUP2 MSTORE PUSH1 0x20 ADD PUSH1 0x0 KECCAK256 SWAP1 POP CALLER PUSH20 0xFFFFFFFFFFFFFFFFFFFFFFFFFFFFFFFFFFFFFFFF AND DUP2 PUSH1 0x5 ADD PUSH1 0x0 SWAP1 SLOAD SWAP1 PUSH2 0x100 EXP SWAP1 DIV PUSH20 0xFFFFFFFFFFFFFFFFFFFFFFFFFFFFFFFFFFFFFFFF AND PUSH20 0xFFFFFFFFFFFFFFFFFFFFFFFFFFFFFFFFFFFFFFFF AND EQ PUSH2 0x1264 JUMPI PUSH1 0x40 MLOAD PUSH32 0x8C379A000000000000000000000000000000000000000000000000000000000 DUP2 MSTORE PUSH1 0x4 ADD PUSH2 0x125B SWAP1 PUSH2 0x1EF9 JUMP JUMPDEST PUSH1 0x40 MLOAD DUP1 SWAP2 SUB SWAP1 REVERT JUMPDEST PUSH1 0x0 JUMPDEST PUSH2 0x164 DUP2 LT ISZERO PUSH2 0x12C5 JUMPI PUSH1 0x0 DUP3 PUSH1 0x6 ADD DUP3 DUP2 SLOAD DUP2 LT PUSH2 0x1289 JUMPI PUSH2 0x1288 PUSH2 0x1DD3 JUMP JUMPDEST JUMPDEST SWAP1 PUSH1 0x0 MSTORE PUSH1 0x20 PUSH1 0x0 KECCAK256 SWAP1 PUSH1 0x20 SWAP2 DUP3 DUP3 DIV ADD SWAP2 SWAP1 MOD PUSH2 0x100 EXP DUP2 SLOAD DUP2 PUSH1 0xFF MUL NOT AND SWAP1 DUP4 ISZERO ISZERO MUL OR SWAP1 SSTORE POP DUP1 DUP1 PUSH2 0x12BD SWAP1 PUSH2 0x1E31 JUMP JUMPDEST SWAP2 POP POP PUSH2 0x1267 JUMP JUMPDEST POP POP POP JUMP JUMPDEST DUP2 PUSH20 0xFFFFFFFFFFFFFFFFFFFFFFFFFFFFFFFFFFFFFFFF AND PUSH2 0x8FC DUP3 SWAP1 DUP2 ISZERO MUL SWAP1 PUSH1 0x40 MLOAD PUSH1 0x0 PUSH1 0x40 MLOAD DUP1 DUP4 SUB DUP2 DUP6 DUP9 DUP9 CALL SWAP4 POP POP POP POP ISZERO DUP1 ISZERO PUSH2 0x1310 JUMPI RETURNDATASIZE PUSH1 0x0 DUP1 RETURNDATACOPY RETURNDATASIZE PUSH1 0x0 REVERT JUMPDEST POP POP POP JUMP JUMPDEST PUSH1 0x0 PUSH1 0x40 MLOAD DUP1 PUSH1 0xC0 ADD PUSH1 0x40 MSTORE DUP1 PUSH1 0x1 SLOAD DUP2 MSTORE PUSH1 0x20 ADD DUP7 DUP2 MSTORE PUSH1 0x20 ADD DUP6 DUP2 MSTORE PUSH1 0x20 ADD DUP5 DUP2 MSTORE PUSH1 0x20 ADD DUP4 DUP2 MSTORE PUSH1 0x20 ADD CALLER PUSH20 0xFFFFFFFFFFFFFFFFFFFFFFFFFFFFFFFFFFFFFFFF AND DUP2 MSTORE POP SWAP1 POP PUSH1 0x0 DUP4 SWAP1 POP JUMPDEST DUP3 DUP2 LT ISZERO PUSH2 0x13D2 JUMPI PUSH1 0x1 PUSH1 0x2 PUSH1 0x0 DUP9 DUP2 MSTORE PUSH1 0x20 ADD SWAP1 DUP2 MSTORE PUSH1 0x20 ADD PUSH1 0x0 KECCAK256 PUSH1 0x6 ADD DUP3 DUP2 SLOAD DUP2 LT PUSH2 0x1396 JUMPI PUSH2 0x1395 PUSH2 0x1DD3 JUMP JUMPDEST JUMPDEST SWAP1 PUSH1 0x0 MSTORE PUSH1 0x20 PUSH1 0x0 KECCAK256 SWAP1 PUSH1 0x20 SWAP2 DUP3 DUP3 DIV ADD SWAP2 SWAP1 MOD PUSH2 0x100 EXP DUP2 SLOAD DUP2 PUSH1 0xFF MUL NOT AND SWAP1 DUP4 ISZERO ISZERO MUL OR SWAP1 SSTORE POP DUP1 DUP1 PUSH2 0x13CA SWAP1 PUSH2 0x1E31 JUMP JUMPDEST SWAP2 POP POP PUSH2 0x1364 JUMP JUMPDEST POP PUSH1 0x3 PUSH1 0x0 DUP7 DUP2 MSTORE PUSH1 0x20 ADD SWAP1 DUP2 MSTORE PUSH1 0x20 ADD PUSH1 0x0 KECCAK256 DUP2 SWAP1 DUP1 PUSH1 0x1 DUP2 SLOAD ADD DUP1 DUP3 SSTORE DUP1 SWAP2 POP POP PUSH1 0x1 SWAP1 SUB SWAP1 PUSH1 0x0 MSTORE PUSH1 0x20 PUSH1 0x0 KECCAK256 SWAP1 PUSH1 0x6 MUL ADD PUSH1 0x0 SWAP1 SWAP2 SWAP1 SWAP2 SWAP1 SWAP2 POP PUSH1 0x0 DUP3 ADD MLOAD DUP2 PUSH1 0x0 ADD SSTORE PUSH1 0x20 DUP3 ADD MLOAD DUP2 PUSH1 0x1 ADD SSTORE PUSH1 0x40 DUP3 ADD MLOAD DUP2 PUSH1 0x2 ADD SSTORE PUSH1 0x60 DUP3 ADD MLOAD DUP2 PUSH1 0x3 ADD SSTORE PUSH1 0x80 DUP3 ADD MLOAD DUP2 PUSH1 0x4 ADD SSTORE PUSH1 0xA0 DUP3 ADD MLOAD DUP2 PUSH1 0x5 ADD PUSH1 0x0 PUSH2 0x100 EXP DUP2 SLOAD DUP2 PUSH20 0xFFFFFFFFFFFFFFFFFFFFFFFFFFFFFFFFFFFFFFFF MUL NOT AND SWAP1 DUP4 PUSH20 0xFFFFFFFFFFFFFFFFFFFFFFFFFFFFFFFFFFFFFFFF AND MUL OR SWAP1 SSTORE POP POP POP PUSH1 0x4 PUSH1 0x0 CALLER PUSH20 0xFFFFFFFFFFFFFFFFFFFFFFFFFFFFFFFFFFFFFFFF AND PUSH20 0xFFFFFFFFFFFFFFFFFFFFFFFFFFFFFFFFFFFFFFFF AND DUP2 MSTORE PUSH1 0x20 ADD SWAP1 DUP2 MSTORE PUSH1 0x20 ADD PUSH1 0x0 KECCAK256 DUP2 SWAP1 DUP1 PUSH1 0x1 DUP2 SLOAD ADD DUP1 DUP3 SSTORE DUP1 SWAP2 POP POP PUSH1 0x1 SWAP1 SUB SWAP1 PUSH1 0x0 MSTORE PUSH1 0x20 PUSH1 0x0 KECCAK256 SWAP1 PUSH1 0x6 MUL ADD PUSH1 0x0 SWAP1 SWAP2 SWAP1 SWAP2 SWAP1 SWAP2 POP PUSH1 0x0 DUP3 ADD MLOAD DUP2 PUSH1 0x0 ADD SSTORE PUSH1 0x20 DUP3 ADD MLOAD DUP2 PUSH1 0x1 ADD SSTORE PUSH1 0x40 DUP3 ADD MLOAD DUP2 PUSH1 0x2 ADD SSTORE PUSH1 0x60 DUP3 ADD MLOAD DUP2 PUSH1 0x3 ADD SSTORE PUSH1 0x80 DUP3 ADD MLOAD DUP2 PUSH1 0x4 ADD SSTORE PUSH1 0xA0 DUP3 ADD MLOAD DUP2 PUSH1 0x5 ADD PUSH1 0x0 PUSH2 0x100 EXP DUP2 SLOAD DUP2 PUSH20 0xFFFFFFFFFFFFFFFFFFFFFFFFFFFFFFFFFFFFFFFF MUL NOT AND SWAP1 DUP4 PUSH20 0xFFFFFFFFFFFFFFFFFFFFFFFFFFFFFFFFFFFFFFFF AND MUL OR SWAP1 SSTORE POP POP POP PUSH1 0x1 PUSH1 0x0 DUP2 SLOAD DUP1 SWAP3 SWAP2 SWAP1 PUSH2 0x1582 SWAP1 PUSH2 0x1E31 JUMP JUMPDEST SWAP2 SWAP1 POP SSTORE DUP6 PUSH32 0x84BAD6E347D9AFF08A38E6EB90827C7999F70BFAF3B0ACBE288F512801B9C139 PUSH1 0x40 MLOAD PUSH1 0x40 MLOAD DUP1 SWAP2 SUB SWAP1 LOG3 POP POP POP POP POP JUMP JUMPDEST PUSH1 0x40 MLOAD DUP1 PUSH1 0x40 ADD PUSH1 0x40 MSTORE DUP1 PUSH1 0x2 SWAP1 PUSH1 0x20 DUP3 MUL DUP1 CALLDATASIZE DUP4 CALLDATACOPY DUP1 DUP3 ADD SWAP2 POP POP SWAP1 POP POP SWAP1 JUMP JUMPDEST DUP3 DUP1 SLOAD DUP3 DUP3 SSTORE SWAP1 PUSH1 0x0 MSTORE PUSH1 0x20 PUSH1 0x0 KECCAK256 SWAP1 PUSH1 0x1F ADD PUSH1 0x20 SWAP1 DIV DUP2 ADD SWAP3 DUP3 ISZERO PUSH2 0x1671 JUMPI SWAP2 PUSH1 0x20 MUL DUP3 ADD PUSH1 0x0 JUMPDEST DUP4 DUP3 GT ISZERO PUSH2 0x1642 JUMPI DUP4 MLOAD DUP4 DUP3 PUSH2 0x100 EXP DUP2 SLOAD DUP2 PUSH1 0xFF MUL NOT AND SWAP1 DUP4 ISZERO ISZERO MUL OR SWAP1 SSTORE POP SWAP3 PUSH1 0x20 ADD SWAP3 PUSH1 0x1 ADD PUSH1 0x20 DUP2 PUSH1 0x0 ADD DIV SWAP3 DUP4 ADD SWAP3 PUSH1 0x1 SUB MUL PUSH2 0x1605 JUMP JUMPDEST DUP1 ISZERO PUSH2 0x166F JUMPI DUP3 DUP2 PUSH2 0x100 EXP DUP2 SLOAD SWAP1 PUSH1 0xFF MUL NOT AND SWAP1 SSTORE PUSH1 0x1 ADD PUSH1 0x20 DUP2 PUSH1 0x0 ADD DIV SWAP3 DUP4 ADD SWAP3 PUSH1 0x1 SUB MUL PUSH2 0x1642 JUMP JUMPDEST POP JUMPDEST POP SWAP1 POP PUSH2 0x167E SWAP2 SWAP1 PUSH2 0x1682 JUMP JUMPDEST POP SWAP1 JUMP JUMPDEST JUMPDEST DUP1 DUP3 GT ISZERO PUSH2 0x169B JUMPI PUSH1 0x0 DUP2 PUSH1 0x0 SWAP1 SSTORE POP PUSH1 0x1 ADD PUSH2 0x1683 JUMP JUMPDEST POP SWAP1 JUMP JUMPDEST PUSH1 0x0 DUP1 REVERT JUMPDEST PUSH1 0x0 DUP1 REVERT JUMPDEST PUSH1 0x0 DUP2 SWAP1 POP SWAP2 SWAP1 POP JUMP JUMPDEST PUSH2 0x16BC DUP2 PUSH2 0x16A9 JUMP JUMPDEST DUP2 EQ PUSH2 0x16C7 JUMPI PUSH1 0x0 DUP1 REVERT JUMPDEST POP JUMP JUMPDEST PUSH1 0x0 DUP2 CALLDATALOAD SWAP1 POP PUSH2 0x16D9 DUP2 PUSH2 0x16B3 JUMP JUMPDEST SWAP3 SWAP2 POP POP JUMP JUMPDEST PUSH1 0x0 PUSH1 0x20 DUP3 DUP5 SUB SLT ISZERO PUSH2 0x16F5 JUMPI PUSH2 0x16F4 PUSH2 0x169F JUMP JUMPDEST JUMPDEST PUSH1 0x0 PUSH2 0x1703 DUP5 DUP3 DUP6 ADD PUSH2 0x16CA JUMP JUMPDEST SWAP2 POP POP SWAP3 SWAP2 POP POP JUMP JUMPDEST PUSH2 0x1715 DUP2 PUSH2 0x16A9 JUMP JUMPDEST DUP3 MSTORE POP POP JUMP JUMPDEST PUSH1 0x0 DUP2 MLOAD SWAP1 POP SWAP2 SWAP1 POP JUMP JUMPDEST PUSH1 0x0 DUP3 DUP3 MSTORE PUSH1 0x20 DUP3 ADD SWAP1 POP SWAP3 SWAP2 POP POP JUMP JUMPDEST PUSH1 0x0 JUMPDEST DUP4 DUP2 LT ISZERO PUSH2 0x1755 JUMPI DUP1 DUP3 ADD MLOAD DUP2 DUP5 ADD MSTORE PUSH1 0x20 DUP2 ADD SWAP1 POP PUSH2 0x173A JUMP JUMPDEST PUSH1 0x0 DUP5 DUP5 ADD MSTORE POP POP POP POP JUMP JUMPDEST PUSH1 0x0 PUSH1 0x1F NOT PUSH1 0x1F DUP4 ADD AND SWAP1 POP SWAP2 SWAP1 POP JUMP JUMPDEST PUSH1 0x0 PUSH2 0x177D DUP3 PUSH2 0x171B JUMP JUMPDEST PUSH2 0x1787 DUP2 DUP6 PUSH2 0x1726 JUMP JUMPDEST SWAP4 POP PUSH2 0x1797 DUP2 DUP6 PUSH1 0x20 DUP7 ADD PUSH2 0x1737 JUMP JUMPDEST PUSH2 0x17A0 DUP2 PUSH2 0x1761 JUMP JUMPDEST DUP5 ADD SWAP2 POP POP SWAP3 SWAP2 POP POP JUMP JUMPDEST PUSH1 0x0 DUP2 ISZERO ISZERO SWAP1 POP SWAP2 SWAP1 POP JUMP JUMPDEST PUSH2 0x17C0 DUP2 PUSH2 0x17AB JUMP JUMPDEST DUP3 MSTORE POP POP JUMP JUMPDEST PUSH1 0x0 PUSH20 0xFFFFFFFFFFFFFFFFFFFFFFFFFFFFFFFFFFFFFFFF DUP3 AND SWAP1 POP SWAP2 SWAP1 POP JUMP JUMPDEST PUSH1 0x0 PUSH2 0x17F1 DUP3 PUSH2 0x17C6 JUMP JUMPDEST SWAP1 POP SWAP2 SWAP1 POP JUMP JUMPDEST PUSH2 0x1801 DUP2 PUSH2 0x17E6 JUMP JUMPDEST DUP3 MSTORE POP POP JUMP JUMPDEST PUSH1 0x0 PUSH1 0xC0 DUP3 ADD SWAP1 POP PUSH2 0x181C PUSH1 0x0 DUP4 ADD DUP10 PUSH2 0x170C JUMP JUMPDEST DUP2 DUP2 SUB PUSH1 0x20 DUP4 ADD MSTORE PUSH2 0x182E DUP2 DUP9 PUSH2 0x1772 JUMP JUMPDEST SWAP1 POP DUP2 DUP2 SUB PUSH1 0x40 DUP4 ADD MSTORE PUSH2 0x1842 DUP2 DUP8 PUSH2 0x1772 JUMP JUMPDEST SWAP1 POP PUSH2 0x1851 PUSH1 0x60 DUP4 ADD DUP7 PUSH2 0x17B7 JUMP JUMPDEST PUSH2 0x185E PUSH1 0x80 DUP4 ADD DUP6 PUSH2 0x170C JUMP JUMPDEST PUSH2 0x186B PUSH1 0xA0 DUP4 ADD DUP5 PUSH2 0x17F8 JUMP JUMPDEST SWAP8 SWAP7 POP POP POP POP POP POP POP JUMP JUMPDEST PUSH1 0x0 DUP1 PUSH1 0x0 PUSH1 0x60 DUP5 DUP7 SUB SLT ISZERO PUSH2 0x188F JUMPI PUSH2 0x188E PUSH2 0x169F JUMP JUMPDEST JUMPDEST PUSH1 0x0 PUSH2 0x189D DUP7 DUP3 DUP8 ADD PUSH2 0x16CA JUMP JUMPDEST SWAP4 POP POP PUSH1 0x20 PUSH2 0x18AE DUP7 DUP3 DUP8 ADD PUSH2 0x16CA JUMP JUMPDEST SWAP3 POP POP PUSH1 0x40 PUSH2 0x18BF DUP7 DUP3 DUP8 ADD PUSH2 0x16CA JUMP JUMPDEST SWAP2 POP POP SWAP3 POP SWAP3 POP SWAP3 JUMP JUMPDEST PUSH1 0x0 PUSH1 0x2 SWAP1 POP SWAP2 SWAP1 POP JUMP JUMPDEST PUSH1 0x0 DUP2 SWAP1 POP SWAP3 SWAP2 POP POP JUMP JUMPDEST PUSH1 0x0 DUP2 SWAP1 POP SWAP2 SWAP1 POP JUMP JUMPDEST PUSH2 0x18F2 DUP2 PUSH2 0x16A9 JUMP JUMPDEST DUP3 MSTORE POP POP JUMP JUMPDEST PUSH1 0x0 PUSH2 0x1904 DUP4 DUP4 PUSH2 0x18E9 JUMP JUMPDEST PUSH1 0x20 DUP4 ADD SWAP1 POP SWAP3 SWAP2 POP POP JUMP JUMPDEST PUSH1 0x0 PUSH1 0x20 DUP3 ADD SWAP1 POP SWAP2 SWAP1 POP JUMP JUMPDEST PUSH2 0x1926 DUP2 PUSH2 0x18C9 JUMP JUMPDEST PUSH2 0x1930 DUP2 DUP5 PUSH2 0x18D4 JUMP JUMPDEST SWAP3 POP PUSH2 0x193B DUP3 PUSH2 0x18DF JUMP JUMPDEST DUP1 PUSH1 0x0 JUMPDEST DUP4 DUP2 LT ISZERO PUSH2 0x196C JUMPI DUP2 MLOAD PUSH2 0x1953 DUP8 DUP3 PUSH2 0x18F8 JUMP JUMPDEST SWAP7 POP PUSH2 0x195E DUP4 PUSH2 0x1910 JUMP JUMPDEST SWAP3 POP POP PUSH1 0x1 DUP2 ADD SWAP1 POP PUSH2 0x193F JUMP JUMPDEST POP POP POP POP POP POP JUMP JUMPDEST PUSH1 0x0 PUSH1 0x40 DUP3 ADD SWAP1 POP PUSH2 0x1989 PUSH1 0x0 DUP4 ADD DUP5 PUSH2 0x191D JUMP JUMPDEST SWAP3 SWAP2 POP POP JUMP JUMPDEST PUSH1 0x0 PUSH1 0x20 DUP3 ADD SWAP1 POP PUSH2 0x19A4 PUSH1 0x0 DUP4 ADD DUP5 PUSH2 0x170C JUMP JUMPDEST SWAP3 SWAP2 POP POP JUMP JUMPDEST PUSH1 0x0 DUP1 REVERT JUMPDEST PUSH1 0x0 DUP1 REVERT JUMPDEST PUSH1 0x0 DUP1 REVERT JUMPDEST PUSH1 0x0 DUP1 DUP4 PUSH1 0x1F DUP5 ADD SLT PUSH2 0x19CF JUMPI PUSH2 0x19CE PUSH2 0x19AA JUMP JUMPDEST JUMPDEST DUP3 CALLDATALOAD SWAP1 POP PUSH8 0xFFFFFFFFFFFFFFFF DUP2 GT ISZERO PUSH2 0x19EC JUMPI PUSH2 0x19EB PUSH2 0x19AF JUMP JUMPDEST JUMPDEST PUSH1 0x20 DUP4 ADD SWAP2 POP DUP4 PUSH1 0x1 DUP3 MUL DUP4 ADD GT ISZERO PUSH2 0x1A08 JUMPI PUSH2 0x1A07 PUSH2 0x19B4 JUMP JUMPDEST JUMPDEST SWAP3 POP SWAP3 SWAP1 POP JUMP JUMPDEST PUSH1 0x0 DUP1 PUSH1 0x0 DUP1 PUSH1 0x0 PUSH1 0x60 DUP7 DUP9 SUB SLT ISZERO PUSH2 0x1A2B JUMPI PUSH2 0x1A2A PUSH2 0x169F JUMP JUMPDEST JUMPDEST PUSH1 0x0 DUP7 ADD CALLDATALOAD PUSH8 0xFFFFFFFFFFFFFFFF DUP2 GT ISZERO PUSH2 0x1A49 JUMPI PUSH2 0x1A48 PUSH2 0x16A4 JUMP JUMPDEST JUMPDEST PUSH2 0x1A55 DUP9 DUP3 DUP10 ADD PUSH2 0x19B9 JUMP JUMPDEST SWAP6 POP SWAP6 POP POP PUSH1 0x20 DUP7 ADD CALLDATALOAD PUSH8 0xFFFFFFFFFFFFFFFF DUP2 GT ISZERO PUSH2 0x1A78 JUMPI PUSH2 0x1A77 PUSH2 0x16A4 JUMP JUMPDEST JUMPDEST PUSH2 0x1A84 DUP9 DUP3 DUP10 ADD PUSH2 0x19B9 JUMP JUMPDEST SWAP4 POP SWAP4 POP POP PUSH1 0x40 PUSH2 0x1A97 DUP9 DUP3 DUP10 ADD PUSH2 0x16CA JUMP JUMPDEST SWAP2 POP POP SWAP3 SWAP6 POP SWAP3 SWAP6 SWAP1 SWAP4 POP JUMP JUMPDEST PUSH2 0x1AAD DUP2 PUSH2 0x17E6 JUMP JUMPDEST DUP2 EQ PUSH2 0x1AB8 JUMPI PUSH1 0x0 DUP1 REVERT JUMPDEST POP JUMP JUMPDEST PUSH1 0x0 DUP2 CALLDATALOAD SWAP1 POP PUSH2 0x1ACA DUP2 PUSH2 0x1AA4 JUMP JUMPDEST SWAP3 SWAP2 POP POP JUMP JUMPDEST PUSH1 0x0 DUP1 PUSH1 0x40 DUP4 DUP6 SUB SLT ISZERO PUSH2 0x1AE7 JUMPI PUSH2 0x1AE6 PUSH2 0x169F JUMP JUMPDEST JUMPDEST PUSH1 0x0 PUSH2 0x1AF5 DUP6 DUP3 DUP7 ADD PUSH2 0x1ABB JUMP JUMPDEST SWAP3 POP POP PUSH1 0x20 PUSH2 0x1B06 DUP6 DUP3 DUP7 ADD PUSH2 0x16CA JUMP JUMPDEST SWAP2 POP POP SWAP3 POP SWAP3 SWAP1 POP JUMP JUMPDEST PUSH1 0x0 PUSH1 0xC0 DUP3 ADD SWAP1 POP PUSH2 0x1B25 PUSH1 0x0 DUP4 ADD DUP10 PUSH2 0x170C JUMP JUMPDEST PUSH2 0x1B32 PUSH1 0x20 DUP4 ADD DUP9 PUSH2 0x170C JUMP JUMPDEST PUSH2 0x1B3F PUSH1 0x40 DUP4 ADD DUP8 PUSH2 0x170C JUMP JUMPDEST PUSH2 0x1B4C PUSH1 0x60 DUP4 ADD DUP7 PUSH2 0x170C JUMP JUMPDEST PUSH2 0x1B59 PUSH1 0x80 DUP4 ADD DUP6 PUSH2 0x170C JUMP JUMPDEST PUSH2 0x1B66 PUSH1 0xA0 DUP4 ADD DUP5 PUSH2 0x17F8 JUMP JUMPDEST SWAP8 SWAP7 POP POP POP POP POP POP POP JUMP JUMPDEST PUSH1 0x0 DUP1 PUSH1 0x40 DUP4 DUP6 SUB SLT ISZERO PUSH2 0x1B88 JUMPI PUSH2 0x1B87 PUSH2 0x169F JUMP JUMPDEST JUMPDEST PUSH1 0x0 PUSH2 0x1B96 DUP6 DUP3 DUP7 ADD PUSH2 0x16CA JUMP JUMPDEST SWAP3 POP POP PUSH1 0x20 PUSH2 0x1BA7 DUP6 DUP3 DUP7 ADD PUSH2 0x16CA JUMP JUMPDEST SWAP2 POP POP SWAP3 POP SWAP3 SWAP1 POP JUMP JUMPDEST PUSH1 0x0 DUP2 MLOAD SWAP1 POP SWAP2 SWAP1 POP JUMP JUMPDEST PUSH1 0x0 DUP3 DUP3 MSTORE PUSH1 0x20 DUP3 ADD SWAP1 POP SWAP3 SWAP2 POP POP JUMP JUMPDEST PUSH1 0x0 DUP2 SWAP1 POP PUSH1 0x20 DUP3 ADD SWAP1 POP SWAP2 SWAP1 POP JUMP JUMPDEST PUSH2 0x1BE6 DUP2 PUSH2 0x17E6 JUMP JUMPDEST DUP3 MSTORE POP POP JUMP JUMPDEST PUSH1 0xC0 DUP3 ADD PUSH1 0x0 DUP3 ADD MLOAD PUSH2 0x1C02 PUSH1 0x0 DUP6 ADD DUP3 PUSH2 0x18E9 JUMP JUMPDEST POP PUSH1 0x20 DUP3 ADD MLOAD PUSH2 0x1C15 PUSH1 0x20 DUP6 ADD DUP3 PUSH2 0x18E9 JUMP JUMPDEST POP PUSH1 0x40 DUP3 ADD MLOAD PUSH2 0x1C28 PUSH1 0x40 DUP6 ADD DUP3 PUSH2 0x18E9 JUMP JUMPDEST POP PUSH1 0x60 DUP3 ADD MLOAD PUSH2 0x1C3B PUSH1 0x60 DUP6 ADD DUP3 PUSH2 0x18E9 JUMP JUMPDEST POP PUSH1 0x80 DUP3 ADD MLOAD PUSH2 0x1C4E PUSH1 0x80 DUP6 ADD DUP3 PUSH2 0x18E9 JUMP JUMPDEST POP PUSH1 0xA0 DUP3 ADD MLOAD PUSH2 0x1C61 PUSH1 0xA0 DUP6 ADD DUP3 PUSH2 0x1BDD JUMP JUMPDEST POP POP POP POP JUMP JUMPDEST PUSH1 0x0 PUSH2 0x1C73 DUP4 DUP4 PUSH2 0x1BEC JUMP JUMPDEST PUSH1 0xC0 DUP4 ADD SWAP1 POP SWAP3 SWAP2 POP POP JUMP JUMPDEST PUSH1 0x0 PUSH1 0x20 DUP3 ADD SWAP1 POP SWAP2 SWAP1 POP JUMP JUMPDEST PUSH1 0x0 PUSH2 0x1C97 DUP3 PUSH2 0x1BB1 JUMP JUMPDEST PUSH2 0x1CA1 DUP2 DUP6 PUSH2 0x1BBC JUMP JUMPDEST SWAP4 POP PUSH2 0x1CAC DUP4 PUSH2 0x1BCD JUMP JUMPDEST DUP1 PUSH1 0x0 JUMPDEST DUP4 DUP2 LT ISZERO PUSH2 0x1CDD JUMPI DUP2 MLOAD PUSH2 0x1CC4 DUP9 DUP3 PUSH2 0x1C67 JUMP JUMPDEST SWAP8 POP PUSH2 0x1CCF DUP4 PUSH2 0x1C7F JUMP JUMPDEST SWAP3 POP POP PUSH1 0x1 DUP2 ADD SWAP1 POP PUSH2 0x1CB0 JUMP JUMPDEST POP DUP6 SWAP4 POP POP POP POP SWAP3 SWAP2 POP POP JUMP JUMPDEST PUSH1 0x0 PUSH1 0x20 DUP3 ADD SWAP1 POP DUP2 DUP2 SUB PUSH1 0x0 DUP4 ADD MSTORE PUSH2 0x1D04 DUP2 DUP5 PUSH2 0x1C8C JUMP JUMPDEST SWAP1 POP SWAP3 SWAP2 POP POP JUMP JUMPDEST PUSH1 0x0 DUP1 PUSH1 0x0 DUP1 PUSH1 0x80 DUP6 DUP8 SUB SLT ISZERO PUSH2 0x1D26 JUMPI PUSH2 0x1D25 PUSH2 0x169F JUMP JUMPDEST JUMPDEST PUSH1 0x0 PUSH2 0x1D34 DUP8 DUP3 DUP9 ADD PUSH2 0x16CA JUMP JUMPDEST SWAP5 POP POP PUSH1 0x20 PUSH2 0x1D45 DUP8 DUP3 DUP9 ADD PUSH2 0x16CA JUMP JUMPDEST SWAP4 POP POP PUSH1 0x40 PUSH2 0x1D56 DUP8 DUP3 DUP9 ADD PUSH2 0x16CA JUMP JUMPDEST SWAP3 POP POP PUSH1 0x60 PUSH2 0x1D67 DUP8 DUP3 DUP9 ADD PUSH2 0x16CA JUMP JUMPDEST SWAP2 POP POP SWAP3 SWAP6 SWAP2 SWAP5 POP SWAP3 POP JUMP JUMPDEST PUSH32 0x4E487B7100000000000000000000000000000000000000000000000000000000 PUSH1 0x0 MSTORE PUSH1 0x22 PUSH1 0x4 MSTORE PUSH1 0x24 PUSH1 0x0 REVERT JUMPDEST PUSH1 0x0 PUSH1 0x2 DUP3 DIV SWAP1 POP PUSH1 0x1 DUP3 AND DUP1 PUSH2 0x1DBA JUMPI PUSH1 0x7F DUP3 AND SWAP2 POP JUMPDEST PUSH1 0x20 DUP3 LT DUP2 SUB PUSH2 0x1DCD JUMPI PUSH2 0x1DCC PUSH2 0x1D73 JUMP JUMPDEST JUMPDEST POP SWAP2 SWAP1 POP JUMP JUMPDEST PUSH32 0x4E487B7100000000000000000000000000000000000000000000000000000000 PUSH1 0x0 MSTORE PUSH1 0x32 PUSH1 0x4 MSTORE PUSH1 0x24 PUSH1 0x0 REVERT JUMPDEST PUSH32 0x4E487B7100000000000000000000000000000000000000000000000000000000 PUSH1 0x0 MSTORE PUSH1 0x11 PUSH1 0x4 MSTORE PUSH1 0x24 PUSH1 0x0 REVERT JUMPDEST PUSH1 0x0 PUSH2 0x1E3C DUP3 PUSH2 0x16A9 JUMP JUMPDEST SWAP2 POP PUSH32 0xFFFFFFFFFFFFFFFFFFFFFFFFFFFFFFFFFFFFFFFFFFFFFFFFFFFFFFFFFFFFFFFF DUP3 SUB PUSH2 0x1E6E JUMPI PUSH2 0x1E6D PUSH2 0x1E02 JUMP JUMPDEST JUMPDEST PUSH1 0x1 DUP3 ADD SWAP1 POP SWAP2 SWAP1 POP JUMP JUMPDEST PUSH1 0x0 PUSH2 0x1E84 DUP3 PUSH2 0x16A9 JUMP JUMPDEST SWAP2 POP PUSH2 0x1E8F DUP4 PUSH2 0x16A9 JUMP JUMPDEST SWAP3 POP DUP3 DUP3 SUB SWAP1 POP DUP2 DUP2 GT ISZERO PUSH2 0x1EA7 JUMPI PUSH2 0x1EA6 PUSH2 0x1E02 JUMP JUMPDEST JUMPDEST SWAP3 SWAP2 POP POP JUMP JUMPDEST PUSH32 0x4E6F74206F776E6572206F6620726F6F6D000000000000000000000000000000 PUSH1 0x0 DUP3 ADD MSTORE POP JUMP JUMPDEST PUSH1 0x0 PUSH2 0x1EE3 PUSH1 0x11 DUP4 PUSH2 0x1726 JUMP JUMPDEST SWAP2 POP PUSH2 0x1EEE DUP3 PUSH2 0x1EAD JUMP JUMPDEST PUSH1 0x20 DUP3 ADD SWAP1 POP SWAP2 SWAP1 POP JUMP JUMPDEST PUSH1 0x0 PUSH1 0x20 DUP3 ADD SWAP1 POP DUP2 DUP2 SUB PUSH1 0x0 DUP4 ADD MSTORE PUSH2 0x1F12 DUP2 PUSH2 0x1ED6 JUMP JUMPDEST SWAP1 POP SWAP2 SWAP1 POP JUMP JUMPDEST PUSH32 0x4E487B7100000000000000000000000000000000000000000000000000000000 PUSH1 0x0 MSTORE PUSH1 0x41 PUSH1 0x4 MSTORE PUSH1 0x24 PUSH1 0x0 REVERT JUMPDEST PUSH1 0x0 DUP2 SWAP1 POP DUP2 PUSH1 0x0 MSTORE PUSH1 0x20 PUSH1 0x0 KECCAK256 SWAP1 POP SWAP2 SWAP1 POP JUMP JUMPDEST PUSH1 0x0 PUSH1 0x20 PUSH1 0x1F DUP4 ADD DIV SWAP1 POP SWAP2 SWAP1 POP JUMP JUMPDEST PUSH1 0x0 DUP3 DUP3 SHL SWAP1 POP SWAP3 SWAP2 POP POP JUMP JUMPDEST PUSH1 0x0 PUSH1 0x8 DUP4 MUL PUSH2 0x1FAA PUSH32 0xFFFFFFFFFFFFFFFFFFFFFFFFFFFFFFFFFFFFFFFFFFFFFFFFFFFFFFFFFFFFFFFF DUP3 PUSH2 0x1F6D JUMP JUMPDEST PUSH2 0x1FB4 DUP7 DUP4 PUSH2 0x1F6D JUMP JUMPDEST SWAP6 POP DUP1 NOT DUP5 AND SWAP4 POP DUP1 DUP7 AND DUP5 OR SWAP3 POP POP POP SWAP4 SWAP3 POP POP POP JUMP JUMPDEST PUSH1 0x0 DUP2 SWAP1 POP SWAP2 SWAP1 POP JUMP JUMPDEST PUSH1 0x0 PUSH2 0x1FF1 PUSH2 0x1FEC PUSH2 0x1FE7 DUP5 PUSH2 0x16A9 JUMP JUMPDEST PUSH2 0x1FCC JUMP JUMPDEST PUSH2 0x16A9 JUMP JUMPDEST SWAP1 POP SWAP2 SWAP1 POP JUMP JUMPDEST PUSH1 0x0 DUP2 SWAP1 POP SWAP2 SWAP1 POP JUMP JUMPDEST PUSH2 0x200B DUP4 PUSH2 0x1FD6 JUMP JUMPDEST PUSH2 0x201F PUSH2 0x2017 DUP3 PUSH2 0x1FF8 JUMP JUMPDEST DUP5 DUP5 SLOAD PUSH2 0x1F7A JUMP JUMPDEST DUP3 SSTORE POP POP POP POP JUMP JUMPDEST PUSH1 0x0 SWAP1 JUMP JUMPDEST PUSH2 0x2034 PUSH2 0x2027 JUMP JUMPDEST PUSH2 0x203F DUP2 DUP5 DUP5 PUSH2 0x2002 JUMP JUMPDEST POP POP POP JUMP JUMPDEST JUMPDEST DUP2 DUP2 LT ISZERO PUSH2 0x2063 JUMPI PUSH2 0x2058 PUSH1 0x0 DUP3 PUSH2 0x202C JUMP JUMPDEST PUSH1 0x1 DUP2 ADD SWAP1 POP PUSH2 0x2045 JUMP JUMPDEST POP POP JUMP JUMPDEST PUSH1 0x1F DUP3 GT ISZERO PUSH2 0x20A8 JUMPI PUSH2 0x2079 DUP2 PUSH2 0x1F48 JUMP JUMPDEST PUSH2 0x2082 DUP5 PUSH2 0x1F5D JUMP JUMPDEST DUP2 ADD PUSH1 0x20 DUP6 LT ISZERO PUSH2 0x2091 JUMPI DUP2 SWAP1 POP JUMPDEST PUSH2 0x20A5 PUSH2 0x209D DUP6 PUSH2 0x1F5D JUMP JUMPDEST DUP4 ADD DUP3 PUSH2 0x2044 JUMP JUMPDEST POP POP JUMPDEST POP POP POP JUMP JUMPDEST PUSH1 0x0 DUP3 DUP3 SHR SWAP1 POP SWAP3 SWAP2 POP POP JUMP JUMPDEST PUSH1 0x0 PUSH2 0x20CB PUSH1 0x0 NOT DUP5 PUSH1 0x8 MUL PUSH2 0x20AD JUMP JUMPDEST NOT DUP1 DUP4 AND SWAP2 POP POP SWAP3 SWAP2 POP POP JUMP JUMPDEST PUSH1 0x0 PUSH2 0x20E4 DUP4 DUP4 PUSH2 0x20BA JUMP JUMPDEST SWAP2 POP DUP3 PUSH1 0x2 MUL DUP3 OR SWAP1 POP SWAP3 SWAP2 POP POP JUMP JUMPDEST PUSH2 0x20FD DUP3 PUSH2 0x171B JUMP JUMPDEST PUSH8 0xFFFFFFFFFFFFFFFF DUP2 GT ISZERO PUSH2 0x2116 JUMPI PUSH2 0x2115 PUSH2 0x1F19 JUMP JUMPDEST JUMPDEST PUSH2 0x2120 DUP3 SLOAD PUSH2 0x1DA2 JUMP JUMPDEST PUSH2 0x212B DUP3 DUP3 DUP6 PUSH2 0x2067 JUMP JUMPDEST PUSH1 0x0 PUSH1 0x20 SWAP1 POP PUSH1 0x1F DUP4 GT PUSH1 0x1 DUP2 EQ PUSH2 0x215E JUMPI PUSH1 0x0 DUP5 ISZERO PUSH2 0x214C JUMPI DUP3 DUP8 ADD MLOAD SWAP1 POP JUMPDEST PUSH2 0x2156 DUP6 DUP3 PUSH2 0x20D8 JUMP JUMPDEST DUP7 SSTORE POP PUSH2 0x21BE JUMP JUMPDEST PUSH1 0x1F NOT DUP5 AND PUSH2 0x216C DUP7 PUSH2 0x1F48 JUMP JUMPDEST PUSH1 0x0 JUMPDEST DUP3 DUP2 LT ISZERO PUSH2 0x2194 JUMPI DUP5 DUP10 ADD MLOAD DUP3 SSTORE PUSH1 0x1 DUP3 ADD SWAP2 POP PUSH1 0x20 DUP6 ADD SWAP5 POP PUSH1 0x20 DUP2 ADD SWAP1 POP PUSH2 0x216F JUMP JUMPDEST DUP7 DUP4 LT ISZERO PUSH2 0x21B1 JUMPI DUP5 DUP10 ADD MLOAD PUSH2 0x21AD PUSH1 0x1F DUP10 AND DUP3 PUSH2 0x20BA JUMP JUMPDEST DUP4 SSTORE POP JUMPDEST PUSH1 0x1 PUSH1 0x2 DUP9 MUL ADD DUP9 SSTORE POP POP POP JUMPDEST POP POP POP POP POP POP JUMP JUMPDEST PUSH32 0x526F6F6D20696E61637469766500000000000000000000000000000000000000 PUSH1 0x0 DUP3 ADD MSTORE POP JUMP JUMPDEST PUSH1 0x0 PUSH2 0x21FC PUSH1 0xD DUP4 PUSH2 0x1726 JUMP JUMPDEST SWAP2 POP PUSH2 0x2207 DUP3 PUSH2 0x21C6 JUMP JUMPDEST PUSH1 0x20 DUP3 ADD SWAP1 POP SWAP2 SWAP1 POP JUMP JUMPDEST PUSH1 0x0 PUSH1 0x20 DUP3 ADD SWAP1 POP DUP2 DUP2 SUB PUSH1 0x0 DUP4 ADD MSTORE PUSH2 0x222B DUP2 PUSH2 0x21EF JUMP JUMPDEST SWAP1 POP SWAP2 SWAP1 POP JUMP JUMPDEST PUSH1 0x0 PUSH2 0x223D DUP3 PUSH2 0x16A9 JUMP JUMPDEST SWAP2 POP PUSH2 0x2248 DUP4 PUSH2 0x16A9 JUMP JUMPDEST SWAP3 POP DUP3 DUP3 MUL PUSH2 0x2256 DUP2 PUSH2 0x16A9 JUMP JUMPDEST SWAP2 POP DUP3 DUP3 DIV DUP5 EQ DUP4 ISZERO OR PUSH2 0x226D JUMPI PUSH2 0x226C PUSH2 0x1E02 JUMP JUMPDEST JUMPDEST POP SWAP3 SWAP2 POP POP JUMP JUMPDEST PUSH32 0x496E76616C69642076616C756500000000000000000000000000000000000000 PUSH1 0x0 DUP3 ADD MSTORE POP JUMP JUMPDEST PUSH1 0x0 PUSH2 0x22AA PUSH1 0xD DUP4 PUSH2 0x1726 JUMP JUMPDEST SWAP2 POP PUSH2 0x22B5 DUP3 PUSH2 0x2274 JUMP JUMPDEST PUSH1 0x20 DUP3 ADD SWAP1 POP SWAP2 SWAP1 POP JUMP JUMPDEST PUSH1 0x0 PUSH1 0x20 DUP3 ADD SWAP1 POP DUP2 DUP2 SUB PUSH1 0x0 DUP4 ADD MSTORE PUSH2 0x22D9 DUP2 PUSH2 0x229D JUMP JUMPDEST SWAP1 POP SWAP2 SWAP1 POP JUMP JUMPDEST PUSH32 0x416C726561647920726573657276656400000000000000000000000000000000 PUSH1 0x0 DUP3 ADD MSTORE POP JUMP JUMPDEST PUSH1 0x0 PUSH2 0x2316 PUSH1 0x10 DUP4 PUSH2 0x1726 JUMP JUMPDEST SWAP2 POP PUSH2 0x2321 DUP3 PUSH2 0x22E0 JUMP JUMPDEST PUSH1 0x20 DUP3 ADD SWAP1 POP SWAP2 SWAP1 POP JUMP JUMPDEST PUSH1 0x0 PUSH1 0x20 DUP3 ADD SWAP1 POP DUP2 DUP2 SUB PUSH1 0x0 DUP4 ADD MSTORE PUSH2 0x2345 DUP2 PUSH2 0x2309 JUMP JUMPDEST SWAP1 POP SWAP2 SWAP1 POP JUMP INVALID LOG2 PUSH5 0x6970667358 0x22 SLT KECCAK256 0xC8 0x49 0xD0 PUSH9 0xDD5A640E721B5DC26B PUSH23 0x38C2BEC0CE2BA3821A23B722ABBA618EAB5A64736F6C63 NUMBER STOP ADDMOD GT STOP CALLER "
				},
				"gasEstimates": {
					"creation": {
						"codeDepositCost": "1818000",
						"executionCost": "11931",
						"totalCost": "1829931"
					},
					"external": {
						"getMyRents()": "infinite",
						"getRoomRentHistory(uint256)": "infinite",
						"initializeRoomShare(uint256)": "infinite",
						"markRoomAsInactive(uint256)": "26991",
						"recommendDate(uint256,uint256,uint256)": "infinite",
						"rentDB_renter(address,uint256)": "infinite",
						"rentDB_room(uint256,uint256)": "infinite",
						"rentId()": "2496",
						"rentRoom(uint256,uint256,uint256,uint256)": "infinite",
						"roomDB(uint256)": "infinite",
						"roomId()": "2517",
						"shareRoom(string,string,uint256)": "infinite"
					},
					"internal": {
						"_createRent(uint256,uint256,uint256,uint256)": "infinite",
						"_sendFunds(address,uint256)": "infinite"
					}
				},
				"methodIdentifiers": {
					"getMyRents()": "85bfa356",
					"getRoomRentHistory(uint256)": "8c694034",
					"initializeRoomShare(uint256)": "facedf68",
					"markRoomAsInactive(uint256)": "6d4d8c28",
					"recommendDate(uint256,uint256,uint256)": "43064aa4",
					"rentDB_renter(address,uint256)": "7dd9c1b2",
					"rentDB_room(uint256,uint256)": "835e5daf",
					"rentId()": "6decd419",
					"rentRoom(uint256,uint256,uint256,uint256)": "a165c0ba",
					"roomDB(uint256)": "39b0dbed",
					"roomId()": "f954d0d9",
					"shareRoom(string,string,uint256)": "7b319135"
				}
			},
			"storageLayout": {
				"storage": [
					{
						"astId": 116,
						"contract": "dapp-project/RoomShare.sol:RoomShare",
						"label": "roomId",
						"offset": 0,
						"slot": "0",
						"type": "t_uint256"
					},
					{
						"astId": 119,
						"contract": "dapp-project/RoomShare.sol:RoomShare",
						"label": "rentId",
						"offset": 0,
						"slot": "1",
						"type": "t_uint256"
					},
					{
						"astId": 124,
						"contract": "dapp-project/RoomShare.sol:RoomShare",
						"label": "roomDB",
						"offset": 0,
						"slot": "2",
						"type": "t_mapping(t_uint256,t_struct(Room)17_storage)"
					},
					{
						"astId": 130,
						"contract": "dapp-project/RoomShare.sol:RoomShare",
						"label": "rentDB_room",
						"offset": 0,
						"slot": "3",
						"type": "t_mapping(t_uint256,t_array(t_struct(Rent)30_storage)dyn_storage)"
					},
					{
						"astId": 136,
						"contract": "dapp-project/RoomShare.sol:RoomShare",
						"label": "rentDB_renter",
						"offset": 0,
						"slot": "4",
						"type": "t_mapping(t_address,t_array(t_struct(Rent)30_storage)dyn_storage)"
					}
				],
				"types": {
					"t_address": {
						"encoding": "inplace",
						"label": "address",
						"numberOfBytes": "20"
					},
					"t_array(t_bool)dyn_storage": {
						"base": "t_bool",
						"encoding": "dynamic_array",
						"label": "bool[]",
						"numberOfBytes": "32"
					},
					"t_array(t_struct(Rent)30_storage)dyn_storage": {
						"base": "t_struct(Rent)30_storage",
						"encoding": "dynamic_array",
						"label": "struct IRoomShare.Rent[]",
						"numberOfBytes": "32"
					},
					"t_bool": {
						"encoding": "inplace",
						"label": "bool",
						"numberOfBytes": "1"
					},
					"t_mapping(t_address,t_array(t_struct(Rent)30_storage)dyn_storage)": {
						"encoding": "mapping",
						"key": "t_address",
						"label": "mapping(address => struct IRoomShare.Rent[])",
						"numberOfBytes": "32",
						"value": "t_array(t_struct(Rent)30_storage)dyn_storage"
					},
					"t_mapping(t_uint256,t_array(t_struct(Rent)30_storage)dyn_storage)": {
						"encoding": "mapping",
						"key": "t_uint256",
						"label": "mapping(uint256 => struct IRoomShare.Rent[])",
						"numberOfBytes": "32",
						"value": "t_array(t_struct(Rent)30_storage)dyn_storage"
					},
					"t_mapping(t_uint256,t_struct(Room)17_storage)": {
						"encoding": "mapping",
						"key": "t_uint256",
						"label": "mapping(uint256 => struct IRoomShare.Room)",
						"numberOfBytes": "32",
						"value": "t_struct(Room)17_storage"
					},
					"t_string_storage": {
						"encoding": "bytes",
						"label": "string",
						"numberOfBytes": "32"
					},
					"t_struct(Rent)30_storage": {
						"encoding": "inplace",
						"label": "struct IRoomShare.Rent",
						"members": [
							{
								"astId": 19,
								"contract": "dapp-project/RoomShare.sol:RoomShare",
								"label": "id",
								"offset": 0,
								"slot": "0",
								"type": "t_uint256"
							},
							{
								"astId": 21,
								"contract": "dapp-project/RoomShare.sol:RoomShare",
								"label": "rId",
								"offset": 0,
								"slot": "1",
								"type": "t_uint256"
							},
							{
								"astId": 23,
								"contract": "dapp-project/RoomShare.sol:RoomShare",
								"label": "yearOfRent",
								"offset": 0,
								"slot": "2",
								"type": "t_uint256"
							},
							{
								"astId": 25,
								"contract": "dapp-project/RoomShare.sol:RoomShare",
								"label": "checkInDate",
								"offset": 0,
								"slot": "3",
								"type": "t_uint256"
							},
							{
								"astId": 27,
								"contract": "dapp-project/RoomShare.sol:RoomShare",
								"label": "checkOutDate",
								"offset": 0,
								"slot": "4",
								"type": "t_uint256"
							},
							{
								"astId": 29,
								"contract": "dapp-project/RoomShare.sol:RoomShare",
								"label": "renter",
								"offset": 0,
								"slot": "5",
								"type": "t_address"
							}
						],
						"numberOfBytes": "192"
					},
					"t_struct(Room)17_storage": {
						"encoding": "inplace",
						"label": "struct IRoomShare.Room",
						"members": [
							{
								"astId": 3,
								"contract": "dapp-project/RoomShare.sol:RoomShare",
								"label": "id",
								"offset": 0,
								"slot": "0",
								"type": "t_uint256"
							},
							{
								"astId": 5,
								"contract": "dapp-project/RoomShare.sol:RoomShare",
								"label": "name",
								"offset": 0,
								"slot": "1",
								"type": "t_string_storage"
							},
							{
								"astId": 7,
								"contract": "dapp-project/RoomShare.sol:RoomShare",
								"label": "location",
								"offset": 0,
								"slot": "2",
								"type": "t_string_storage"
							},
							{
								"astId": 9,
								"contract": "dapp-project/RoomShare.sol:RoomShare",
								"label": "isActive",
								"offset": 0,
								"slot": "3",
								"type": "t_bool"
							},
							{
								"astId": 11,
								"contract": "dapp-project/RoomShare.sol:RoomShare",
								"label": "price",
								"offset": 0,
								"slot": "4",
								"type": "t_uint256"
							},
							{
								"astId": 13,
								"contract": "dapp-project/RoomShare.sol:RoomShare",
								"label": "owner",
								"offset": 0,
								"slot": "5",
								"type": "t_address"
							},
							{
								"astId": 16,
								"contract": "dapp-project/RoomShare.sol:RoomShare",
								"label": "isRented",
								"offset": 0,
								"slot": "6",
								"type": "t_array(t_bool)dyn_storage"
							}
						],
						"numberOfBytes": "224"
					},
					"t_uint256": {
						"encoding": "inplace",
						"label": "uint256",
						"numberOfBytes": "32"
					}
				}
			},
			"userdoc": {
				"kind": "user",
				"methods": {},
				"version": 1
			}
		}
	}
}