{
	"dapp-project/RoomShare.sol": {
		"RoomShare": {
			"abi": [
				{
					"anonymous": false,
					"inputs": [
						{
							"indexed": true,
							"internalType": "uint256",
							"name": "roomId",
							"type": "uint256"
						},
						{
							"indexed": true,
							"internalType": "uint256",
							"name": "rentId",
							"type": "uint256"
						}
					],
					"name": "NewRent",
					"type": "event"
				},
				{
					"anonymous": false,
					"inputs": [
						{
							"indexed": true,
							"internalType": "uint256",
							"name": "roomId",
							"type": "uint256"
						}
					],
					"name": "NewRoom",
					"type": "event"
				},
				{
					"anonymous": false,
					"inputs": [
						{
							"indexed": false,
							"internalType": "address",
							"name": "sender",
							"type": "address"
						},
						{
							"indexed": false,
							"internalType": "address",
							"name": "recipient",
							"type": "address"
						},
						{
							"indexed": false,
							"internalType": "uint256",
							"name": "amount",
							"type": "uint256"
						}
					],
					"name": "Transfer",
					"type": "event"
				},
				{
					"inputs": [],
					"name": "getMyRents",
					"outputs": [
						{
							"components": [
								{
									"internalType": "uint256",
									"name": "id",
									"type": "uint256"
								},
								{
									"internalType": "uint256",
									"name": "rId",
									"type": "uint256"
								},
								{
									"internalType": "uint256",
									"name": "yearOfRent",
									"type": "uint256"
								},
								{
									"internalType": "uint256",
									"name": "checkInDate",
									"type": "uint256"
								},
								{
									"internalType": "uint256",
									"name": "checkOutDate",
									"type": "uint256"
								},
								{
									"internalType": "address",
									"name": "renter",
									"type": "address"
								}
							],
							"internalType": "struct IRoomShare.Rent[]",
							"name": "",
							"type": "tuple[]"
						}
					],
					"stateMutability": "view",
					"type": "function"
				},
				{
					"inputs": [
						{
							"internalType": "uint256",
							"name": "_roomId",
							"type": "uint256"
						}
					],
					"name": "getRoomRentHistory",
					"outputs": [
						{
							"components": [
								{
									"internalType": "uint256",
									"name": "id",
									"type": "uint256"
								},
								{
									"internalType": "uint256",
									"name": "rId",
									"type": "uint256"
								},
								{
									"internalType": "uint256",
									"name": "yearOfRent",
									"type": "uint256"
								},
								{
									"internalType": "uint256",
									"name": "checkInDate",
									"type": "uint256"
								},
								{
									"internalType": "uint256",
									"name": "checkOutDate",
									"type": "uint256"
								},
								{
									"internalType": "address",
									"name": "renter",
									"type": "address"
								}
							],
							"internalType": "struct IRoomShare.Rent[]",
							"name": "",
							"type": "tuple[]"
						}
					],
					"stateMutability": "view",
					"type": "function"
				},
				{
					"inputs": [
						{
							"internalType": "uint256",
							"name": "_roomId",
							"type": "uint256"
						}
					],
					"name": "initializeRoomShare",
					"outputs": [],
					"stateMutability": "nonpayable",
					"type": "function"
				},
				{
					"inputs": [
						{
							"internalType": "uint256",
							"name": "_roomId",
							"type": "uint256"
						}
					],
					"name": "markRoomAsInactive",
					"outputs": [],
					"stateMutability": "nonpayable",
					"type": "function"
				},
				{
					"inputs": [
						{
							"internalType": "uint256",
							"name": "_roomId",
							"type": "uint256"
						},
						{
							"internalType": "uint256",
							"name": "checkInDate",
							"type": "uint256"
						},
						{
							"internalType": "uint256",
							"name": "checkOutDate",
							"type": "uint256"
						}
					],
					"name": "recommendDate",
					"outputs": [
						{
							"internalType": "uint256[2]",
							"name": "",
							"type": "uint256[2]"
						}
					],
					"stateMutability": "view",
					"type": "function"
				},
				{
					"inputs": [
						{
							"internalType": "address",
							"name": "",
							"type": "address"
						},
						{
							"internalType": "uint256",
							"name": "",
							"type": "uint256"
						}
					],
					"name": "rentDB_renter",
					"outputs": [
						{
							"internalType": "uint256",
							"name": "id",
							"type": "uint256"
						},
						{
							"internalType": "uint256",
							"name": "rId",
							"type": "uint256"
						},
						{
							"internalType": "uint256",
							"name": "yearOfRent",
							"type": "uint256"
						},
						{
							"internalType": "uint256",
							"name": "checkInDate",
							"type": "uint256"
						},
						{
							"internalType": "uint256",
							"name": "checkOutDate",
							"type": "uint256"
						},
						{
							"internalType": "address",
							"name": "renter",
							"type": "address"
						}
					],
					"stateMutability": "view",
					"type": "function"
				},
				{
					"inputs": [
						{
							"internalType": "uint256",
							"name": "",
							"type": "uint256"
						},
						{
							"internalType": "uint256",
							"name": "",
							"type": "uint256"
						}
					],
					"name": "rentDB_room",
					"outputs": [
						{
							"internalType": "uint256",
							"name": "id",
							"type": "uint256"
						},
						{
							"internalType": "uint256",
							"name": "rId",
							"type": "uint256"
						},
						{
							"internalType": "uint256",
							"name": "yearOfRent",
							"type": "uint256"
						},
						{
							"internalType": "uint256",
							"name": "checkInDate",
							"type": "uint256"
						},
						{
							"internalType": "uint256",
							"name": "checkOutDate",
							"type": "uint256"
						},
						{
							"internalType": "address",
							"name": "renter",
							"type": "address"
						}
					],
					"stateMutability": "view",
					"type": "function"
				},
				{
					"inputs": [],
					"name": "rentId",
					"outputs": [
						{
							"internalType": "uint256",
							"name": "",
							"type": "uint256"
						}
					],
					"stateMutability": "view",
					"type": "function"
				},
				{
					"inputs": [
						{
							"internalType": "uint256",
							"name": "_roomId",
							"type": "uint256"
						},
						{
							"internalType": "uint256",
							"name": "year",
							"type": "uint256"
						},
						{
							"internalType": "uint256",
							"name": "checkInDate",
							"type": "uint256"
						},
						{
							"internalType": "uint256",
							"name": "checkOutDate",
							"type": "uint256"
						}
					],
					"name": "rentRoom",
					"outputs": [],
					"stateMutability": "payable",
					"type": "function"
				},
				{
					"inputs": [
						{
							"internalType": "uint256",
							"name": "",
							"type": "uint256"
						}
					],
					"name": "roomDB",
					"outputs": [
						{
							"internalType": "uint256",
							"name": "id",
							"type": "uint256"
						},
						{
							"internalType": "string",
							"name": "name",
							"type": "string"
						},
						{
							"internalType": "string",
							"name": "location",
							"type": "string"
						},
						{
							"internalType": "bool",
							"name": "isActive",
							"type": "bool"
						},
						{
							"internalType": "uint256",
							"name": "price",
							"type": "uint256"
						},
						{
							"internalType": "address",
							"name": "owner",
							"type": "address"
						}
					],
					"stateMutability": "view",
					"type": "function"
				},
				{
					"inputs": [],
					"name": "roomId",
					"outputs": [
						{
							"internalType": "uint256",
							"name": "",
							"type": "uint256"
						}
					],
					"stateMutability": "view",
					"type": "function"
				},
				{
					"inputs": [
						{
							"internalType": "string",
							"name": "name",
							"type": "string"
						},
						{
							"internalType": "string",
							"name": "location",
							"type": "string"
						},
						{
							"internalType": "uint256",
							"name": "price",
							"type": "uint256"
						}
					],
					"name": "shareRoom",
					"outputs": [],
					"stateMutability": "nonpayable",
					"type": "function"
				}
			],
			"devdoc": {
				"kind": "dev",
				"methods": {},
				"version": 1
			},
			"evm": {
				"assembly": "    /* \"dapp-project/RoomShare.sol\":97:5143  contract RoomShare is IRoomShare {... */\n  mstore(0x40, 0x80)\n    /* \"dapp-project/RoomShare.sol\":156:157  0 */\n  0x00\n    /* \"dapp-project/RoomShare.sol\":135:157  uint public roomId = 0 */\n  dup1\n  sstore\n    /* \"dapp-project/RoomShare.sol\":182:183  0 */\n  0x00\n    /* \"dapp-project/RoomShare.sol\":161:183  uint public rentId = 0 */\n  0x01\n  sstore\n    /* \"dapp-project/RoomShare.sol\":97:5143  contract RoomShare is IRoomShare {... */\n  callvalue\n  dup1\n  iszero\n  tag_1\n  jumpi\n  0x00\n  dup1\n  revert\ntag_1:\n  pop\n  dataSize(sub_0)\n  dup1\n  dataOffset(sub_0)\n  0x00\n  codecopy\n  0x00\n  return\nstop\n\nsub_0: assembly {\n        /* \"dapp-project/RoomShare.sol\":97:5143  contract RoomShare is IRoomShare {... */\n      mstore(0x40, 0x80)\n      jumpi(tag_1, lt(calldatasize, 0x04))\n      shr(0xe0, calldataload(0x00))\n      dup1\n      0x835e5daf\n      gt\n      tag_14\n      jumpi\n      dup1\n      0x835e5daf\n      eq\n      tag_8\n      jumpi\n      dup1\n      0x85bfa356\n      eq\n      tag_9\n      jumpi\n      dup1\n      0x8c694034\n      eq\n      tag_10\n      jumpi\n      dup1\n      0xa165c0ba\n      eq\n      tag_11\n      jumpi\n      dup1\n      0xf954d0d9\n      eq\n      tag_12\n      jumpi\n      dup1\n      0xfacedf68\n      eq\n      tag_13\n      jumpi\n      jump(tag_1)\n    tag_14:\n      dup1\n      0x39b0dbed\n      eq\n      tag_2\n      jumpi\n      dup1\n      0x43064aa4\n      eq\n      tag_3\n      jumpi\n      dup1\n      0x6d4d8c28\n      eq\n      tag_4\n      jumpi\n      dup1\n      0x6decd419\n      eq\n      tag_5\n      jumpi\n      dup1\n      0x7b319135\n      eq\n      tag_6\n      jumpi\n      dup1\n      0x7dd9c1b2\n      eq\n      tag_7\n      jumpi\n    tag_1:\n      0x00\n      dup1\n      revert\n        /* \"dapp-project/RoomShare.sol\":187:222  mapping(uint => Room) public roomDB */\n    tag_2:\n      callvalue\n      dup1\n      iszero\n      tag_15\n      jumpi\n      0x00\n      dup1\n      revert\n    tag_15:\n      pop\n      tag_16\n      0x04\n      dup1\n      calldatasize\n      sub\n      dup2\n      add\n      swap1\n      tag_17\n      swap2\n      swap1\n      tag_18\n      jump\t// in\n    tag_17:\n      tag_19\n      jump\t// in\n    tag_16:\n      mload(0x40)\n      tag_20\n      swap7\n      swap6\n      swap5\n      swap4\n      swap3\n      swap2\n      swap1\n      tag_21\n      jump\t// in\n    tag_20:\n      mload(0x40)\n      dup1\n      swap2\n      sub\n      swap1\n      return\n        /* \"dapp-project/RoomShare.sol\":3491:4364  function recommendDate(uint _roomId, uint checkInDate, uint checkOutDate) external view override returns(uint[2] memory) {... */\n    tag_3:\n      callvalue\n      dup1\n      iszero\n      tag_22\n      jumpi\n      0x00\n      dup1\n      revert\n    tag_22:\n      pop\n      tag_23\n      0x04\n      dup1\n      calldatasize\n      sub\n      dup2\n      add\n      swap1\n      tag_24\n      swap2\n      swap1\n      tag_25\n      jump\t// in\n    tag_24:\n      tag_26\n      jump\t// in\n    tag_23:\n      mload(0x40)\n      tag_27\n      swap2\n      swap1\n      tag_28\n      jump\t// in\n    tag_27:\n      mload(0x40)\n      dup1\n      swap2\n      sub\n      swap1\n      return\n        /* \"dapp-project/RoomShare.sol\":4483:4710  function markRoomAsInactive(uint256 _roomId) external override {... */\n    tag_4:\n      callvalue\n      dup1\n      iszero\n      tag_29\n      jumpi\n      0x00\n      dup1\n      revert\n    tag_29:\n      pop\n      tag_30\n      0x04\n      dup1\n      calldatasize\n      sub\n      dup2\n      add\n      swap1\n      tag_31\n      swap2\n      swap1\n      tag_18\n      jump\t// in\n    tag_31:\n      tag_32\n      jump\t// in\n    tag_30:\n      stop\n        /* \"dapp-project/RoomShare.sol\":161:183  uint public rentId = 0 */\n    tag_5:\n      callvalue\n      dup1\n      iszero\n      tag_33\n      jumpi\n      0x00\n      dup1\n      revert\n    tag_33:\n      pop\n      tag_34\n      tag_35\n      jump\t// in\n    tag_34:\n      mload(0x40)\n      tag_36\n      swap2\n      swap1\n      tag_37\n      jump\t// in\n    tag_36:\n      mload(0x40)\n      dup1\n      swap2\n      sub\n      swap1\n      return\n        /* \"dapp-project/RoomShare.sol\":794:1342  function shareRoom( string calldata name, ... */\n    tag_6:\n      callvalue\n      dup1\n      iszero\n      tag_38\n      jumpi\n      0x00\n      dup1\n      revert\n    tag_38:\n      pop\n      tag_39\n      0x04\n      dup1\n      calldatasize\n      sub\n      dup2\n      add\n      swap1\n      tag_40\n      swap2\n      swap1\n      tag_41\n      jump\t// in\n    tag_40:\n      tag_42\n      jump\t// in\n    tag_39:\n      stop\n        /* \"dapp-project/RoomShare.sol\":328:375  mapping(address => Rent[]) public rentDB_renter */\n    tag_7:\n      callvalue\n      dup1\n      iszero\n      tag_43\n      jumpi\n      0x00\n      dup1\n      revert\n    tag_43:\n      pop\n      tag_44\n      0x04\n      dup1\n      calldatasize\n      sub\n      dup2\n      add\n      swap1\n      tag_45\n      swap2\n      swap1\n      tag_46\n      jump\t// in\n    tag_45:\n      tag_47\n      jump\t// in\n    tag_44:\n      mload(0x40)\n      tag_48\n      swap7\n      swap6\n      swap5\n      swap4\n      swap3\n      swap2\n      swap1\n      tag_49\n      jump\t// in\n    tag_48:\n      mload(0x40)\n      dup1\n      swap2\n      sub\n      swap1\n      return\n        /* \"dapp-project/RoomShare.sol\":248:290  mapping(uint => Rent[]) public rentDB_room */\n    tag_8:\n      callvalue\n      dup1\n      iszero\n      tag_50\n      jumpi\n      0x00\n      dup1\n      revert\n    tag_50:\n      pop\n      tag_51\n      0x04\n      dup1\n      calldatasize\n      sub\n      dup2\n      add\n      swap1\n      tag_52\n      swap2\n      swap1\n      tag_53\n      jump\t// in\n    tag_52:\n      tag_54\n      jump\t// in\n    tag_51:\n      mload(0x40)\n      tag_55\n      swap7\n      swap6\n      swap5\n      swap4\n      swap3\n      swap2\n      swap1\n      tag_49\n      jump\t// in\n    tag_55:\n      mload(0x40)\n      dup1\n      swap2\n      sub\n      swap1\n      return\n        /* \"dapp-project/RoomShare.sol\":417:599  function getMyRents() external view override returns(Rent[] memory) {... */\n    tag_9:\n      callvalue\n      dup1\n      iszero\n      tag_56\n      jumpi\n      0x00\n      dup1\n      revert\n    tag_56:\n      pop\n      tag_57\n      tag_58\n      jump\t// in\n    tag_57:\n      mload(0x40)\n      tag_59\n      swap2\n      swap1\n      tag_60\n      jump\t// in\n    tag_59:\n      mload(0x40)\n      dup1\n      swap2\n      sub\n      swap1\n      return\n        /* \"dapp-project/RoomShare.sol\":603:790  function getRoomRentHistory(uint _roomId) external view override returns(Rent[] memory) {... */\n    tag_10:\n      callvalue\n      dup1\n      iszero\n      tag_61\n      jumpi\n      0x00\n      dup1\n      revert\n    tag_61:\n      pop\n      tag_62\n      0x04\n      dup1\n      calldatasize\n      sub\n      dup2\n      add\n      swap1\n      tag_63\n      swap2\n      swap1\n      tag_18\n      jump\t// in\n    tag_63:\n      tag_64\n      jump\t// in\n    tag_62:\n      mload(0x40)\n      tag_65\n      swap2\n      swap1\n      tag_60\n      jump\t// in\n    tag_65:\n      mload(0x40)\n      dup1\n      swap2\n      sub\n      swap1\n      return\n        /* \"dapp-project/RoomShare.sol\":1346:2556  function rentRoom(uint _roomId, uint year, uint checkInDate, uint checkOutDate) payable external override{... */\n    tag_11:\n      tag_66\n      0x04\n      dup1\n      calldatasize\n      sub\n      dup2\n      add\n      swap1\n      tag_67\n      swap2\n      swap1\n      tag_68\n      jump\t// in\n    tag_67:\n      tag_69\n      jump\t// in\n    tag_66:\n      stop\n        /* \"dapp-project/RoomShare.sol\":135:157  uint public roomId = 0 */\n    tag_12:\n      callvalue\n      dup1\n      iszero\n      tag_70\n      jumpi\n      0x00\n      dup1\n      revert\n    tag_70:\n      pop\n      tag_71\n      tag_72\n      jump\t// in\n    tag_71:\n      mload(0x40)\n      tag_73\n      swap2\n      swap1\n      tag_37\n      jump\t// in\n    tag_73:\n      mload(0x40)\n      dup1\n      swap2\n      sub\n      swap1\n      return\n        /* \"dapp-project/RoomShare.sol\":4842:5140  function initializeRoomShare(uint _roomId) external override {... */\n    tag_13:\n      callvalue\n      dup1\n      iszero\n      tag_74\n      jumpi\n      0x00\n      dup1\n      revert\n    tag_74:\n      pop\n      tag_75\n      0x04\n      dup1\n      calldatasize\n      sub\n      dup2\n      add\n      swap1\n      tag_76\n      swap2\n      swap1\n      tag_18\n      jump\t// in\n    tag_76:\n      tag_77\n      jump\t// in\n    tag_75:\n      stop\n        /* \"dapp-project/RoomShare.sol\":187:222  mapping(uint => Room) public roomDB */\n    tag_19:\n      mstore(0x20, 0x02)\n      dup1\n      0x00\n      mstore\n      keccak256(0x00, 0x40)\n      0x00\n      swap2\n      pop\n      swap1\n      pop\n      dup1\n      0x00\n      add\n      sload\n      swap1\n      dup1\n      0x01\n      add\n      dup1\n      sload\n      tag_78\n      swap1\n      tag_79\n      jump\t// in\n    tag_78:\n      dup1\n      0x1f\n      add\n      0x20\n      dup1\n      swap2\n      div\n      mul\n      0x20\n      add\n      mload(0x40)\n      swap1\n      dup2\n      add\n      0x40\n      mstore\n      dup1\n      swap3\n      swap2\n      swap1\n      dup2\n      dup2\n      mstore\n      0x20\n      add\n      dup3\n      dup1\n      sload\n      tag_80\n      swap1\n      tag_79\n      jump\t// in\n    tag_80:\n      dup1\n      iszero\n      tag_81\n      jumpi\n      dup1\n      0x1f\n      lt\n      tag_82\n      jumpi\n      0x0100\n      dup1\n      dup4\n      sload\n      div\n      mul\n      dup4\n      mstore\n      swap2\n      0x20\n      add\n      swap2\n      jump(tag_81)\n    tag_82:\n      dup3\n      add\n      swap2\n      swap1\n      0x00\n      mstore\n      keccak256(0x00, 0x20)\n      swap1\n    tag_83:\n      dup2\n      sload\n      dup2\n      mstore\n      swap1\n      0x01\n      add\n      swap1\n      0x20\n      add\n      dup1\n      dup4\n      gt\n      tag_83\n      jumpi\n      dup3\n      swap1\n      sub\n      0x1f\n      and\n      dup3\n      add\n      swap2\n    tag_81:\n      pop\n      pop\n      pop\n      pop\n      pop\n      swap1\n      dup1\n      0x02\n      add\n      dup1\n      sload\n      tag_84\n      swap1\n      tag_79\n      jump\t// in\n    tag_84:\n      dup1\n      0x1f\n      add\n      0x20\n      dup1\n      swap2\n      div\n      mul\n      0x20\n      add\n      mload(0x40)\n      swap1\n      dup2\n      add\n      0x40\n      mstore\n      dup1\n      swap3\n      swap2\n      swap1\n      dup2\n      dup2\n      mstore\n      0x20\n      add\n      dup3\n      dup1\n      sload\n      tag_85\n      swap1\n      tag_79\n      jump\t// in\n    tag_85:\n      dup1\n      iszero\n      tag_86\n      jumpi\n      dup1\n      0x1f\n      lt\n      tag_87\n      jumpi\n      0x0100\n      dup1\n      dup4\n      sload\n      div\n      mul\n      dup4\n      mstore\n      swap2\n      0x20\n      add\n      swap2\n      jump(tag_86)\n    tag_87:\n      dup3\n      add\n      swap2\n      swap1\n      0x00\n      mstore\n      keccak256(0x00, 0x20)\n      swap1\n    tag_88:\n      dup2\n      sload\n      dup2\n      mstore\n      swap1\n      0x01\n      add\n      swap1\n      0x20\n      add\n      dup1\n      dup4\n      gt\n      tag_88\n      jumpi\n      dup3\n      swap1\n      sub\n      0x1f\n      and\n      dup3\n      add\n      swap2\n    tag_86:\n      pop\n      pop\n      pop\n      pop\n      pop\n      swap1\n      dup1\n      0x03\n      add\n      0x00\n      swap1\n      sload\n      swap1\n      0x0100\n      exp\n      swap1\n      div\n      0xff\n      and\n      swap1\n      dup1\n      0x04\n      add\n      sload\n      swap1\n      dup1\n      0x05\n      add\n      0x00\n      swap1\n      sload\n      swap1\n      0x0100\n      exp\n      swap1\n      div\n      0xffffffffffffffffffffffffffffffffffffffff\n      and\n      swap1\n      pop\n      dup7\n      jump\t// out\n        /* \"dapp-project/RoomShare.sol\":3491:4364  function recommendDate(uint _roomId, uint checkInDate, uint checkOutDate) external view override returns(uint[2] memory) {... */\n    tag_26:\n        /* \"dapp-project/RoomShare.sol\":3596:3610  uint[2] memory */\n      tag_89\n      tag_90\n      jump\t// in\n    tag_89:\n        /* \"dapp-project/RoomShare.sol\":3957:3973  Room memory room */\n      0x00\n        /* \"dapp-project/RoomShare.sol\":3976:3982  roomDB */\n      0x02\n        /* \"dapp-project/RoomShare.sol\":3976:3991  roomDB[_roomId] */\n      0x00\n        /* \"dapp-project/RoomShare.sol\":3983:3990  _roomId */\n      dup7\n        /* \"dapp-project/RoomShare.sol\":3976:3991  roomDB[_roomId] */\n      dup2\n      mstore\n      0x20\n      add\n      swap1\n      dup2\n      mstore\n      0x20\n      add\n      0x00\n      keccak256\n        /* \"dapp-project/RoomShare.sol\":3957:3991  Room memory room = roomDB[_roomId] */\n      mload(0x40)\n      dup1\n      0xe0\n      add\n      0x40\n      mstore\n      swap1\n      dup2\n      0x00\n      dup3\n      add\n      sload\n      dup2\n      mstore\n      0x20\n      add\n      0x01\n      dup3\n      add\n      dup1\n      sload\n      tag_92\n      swap1\n      tag_79\n      jump\t// in\n    tag_92:\n      dup1\n      0x1f\n      add\n      0x20\n      dup1\n      swap2\n      div\n      mul\n      0x20\n      add\n      mload(0x40)\n      swap1\n      dup2\n      add\n      0x40\n      mstore\n      dup1\n      swap3\n      swap2\n      swap1\n      dup2\n      dup2\n      mstore\n      0x20\n      add\n      dup3\n      dup1\n      sload\n      tag_93\n      swap1\n      tag_79\n      jump\t// in\n    tag_93:\n      dup1\n      iszero\n      tag_94\n      jumpi\n      dup1\n      0x1f\n      lt\n      tag_95\n      jumpi\n      0x0100\n      dup1\n      dup4\n      sload\n      div\n      mul\n      dup4\n      mstore\n      swap2\n      0x20\n      add\n      swap2\n      jump(tag_94)\n    tag_95:\n      dup3\n      add\n      swap2\n      swap1\n      0x00\n      mstore\n      keccak256(0x00, 0x20)\n      swap1\n    tag_96:\n      dup2\n      sload\n      dup2\n      mstore\n      swap1\n      0x01\n      add\n      swap1\n      0x20\n      add\n      dup1\n      dup4\n      gt\n      tag_96\n      jumpi\n      dup3\n      swap1\n      sub\n      0x1f\n      and\n      dup3\n      add\n      swap2\n    tag_94:\n      pop\n      pop\n      pop\n      pop\n      pop\n      dup2\n      mstore\n      0x20\n      add\n      0x02\n      dup3\n      add\n      dup1\n      sload\n      tag_97\n      swap1\n      tag_79\n      jump\t// in\n    tag_97:\n      dup1\n      0x1f\n      add\n      0x20\n      dup1\n      swap2\n      div\n      mul\n      0x20\n      add\n      mload(0x40)\n      swap1\n      dup2\n      add\n      0x40\n      mstore\n      dup1\n      swap3\n      swap2\n      swap1\n      dup2\n      dup2\n      mstore\n      0x20\n      add\n      dup3\n      dup1\n      sload\n      tag_98\n      swap1\n      tag_79\n      jump\t// in\n    tag_98:\n      dup1\n      iszero\n      tag_99\n      jumpi\n      dup1\n      0x1f\n      lt\n      tag_100\n      jumpi\n      0x0100\n      dup1\n      dup4\n      sload\n      div\n      mul\n      dup4\n      mstore\n      swap2\n      0x20\n      add\n      swap2\n      jump(tag_99)\n    tag_100:\n      dup3\n      add\n      swap2\n      swap1\n      0x00\n      mstore\n      keccak256(0x00, 0x20)\n      swap1\n    tag_101:\n      dup2\n      sload\n      dup2\n      mstore\n      swap1\n      0x01\n      add\n      swap1\n      0x20\n      add\n      dup1\n      dup4\n      gt\n      tag_101\n      jumpi\n      dup3\n      swap1\n      sub\n      0x1f\n      and\n      dup3\n      add\n      swap2\n    tag_99:\n      pop\n      pop\n      pop\n      pop\n      pop\n      dup2\n      mstore\n      0x20\n      add\n      0x03\n      dup3\n      add\n      0x00\n      swap1\n      sload\n      swap1\n      0x0100\n      exp\n      swap1\n      div\n      0xff\n      and\n      iszero\n      iszero\n      iszero\n      iszero\n      dup2\n      mstore\n      0x20\n      add\n      0x04\n      dup3\n      add\n      sload\n      dup2\n      mstore\n      0x20\n      add\n      0x05\n      dup3\n      add\n      0x00\n      swap1\n      sload\n      swap1\n      0x0100\n      exp\n      swap1\n      div\n      0xffffffffffffffffffffffffffffffffffffffff\n      and\n      0xffffffffffffffffffffffffffffffffffffffff\n      and\n      0xffffffffffffffffffffffffffffffffffffffff\n      and\n      dup2\n      mstore\n      0x20\n      add\n      0x06\n      dup3\n      add\n      dup1\n      sload\n      dup1\n      0x20\n      mul\n      0x20\n      add\n      mload(0x40)\n      swap1\n      dup2\n      add\n      0x40\n      mstore\n      dup1\n      swap3\n      swap2\n      swap1\n      dup2\n      dup2\n      mstore\n      0x20\n      add\n      dup3\n      dup1\n      sload\n      dup1\n      iszero\n      tag_102\n      jumpi\n      0x20\n      mul\n      dup3\n      add\n      swap2\n      swap1\n      0x00\n      mstore\n      keccak256(0x00, 0x20)\n      swap1\n      0x00\n      swap1\n    tag_103:\n      dup3\n      dup3\n      swap1\n      sload\n      swap1\n      0x0100\n      exp\n      swap1\n      div\n      0xff\n      and\n      iszero\n      iszero\n      dup2\n      mstore\n      0x20\n      add\n      swap1\n      0x01\n      add\n      swap1\n      0x20\n      dup3\n      0x00\n      add\n      div\n      swap3\n      dup4\n      add\n      swap3\n      0x01\n      sub\n      dup3\n      mul\n      swap2\n      pop\n      dup1\n      dup5\n      gt\n      tag_103\n      jumpi\n      swap1\n      pop\n    tag_102:\n      pop\n      pop\n      pop\n      pop\n      pop\n      dup2\n      mstore\n      pop\n      pop\n      swap1\n      pop\n        /* \"dapp-project/RoomShare.sol\":3997:4024  uint[2] memory reservedDate */\n      tag_104\n      tag_90\n      jump\t// in\n    tag_104:\n        /* \"dapp-project/RoomShare.sol\":4036:4042  uint i */\n      0x00\n        /* \"dapp-project/RoomShare.sol\":4045:4056  checkInDate */\n      dup6\n        /* \"dapp-project/RoomShare.sol\":4036:4056  uint i = checkInDate */\n      swap1\n      pop\n        /* \"dapp-project/RoomShare.sol\":4031:4176  for (uint i = checkInDate; i < checkOutDate; i++){... */\n    tag_105:\n        /* \"dapp-project/RoomShare.sol\":4062:4074  checkOutDate */\n      dup5\n        /* \"dapp-project/RoomShare.sol\":4058:4059  i */\n      dup2\n        /* \"dapp-project/RoomShare.sol\":4058:4074  i < checkOutDate */\n      lt\n        /* \"dapp-project/RoomShare.sol\":4031:4176  for (uint i = checkInDate; i < checkOutDate; i++){... */\n      iszero\n      tag_106\n      jumpi\n        /* \"dapp-project/RoomShare.sol\":4112:4116  true */\n      0x01\n        /* \"dapp-project/RoomShare.sol\":4092:4116  room.isRented[i] == true */\n      iszero\n      iszero\n        /* \"dapp-project/RoomShare.sol\":4092:4096  room */\n      dup4\n        /* \"dapp-project/RoomShare.sol\":4092:4105  room.isRented */\n      0xc0\n      add\n      mload\n        /* \"dapp-project/RoomShare.sol\":4106:4107  i */\n      dup3\n        /* \"dapp-project/RoomShare.sol\":4092:4108  room.isRented[i] */\n      dup2\n      mload\n      dup2\n      lt\n      tag_108\n      jumpi\n      tag_109\n      tag_110\n      jump\t// in\n    tag_109:\n    tag_108:\n      0x20\n      mul\n      0x20\n      add\n      add\n      mload\n        /* \"dapp-project/RoomShare.sol\":4092:4116  room.isRented[i] == true */\n      iszero\n      iszero\n      eq\n        /* \"dapp-project/RoomShare.sol\":4088:4170  if (room.isRented[i] == true){... */\n      iszero\n      tag_111\n      jumpi\n        /* \"dapp-project/RoomShare.sol\":4145:4146  i */\n      dup1\n        /* \"dapp-project/RoomShare.sol\":4127:4139  reservedDate */\n      dup3\n        /* \"dapp-project/RoomShare.sol\":4140:4141  0 */\n      0x00\n        /* \"dapp-project/RoomShare.sol\":4127:4142  reservedDate[0] */\n      0x02\n      dup2\n      lt\n      tag_112\n      jumpi\n      tag_113\n      tag_110\n      jump\t// in\n    tag_113:\n    tag_112:\n      0x20\n      mul\n      add\n        /* \"dapp-project/RoomShare.sol\":4127:4146  reservedDate[0] = i */\n      dup2\n      dup2\n      mstore\n      pop\n      pop\n        /* \"dapp-project/RoomShare.sol\":4156:4161  break */\n      jump(tag_106)\n        /* \"dapp-project/RoomShare.sol\":4088:4170  if (room.isRented[i] == true){... */\n    tag_111:\n        /* \"dapp-project/RoomShare.sol\":4076:4079  i++ */\n      dup1\n      dup1\n      tag_114\n      swap1\n      tag_115\n      jump\t// in\n    tag_114:\n      swap2\n      pop\n      pop\n        /* \"dapp-project/RoomShare.sol\":4031:4176  for (uint i = checkInDate; i < checkOutDate; i++){... */\n      jump(tag_105)\n    tag_106:\n      pop\n        /* \"dapp-project/RoomShare.sol\":4186:4192  uint i */\n      0x00\n        /* \"dapp-project/RoomShare.sol\":4195:4207  reservedDate */\n      dup2\n        /* \"dapp-project/RoomShare.sol\":4208:4209  0 */\n      0x00\n        /* \"dapp-project/RoomShare.sol\":4195:4210  reservedDate[0] */\n      0x02\n      dup2\n      lt\n      tag_119\n      jumpi\n      tag_120\n      tag_110\n      jump\t// in\n    tag_120:\n    tag_119:\n      0x20\n      mul\n      add\n      mload\n        /* \"dapp-project/RoomShare.sol\":4186:4210  uint i = reservedDate[0] */\n      swap1\n      pop\n        /* \"dapp-project/RoomShare.sol\":4181:4334  for (uint i = reservedDate[0]; i <= checkOutDate; i++){... */\n    tag_116:\n        /* \"dapp-project/RoomShare.sol\":4217:4229  checkOutDate */\n      dup5\n        /* \"dapp-project/RoomShare.sol\":4212:4213  i */\n      dup2\n        /* \"dapp-project/RoomShare.sol\":4212:4229  i <= checkOutDate */\n      gt\n        /* \"dapp-project/RoomShare.sol\":4181:4334  for (uint i = reservedDate[0]; i <= checkOutDate; i++){... */\n      tag_117\n      jumpi\n        /* \"dapp-project/RoomShare.sol\":4267:4272  false */\n      0x00\n        /* \"dapp-project/RoomShare.sol\":4247:4272  room.isRented[i] == false */\n      iszero\n      iszero\n        /* \"dapp-project/RoomShare.sol\":4247:4251  room */\n      dup4\n        /* \"dapp-project/RoomShare.sol\":4247:4260  room.isRented */\n      0xc0\n      add\n      mload\n        /* \"dapp-project/RoomShare.sol\":4261:4262  i */\n      dup3\n        /* \"dapp-project/RoomShare.sol\":4247:4263  room.isRented[i] */\n      dup2\n      mload\n      dup2\n      lt\n      tag_121\n      jumpi\n      tag_122\n      tag_110\n      jump\t// in\n    tag_122:\n    tag_121:\n      0x20\n      mul\n      0x20\n      add\n      add\n      mload\n        /* \"dapp-project/RoomShare.sol\":4247:4272  room.isRented[i] == false */\n      iszero\n      iszero\n      eq\n        /* \"dapp-project/RoomShare.sol\":4243:4328  if (room.isRented[i] == false){... */\n      iszero\n      tag_123\n      jumpi\n        /* \"dapp-project/RoomShare.sol\":4303:4304  1 */\n      0x01\n        /* \"dapp-project/RoomShare.sol\":4301:4302  i */\n      dup2\n        /* \"dapp-project/RoomShare.sol\":4301:4304  i-1 */\n      tag_124\n      swap2\n      swap1\n      tag_125\n      jump\t// in\n    tag_124:\n        /* \"dapp-project/RoomShare.sol\":4283:4295  reservedDate */\n      dup3\n        /* \"dapp-project/RoomShare.sol\":4296:4297  1 */\n      0x01\n        /* \"dapp-project/RoomShare.sol\":4283:4298  reservedDate[1] */\n      0x02\n      dup2\n      lt\n      tag_126\n      jumpi\n      tag_127\n      tag_110\n      jump\t// in\n    tag_127:\n    tag_126:\n      0x20\n      mul\n      add\n        /* \"dapp-project/RoomShare.sol\":4283:4304  reservedDate[1] = i-1 */\n      dup2\n      dup2\n      mstore\n      pop\n      pop\n        /* \"dapp-project/RoomShare.sol\":4314:4319  break */\n      jump(tag_117)\n        /* \"dapp-project/RoomShare.sol\":4243:4328  if (room.isRented[i] == false){... */\n    tag_123:\n        /* \"dapp-project/RoomShare.sol\":4231:4234  i++ */\n      dup1\n      dup1\n      tag_128\n      swap1\n      tag_115\n      jump\t// in\n    tag_128:\n      swap2\n      pop\n      pop\n        /* \"dapp-project/RoomShare.sol\":4181:4334  for (uint i = reservedDate[0]; i <= checkOutDate; i++){... */\n      jump(tag_116)\n    tag_117:\n      pop\n        /* \"dapp-project/RoomShare.sol\":4347:4359  reservedDate */\n      dup1\n        /* \"dapp-project/RoomShare.sol\":4340:4359  return reservedDate */\n      swap3\n      pop\n      pop\n      pop\n        /* \"dapp-project/RoomShare.sol\":3491:4364  function recommendDate(uint _roomId, uint checkInDate, uint checkOutDate) external view override returns(uint[2] memory) {... */\n      swap4\n      swap3\n      pop\n      pop\n      pop\n      jump\t// out\n        /* \"dapp-project/RoomShare.sol\":4483:4710  function markRoomAsInactive(uint256 _roomId) external override {... */\n    tag_32:\n        /* \"dapp-project/RoomShare.sol\":4552:4569  Room storage room */\n      0x00\n        /* \"dapp-project/RoomShare.sol\":4572:4578  roomDB */\n      0x02\n        /* \"dapp-project/RoomShare.sol\":4572:4587  roomDB[_roomId] */\n      0x00\n        /* \"dapp-project/RoomShare.sol\":4579:4586  _roomId */\n      dup4\n        /* \"dapp-project/RoomShare.sol\":4572:4587  roomDB[_roomId] */\n      dup2\n      mstore\n      0x20\n      add\n      swap1\n      dup2\n      mstore\n      0x20\n      add\n      0x00\n      keccak256\n        /* \"dapp-project/RoomShare.sol\":4552:4587  Room storage room = roomDB[_roomId] */\n      swap1\n      pop\n        /* \"dapp-project/RoomShare.sol\":4646:4656  msg.sender */\n      caller\n        /* \"dapp-project/RoomShare.sol\":4632:4656  room.owner == msg.sender */\n      0xffffffffffffffffffffffffffffffffffffffff\n      and\n        /* \"dapp-project/RoomShare.sol\":4632:4636  room */\n      dup2\n        /* \"dapp-project/RoomShare.sol\":4632:4642  room.owner */\n      0x05\n      add\n      0x00\n      swap1\n      sload\n      swap1\n      0x0100\n      exp\n      swap1\n      div\n      0xffffffffffffffffffffffffffffffffffffffff\n      and\n        /* \"dapp-project/RoomShare.sol\":4632:4656  room.owner == msg.sender */\n      0xffffffffffffffffffffffffffffffffffffffff\n      and\n      eq\n        /* \"dapp-project/RoomShare.sol\":4624:4678  require(room.owner == msg.sender, \"Not owner of room\") */\n      tag_130\n      jumpi\n      mload(0x40)\n      0x08c379a000000000000000000000000000000000000000000000000000000000\n      dup2\n      mstore\n      0x04\n      add\n      tag_131\n      swap1\n      tag_132\n      jump\t// in\n    tag_131:\n      mload(0x40)\n      dup1\n      swap2\n      sub\n      swap1\n      revert\n    tag_130:\n        /* \"dapp-project/RoomShare.sol\":4700:4705  false */\n      0x00\n        /* \"dapp-project/RoomShare.sol\":4684:4688  room */\n      dup2\n        /* \"dapp-project/RoomShare.sol\":4684:4697  room.isActive */\n      0x03\n      add\n      0x00\n        /* \"dapp-project/RoomShare.sol\":4684:4705  room.isActive = false */\n      0x0100\n      exp\n      dup2\n      sload\n      dup2\n      0xff\n      mul\n      not\n      and\n      swap1\n      dup4\n      iszero\n      iszero\n      mul\n      or\n      swap1\n      sstore\n      pop\n        /* \"dapp-project/RoomShare.sol\":4546:4710  {... */\n      pop\n        /* \"dapp-project/RoomShare.sol\":4483:4710  function markRoomAsInactive(uint256 _roomId) external override {... */\n      pop\n      jump\t// out\n        /* \"dapp-project/RoomShare.sol\":161:183  uint public rentId = 0 */\n    tag_35:\n      sload(0x01)\n      dup2\n      jump\t// out\n        /* \"dapp-project/RoomShare.sol\":794:1342  function shareRoom( string calldata name, ... */\n    tag_42:\n        /* \"dapp-project/RoomShare.sol\":1187:1203  Room memory room */\n      0x00\n        /* \"dapp-project/RoomShare.sol\":1206:1276  Room(roomId, name, location, true, price, msg.sender, new bool[](365)) */\n      mload(0x40)\n      dup1\n      0xe0\n      add\n      0x40\n      mstore\n      dup1\n        /* \"dapp-project/RoomShare.sol\":1211:1217  roomId */\n      sload(0x00)\n        /* \"dapp-project/RoomShare.sol\":1206:1276  Room(roomId, name, location, true, price, msg.sender, new bool[](365)) */\n      dup2\n      mstore\n      0x20\n      add\n        /* \"dapp-project/RoomShare.sol\":1219:1223  name */\n      dup8\n      dup8\n        /* \"dapp-project/RoomShare.sol\":1206:1276  Room(roomId, name, location, true, price, msg.sender, new bool[](365)) */\n      dup1\n      dup1\n      0x1f\n      add\n      0x20\n      dup1\n      swap2\n      div\n      mul\n      0x20\n      add\n      mload(0x40)\n      swap1\n      dup2\n      add\n      0x40\n      mstore\n      dup1\n      swap4\n      swap3\n      swap2\n      swap1\n      dup2\n      dup2\n      mstore\n      0x20\n      add\n      dup4\n      dup4\n      dup1\n      dup3\n      dup5\n      calldatacopy\n      0x00\n      dup2\n      dup5\n      add\n      mstore\n      not(0x1f)\n      0x1f\n      dup3\n      add\n      and\n      swap1\n      pop\n      dup1\n      dup4\n      add\n      swap3\n      pop\n      pop\n      pop\n      pop\n      pop\n      pop\n      pop\n      dup2\n      mstore\n      0x20\n      add\n        /* \"dapp-project/RoomShare.sol\":1225:1233  location */\n      dup6\n      dup6\n        /* \"dapp-project/RoomShare.sol\":1206:1276  Room(roomId, name, location, true, price, msg.sender, new bool[](365)) */\n      dup1\n      dup1\n      0x1f\n      add\n      0x20\n      dup1\n      swap2\n      div\n      mul\n      0x20\n      add\n      mload(0x40)\n      swap1\n      dup2\n      add\n      0x40\n      mstore\n      dup1\n      swap4\n      swap3\n      swap2\n      swap1\n      dup2\n      dup2\n      mstore\n      0x20\n      add\n      dup4\n      dup4\n      dup1\n      dup3\n      dup5\n      calldatacopy\n      0x00\n      dup2\n      dup5\n      add\n      mstore\n      not(0x1f)\n      0x1f\n      dup3\n      add\n      and\n      swap1\n      pop\n      dup1\n      dup4\n      add\n      swap3\n      pop\n      pop\n      pop\n      pop\n      pop\n      pop\n      pop\n      dup2\n      mstore\n      0x20\n      add\n        /* \"dapp-project/RoomShare.sol\":1235:1239  true */\n      0x01\n        /* \"dapp-project/RoomShare.sol\":1206:1276  Room(roomId, name, location, true, price, msg.sender, new bool[](365)) */\n      iszero\n      iszero\n      dup2\n      mstore\n      0x20\n      add\n        /* \"dapp-project/RoomShare.sol\":1241:1246  price */\n      dup4\n        /* \"dapp-project/RoomShare.sol\":1206:1276  Room(roomId, name, location, true, price, msg.sender, new bool[](365)) */\n      dup2\n      mstore\n      0x20\n      add\n        /* \"dapp-project/RoomShare.sol\":1248:1258  msg.sender */\n      caller\n        /* \"dapp-project/RoomShare.sol\":1206:1276  Room(roomId, name, location, true, price, msg.sender, new bool[](365)) */\n      0xffffffffffffffffffffffffffffffffffffffff\n      and\n      dup2\n      mstore\n      0x20\n      add\n        /* \"dapp-project/RoomShare.sol\":1271:1274  365 */\n      0x016d\n        /* \"dapp-project/RoomShare.sol\":1260:1275  new bool[](365) */\n      0xffffffffffffffff\n      dup2\n      gt\n      iszero\n      tag_134\n      jumpi\n      tag_135\n      tag_136\n      jump\t// in\n    tag_135:\n    tag_134:\n      mload(0x40)\n      swap1\n      dup1\n      dup3\n      mstore\n      dup1\n      0x20\n      mul\n      0x20\n      add\n      dup3\n      add\n      0x40\n      mstore\n      dup1\n      iszero\n      tag_137\n      jumpi\n      dup2\n      0x20\n      add\n      0x20\n      dup3\n      mul\n      dup1\n      calldatasize\n      dup4\n      calldatacopy\n      dup1\n      dup3\n      add\n      swap2\n      pop\n      pop\n      swap1\n      pop\n    tag_137:\n      pop\n        /* \"dapp-project/RoomShare.sol\":1206:1276  Room(roomId, name, location, true, price, msg.sender, new bool[](365)) */\n      dup2\n      mstore\n      pop\n        /* \"dapp-project/RoomShare.sol\":1187:1276  Room memory room = Room(roomId, name, location, true, price, msg.sender, new bool[](365)) */\n      swap1\n      pop\n        /* \"dapp-project/RoomShare.sol\":1304:1308  room */\n      dup1\n        /* \"dapp-project/RoomShare.sol\":1287:1293  roomDB */\n      0x02\n        /* \"dapp-project/RoomShare.sol\":1287:1301  roomDB[roomId] */\n      0x00\n        /* \"dapp-project/RoomShare.sol\":1294:1300  roomId */\n      dup1\n      sload\n        /* \"dapp-project/RoomShare.sol\":1287:1301  roomDB[roomId] */\n      dup2\n      mstore\n      0x20\n      add\n      swap1\n      dup2\n      mstore\n      0x20\n      add\n      0x00\n      keccak256\n        /* \"dapp-project/RoomShare.sol\":1287:1308  roomDB[roomId] = room */\n      0x00\n      dup3\n      add\n      mload\n      dup2\n      0x00\n      add\n      sstore\n      0x20\n      dup3\n      add\n      mload\n      dup2\n      0x01\n      add\n      swap1\n      dup1\n      mload\n      swap1\n      0x20\n      add\n      swap1\n      tag_138\n      swap3\n      swap2\n      swap1\n      tag_139\n      jump\t// in\n    tag_138:\n      pop\n      0x40\n      dup3\n      add\n      mload\n      dup2\n      0x02\n      add\n      swap1\n      dup1\n      mload\n      swap1\n      0x20\n      add\n      swap1\n      tag_140\n      swap3\n      swap2\n      swap1\n      tag_139\n      jump\t// in\n    tag_140:\n      pop\n      0x60\n      dup3\n      add\n      mload\n      dup2\n      0x03\n      add\n      exp(0x0100, 0x00)\n      dup2\n      sload\n      dup2\n      0xff\n      mul\n      not\n      and\n      swap1\n      dup4\n      iszero\n      iszero\n      mul\n      or\n      swap1\n      sstore\n      pop\n      0x80\n      dup3\n      add\n      mload\n      dup2\n      0x04\n      add\n      sstore\n      0xa0\n      dup3\n      add\n      mload\n      dup2\n      0x05\n      add\n      exp(0x0100, 0x00)\n      dup2\n      sload\n      dup2\n      0xffffffffffffffffffffffffffffffffffffffff\n      mul\n      not\n      and\n      swap1\n      dup4\n      0xffffffffffffffffffffffffffffffffffffffff\n      and\n      mul\n      or\n      swap1\n      sstore\n      pop\n      0xc0\n      dup3\n      add\n      mload\n      dup2\n      0x06\n      add\n      swap1\n      dup1\n      mload\n      swap1\n      0x20\n      add\n      swap1\n      tag_141\n      swap3\n      swap2\n      swap1\n      tag_142\n      jump\t// in\n    tag_141:\n      pop\n      swap1\n      pop\n      pop\n        /* \"dapp-project/RoomShare.sol\":1328:1334  roomId */\n      0x00\n      dup1\n        /* \"dapp-project/RoomShare.sol\":1328:1336  roomId++ */\n      dup2\n      sload\n      dup1\n      swap3\n      swap2\n      swap1\n      tag_143\n      swap1\n      tag_115\n      jump\t// in\n    tag_143:\n      swap2\n      swap1\n      pop\n      sstore\n        /* \"dapp-project/RoomShare.sol\":1320:1337  NewRoom(roomId++) */\n      0xe3dfa06732e0549f98a5f6d34268fbb7da76b458e78c8ea5b1d7029396cc2164\n      mload(0x40)\n      mload(0x40)\n      dup1\n      swap2\n      sub\n      swap1\n      log2\n        /* \"dapp-project/RoomShare.sol\":939:1342  {... */\n      pop\n        /* \"dapp-project/RoomShare.sol\":794:1342  function shareRoom( string calldata name, ... */\n      pop\n      pop\n      pop\n      pop\n      pop\n      jump\t// out\n        /* \"dapp-project/RoomShare.sol\":328:375  mapping(address => Rent[]) public rentDB_renter */\n    tag_47:\n      mstore(0x20, 0x04)\n      dup2\n      0x00\n      mstore\n      keccak256(0x00, 0x40)\n      dup2\n      dup2\n      sload\n      dup2\n      lt\n      tag_144\n      jumpi\n      0x00\n      dup1\n      revert\n    tag_144:\n      swap1\n      0x00\n      mstore\n      keccak256(0x00, 0x20)\n      swap1\n      0x06\n      mul\n      add\n      0x00\n      swap2\n      pop\n      swap2\n      pop\n      pop\n      dup1\n      0x00\n      add\n      sload\n      swap1\n      dup1\n      0x01\n      add\n      sload\n      swap1\n      dup1\n      0x02\n      add\n      sload\n      swap1\n      dup1\n      0x03\n      add\n      sload\n      swap1\n      dup1\n      0x04\n      add\n      sload\n      swap1\n      dup1\n      0x05\n      add\n      0x00\n      swap1\n      sload\n      swap1\n      0x0100\n      exp\n      swap1\n      div\n      0xffffffffffffffffffffffffffffffffffffffff\n      and\n      swap1\n      pop\n      dup7\n      jump\t// out\n        /* \"dapp-project/RoomShare.sol\":248:290  mapping(uint => Rent[]) public rentDB_room */\n    tag_54:\n      mstore(0x20, 0x03)\n      dup2\n      0x00\n      mstore\n      keccak256(0x00, 0x40)\n      dup2\n      dup2\n      sload\n      dup2\n      lt\n      tag_146\n      jumpi\n      0x00\n      dup1\n      revert\n    tag_146:\n      swap1\n      0x00\n      mstore\n      keccak256(0x00, 0x20)\n      swap1\n      0x06\n      mul\n      add\n      0x00\n      swap2\n      pop\n      swap2\n      pop\n      pop\n      dup1\n      0x00\n      add\n      sload\n      swap1\n      dup1\n      0x01\n      add\n      sload\n      swap1\n      dup1\n      0x02\n      add\n      sload\n      swap1\n      dup1\n      0x03\n      add\n      sload\n      swap1\n      dup1\n      0x04\n      add\n      sload\n      swap1\n      dup1\n      0x05\n      add\n      0x00\n      swap1\n      sload\n      swap1\n      0x0100\n      exp\n      swap1\n      div\n      0xffffffffffffffffffffffffffffffffffffffff\n      and\n      swap1\n      pop\n      dup7\n      jump\t// out\n        /* \"dapp-project/RoomShare.sol\":417:599  function getMyRents() external view override returns(Rent[] memory) {... */\n    tag_58:\n        /* \"dapp-project/RoomShare.sol\":470:483  Rent[] memory */\n      0x60\n        /* \"dapp-project/RoomShare.sol\":569:582  rentDB_renter */\n      0x04\n        /* \"dapp-project/RoomShare.sol\":569:594  rentDB_renter[msg.sender] */\n      0x00\n        /* \"dapp-project/RoomShare.sol\":583:593  msg.sender */\n      caller\n        /* \"dapp-project/RoomShare.sol\":569:594  rentDB_renter[msg.sender] */\n      0xffffffffffffffffffffffffffffffffffffffff\n      and\n      0xffffffffffffffffffffffffffffffffffffffff\n      and\n      dup2\n      mstore\n      0x20\n      add\n      swap1\n      dup2\n      mstore\n      0x20\n      add\n      0x00\n      keccak256\n        /* \"dapp-project/RoomShare.sol\":562:594  return rentDB_renter[msg.sender] */\n      dup1\n      sload\n      dup1\n      0x20\n      mul\n      0x20\n      add\n      mload(0x40)\n      swap1\n      dup2\n      add\n      0x40\n      mstore\n      dup1\n      swap3\n      swap2\n      swap1\n      dup2\n      dup2\n      mstore\n      0x20\n      add\n      0x00\n      swap1\n    tag_149:\n      dup3\n      dup3\n      lt\n      iszero\n      tag_150\n      jumpi\n      dup4\n      dup3\n      swap1\n      0x00\n      mstore\n      keccak256(0x00, 0x20)\n      swap1\n      0x06\n      mul\n      add\n      mload(0x40)\n      dup1\n      0xc0\n      add\n      0x40\n      mstore\n      swap1\n      dup2\n      0x00\n      dup3\n      add\n      sload\n      dup2\n      mstore\n      0x20\n      add\n      0x01\n      dup3\n      add\n      sload\n      dup2\n      mstore\n      0x20\n      add\n      0x02\n      dup3\n      add\n      sload\n      dup2\n      mstore\n      0x20\n      add\n      0x03\n      dup3\n      add\n      sload\n      dup2\n      mstore\n      0x20\n      add\n      0x04\n      dup3\n      add\n      sload\n      dup2\n      mstore\n      0x20\n      add\n      0x05\n      dup3\n      add\n      0x00\n      swap1\n      sload\n      swap1\n      0x0100\n      exp\n      swap1\n      div\n      0xffffffffffffffffffffffffffffffffffffffff\n      and\n      0xffffffffffffffffffffffffffffffffffffffff\n      and\n      0xffffffffffffffffffffffffffffffffffffffff\n      and\n      dup2\n      mstore\n      pop\n      pop\n      dup2\n      mstore\n      0x20\n      add\n      swap1\n      0x01\n      add\n      swap1\n      jump(tag_149)\n    tag_150:\n      pop\n      pop\n      pop\n      pop\n      swap1\n      pop\n        /* \"dapp-project/RoomShare.sol\":417:599  function getMyRents() external view override returns(Rent[] memory) {... */\n      swap1\n      jump\t// out\n        /* \"dapp-project/RoomShare.sol\":603:790  function getRoomRentHistory(uint _roomId) external view override returns(Rent[] memory) {... */\n    tag_64:\n        /* \"dapp-project/RoomShare.sol\":676:689  Rent[] memory */\n      0x60\n        /* \"dapp-project/RoomShare.sol\":765:776  rentDB_room */\n      0x03\n        /* \"dapp-project/RoomShare.sol\":765:785  rentDB_room[_roomId] */\n      0x00\n        /* \"dapp-project/RoomShare.sol\":777:784  _roomId */\n      dup4\n        /* \"dapp-project/RoomShare.sol\":765:785  rentDB_room[_roomId] */\n      dup2\n      mstore\n      0x20\n      add\n      swap1\n      dup2\n      mstore\n      0x20\n      add\n      0x00\n      keccak256\n        /* \"dapp-project/RoomShare.sol\":758:785  return rentDB_room[_roomId] */\n      dup1\n      sload\n      dup1\n      0x20\n      mul\n      0x20\n      add\n      mload(0x40)\n      swap1\n      dup2\n      add\n      0x40\n      mstore\n      dup1\n      swap3\n      swap2\n      swap1\n      dup2\n      dup2\n      mstore\n      0x20\n      add\n      0x00\n      swap1\n    tag_153:\n      dup3\n      dup3\n      lt\n      iszero\n      tag_154\n      jumpi\n      dup4\n      dup3\n      swap1\n      0x00\n      mstore\n      keccak256(0x00, 0x20)\n      swap1\n      0x06\n      mul\n      add\n      mload(0x40)\n      dup1\n      0xc0\n      add\n      0x40\n      mstore\n      swap1\n      dup2\n      0x00\n      dup3\n      add\n      sload\n      dup2\n      mstore\n      0x20\n      add\n      0x01\n      dup3\n      add\n      sload\n      dup2\n      mstore\n      0x20\n      add\n      0x02\n      dup3\n      add\n      sload\n      dup2\n      mstore\n      0x20\n      add\n      0x03\n      dup3\n      add\n      sload\n      dup2\n      mstore\n      0x20\n      add\n      0x04\n      dup3\n      add\n      sload\n      dup2\n      mstore\n      0x20\n      add\n      0x05\n      dup3\n      add\n      0x00\n      swap1\n      sload\n      swap1\n      0x0100\n      exp\n      swap1\n      div\n      0xffffffffffffffffffffffffffffffffffffffff\n      and\n      0xffffffffffffffffffffffffffffffffffffffff\n      and\n      0xffffffffffffffffffffffffffffffffffffffff\n      and\n      dup2\n      mstore\n      pop\n      pop\n      dup2\n      mstore\n      0x20\n      add\n      swap1\n      0x01\n      add\n      swap1\n      jump(tag_153)\n    tag_154:\n      pop\n      pop\n      pop\n      pop\n      swap1\n      pop\n        /* \"dapp-project/RoomShare.sol\":603:790  function getRoomRentHistory(uint _roomId) external view override returns(Rent[] memory) {... */\n      swap2\n      swap1\n      pop\n      jump\t// out\n        /* \"dapp-project/RoomShare.sol\":1346:2556  function rentRoom(uint _roomId, uint year, uint checkInDate, uint checkOutDate) payable external override{... */\n    tag_69:\n        /* \"dapp-project/RoomShare.sol\":2142:2158  Room memory room */\n      0x00\n        /* \"dapp-project/RoomShare.sol\":2161:2167  roomDB */\n      0x02\n        /* \"dapp-project/RoomShare.sol\":2161:2176  roomDB[_roomId] */\n      0x00\n        /* \"dapp-project/RoomShare.sol\":2168:2175  _roomId */\n      dup7\n        /* \"dapp-project/RoomShare.sol\":2161:2176  roomDB[_roomId] */\n      dup2\n      mstore\n      0x20\n      add\n      swap1\n      dup2\n      mstore\n      0x20\n      add\n      0x00\n      keccak256\n        /* \"dapp-project/RoomShare.sol\":2142:2176  Room memory room = roomDB[_roomId] */\n      mload(0x40)\n      dup1\n      0xe0\n      add\n      0x40\n      mstore\n      swap1\n      dup2\n      0x00\n      dup3\n      add\n      sload\n      dup2\n      mstore\n      0x20\n      add\n      0x01\n      dup3\n      add\n      dup1\n      sload\n      tag_157\n      swap1\n      tag_79\n      jump\t// in\n    tag_157:\n      dup1\n      0x1f\n      add\n      0x20\n      dup1\n      swap2\n      div\n      mul\n      0x20\n      add\n      mload(0x40)\n      swap1\n      dup2\n      add\n      0x40\n      mstore\n      dup1\n      swap3\n      swap2\n      swap1\n      dup2\n      dup2\n      mstore\n      0x20\n      add\n      dup3\n      dup1\n      sload\n      tag_158\n      swap1\n      tag_79\n      jump\t// in\n    tag_158:\n      dup1\n      iszero\n      tag_159\n      jumpi\n      dup1\n      0x1f\n      lt\n      tag_160\n      jumpi\n      0x0100\n      dup1\n      dup4\n      sload\n      div\n      mul\n      dup4\n      mstore\n      swap2\n      0x20\n      add\n      swap2\n      jump(tag_159)\n    tag_160:\n      dup3\n      add\n      swap2\n      swap1\n      0x00\n      mstore\n      keccak256(0x00, 0x20)\n      swap1\n    tag_161:\n      dup2\n      sload\n      dup2\n      mstore\n      swap1\n      0x01\n      add\n      swap1\n      0x20\n      add\n      dup1\n      dup4\n      gt\n      tag_161\n      jumpi\n      dup3\n      swap1\n      sub\n      0x1f\n      and\n      dup3\n      add\n      swap2\n    tag_159:\n      pop\n      pop\n      pop\n      pop\n      pop\n      dup2\n      mstore\n      0x20\n      add\n      0x02\n      dup3\n      add\n      dup1\n      sload\n      tag_162\n      swap1\n      tag_79\n      jump\t// in\n    tag_162:\n      dup1\n      0x1f\n      add\n      0x20\n      dup1\n      swap2\n      div\n      mul\n      0x20\n      add\n      mload(0x40)\n      swap1\n      dup2\n      add\n      0x40\n      mstore\n      dup1\n      swap3\n      swap2\n      swap1\n      dup2\n      dup2\n      mstore\n      0x20\n      add\n      dup3\n      dup1\n      sload\n      tag_163\n      swap1\n      tag_79\n      jump\t// in\n    tag_163:\n      dup1\n      iszero\n      tag_164\n      jumpi\n      dup1\n      0x1f\n      lt\n      tag_165\n      jumpi\n      0x0100\n      dup1\n      dup4\n      sload\n      div\n      mul\n      dup4\n      mstore\n      swap2\n      0x20\n      add\n      swap2\n      jump(tag_164)\n    tag_165:\n      dup3\n      add\n      swap2\n      swap1\n      0x00\n      mstore\n      keccak256(0x00, 0x20)\n      swap1\n    tag_166:\n      dup2\n      sload\n      dup2\n      mstore\n      swap1\n      0x01\n      add\n      swap1\n      0x20\n      add\n      dup1\n      dup4\n      gt\n      tag_166\n      jumpi\n      dup3\n      swap1\n      sub\n      0x1f\n      and\n      dup3\n      add\n      swap2\n    tag_164:\n      pop\n      pop\n      pop\n      pop\n      pop\n      dup2\n      mstore\n      0x20\n      add\n      0x03\n      dup3\n      add\n      0x00\n      swap1\n      sload\n      swap1\n      0x0100\n      exp\n      swap1\n      div\n      0xff\n      and\n      iszero\n      iszero\n      iszero\n      iszero\n      dup2\n      mstore\n      0x20\n      add\n      0x04\n      dup3\n      add\n      sload\n      dup2\n      mstore\n      0x20\n      add\n      0x05\n      dup3\n      add\n      0x00\n      swap1\n      sload\n      swap1\n      0x0100\n      exp\n      swap1\n      div\n      0xffffffffffffffffffffffffffffffffffffffff\n      and\n      0xffffffffffffffffffffffffffffffffffffffff\n      and\n      0xffffffffffffffffffffffffffffffffffffffff\n      and\n      dup2\n      mstore\n      0x20\n      add\n      0x06\n      dup3\n      add\n      dup1\n      sload\n      dup1\n      0x20\n      mul\n      0x20\n      add\n      mload(0x40)\n      swap1\n      dup2\n      add\n      0x40\n      mstore\n      dup1\n      swap3\n      swap2\n      swap1\n      dup2\n      dup2\n      mstore\n      0x20\n      add\n      dup3\n      dup1\n      sload\n      dup1\n      iszero\n      tag_167\n      jumpi\n      0x20\n      mul\n      dup3\n      add\n      swap2\n      swap1\n      0x00\n      mstore\n      keccak256(0x00, 0x20)\n      swap1\n      0x00\n      swap1\n    tag_168:\n      dup3\n      dup3\n      swap1\n      sload\n      swap1\n      0x0100\n      exp\n      swap1\n      div\n      0xff\n      and\n      iszero\n      iszero\n      dup2\n      mstore\n      0x20\n      add\n      swap1\n      0x01\n      add\n      swap1\n      0x20\n      dup3\n      0x00\n      add\n      div\n      swap3\n      dup4\n      add\n      swap3\n      0x01\n      sub\n      dup3\n      mul\n      swap2\n      pop\n      dup1\n      dup5\n      gt\n      tag_168\n      jumpi\n      swap1\n      pop\n    tag_167:\n      pop\n      pop\n      pop\n      pop\n      pop\n      dup2\n      mstore\n      pop\n      pop\n      swap1\n      pop\n        /* \"dapp-project/RoomShare.sol\":2209:2213  true */\n      0x01\n        /* \"dapp-project/RoomShare.sol\":2192:2213  room.isActive == true */\n      iszero\n      iszero\n        /* \"dapp-project/RoomShare.sol\":2192:2196  room */\n      dup2\n        /* \"dapp-project/RoomShare.sol\":2192:2205  room.isActive */\n      0x60\n      add\n      mload\n        /* \"dapp-project/RoomShare.sol\":2192:2213  room.isActive == true */\n      iszero\n      iszero\n      eq\n        /* \"dapp-project/RoomShare.sol\":2183:2231  require (room.isActive == true, \"Room inactive\") */\n      tag_169\n      jumpi\n      mload(0x40)\n      0x08c379a000000000000000000000000000000000000000000000000000000000\n      dup2\n      mstore\n      0x04\n      add\n      tag_170\n      swap1\n      tag_171\n      jump\t// in\n    tag_170:\n      mload(0x40)\n      dup1\n      swap2\n      sub\n      swap1\n      revert\n    tag_169:\n        /* \"dapp-project/RoomShare.sol\":2302:2308  10**15 */\n      0x038d7ea4c68000\n        /* \"dapp-project/RoomShare.sol\":2289:2293  room */\n      dup2\n        /* \"dapp-project/RoomShare.sol\":2289:2299  room.price */\n      0x80\n      add\n      mload\n        /* \"dapp-project/RoomShare.sol\":2275:2286  checkInDate */\n      dup5\n        /* \"dapp-project/RoomShare.sol\":2260:2272  checkOutDate */\n      dup5\n        /* \"dapp-project/RoomShare.sol\":2260:2286  checkOutDate - checkInDate */\n      tag_172\n      swap2\n      swap1\n      tag_125\n      jump\t// in\n    tag_172:\n        /* \"dapp-project/RoomShare.sol\":2259:2299  (checkOutDate - checkInDate)* room.price */\n      tag_173\n      swap2\n      swap1\n      tag_174\n      jump\t// in\n    tag_173:\n        /* \"dapp-project/RoomShare.sol\":2259:2308  (checkOutDate - checkInDate)* room.price * 10**15 */\n      tag_175\n      swap2\n      swap1\n      tag_174\n      jump\t// in\n    tag_175:\n        /* \"dapp-project/RoomShare.sol\":2245:2254  msg.value */\n      callvalue\n        /* \"dapp-project/RoomShare.sol\":2245:2309  msg.value == ((checkOutDate - checkInDate)* room.price * 10**15) */\n      eq\n        /* \"dapp-project/RoomShare.sol\":2237:2327  require(msg.value == ((checkOutDate - checkInDate)* room.price * 10**15), \"Invalid value\") */\n      tag_176\n      jumpi\n      mload(0x40)\n      0x08c379a000000000000000000000000000000000000000000000000000000000\n      dup2\n      mstore\n      0x04\n      add\n      tag_177\n      swap1\n      tag_178\n      jump\t// in\n    tag_177:\n      mload(0x40)\n      dup1\n      swap2\n      sub\n      swap1\n      revert\n    tag_176:\n        /* \"dapp-project/RoomShare.sol\":2338:2344  uint i */\n      0x00\n        /* \"dapp-project/RoomShare.sol\":2347:2358  checkInDate */\n      dup4\n        /* \"dapp-project/RoomShare.sol\":2338:2358  uint i = checkInDate */\n      swap1\n      pop\n        /* \"dapp-project/RoomShare.sol\":2333:2451  for (uint i = checkInDate; i < checkOutDate; i++){... */\n    tag_179:\n        /* \"dapp-project/RoomShare.sol\":2364:2376  checkOutDate */\n      dup3\n        /* \"dapp-project/RoomShare.sol\":2360:2361  i */\n      dup2\n        /* \"dapp-project/RoomShare.sol\":2360:2376  i < checkOutDate */\n      lt\n        /* \"dapp-project/RoomShare.sol\":2333:2451  for (uint i = checkInDate; i < checkOutDate; i++){... */\n      iszero\n      tag_180\n      jumpi\n        /* \"dapp-project/RoomShare.sol\":2418:2423  false */\n      0x00\n        /* \"dapp-project/RoomShare.sol\":2398:2423  room.isRented[i] == false */\n      iszero\n      iszero\n        /* \"dapp-project/RoomShare.sol\":2398:2402  room */\n      dup3\n        /* \"dapp-project/RoomShare.sol\":2398:2411  room.isRented */\n      0xc0\n      add\n      mload\n        /* \"dapp-project/RoomShare.sol\":2412:2413  i */\n      dup3\n        /* \"dapp-project/RoomShare.sol\":2398:2414  room.isRented[i] */\n      dup2\n      mload\n      dup2\n      lt\n      tag_182\n      jumpi\n      tag_183\n      tag_110\n      jump\t// in\n    tag_183:\n    tag_182:\n      0x20\n      mul\n      0x20\n      add\n      add\n      mload\n        /* \"dapp-project/RoomShare.sol\":2398:2423  room.isRented[i] == false */\n      iszero\n      iszero\n      eq\n        /* \"dapp-project/RoomShare.sol\":2390:2444  require(room.isRented[i] == false, \"Already reserved\") */\n      tag_184\n      jumpi\n      mload(0x40)\n      0x08c379a000000000000000000000000000000000000000000000000000000000\n      dup2\n      mstore\n      0x04\n      add\n      tag_185\n      swap1\n      tag_186\n      jump\t// in\n    tag_185:\n      mload(0x40)\n      dup1\n      swap2\n      sub\n      swap1\n      revert\n    tag_184:\n        /* \"dapp-project/RoomShare.sol\":2378:2381  i++ */\n      dup1\n      dup1\n      tag_187\n      swap1\n      tag_115\n      jump\t// in\n    tag_187:\n      swap2\n      pop\n      pop\n        /* \"dapp-project/RoomShare.sol\":2333:2451  for (uint i = checkInDate; i < checkOutDate; i++){... */\n      jump(tag_179)\n    tag_180:\n      pop\n        /* \"dapp-project/RoomShare.sol\":2459:2492  _sendFunds(room.owner, msg.value) */\n      tag_188\n        /* \"dapp-project/RoomShare.sol\":2470:2474  room */\n      dup2\n        /* \"dapp-project/RoomShare.sol\":2470:2480  room.owner */\n      0xa0\n      add\n      mload\n        /* \"dapp-project/RoomShare.sol\":2482:2491  msg.value */\n      callvalue\n        /* \"dapp-project/RoomShare.sol\":2459:2469  _sendFunds */\n      tag_189\n        /* \"dapp-project/RoomShare.sol\":2459:2492  _sendFunds(room.owner, msg.value) */\n      jump\t// in\n    tag_188:\n        /* \"dapp-project/RoomShare.sol\":2498:2551  _createRent(_roomId, year, checkInDate, checkOutDate) */\n      tag_190\n        /* \"dapp-project/RoomShare.sol\":2510:2517  _roomId */\n      dup6\n        /* \"dapp-project/RoomShare.sol\":2519:2523  year */\n      dup6\n        /* \"dapp-project/RoomShare.sol\":2525:2536  checkInDate */\n      dup6\n        /* \"dapp-project/RoomShare.sol\":2538:2550  checkOutDate */\n      dup6\n        /* \"dapp-project/RoomShare.sol\":2498:2509  _createRent */\n      tag_191\n        /* \"dapp-project/RoomShare.sol\":2498:2551  _createRent(_roomId, year, checkInDate, checkOutDate) */\n      jump\t// in\n    tag_190:\n        /* \"dapp-project/RoomShare.sol\":1451:2556  {... */\n      pop\n        /* \"dapp-project/RoomShare.sol\":1346:2556  function rentRoom(uint _roomId, uint year, uint checkInDate, uint checkOutDate) payable external override{... */\n      pop\n      pop\n      pop\n      pop\n      jump\t// out\n        /* \"dapp-project/RoomShare.sol\":135:157  uint public roomId = 0 */\n    tag_72:\n      sload(0x00)\n      dup2\n      jump\t// out\n        /* \"dapp-project/RoomShare.sol\":4842:5140  function initializeRoomShare(uint _roomId) external override {... */\n    tag_77:\n        /* \"dapp-project/RoomShare.sol\":4909:4926  Room storage room */\n      0x00\n        /* \"dapp-project/RoomShare.sol\":4929:4935  roomDB */\n      0x02\n        /* \"dapp-project/RoomShare.sol\":4929:4944  roomDB[_roomId] */\n      0x00\n        /* \"dapp-project/RoomShare.sol\":4936:4943  _roomId */\n      dup4\n        /* \"dapp-project/RoomShare.sol\":4929:4944  roomDB[_roomId] */\n      dup2\n      mstore\n      0x20\n      add\n      swap1\n      dup2\n      mstore\n      0x20\n      add\n      0x00\n      keccak256\n        /* \"dapp-project/RoomShare.sol\":4909:4944  Room storage room = roomDB[_roomId] */\n      swap1\n      pop\n        /* \"dapp-project/RoomShare.sol\":5003:5013  msg.sender */\n      caller\n        /* \"dapp-project/RoomShare.sol\":4989:5013  room.owner == msg.sender */\n      0xffffffffffffffffffffffffffffffffffffffff\n      and\n        /* \"dapp-project/RoomShare.sol\":4989:4993  room */\n      dup2\n        /* \"dapp-project/RoomShare.sol\":4989:4999  room.owner */\n      0x05\n      add\n      0x00\n      swap1\n      sload\n      swap1\n      0x0100\n      exp\n      swap1\n      div\n      0xffffffffffffffffffffffffffffffffffffffff\n      and\n        /* \"dapp-project/RoomShare.sol\":4989:5013  room.owner == msg.sender */\n      0xffffffffffffffffffffffffffffffffffffffff\n      and\n      eq\n        /* \"dapp-project/RoomShare.sol\":4981:5035  require(room.owner == msg.sender, \"Not owner of room\") */\n      tag_193\n      jumpi\n      mload(0x40)\n      0x08c379a000000000000000000000000000000000000000000000000000000000\n      dup2\n      mstore\n      0x04\n      add\n      tag_194\n      swap1\n      tag_132\n      jump\t// in\n    tag_194:\n      mload(0x40)\n      dup1\n      swap2\n      sub\n      swap1\n      revert\n    tag_193:\n        /* \"dapp-project/RoomShare.sol\":5076:5082  uint i */\n      0x00\n        /* \"dapp-project/RoomShare.sol\":5071:5136  for (uint i; i < 356; i++){... */\n    tag_195:\n        /* \"dapp-project/RoomShare.sol\":5088:5091  356 */\n      0x0164\n        /* \"dapp-project/RoomShare.sol\":5084:5085  i */\n      dup2\n        /* \"dapp-project/RoomShare.sol\":5084:5091  i < 356 */\n      lt\n        /* \"dapp-project/RoomShare.sol\":5071:5136  for (uint i; i < 356; i++){... */\n      iszero\n      tag_196\n      jumpi\n        /* \"dapp-project/RoomShare.sol\":5124:5129  false */\n      0x00\n        /* \"dapp-project/RoomShare.sol\":5105:5109  room */\n      dup3\n        /* \"dapp-project/RoomShare.sol\":5105:5118  room.isRented */\n      0x06\n      add\n        /* \"dapp-project/RoomShare.sol\":5119:5120  i */\n      dup3\n        /* \"dapp-project/RoomShare.sol\":5105:5121  room.isRented[i] */\n      dup2\n      sload\n      dup2\n      lt\n      tag_198\n      jumpi\n      tag_199\n      tag_110\n      jump\t// in\n    tag_199:\n    tag_198:\n      swap1\n      0x00\n      mstore\n      keccak256(0x00, 0x20)\n      swap1\n      0x20\n      swap2\n      dup3\n      dup3\n      div\n      add\n      swap2\n      swap1\n      mod\n        /* \"dapp-project/RoomShare.sol\":5105:5129  room.isRented[i] = false */\n      0x0100\n      exp\n      dup2\n      sload\n      dup2\n      0xff\n      mul\n      not\n      and\n      swap1\n      dup4\n      iszero\n      iszero\n      mul\n      or\n      swap1\n      sstore\n      pop\n        /* \"dapp-project/RoomShare.sol\":5093:5096  i++ */\n      dup1\n      dup1\n      tag_201\n      swap1\n      tag_115\n      jump\t// in\n    tag_201:\n      swap2\n      pop\n      pop\n        /* \"dapp-project/RoomShare.sol\":5071:5136  for (uint i; i < 356; i++){... */\n      jump(tag_195)\n    tag_196:\n      pop\n        /* \"dapp-project/RoomShare.sol\":4903:5140  {... */\n      pop\n        /* \"dapp-project/RoomShare.sol\":4842:5140  function initializeRoomShare(uint _roomId) external override {... */\n      pop\n      jump\t// out\n        /* \"dapp-project/RoomShare.sol\":3384:3487  function _sendFunds (address owner, uint256 value) internal {... */\n    tag_189:\n        /* \"dapp-project/RoomShare.sol\":3460:3465  owner */\n      dup2\n        /* \"dapp-project/RoomShare.sol\":3452:3475  payable(owner).transfer */\n      0xffffffffffffffffffffffffffffffffffffffff\n      and\n        /* \"dapp-project/RoomShare.sol\":3452:3482  payable(owner).transfer(value) */\n      0x08fc\n        /* \"dapp-project/RoomShare.sol\":3476:3481  value */\n      dup3\n        /* \"dapp-project/RoomShare.sol\":3452:3482  payable(owner).transfer(value) */\n      swap1\n      dup2\n      iszero\n      mul\n      swap1\n      mload(0x40)\n      0x00\n      mload(0x40)\n      dup1\n      dup4\n      sub\n      dup2\n      dup6\n      dup9\n      dup9\n      call\n      swap4\n      pop\n      pop\n      pop\n      pop\n      iszero\n      dup1\n      iszero\n      tag_204\n      jumpi\n      returndatasize\n      0x00\n      dup1\n      returndatacopy\n      revert(0x00, returndatasize)\n    tag_204:\n      pop\n        /* \"dapp-project/RoomShare.sol\":3384:3487  function _sendFunds (address owner, uint256 value) internal {... */\n      pop\n      pop\n      jump\t// out\n        /* \"dapp-project/RoomShare.sol\":2560:3380  function _createRent(uint256 _roomId, uint year, uint256 checkInDate, uint256 checkOutDate) internal {... */\n    tag_191:\n        /* \"dapp-project/RoomShare.sol\":3065:3081  Rent memory rent */\n      0x00\n        /* \"dapp-project/RoomShare.sol\":3084:3150  Rent(rentId, _roomId, year, checkInDate, checkOutDate, msg.sender) */\n      mload(0x40)\n      dup1\n      0xc0\n      add\n      0x40\n      mstore\n      dup1\n        /* \"dapp-project/RoomShare.sol\":3089:3095  rentId */\n      sload(0x01)\n        /* \"dapp-project/RoomShare.sol\":3084:3150  Rent(rentId, _roomId, year, checkInDate, checkOutDate, msg.sender) */\n      dup2\n      mstore\n      0x20\n      add\n        /* \"dapp-project/RoomShare.sol\":3097:3104  _roomId */\n      dup7\n        /* \"dapp-project/RoomShare.sol\":3084:3150  Rent(rentId, _roomId, year, checkInDate, checkOutDate, msg.sender) */\n      dup2\n      mstore\n      0x20\n      add\n        /* \"dapp-project/RoomShare.sol\":3106:3110  year */\n      dup6\n        /* \"dapp-project/RoomShare.sol\":3084:3150  Rent(rentId, _roomId, year, checkInDate, checkOutDate, msg.sender) */\n      dup2\n      mstore\n      0x20\n      add\n        /* \"dapp-project/RoomShare.sol\":3112:3123  checkInDate */\n      dup5\n        /* \"dapp-project/RoomShare.sol\":3084:3150  Rent(rentId, _roomId, year, checkInDate, checkOutDate, msg.sender) */\n      dup2\n      mstore\n      0x20\n      add\n        /* \"dapp-project/RoomShare.sol\":3125:3137  checkOutDate */\n      dup4\n        /* \"dapp-project/RoomShare.sol\":3084:3150  Rent(rentId, _roomId, year, checkInDate, checkOutDate, msg.sender) */\n      dup2\n      mstore\n      0x20\n      add\n        /* \"dapp-project/RoomShare.sol\":3139:3149  msg.sender */\n      caller\n        /* \"dapp-project/RoomShare.sol\":3084:3150  Rent(rentId, _roomId, year, checkInDate, checkOutDate, msg.sender) */\n      0xffffffffffffffffffffffffffffffffffffffff\n      and\n      dup2\n      mstore\n      pop\n        /* \"dapp-project/RoomShare.sol\":3065:3150  Rent memory rent = Rent(rentId, _roomId, year, checkInDate, checkOutDate, msg.sender) */\n      swap1\n      pop\n        /* \"dapp-project/RoomShare.sol\":3162:3168  uint i */\n      0x00\n        /* \"dapp-project/RoomShare.sol\":3171:3182  checkInDate */\n      dup4\n        /* \"dapp-project/RoomShare.sol\":3162:3182  uint i = checkInDate */\n      swap1\n      pop\n        /* \"dapp-project/RoomShare.sol\":3157:3255  for (uint i = checkInDate; i < checkOutDate; i++){... */\n    tag_206:\n        /* \"dapp-project/RoomShare.sol\":3188:3200  checkOutDate */\n      dup3\n        /* \"dapp-project/RoomShare.sol\":3184:3185  i */\n      dup2\n        /* \"dapp-project/RoomShare.sol\":3184:3200  i < checkOutDate */\n      lt\n        /* \"dapp-project/RoomShare.sol\":3157:3255  for (uint i = checkInDate; i < checkOutDate; i++){... */\n      iszero\n      tag_207\n      jumpi\n        /* \"dapp-project/RoomShare.sol\":3244:3248  true */\n      0x01\n        /* \"dapp-project/RoomShare.sol\":3214:3220  roomDB */\n      0x02\n        /* \"dapp-project/RoomShare.sol\":3214:3229  roomDB[_roomId] */\n      0x00\n        /* \"dapp-project/RoomShare.sol\":3221:3228  _roomId */\n      dup9\n        /* \"dapp-project/RoomShare.sol\":3214:3229  roomDB[_roomId] */\n      dup2\n      mstore\n      0x20\n      add\n      swap1\n      dup2\n      mstore\n      0x20\n      add\n      0x00\n      keccak256\n        /* \"dapp-project/RoomShare.sol\":3214:3238  roomDB[_roomId].isRented */\n      0x06\n      add\n        /* \"dapp-project/RoomShare.sol\":3239:3240  i */\n      dup3\n        /* \"dapp-project/RoomShare.sol\":3214:3241  roomDB[_roomId].isRented[i] */\n      dup2\n      sload\n      dup2\n      lt\n      tag_209\n      jumpi\n      tag_210\n      tag_110\n      jump\t// in\n    tag_210:\n    tag_209:\n      swap1\n      0x00\n      mstore\n      keccak256(0x00, 0x20)\n      swap1\n      0x20\n      swap2\n      dup3\n      dup3\n      div\n      add\n      swap2\n      swap1\n      mod\n        /* \"dapp-project/RoomShare.sol\":3214:3248  roomDB[_roomId].isRented[i] = true */\n      0x0100\n      exp\n      dup2\n      sload\n      dup2\n      0xff\n      mul\n      not\n      and\n      swap1\n      dup4\n      iszero\n      iszero\n      mul\n      or\n      swap1\n      sstore\n      pop\n        /* \"dapp-project/RoomShare.sol\":3202:3205  i++ */\n      dup1\n      dup1\n      tag_212\n      swap1\n      tag_115\n      jump\t// in\n    tag_212:\n      swap2\n      pop\n      pop\n        /* \"dapp-project/RoomShare.sol\":3157:3255  for (uint i = checkInDate; i < checkOutDate; i++){... */\n      jump(tag_206)\n    tag_207:\n      pop\n        /* \"dapp-project/RoomShare.sol\":3261:3272  rentDB_room */\n      0x03\n        /* \"dapp-project/RoomShare.sol\":3261:3281  rentDB_room[_roomId] */\n      0x00\n        /* \"dapp-project/RoomShare.sol\":3273:3280  _roomId */\n      dup7\n        /* \"dapp-project/RoomShare.sol\":3261:3281  rentDB_room[_roomId] */\n      dup2\n      mstore\n      0x20\n      add\n      swap1\n      dup2\n      mstore\n      0x20\n      add\n      0x00\n      keccak256\n        /* \"dapp-project/RoomShare.sol\":3288:3292  rent */\n      dup2\n        /* \"dapp-project/RoomShare.sol\":3260:3293  (rentDB_room[_roomId]).push(rent) */\n      swap1\n      dup1\n      0x01\n      dup2\n      sload\n      add\n      dup1\n      dup3\n      sstore\n      dup1\n      swap2\n      pop\n      pop\n      0x01\n      swap1\n      sub\n      swap1\n      0x00\n      mstore\n      keccak256(0x00, 0x20)\n      swap1\n      0x06\n      mul\n      add\n      0x00\n      swap1\n      swap2\n      swap1\n      swap2\n      swap1\n      swap2\n      pop\n      0x00\n      dup3\n      add\n      mload\n      dup2\n      0x00\n      add\n      sstore\n      0x20\n      dup3\n      add\n      mload\n      dup2\n      0x01\n      add\n      sstore\n      0x40\n      dup3\n      add\n      mload\n      dup2\n      0x02\n      add\n      sstore\n      0x60\n      dup3\n      add\n      mload\n      dup2\n      0x03\n      add\n      sstore\n      0x80\n      dup3\n      add\n      mload\n      dup2\n      0x04\n      add\n      sstore\n      0xa0\n      dup3\n      add\n      mload\n      dup2\n      0x05\n      add\n      exp(0x0100, 0x00)\n      dup2\n      sload\n      dup2\n      0xffffffffffffffffffffffffffffffffffffffff\n      mul\n      not\n      and\n      swap1\n      dup4\n      0xffffffffffffffffffffffffffffffffffffffff\n      and\n      mul\n      or\n      swap1\n      sstore\n      pop\n      pop\n      pop\n        /* \"dapp-project/RoomShare.sol\":3300:3313  rentDB_renter */\n      0x04\n        /* \"dapp-project/RoomShare.sol\":3300:3325  rentDB_renter[msg.sender] */\n      0x00\n        /* \"dapp-project/RoomShare.sol\":3314:3324  msg.sender */\n      caller\n        /* \"dapp-project/RoomShare.sol\":3300:3325  rentDB_renter[msg.sender] */\n      0xffffffffffffffffffffffffffffffffffffffff\n      and\n      0xffffffffffffffffffffffffffffffffffffffff\n      and\n      dup2\n      mstore\n      0x20\n      add\n      swap1\n      dup2\n      mstore\n      0x20\n      add\n      0x00\n      keccak256\n        /* \"dapp-project/RoomShare.sol\":3332:3336  rent */\n      dup2\n        /* \"dapp-project/RoomShare.sol\":3299:3337  (rentDB_renter[msg.sender]).push(rent) */\n      swap1\n      dup1\n      0x01\n      dup2\n      sload\n      add\n      dup1\n      dup3\n      sstore\n      dup1\n      swap2\n      pop\n      pop\n      0x01\n      swap1\n      sub\n      swap1\n      0x00\n      mstore\n      keccak256(0x00, 0x20)\n      swap1\n      0x06\n      mul\n      add\n      0x00\n      swap1\n      swap2\n      swap1\n      swap2\n      swap1\n      swap2\n      pop\n      0x00\n      dup3\n      add\n      mload\n      dup2\n      0x00\n      add\n      sstore\n      0x20\n      dup3\n      add\n      mload\n      dup2\n      0x01\n      add\n      sstore\n      0x40\n      dup3\n      add\n      mload\n      dup2\n      0x02\n      add\n      sstore\n      0x60\n      dup3\n      add\n      mload\n      dup2\n      0x03\n      add\n      sstore\n      0x80\n      dup3\n      add\n      mload\n      dup2\n      0x04\n      add\n      sstore\n      0xa0\n      dup3\n      add\n      mload\n      dup2\n      0x05\n      add\n      exp(0x0100, 0x00)\n      dup2\n      sload\n      dup2\n      0xffffffffffffffffffffffffffffffffffffffff\n      mul\n      not\n      and\n      swap1\n      dup4\n      0xffffffffffffffffffffffffffffffffffffffff\n      and\n      mul\n      or\n      swap1\n      sstore\n      pop\n      pop\n      pop\n        /* \"dapp-project/RoomShare.sol\":3366:3372  rentId */\n      0x01\n      0x00\n        /* \"dapp-project/RoomShare.sol\":3366:3374  rentId++ */\n      dup2\n      sload\n      dup1\n      swap3\n      swap2\n      swap1\n      tag_215\n      swap1\n      tag_115\n      jump\t// in\n    tag_215:\n      swap2\n      swap1\n      pop\n      sstore\n        /* \"dapp-project/RoomShare.sol\":3357:3364  _roomId */\n      dup6\n        /* \"dapp-project/RoomShare.sol\":3349:3375  NewRent(_roomId, rentId++) */\n      0x84bad6e347d9aff08a38e6eb90827c7999f70bfaf3b0acbe288f512801b9c139\n      mload(0x40)\n      mload(0x40)\n      dup1\n      swap2\n      sub\n      swap1\n      log3\n        /* \"dapp-project/RoomShare.sol\":2661:3380  {... */\n      pop\n        /* \"dapp-project/RoomShare.sol\":2560:3380  function _createRent(uint256 _roomId, uint year, uint256 checkInDate, uint256 checkOutDate) internal {... */\n      pop\n      pop\n      pop\n      pop\n      jump\t// out\n    tag_90:\n      mload(0x40)\n      dup1\n      0x40\n      add\n      0x40\n      mstore\n      dup1\n      0x02\n      swap1\n      0x20\n      dup3\n      mul\n      dup1\n      calldatasize\n      dup4\n      calldatacopy\n      dup1\n      dup3\n      add\n      swap2\n      pop\n      pop\n      swap1\n      pop\n      pop\n      swap1\n      jump\t// out\n    tag_139:\n      dup3\n      dup1\n      sload\n      tag_216\n      swap1\n      tag_79\n      jump\t// in\n    tag_216:\n      swap1\n      0x00\n      mstore\n      keccak256(0x00, 0x20)\n      swap1\n      0x1f\n      add\n      0x20\n      swap1\n      div\n      dup2\n      add\n      swap3\n      dup3\n      tag_218\n      jumpi\n      0x00\n      dup6\n      sstore\n      jump(tag_217)\n    tag_218:\n      dup3\n      0x1f\n      lt\n      tag_219\n      jumpi\n      dup1\n      mload\n      not(0xff)\n      and\n      dup4\n      dup1\n      add\n      or\n      dup6\n      sstore\n      jump(tag_217)\n    tag_219:\n      dup3\n      dup1\n      add\n      0x01\n      add\n      dup6\n      sstore\n      dup3\n      iszero\n      tag_217\n      jumpi\n      swap2\n      dup3\n      add\n    tag_220:\n      dup3\n      dup2\n      gt\n      iszero\n      tag_221\n      jumpi\n      dup3\n      mload\n      dup3\n      sstore\n      swap2\n      0x20\n      add\n      swap2\n      swap1\n      0x01\n      add\n      swap1\n      jump(tag_220)\n    tag_221:\n    tag_217:\n      pop\n      swap1\n      pop\n      tag_222\n      swap2\n      swap1\n      tag_223\n      jump\t// in\n    tag_222:\n      pop\n      swap1\n      jump\t// out\n    tag_142:\n      dup3\n      dup1\n      sload\n      dup3\n      dup3\n      sstore\n      swap1\n      0x00\n      mstore\n      keccak256(0x00, 0x20)\n      swap1\n      0x1f\n      add\n      0x20\n      swap1\n      div\n      dup2\n      add\n      swap3\n      dup3\n      iszero\n      tag_224\n      jumpi\n      swap2\n      0x20\n      mul\n      dup3\n      add\n      0x00\n    tag_225:\n      dup4\n      dup3\n      gt\n      iszero\n      tag_226\n      jumpi\n      dup4\n      mload\n      dup4\n      dup3\n      0x0100\n      exp\n      dup2\n      sload\n      dup2\n      0xff\n      mul\n      not\n      and\n      swap1\n      dup4\n      iszero\n      iszero\n      mul\n      or\n      swap1\n      sstore\n      pop\n      swap3\n      0x20\n      add\n      swap3\n      0x01\n      add\n      0x20\n      dup2\n      0x00\n      add\n      div\n      swap3\n      dup4\n      add\n      swap3\n      0x01\n      sub\n      mul\n      jump(tag_225)\n    tag_226:\n      dup1\n      iszero\n      tag_227\n      jumpi\n      dup3\n      dup2\n      0x0100\n      exp\n      dup2\n      sload\n      swap1\n      0xff\n      mul\n      not\n      and\n      swap1\n      sstore\n      0x01\n      add\n      0x20\n      dup2\n      0x00\n      add\n      div\n      swap3\n      dup4\n      add\n      swap3\n      0x01\n      sub\n      mul\n      jump(tag_226)\n    tag_227:\n      pop\n    tag_224:\n      pop\n      swap1\n      pop\n      tag_228\n      swap2\n      swap1\n      tag_223\n      jump\t// in\n    tag_228:\n      pop\n      swap1\n      jump\t// out\n    tag_223:\n    tag_229:\n      dup1\n      dup3\n      gt\n      iszero\n      tag_230\n      jumpi\n      0x00\n      dup2\n      0x00\n      swap1\n      sstore\n      pop\n      0x01\n      add\n      jump(tag_229)\n    tag_230:\n      pop\n      swap1\n      jump\t// out\n        /* \"#utility.yul\":7:146   */\n    tag_232:\n        /* \"#utility.yul\":53:58   */\n      0x00\n        /* \"#utility.yul\":91:97   */\n      dup2\n        /* \"#utility.yul\":78:98   */\n      calldataload\n        /* \"#utility.yul\":69:98   */\n      swap1\n      pop\n        /* \"#utility.yul\":107:140   */\n      tag_234\n        /* \"#utility.yul\":134:139   */\n      dup2\n        /* \"#utility.yul\":107:140   */\n      tag_235\n      jump\t// in\n    tag_234:\n        /* \"#utility.yul\":7:146   */\n      swap3\n      swap2\n      pop\n      pop\n      jump\t// out\n        /* \"#utility.yul\":166:719   */\n    tag_236:\n        /* \"#utility.yul\":224:232   */\n      0x00\n        /* \"#utility.yul\":234:240   */\n      dup1\n        /* \"#utility.yul\":284:287   */\n      dup4\n        /* \"#utility.yul\":277:281   */\n      0x1f\n        /* \"#utility.yul\":269:275   */\n      dup5\n        /* \"#utility.yul\":265:282   */\n      add\n        /* \"#utility.yul\":261:288   */\n      slt\n        /* \"#utility.yul\":251:373   */\n      tag_238\n      jumpi\n        /* \"#utility.yul\":292:371   */\n      tag_239\n      tag_240\n      jump\t// in\n    tag_239:\n        /* \"#utility.yul\":251:373   */\n    tag_238:\n        /* \"#utility.yul\":405:411   */\n      dup3\n        /* \"#utility.yul\":392:412   */\n      calldataload\n        /* \"#utility.yul\":382:412   */\n      swap1\n      pop\n        /* \"#utility.yul\":435:453   */\n      0xffffffffffffffff\n        /* \"#utility.yul\":427:433   */\n      dup2\n        /* \"#utility.yul\":424:454   */\n      gt\n        /* \"#utility.yul\":421:538   */\n      iszero\n      tag_241\n      jumpi\n        /* \"#utility.yul\":457:536   */\n      tag_242\n      tag_243\n      jump\t// in\n    tag_242:\n        /* \"#utility.yul\":421:538   */\n    tag_241:\n        /* \"#utility.yul\":571:575   */\n      0x20\n        /* \"#utility.yul\":563:569   */\n      dup4\n        /* \"#utility.yul\":559:576   */\n      add\n        /* \"#utility.yul\":547:576   */\n      swap2\n      pop\n        /* \"#utility.yul\":625:628   */\n      dup4\n        /* \"#utility.yul\":617:621   */\n      0x01\n        /* \"#utility.yul\":609:615   */\n      dup3\n        /* \"#utility.yul\":605:622   */\n      mul\n        /* \"#utility.yul\":595:603   */\n      dup4\n        /* \"#utility.yul\":591:623   */\n      add\n        /* \"#utility.yul\":588:629   */\n      gt\n        /* \"#utility.yul\":585:713   */\n      iszero\n      tag_244\n      jumpi\n        /* \"#utility.yul\":632:711   */\n      tag_245\n      tag_246\n      jump\t// in\n    tag_245:\n        /* \"#utility.yul\":585:713   */\n    tag_244:\n        /* \"#utility.yul\":166:719   */\n      swap3\n      pop\n      swap3\n      swap1\n      pop\n      jump\t// out\n        /* \"#utility.yul\":725:864   */\n    tag_247:\n        /* \"#utility.yul\":771:776   */\n      0x00\n        /* \"#utility.yul\":809:815   */\n      dup2\n        /* \"#utility.yul\":796:816   */\n      calldataload\n        /* \"#utility.yul\":787:816   */\n      swap1\n      pop\n        /* \"#utility.yul\":825:858   */\n      tag_249\n        /* \"#utility.yul\":852:857   */\n      dup2\n        /* \"#utility.yul\":825:858   */\n      tag_250\n      jump\t// in\n    tag_249:\n        /* \"#utility.yul\":725:864   */\n      swap3\n      swap2\n      pop\n      pop\n      jump\t// out\n        /* \"#utility.yul\":870:1344   */\n    tag_46:\n        /* \"#utility.yul\":938:944   */\n      0x00\n        /* \"#utility.yul\":946:952   */\n      dup1\n        /* \"#utility.yul\":995:997   */\n      0x40\n        /* \"#utility.yul\":983:992   */\n      dup4\n        /* \"#utility.yul\":974:981   */\n      dup6\n        /* \"#utility.yul\":970:993   */\n      sub\n        /* \"#utility.yul\":966:998   */\n      slt\n        /* \"#utility.yul\":963:1082   */\n      iszero\n      tag_252\n      jumpi\n        /* \"#utility.yul\":1001:1080   */\n      tag_253\n      tag_254\n      jump\t// in\n    tag_253:\n        /* \"#utility.yul\":963:1082   */\n    tag_252:\n        /* \"#utility.yul\":1121:1122   */\n      0x00\n        /* \"#utility.yul\":1146:1199   */\n      tag_255\n        /* \"#utility.yul\":1191:1198   */\n      dup6\n        /* \"#utility.yul\":1182:1188   */\n      dup3\n        /* \"#utility.yul\":1171:1180   */\n      dup7\n        /* \"#utility.yul\":1167:1189   */\n      add\n        /* \"#utility.yul\":1146:1199   */\n      tag_232\n      jump\t// in\n    tag_255:\n        /* \"#utility.yul\":1136:1199   */\n      swap3\n      pop\n        /* \"#utility.yul\":1092:1209   */\n      pop\n        /* \"#utility.yul\":1248:1250   */\n      0x20\n        /* \"#utility.yul\":1274:1327   */\n      tag_256\n        /* \"#utility.yul\":1319:1326   */\n      dup6\n        /* \"#utility.yul\":1310:1316   */\n      dup3\n        /* \"#utility.yul\":1299:1308   */\n      dup7\n        /* \"#utility.yul\":1295:1317   */\n      add\n        /* \"#utility.yul\":1274:1327   */\n      tag_247\n      jump\t// in\n    tag_256:\n        /* \"#utility.yul\":1264:1327   */\n      swap2\n      pop\n        /* \"#utility.yul\":1219:1337   */\n      pop\n        /* \"#utility.yul\":870:1344   */\n      swap3\n      pop\n      swap3\n      swap1\n      pop\n      jump\t// out\n        /* \"#utility.yul\":1350:2369   */\n    tag_41:\n        /* \"#utility.yul\":1451:1457   */\n      0x00\n        /* \"#utility.yul\":1459:1465   */\n      dup1\n        /* \"#utility.yul\":1467:1473   */\n      0x00\n        /* \"#utility.yul\":1475:1481   */\n      dup1\n        /* \"#utility.yul\":1483:1489   */\n      0x00\n        /* \"#utility.yul\":1532:1534   */\n      0x60\n        /* \"#utility.yul\":1520:1529   */\n      dup7\n        /* \"#utility.yul\":1511:1518   */\n      dup9\n        /* \"#utility.yul\":1507:1530   */\n      sub\n        /* \"#utility.yul\":1503:1535   */\n      slt\n        /* \"#utility.yul\":1500:1619   */\n      iszero\n      tag_258\n      jumpi\n        /* \"#utility.yul\":1538:1617   */\n      tag_259\n      tag_254\n      jump\t// in\n    tag_259:\n        /* \"#utility.yul\":1500:1619   */\n    tag_258:\n        /* \"#utility.yul\":1686:1687   */\n      0x00\n        /* \"#utility.yul\":1675:1684   */\n      dup7\n        /* \"#utility.yul\":1671:1688   */\n      add\n        /* \"#utility.yul\":1658:1689   */\n      calldataload\n        /* \"#utility.yul\":1716:1734   */\n      0xffffffffffffffff\n        /* \"#utility.yul\":1708:1714   */\n      dup2\n        /* \"#utility.yul\":1705:1735   */\n      gt\n        /* \"#utility.yul\":1702:1819   */\n      iszero\n      tag_260\n      jumpi\n        /* \"#utility.yul\":1738:1817   */\n      tag_261\n      tag_262\n      jump\t// in\n    tag_261:\n        /* \"#utility.yul\":1702:1819   */\n    tag_260:\n        /* \"#utility.yul\":1851:1916   */\n      tag_263\n        /* \"#utility.yul\":1908:1915   */\n      dup9\n        /* \"#utility.yul\":1899:1905   */\n      dup3\n        /* \"#utility.yul\":1888:1897   */\n      dup10\n        /* \"#utility.yul\":1884:1906   */\n      add\n        /* \"#utility.yul\":1851:1916   */\n      tag_236\n      jump\t// in\n    tag_263:\n        /* \"#utility.yul\":1833:1916   */\n      swap6\n      pop\n      swap6\n      pop\n        /* \"#utility.yul\":1629:1926   */\n      pop\n        /* \"#utility.yul\":1993:1995   */\n      0x20\n        /* \"#utility.yul\":1982:1991   */\n      dup7\n        /* \"#utility.yul\":1978:1996   */\n      add\n        /* \"#utility.yul\":1965:1997   */\n      calldataload\n        /* \"#utility.yul\":2024:2042   */\n      0xffffffffffffffff\n        /* \"#utility.yul\":2016:2022   */\n      dup2\n        /* \"#utility.yul\":2013:2043   */\n      gt\n        /* \"#utility.yul\":2010:2127   */\n      iszero\n      tag_264\n      jumpi\n        /* \"#utility.yul\":2046:2125   */\n      tag_265\n      tag_262\n      jump\t// in\n    tag_265:\n        /* \"#utility.yul\":2010:2127   */\n    tag_264:\n        /* \"#utility.yul\":2159:2224   */\n      tag_266\n        /* \"#utility.yul\":2216:2223   */\n      dup9\n        /* \"#utility.yul\":2207:2213   */\n      dup3\n        /* \"#utility.yul\":2196:2205   */\n      dup10\n        /* \"#utility.yul\":2192:2214   */\n      add\n        /* \"#utility.yul\":2159:2224   */\n      tag_236\n      jump\t// in\n    tag_266:\n        /* \"#utility.yul\":2141:2224   */\n      swap4\n      pop\n      swap4\n      pop\n        /* \"#utility.yul\":1936:2234   */\n      pop\n        /* \"#utility.yul\":2273:2275   */\n      0x40\n        /* \"#utility.yul\":2299:2352   */\n      tag_267\n        /* \"#utility.yul\":2344:2351   */\n      dup9\n        /* \"#utility.yul\":2335:2341   */\n      dup3\n        /* \"#utility.yul\":2324:2333   */\n      dup10\n        /* \"#utility.yul\":2320:2342   */\n      add\n        /* \"#utility.yul\":2299:2352   */\n      tag_247\n      jump\t// in\n    tag_267:\n        /* \"#utility.yul\":2289:2352   */\n      swap2\n      pop\n        /* \"#utility.yul\":2244:2362   */\n      pop\n        /* \"#utility.yul\":1350:2369   */\n      swap3\n      swap6\n      pop\n      swap3\n      swap6\n      swap1\n      swap4\n      pop\n      jump\t// out\n        /* \"#utility.yul\":2375:2704   */\n    tag_18:\n        /* \"#utility.yul\":2434:2440   */\n      0x00\n        /* \"#utility.yul\":2483:2485   */\n      0x20\n        /* \"#utility.yul\":2471:2480   */\n      dup3\n        /* \"#utility.yul\":2462:2469   */\n      dup5\n        /* \"#utility.yul\":2458:2481   */\n      sub\n        /* \"#utility.yul\":2454:2486   */\n      slt\n        /* \"#utility.yul\":2451:2570   */\n      iszero\n      tag_269\n      jumpi\n        /* \"#utility.yul\":2489:2568   */\n      tag_270\n      tag_254\n      jump\t// in\n    tag_270:\n        /* \"#utility.yul\":2451:2570   */\n    tag_269:\n        /* \"#utility.yul\":2609:2610   */\n      0x00\n        /* \"#utility.yul\":2634:2687   */\n      tag_271\n        /* \"#utility.yul\":2679:2686   */\n      dup5\n        /* \"#utility.yul\":2670:2676   */\n      dup3\n        /* \"#utility.yul\":2659:2668   */\n      dup6\n        /* \"#utility.yul\":2655:2677   */\n      add\n        /* \"#utility.yul\":2634:2687   */\n      tag_247\n      jump\t// in\n    tag_271:\n        /* \"#utility.yul\":2624:2687   */\n      swap2\n      pop\n        /* \"#utility.yul\":2580:2697   */\n      pop\n        /* \"#utility.yul\":2375:2704   */\n      swap3\n      swap2\n      pop\n      pop\n      jump\t// out\n        /* \"#utility.yul\":2710:3184   */\n    tag_53:\n        /* \"#utility.yul\":2778:2784   */\n      0x00\n        /* \"#utility.yul\":2786:2792   */\n      dup1\n        /* \"#utility.yul\":2835:2837   */\n      0x40\n        /* \"#utility.yul\":2823:2832   */\n      dup4\n        /* \"#utility.yul\":2814:2821   */\n      dup6\n        /* \"#utility.yul\":2810:2833   */\n      sub\n        /* \"#utility.yul\":2806:2838   */\n      slt\n        /* \"#utility.yul\":2803:2922   */\n      iszero\n      tag_273\n      jumpi\n        /* \"#utility.yul\":2841:2920   */\n      tag_274\n      tag_254\n      jump\t// in\n    tag_274:\n        /* \"#utility.yul\":2803:2922   */\n    tag_273:\n        /* \"#utility.yul\":2961:2962   */\n      0x00\n        /* \"#utility.yul\":2986:3039   */\n      tag_275\n        /* \"#utility.yul\":3031:3038   */\n      dup6\n        /* \"#utility.yul\":3022:3028   */\n      dup3\n        /* \"#utility.yul\":3011:3020   */\n      dup7\n        /* \"#utility.yul\":3007:3029   */\n      add\n        /* \"#utility.yul\":2986:3039   */\n      tag_247\n      jump\t// in\n    tag_275:\n        /* \"#utility.yul\":2976:3039   */\n      swap3\n      pop\n        /* \"#utility.yul\":2932:3049   */\n      pop\n        /* \"#utility.yul\":3088:3090   */\n      0x20\n        /* \"#utility.yul\":3114:3167   */\n      tag_276\n        /* \"#utility.yul\":3159:3166   */\n      dup6\n        /* \"#utility.yul\":3150:3156   */\n      dup3\n        /* \"#utility.yul\":3139:3148   */\n      dup7\n        /* \"#utility.yul\":3135:3157   */\n      add\n        /* \"#utility.yul\":3114:3167   */\n      tag_247\n      jump\t// in\n    tag_276:\n        /* \"#utility.yul\":3104:3167   */\n      swap2\n      pop\n        /* \"#utility.yul\":3059:3177   */\n      pop\n        /* \"#utility.yul\":2710:3184   */\n      swap3\n      pop\n      swap3\n      swap1\n      pop\n      jump\t// out\n        /* \"#utility.yul\":3190:3809   */\n    tag_25:\n        /* \"#utility.yul\":3267:3273   */\n      0x00\n        /* \"#utility.yul\":3275:3281   */\n      dup1\n        /* \"#utility.yul\":3283:3289   */\n      0x00\n        /* \"#utility.yul\":3332:3334   */\n      0x60\n        /* \"#utility.yul\":3320:3329   */\n      dup5\n        /* \"#utility.yul\":3311:3318   */\n      dup7\n        /* \"#utility.yul\":3307:3330   */\n      sub\n        /* \"#utility.yul\":3303:3335   */\n      slt\n        /* \"#utility.yul\":3300:3419   */\n      iszero\n      tag_278\n      jumpi\n        /* \"#utility.yul\":3338:3417   */\n      tag_279\n      tag_254\n      jump\t// in\n    tag_279:\n        /* \"#utility.yul\":3300:3419   */\n    tag_278:\n        /* \"#utility.yul\":3458:3459   */\n      0x00\n        /* \"#utility.yul\":3483:3536   */\n      tag_280\n        /* \"#utility.yul\":3528:3535   */\n      dup7\n        /* \"#utility.yul\":3519:3525   */\n      dup3\n        /* \"#utility.yul\":3508:3517   */\n      dup8\n        /* \"#utility.yul\":3504:3526   */\n      add\n        /* \"#utility.yul\":3483:3536   */\n      tag_247\n      jump\t// in\n    tag_280:\n        /* \"#utility.yul\":3473:3536   */\n      swap4\n      pop\n        /* \"#utility.yul\":3429:3546   */\n      pop\n        /* \"#utility.yul\":3585:3587   */\n      0x20\n        /* \"#utility.yul\":3611:3664   */\n      tag_281\n        /* \"#utility.yul\":3656:3663   */\n      dup7\n        /* \"#utility.yul\":3647:3653   */\n      dup3\n        /* \"#utility.yul\":3636:3645   */\n      dup8\n        /* \"#utility.yul\":3632:3654   */\n      add\n        /* \"#utility.yul\":3611:3664   */\n      tag_247\n      jump\t// in\n    tag_281:\n        /* \"#utility.yul\":3601:3664   */\n      swap3\n      pop\n        /* \"#utility.yul\":3556:3674   */\n      pop\n        /* \"#utility.yul\":3713:3715   */\n      0x40\n        /* \"#utility.yul\":3739:3792   */\n      tag_282\n        /* \"#utility.yul\":3784:3791   */\n      dup7\n        /* \"#utility.yul\":3775:3781   */\n      dup3\n        /* \"#utility.yul\":3764:3773   */\n      dup8\n        /* \"#utility.yul\":3760:3782   */\n      add\n        /* \"#utility.yul\":3739:3792   */\n      tag_247\n      jump\t// in\n    tag_282:\n        /* \"#utility.yul\":3729:3792   */\n      swap2\n      pop\n        /* \"#utility.yul\":3684:3802   */\n      pop\n        /* \"#utility.yul\":3190:3809   */\n      swap3\n      pop\n      swap3\n      pop\n      swap3\n      jump\t// out\n        /* \"#utility.yul\":3815:4580   */\n    tag_68:\n        /* \"#utility.yul\":3901:3907   */\n      0x00\n        /* \"#utility.yul\":3909:3915   */\n      dup1\n        /* \"#utility.yul\":3917:3923   */\n      0x00\n        /* \"#utility.yul\":3925:3931   */\n      dup1\n        /* \"#utility.yul\":3974:3977   */\n      0x80\n        /* \"#utility.yul\":3962:3971   */\n      dup6\n        /* \"#utility.yul\":3953:3960   */\n      dup8\n        /* \"#utility.yul\":3949:3972   */\n      sub\n        /* \"#utility.yul\":3945:3978   */\n      slt\n        /* \"#utility.yul\":3942:4062   */\n      iszero\n      tag_284\n      jumpi\n        /* \"#utility.yul\":3981:4060   */\n      tag_285\n      tag_254\n      jump\t// in\n    tag_285:\n        /* \"#utility.yul\":3942:4062   */\n    tag_284:\n        /* \"#utility.yul\":4101:4102   */\n      0x00\n        /* \"#utility.yul\":4126:4179   */\n      tag_286\n        /* \"#utility.yul\":4171:4178   */\n      dup8\n        /* \"#utility.yul\":4162:4168   */\n      dup3\n        /* \"#utility.yul\":4151:4160   */\n      dup9\n        /* \"#utility.yul\":4147:4169   */\n      add\n        /* \"#utility.yul\":4126:4179   */\n      tag_247\n      jump\t// in\n    tag_286:\n        /* \"#utility.yul\":4116:4179   */\n      swap5\n      pop\n        /* \"#utility.yul\":4072:4189   */\n      pop\n        /* \"#utility.yul\":4228:4230   */\n      0x20\n        /* \"#utility.yul\":4254:4307   */\n      tag_287\n        /* \"#utility.yul\":4299:4306   */\n      dup8\n        /* \"#utility.yul\":4290:4296   */\n      dup3\n        /* \"#utility.yul\":4279:4288   */\n      dup9\n        /* \"#utility.yul\":4275:4297   */\n      add\n        /* \"#utility.yul\":4254:4307   */\n      tag_247\n      jump\t// in\n    tag_287:\n        /* \"#utility.yul\":4244:4307   */\n      swap4\n      pop\n        /* \"#utility.yul\":4199:4317   */\n      pop\n        /* \"#utility.yul\":4356:4358   */\n      0x40\n        /* \"#utility.yul\":4382:4435   */\n      tag_288\n        /* \"#utility.yul\":4427:4434   */\n      dup8\n        /* \"#utility.yul\":4418:4424   */\n      dup3\n        /* \"#utility.yul\":4407:4416   */\n      dup9\n        /* \"#utility.yul\":4403:4425   */\n      add\n        /* \"#utility.yul\":4382:4435   */\n      tag_247\n      jump\t// in\n    tag_288:\n        /* \"#utility.yul\":4372:4435   */\n      swap3\n      pop\n        /* \"#utility.yul\":4327:4445   */\n      pop\n        /* \"#utility.yul\":4484:4486   */\n      0x60\n        /* \"#utility.yul\":4510:4563   */\n      tag_289\n        /* \"#utility.yul\":4555:4562   */\n      dup8\n        /* \"#utility.yul\":4546:4552   */\n      dup3\n        /* \"#utility.yul\":4535:4544   */\n      dup9\n        /* \"#utility.yul\":4531:4553   */\n      add\n        /* \"#utility.yul\":4510:4563   */\n      tag_247\n      jump\t// in\n    tag_289:\n        /* \"#utility.yul\":4500:4563   */\n      swap2\n      pop\n        /* \"#utility.yul\":4455:4573   */\n      pop\n        /* \"#utility.yul\":3815:4580   */\n      swap3\n      swap6\n      swap2\n      swap5\n      pop\n      swap3\n      pop\n      jump\t// out\n        /* \"#utility.yul\":4586:4845   */\n    tag_290:\n        /* \"#utility.yul\":4695:4705   */\n      0x00\n        /* \"#utility.yul\":4716:4802   */\n      tag_292\n        /* \"#utility.yul\":4798:4801   */\n      dup4\n        /* \"#utility.yul\":4790:4796   */\n      dup4\n        /* \"#utility.yul\":4716:4802   */\n      tag_293\n      jump\t// in\n    tag_292:\n        /* \"#utility.yul\":4834:4838   */\n      0xc0\n        /* \"#utility.yul\":4829:4832   */\n      dup4\n        /* \"#utility.yul\":4825:4839   */\n      add\n        /* \"#utility.yul\":4811:4839   */\n      swap1\n      pop\n        /* \"#utility.yul\":4586:4845   */\n      swap3\n      swap2\n      pop\n      pop\n      jump\t// out\n        /* \"#utility.yul\":4851:5030   */\n    tag_294:\n        /* \"#utility.yul\":4920:4930   */\n      0x00\n        /* \"#utility.yul\":4941:4987   */\n      tag_296\n        /* \"#utility.yul\":4983:4986   */\n      dup4\n        /* \"#utility.yul\":4975:4981   */\n      dup4\n        /* \"#utility.yul\":4941:4987   */\n      tag_297\n      jump\t// in\n    tag_296:\n        /* \"#utility.yul\":5019:5023   */\n      0x20\n        /* \"#utility.yul\":5014:5017   */\n      dup4\n        /* \"#utility.yul\":5010:5024   */\n      add\n        /* \"#utility.yul\":4996:5024   */\n      swap1\n      pop\n        /* \"#utility.yul\":4851:5030   */\n      swap3\n      swap2\n      pop\n      pop\n      jump\t// out\n        /* \"#utility.yul\":5036:5144   */\n    tag_298:\n        /* \"#utility.yul\":5113:5137   */\n      tag_300\n        /* \"#utility.yul\":5131:5136   */\n      dup2\n        /* \"#utility.yul\":5113:5137   */\n      tag_301\n      jump\t// in\n    tag_300:\n        /* \"#utility.yul\":5108:5111   */\n      dup3\n        /* \"#utility.yul\":5101:5138   */\n      mstore\n        /* \"#utility.yul\":5036:5144   */\n      pop\n      pop\n      jump\t// out\n        /* \"#utility.yul\":5150:5268   */\n    tag_302:\n        /* \"#utility.yul\":5237:5261   */\n      tag_304\n        /* \"#utility.yul\":5255:5260   */\n      dup2\n        /* \"#utility.yul\":5237:5261   */\n      tag_301\n      jump\t// in\n    tag_304:\n        /* \"#utility.yul\":5232:5235   */\n      dup3\n        /* \"#utility.yul\":5225:5262   */\n      mstore\n        /* \"#utility.yul\":5150:5268   */\n      pop\n      pop\n      jump\t// out\n        /* \"#utility.yul\":5334:6226   */\n    tag_305:\n        /* \"#utility.yul\":5493:5496   */\n      0x00\n        /* \"#utility.yul\":5522:5596   */\n      tag_307\n        /* \"#utility.yul\":5590:5595   */\n      dup3\n        /* \"#utility.yul\":5522:5596   */\n      tag_308\n      jump\t// in\n    tag_307:\n        /* \"#utility.yul\":5612:5718   */\n      tag_309\n        /* \"#utility.yul\":5711:5717   */\n      dup2\n        /* \"#utility.yul\":5706:5709   */\n      dup6\n        /* \"#utility.yul\":5612:5718   */\n      tag_310\n      jump\t// in\n    tag_309:\n        /* \"#utility.yul\":5605:5718   */\n      swap4\n      pop\n        /* \"#utility.yul\":5742:5818   */\n      tag_311\n        /* \"#utility.yul\":5812:5817   */\n      dup4\n        /* \"#utility.yul\":5742:5818   */\n      tag_312\n      jump\t// in\n    tag_311:\n        /* \"#utility.yul\":5841:5848   */\n      dup1\n        /* \"#utility.yul\":5872:5873   */\n      0x00\n        /* \"#utility.yul\":5857:6201   */\n    tag_313:\n        /* \"#utility.yul\":5882:5888   */\n      dup4\n        /* \"#utility.yul\":5879:5880   */\n      dup2\n        /* \"#utility.yul\":5876:5889   */\n      lt\n        /* \"#utility.yul\":5857:6201   */\n      iszero\n      tag_315\n      jumpi\n        /* \"#utility.yul\":5958:5964   */\n      dup2\n        /* \"#utility.yul\":5952:5965   */\n      mload\n        /* \"#utility.yul\":5985:6088   */\n      tag_316\n        /* \"#utility.yul\":6084:6087   */\n      dup9\n        /* \"#utility.yul\":6069:6082   */\n      dup3\n        /* \"#utility.yul\":5985:6088   */\n      tag_290\n      jump\t// in\n    tag_316:\n        /* \"#utility.yul\":5978:6088   */\n      swap8\n      pop\n        /* \"#utility.yul\":6111:6191   */\n      tag_317\n        /* \"#utility.yul\":6184:6190   */\n      dup4\n        /* \"#utility.yul\":6111:6191   */\n      tag_318\n      jump\t// in\n    tag_317:\n        /* \"#utility.yul\":6101:6191   */\n      swap3\n      pop\n        /* \"#utility.yul\":5917:6201   */\n      pop\n        /* \"#utility.yul\":5904:5905   */\n      0x01\n        /* \"#utility.yul\":5901:5902   */\n      dup2\n        /* \"#utility.yul\":5897:5906   */\n      add\n        /* \"#utility.yul\":5892:5906   */\n      swap1\n      pop\n        /* \"#utility.yul\":5857:6201   */\n      jump(tag_313)\n    tag_315:\n        /* \"#utility.yul\":5861:5875   */\n      pop\n        /* \"#utility.yul\":6217:6220   */\n      dup6\n        /* \"#utility.yul\":6210:6220   */\n      swap4\n      pop\n        /* \"#utility.yul\":5498:6226   */\n      pop\n      pop\n      pop\n        /* \"#utility.yul\":5334:6226   */\n      swap3\n      swap2\n      pop\n      pop\n      jump\t// out\n        /* \"#utility.yul\":6264:6958   */\n    tag_319:\n        /* \"#utility.yul\":6400:6452   */\n      tag_321\n        /* \"#utility.yul\":6446:6451   */\n      dup2\n        /* \"#utility.yul\":6400:6452   */\n      tag_322\n      jump\t// in\n    tag_321:\n        /* \"#utility.yul\":6468:6552   */\n      tag_323\n        /* \"#utility.yul\":6545:6551   */\n      dup2\n        /* \"#utility.yul\":6540:6543   */\n      dup5\n        /* \"#utility.yul\":6468:6552   */\n      tag_324\n      jump\t// in\n    tag_323:\n        /* \"#utility.yul\":6461:6552   */\n      swap3\n      pop\n        /* \"#utility.yul\":6576:6630   */\n      tag_325\n        /* \"#utility.yul\":6624:6629   */\n      dup3\n        /* \"#utility.yul\":6576:6630   */\n      tag_326\n      jump\t// in\n    tag_325:\n        /* \"#utility.yul\":6653:6660   */\n      dup1\n        /* \"#utility.yul\":6684:6685   */\n      0x00\n        /* \"#utility.yul\":6669:6951   */\n    tag_327:\n        /* \"#utility.yul\":6694:6700   */\n      dup4\n        /* \"#utility.yul\":6691:6692   */\n      dup2\n        /* \"#utility.yul\":6688:6701   */\n      lt\n        /* \"#utility.yul\":6669:6951   */\n      iszero\n      tag_329\n      jumpi\n        /* \"#utility.yul\":6770:6776   */\n      dup2\n        /* \"#utility.yul\":6764:6777   */\n      mload\n        /* \"#utility.yul\":6797:6860   */\n      tag_330\n        /* \"#utility.yul\":6856:6859   */\n      dup8\n        /* \"#utility.yul\":6841:6854   */\n      dup3\n        /* \"#utility.yul\":6797:6860   */\n      tag_294\n      jump\t// in\n    tag_330:\n        /* \"#utility.yul\":6790:6860   */\n      swap7\n      pop\n        /* \"#utility.yul\":6883:6941   */\n      tag_331\n        /* \"#utility.yul\":6934:6940   */\n      dup4\n        /* \"#utility.yul\":6883:6941   */\n      tag_332\n      jump\t// in\n    tag_331:\n        /* \"#utility.yul\":6873:6941   */\n      swap3\n      pop\n        /* \"#utility.yul\":6729:6951   */\n      pop\n        /* \"#utility.yul\":6716:6717   */\n      0x01\n        /* \"#utility.yul\":6713:6714   */\n      dup2\n        /* \"#utility.yul\":6709:6718   */\n      add\n        /* \"#utility.yul\":6704:6718   */\n      swap1\n      pop\n        /* \"#utility.yul\":6669:6951   */\n      jump(tag_327)\n    tag_329:\n        /* \"#utility.yul\":6673:6687   */\n      pop\n        /* \"#utility.yul\":6376:6958   */\n      pop\n      pop\n      pop\n        /* \"#utility.yul\":6264:6958   */\n      pop\n      pop\n      jump\t// out\n        /* \"#utility.yul\":6964:7073   */\n    tag_333:\n        /* \"#utility.yul\":7045:7066   */\n      tag_335\n        /* \"#utility.yul\":7060:7065   */\n      dup2\n        /* \"#utility.yul\":7045:7066   */\n      tag_336\n      jump\t// in\n    tag_335:\n        /* \"#utility.yul\":7040:7043   */\n      dup3\n        /* \"#utility.yul\":7033:7067   */\n      mstore\n        /* \"#utility.yul\":6964:7073   */\n      pop\n      pop\n      jump\t// out\n        /* \"#utility.yul\":7079:7443   */\n    tag_337:\n        /* \"#utility.yul\":7167:7170   */\n      0x00\n        /* \"#utility.yul\":7195:7234   */\n      tag_339\n        /* \"#utility.yul\":7228:7233   */\n      dup3\n        /* \"#utility.yul\":7195:7234   */\n      tag_340\n      jump\t// in\n    tag_339:\n        /* \"#utility.yul\":7250:7321   */\n      tag_341\n        /* \"#utility.yul\":7314:7320   */\n      dup2\n        /* \"#utility.yul\":7309:7312   */\n      dup6\n        /* \"#utility.yul\":7250:7321   */\n      tag_342\n      jump\t// in\n    tag_341:\n        /* \"#utility.yul\":7243:7321   */\n      swap4\n      pop\n        /* \"#utility.yul\":7330:7382   */\n      tag_343\n        /* \"#utility.yul\":7375:7381   */\n      dup2\n        /* \"#utility.yul\":7370:7373   */\n      dup6\n        /* \"#utility.yul\":7363:7367   */\n      0x20\n        /* \"#utility.yul\":7356:7361   */\n      dup7\n        /* \"#utility.yul\":7352:7368   */\n      add\n        /* \"#utility.yul\":7330:7382   */\n      tag_344\n      jump\t// in\n    tag_343:\n        /* \"#utility.yul\":7407:7436   */\n      tag_345\n        /* \"#utility.yul\":7429:7435   */\n      dup2\n        /* \"#utility.yul\":7407:7436   */\n      tag_346\n      jump\t// in\n    tag_345:\n        /* \"#utility.yul\":7402:7405   */\n      dup5\n        /* \"#utility.yul\":7398:7437   */\n      add\n        /* \"#utility.yul\":7391:7437   */\n      swap2\n      pop\n        /* \"#utility.yul\":7171:7443   */\n      pop\n        /* \"#utility.yul\":7079:7443   */\n      swap3\n      swap2\n      pop\n      pop\n      jump\t// out\n        /* \"#utility.yul\":7449:7815   */\n    tag_347:\n        /* \"#utility.yul\":7591:7594   */\n      0x00\n        /* \"#utility.yul\":7612:7679   */\n      tag_349\n        /* \"#utility.yul\":7676:7678   */\n      0x11\n        /* \"#utility.yul\":7671:7674   */\n      dup4\n        /* \"#utility.yul\":7612:7679   */\n      tag_342\n      jump\t// in\n    tag_349:\n        /* \"#utility.yul\":7605:7679   */\n      swap2\n      pop\n        /* \"#utility.yul\":7688:7781   */\n      tag_350\n        /* \"#utility.yul\":7777:7780   */\n      dup3\n        /* \"#utility.yul\":7688:7781   */\n      tag_351\n      jump\t// in\n    tag_350:\n        /* \"#utility.yul\":7806:7808   */\n      0x20\n        /* \"#utility.yul\":7801:7804   */\n      dup3\n        /* \"#utility.yul\":7797:7809   */\n      add\n        /* \"#utility.yul\":7790:7809   */\n      swap1\n      pop\n        /* \"#utility.yul\":7449:7815   */\n      swap2\n      swap1\n      pop\n      jump\t// out\n        /* \"#utility.yul\":7821:8187   */\n    tag_352:\n        /* \"#utility.yul\":7963:7966   */\n      0x00\n        /* \"#utility.yul\":7984:8051   */\n      tag_354\n        /* \"#utility.yul\":8048:8050   */\n      0x0d\n        /* \"#utility.yul\":8043:8046   */\n      dup4\n        /* \"#utility.yul\":7984:8051   */\n      tag_342\n      jump\t// in\n    tag_354:\n        /* \"#utility.yul\":7977:8051   */\n      swap2\n      pop\n        /* \"#utility.yul\":8060:8153   */\n      tag_355\n        /* \"#utility.yul\":8149:8152   */\n      dup3\n        /* \"#utility.yul\":8060:8153   */\n      tag_356\n      jump\t// in\n    tag_355:\n        /* \"#utility.yul\":8178:8180   */\n      0x20\n        /* \"#utility.yul\":8173:8176   */\n      dup3\n        /* \"#utility.yul\":8169:8181   */\n      add\n        /* \"#utility.yul\":8162:8181   */\n      swap1\n      pop\n        /* \"#utility.yul\":7821:8187   */\n      swap2\n      swap1\n      pop\n      jump\t// out\n        /* \"#utility.yul\":8193:8559   */\n    tag_357:\n        /* \"#utility.yul\":8335:8338   */\n      0x00\n        /* \"#utility.yul\":8356:8423   */\n      tag_359\n        /* \"#utility.yul\":8420:8422   */\n      0x0d\n        /* \"#utility.yul\":8415:8418   */\n      dup4\n        /* \"#utility.yul\":8356:8423   */\n      tag_342\n      jump\t// in\n    tag_359:\n        /* \"#utility.yul\":8349:8423   */\n      swap2\n      pop\n        /* \"#utility.yul\":8432:8525   */\n      tag_360\n        /* \"#utility.yul\":8521:8524   */\n      dup3\n        /* \"#utility.yul\":8432:8525   */\n      tag_361\n      jump\t// in\n    tag_360:\n        /* \"#utility.yul\":8550:8552   */\n      0x20\n        /* \"#utility.yul\":8545:8548   */\n      dup3\n        /* \"#utility.yul\":8541:8553   */\n      add\n        /* \"#utility.yul\":8534:8553   */\n      swap1\n      pop\n        /* \"#utility.yul\":8193:8559   */\n      swap2\n      swap1\n      pop\n      jump\t// out\n        /* \"#utility.yul\":8565:8931   */\n    tag_362:\n        /* \"#utility.yul\":8707:8710   */\n      0x00\n        /* \"#utility.yul\":8728:8795   */\n      tag_364\n        /* \"#utility.yul\":8792:8794   */\n      0x10\n        /* \"#utility.yul\":8787:8790   */\n      dup4\n        /* \"#utility.yul\":8728:8795   */\n      tag_342\n      jump\t// in\n    tag_364:\n        /* \"#utility.yul\":8721:8795   */\n      swap2\n      pop\n        /* \"#utility.yul\":8804:8897   */\n      tag_365\n        /* \"#utility.yul\":8893:8896   */\n      dup3\n        /* \"#utility.yul\":8804:8897   */\n      tag_366\n      jump\t// in\n    tag_365:\n        /* \"#utility.yul\":8922:8924   */\n      0x20\n        /* \"#utility.yul\":8917:8920   */\n      dup3\n        /* \"#utility.yul\":8913:8925   */\n      add\n        /* \"#utility.yul\":8906:8925   */\n      swap1\n      pop\n        /* \"#utility.yul\":8565:8931   */\n      swap2\n      swap1\n      pop\n      jump\t// out\n        /* \"#utility.yul\":8993:10196   */\n    tag_293:\n        /* \"#utility.yul\":9120:9124   */\n      0xc0\n        /* \"#utility.yul\":9115:9118   */\n      dup3\n        /* \"#utility.yul\":9111:9125   */\n      add\n        /* \"#utility.yul\":9205:9209   */\n      0x00\n        /* \"#utility.yul\":9198:9203   */\n      dup3\n        /* \"#utility.yul\":9194:9210   */\n      add\n        /* \"#utility.yul\":9188:9211   */\n      mload\n        /* \"#utility.yul\":9224:9287   */\n      tag_368\n        /* \"#utility.yul\":9281:9285   */\n      0x00\n        /* \"#utility.yul\":9276:9279   */\n      dup6\n        /* \"#utility.yul\":9272:9286   */\n      add\n        /* \"#utility.yul\":9258:9270   */\n      dup3\n        /* \"#utility.yul\":9224:9287   */\n      tag_297\n      jump\t// in\n    tag_368:\n        /* \"#utility.yul\":9135:9297   */\n      pop\n        /* \"#utility.yul\":9378:9382   */\n      0x20\n        /* \"#utility.yul\":9371:9376   */\n      dup3\n        /* \"#utility.yul\":9367:9383   */\n      add\n        /* \"#utility.yul\":9361:9384   */\n      mload\n        /* \"#utility.yul\":9397:9460   */\n      tag_369\n        /* \"#utility.yul\":9454:9458   */\n      0x20\n        /* \"#utility.yul\":9449:9452   */\n      dup6\n        /* \"#utility.yul\":9445:9459   */\n      add\n        /* \"#utility.yul\":9431:9443   */\n      dup3\n        /* \"#utility.yul\":9397:9460   */\n      tag_297\n      jump\t// in\n    tag_369:\n        /* \"#utility.yul\":9307:9470   */\n      pop\n        /* \"#utility.yul\":9558:9562   */\n      0x40\n        /* \"#utility.yul\":9551:9556   */\n      dup3\n        /* \"#utility.yul\":9547:9563   */\n      add\n        /* \"#utility.yul\":9541:9564   */\n      mload\n        /* \"#utility.yul\":9577:9640   */\n      tag_370\n        /* \"#utility.yul\":9634:9638   */\n      0x40\n        /* \"#utility.yul\":9629:9632   */\n      dup6\n        /* \"#utility.yul\":9625:9639   */\n      add\n        /* \"#utility.yul\":9611:9623   */\n      dup3\n        /* \"#utility.yul\":9577:9640   */\n      tag_297\n      jump\t// in\n    tag_370:\n        /* \"#utility.yul\":9480:9650   */\n      pop\n        /* \"#utility.yul\":9739:9743   */\n      0x60\n        /* \"#utility.yul\":9732:9737   */\n      dup3\n        /* \"#utility.yul\":9728:9744   */\n      add\n        /* \"#utility.yul\":9722:9745   */\n      mload\n        /* \"#utility.yul\":9758:9821   */\n      tag_371\n        /* \"#utility.yul\":9815:9819   */\n      0x60\n        /* \"#utility.yul\":9810:9813   */\n      dup6\n        /* \"#utility.yul\":9806:9820   */\n      add\n        /* \"#utility.yul\":9792:9804   */\n      dup3\n        /* \"#utility.yul\":9758:9821   */\n      tag_297\n      jump\t// in\n    tag_371:\n        /* \"#utility.yul\":9660:9831   */\n      pop\n        /* \"#utility.yul\":9921:9925   */\n      0x80\n        /* \"#utility.yul\":9914:9919   */\n      dup3\n        /* \"#utility.yul\":9910:9926   */\n      add\n        /* \"#utility.yul\":9904:9927   */\n      mload\n        /* \"#utility.yul\":9940:10003   */\n      tag_372\n        /* \"#utility.yul\":9997:10001   */\n      0x80\n        /* \"#utility.yul\":9992:9995   */\n      dup6\n        /* \"#utility.yul\":9988:10002   */\n      add\n        /* \"#utility.yul\":9974:9986   */\n      dup3\n        /* \"#utility.yul\":9940:10003   */\n      tag_297\n      jump\t// in\n    tag_372:\n        /* \"#utility.yul\":9841:10013   */\n      pop\n        /* \"#utility.yul\":10097:10101   */\n      0xa0\n        /* \"#utility.yul\":10090:10095   */\n      dup3\n        /* \"#utility.yul\":10086:10102   */\n      add\n        /* \"#utility.yul\":10080:10103   */\n      mload\n        /* \"#utility.yul\":10116:10179   */\n      tag_373\n        /* \"#utility.yul\":10173:10177   */\n      0xa0\n        /* \"#utility.yul\":10168:10171   */\n      dup6\n        /* \"#utility.yul\":10164:10178   */\n      add\n        /* \"#utility.yul\":10150:10162   */\n      dup3\n        /* \"#utility.yul\":10116:10179   */\n      tag_298\n      jump\t// in\n    tag_373:\n        /* \"#utility.yul\":10023:10189   */\n      pop\n        /* \"#utility.yul\":9089:10196   */\n      pop\n        /* \"#utility.yul\":8993:10196   */\n      pop\n      pop\n      jump\t// out\n        /* \"#utility.yul\":10202:10310   */\n    tag_297:\n        /* \"#utility.yul\":10279:10303   */\n      tag_375\n        /* \"#utility.yul\":10297:10302   */\n      dup2\n        /* \"#utility.yul\":10279:10303   */\n      tag_376\n      jump\t// in\n    tag_375:\n        /* \"#utility.yul\":10274:10277   */\n      dup3\n        /* \"#utility.yul\":10267:10304   */\n      mstore\n        /* \"#utility.yul\":10202:10310   */\n      pop\n      pop\n      jump\t// out\n        /* \"#utility.yul\":10316:10434   */\n    tag_377:\n        /* \"#utility.yul\":10403:10427   */\n      tag_379\n        /* \"#utility.yul\":10421:10426   */\n      dup2\n        /* \"#utility.yul\":10403:10427   */\n      tag_376\n      jump\t// in\n    tag_379:\n        /* \"#utility.yul\":10398:10401   */\n      dup3\n        /* \"#utility.yul\":10391:10428   */\n      mstore\n        /* \"#utility.yul\":10316:10434   */\n      pop\n      pop\n      jump\t// out\n        /* \"#utility.yul\":10440:10893   */\n    tag_60:\n        /* \"#utility.yul\":10623:10627   */\n      0x00\n        /* \"#utility.yul\":10661:10663   */\n      0x20\n        /* \"#utility.yul\":10650:10659   */\n      dup3\n        /* \"#utility.yul\":10646:10664   */\n      add\n        /* \"#utility.yul\":10638:10664   */\n      swap1\n      pop\n        /* \"#utility.yul\":10710:10719   */\n      dup2\n        /* \"#utility.yul\":10704:10708   */\n      dup2\n        /* \"#utility.yul\":10700:10720   */\n      sub\n        /* \"#utility.yul\":10696:10697   */\n      0x00\n        /* \"#utility.yul\":10685:10694   */\n      dup4\n        /* \"#utility.yul\":10681:10698   */\n      add\n        /* \"#utility.yul\":10674:10721   */\n      mstore\n        /* \"#utility.yul\":10738:10886   */\n      tag_381\n        /* \"#utility.yul\":10881:10885   */\n      dup2\n        /* \"#utility.yul\":10872:10878   */\n      dup5\n        /* \"#utility.yul\":10738:10886   */\n      tag_305\n      jump\t// in\n    tag_381:\n        /* \"#utility.yul\":10730:10886   */\n      swap1\n      pop\n        /* \"#utility.yul\":10440:10893   */\n      swap3\n      swap2\n      pop\n      pop\n      jump\t// out\n        /* \"#utility.yul\":10899:11213   */\n    tag_28:\n        /* \"#utility.yul\":11038:11042   */\n      0x00\n        /* \"#utility.yul\":11076:11078   */\n      0x40\n        /* \"#utility.yul\":11065:11074   */\n      dup3\n        /* \"#utility.yul\":11061:11079   */\n      add\n        /* \"#utility.yul\":11053:11079   */\n      swap1\n      pop\n        /* \"#utility.yul\":11089:11206   */\n      tag_383\n        /* \"#utility.yul\":11203:11204   */\n      0x00\n        /* \"#utility.yul\":11192:11201   */\n      dup4\n        /* \"#utility.yul\":11188:11205   */\n      add\n        /* \"#utility.yul\":11179:11185   */\n      dup5\n        /* \"#utility.yul\":11089:11206   */\n      tag_319\n      jump\t// in\n    tag_383:\n        /* \"#utility.yul\":10899:11213   */\n      swap3\n      swap2\n      pop\n      pop\n      jump\t// out\n        /* \"#utility.yul\":11219:11638   */\n    tag_132:\n        /* \"#utility.yul\":11385:11389   */\n      0x00\n        /* \"#utility.yul\":11423:11425   */\n      0x20\n        /* \"#utility.yul\":11412:11421   */\n      dup3\n        /* \"#utility.yul\":11408:11426   */\n      add\n        /* \"#utility.yul\":11400:11426   */\n      swap1\n      pop\n        /* \"#utility.yul\":11472:11481   */\n      dup2\n        /* \"#utility.yul\":11466:11470   */\n      dup2\n        /* \"#utility.yul\":11462:11482   */\n      sub\n        /* \"#utility.yul\":11458:11459   */\n      0x00\n        /* \"#utility.yul\":11447:11456   */\n      dup4\n        /* \"#utility.yul\":11443:11460   */\n      add\n        /* \"#utility.yul\":11436:11483   */\n      mstore\n        /* \"#utility.yul\":11500:11631   */\n      tag_385\n        /* \"#utility.yul\":11626:11630   */\n      dup2\n        /* \"#utility.yul\":11500:11631   */\n      tag_347\n      jump\t// in\n    tag_385:\n        /* \"#utility.yul\":11492:11631   */\n      swap1\n      pop\n        /* \"#utility.yul\":11219:11638   */\n      swap2\n      swap1\n      pop\n      jump\t// out\n        /* \"#utility.yul\":11644:12063   */\n    tag_171:\n        /* \"#utility.yul\":11810:11814   */\n      0x00\n        /* \"#utility.yul\":11848:11850   */\n      0x20\n        /* \"#utility.yul\":11837:11846   */\n      dup3\n        /* \"#utility.yul\":11833:11851   */\n      add\n        /* \"#utility.yul\":11825:11851   */\n      swap1\n      pop\n        /* \"#utility.yul\":11897:11906   */\n      dup2\n        /* \"#utility.yul\":11891:11895   */\n      dup2\n        /* \"#utility.yul\":11887:11907   */\n      sub\n        /* \"#utility.yul\":11883:11884   */\n      0x00\n        /* \"#utility.yul\":11872:11881   */\n      dup4\n        /* \"#utility.yul\":11868:11885   */\n      add\n        /* \"#utility.yul\":11861:11908   */\n      mstore\n        /* \"#utility.yul\":11925:12056   */\n      tag_387\n        /* \"#utility.yul\":12051:12055   */\n      dup2\n        /* \"#utility.yul\":11925:12056   */\n      tag_352\n      jump\t// in\n    tag_387:\n        /* \"#utility.yul\":11917:12056   */\n      swap1\n      pop\n        /* \"#utility.yul\":11644:12063   */\n      swap2\n      swap1\n      pop\n      jump\t// out\n        /* \"#utility.yul\":12069:12488   */\n    tag_178:\n        /* \"#utility.yul\":12235:12239   */\n      0x00\n        /* \"#utility.yul\":12273:12275   */\n      0x20\n        /* \"#utility.yul\":12262:12271   */\n      dup3\n        /* \"#utility.yul\":12258:12276   */\n      add\n        /* \"#utility.yul\":12250:12276   */\n      swap1\n      pop\n        /* \"#utility.yul\":12322:12331   */\n      dup2\n        /* \"#utility.yul\":12316:12320   */\n      dup2\n        /* \"#utility.yul\":12312:12332   */\n      sub\n        /* \"#utility.yul\":12308:12309   */\n      0x00\n        /* \"#utility.yul\":12297:12306   */\n      dup4\n        /* \"#utility.yul\":12293:12310   */\n      add\n        /* \"#utility.yul\":12286:12333   */\n      mstore\n        /* \"#utility.yul\":12350:12481   */\n      tag_389\n        /* \"#utility.yul\":12476:12480   */\n      dup2\n        /* \"#utility.yul\":12350:12481   */\n      tag_357\n      jump\t// in\n    tag_389:\n        /* \"#utility.yul\":12342:12481   */\n      swap1\n      pop\n        /* \"#utility.yul\":12069:12488   */\n      swap2\n      swap1\n      pop\n      jump\t// out\n        /* \"#utility.yul\":12494:12913   */\n    tag_186:\n        /* \"#utility.yul\":12660:12664   */\n      0x00\n        /* \"#utility.yul\":12698:12700   */\n      0x20\n        /* \"#utility.yul\":12687:12696   */\n      dup3\n        /* \"#utility.yul\":12683:12701   */\n      add\n        /* \"#utility.yul\":12675:12701   */\n      swap1\n      pop\n        /* \"#utility.yul\":12747:12756   */\n      dup2\n        /* \"#utility.yul\":12741:12745   */\n      dup2\n        /* \"#utility.yul\":12737:12757   */\n      sub\n        /* \"#utility.yul\":12733:12734   */\n      0x00\n        /* \"#utility.yul\":12722:12731   */\n      dup4\n        /* \"#utility.yul\":12718:12735   */\n      add\n        /* \"#utility.yul\":12711:12758   */\n      mstore\n        /* \"#utility.yul\":12775:12906   */\n      tag_391\n        /* \"#utility.yul\":12901:12905   */\n      dup2\n        /* \"#utility.yul\":12775:12906   */\n      tag_362\n      jump\t// in\n    tag_391:\n        /* \"#utility.yul\":12767:12906   */\n      swap1\n      pop\n        /* \"#utility.yul\":12494:12913   */\n      swap2\n      swap1\n      pop\n      jump\t// out\n        /* \"#utility.yul\":12919:13141   */\n    tag_37:\n        /* \"#utility.yul\":13012:13016   */\n      0x00\n        /* \"#utility.yul\":13050:13052   */\n      0x20\n        /* \"#utility.yul\":13039:13048   */\n      dup3\n        /* \"#utility.yul\":13035:13053   */\n      add\n        /* \"#utility.yul\":13027:13053   */\n      swap1\n      pop\n        /* \"#utility.yul\":13063:13134   */\n      tag_393\n        /* \"#utility.yul\":13131:13132   */\n      0x00\n        /* \"#utility.yul\":13120:13129   */\n      dup4\n        /* \"#utility.yul\":13116:13133   */\n      add\n        /* \"#utility.yul\":13107:13113   */\n      dup5\n        /* \"#utility.yul\":13063:13134   */\n      tag_377\n      jump\t// in\n    tag_393:\n        /* \"#utility.yul\":12919:13141   */\n      swap3\n      swap2\n      pop\n      pop\n      jump\t// out\n        /* \"#utility.yul\":13147:14092   */\n    tag_21:\n        /* \"#utility.yul\":13414:13418   */\n      0x00\n        /* \"#utility.yul\":13452:13455   */\n      0xc0\n        /* \"#utility.yul\":13441:13450   */\n      dup3\n        /* \"#utility.yul\":13437:13456   */\n      add\n        /* \"#utility.yul\":13429:13456   */\n      swap1\n      pop\n        /* \"#utility.yul\":13466:13537   */\n      tag_395\n        /* \"#utility.yul\":13534:13535   */\n      0x00\n        /* \"#utility.yul\":13523:13532   */\n      dup4\n        /* \"#utility.yul\":13519:13536   */\n      add\n        /* \"#utility.yul\":13510:13516   */\n      dup10\n        /* \"#utility.yul\":13466:13537   */\n      tag_377\n      jump\t// in\n    tag_395:\n        /* \"#utility.yul\":13584:13593   */\n      dup2\n        /* \"#utility.yul\":13578:13582   */\n      dup2\n        /* \"#utility.yul\":13574:13594   */\n      sub\n        /* \"#utility.yul\":13569:13571   */\n      0x20\n        /* \"#utility.yul\":13558:13567   */\n      dup4\n        /* \"#utility.yul\":13554:13572   */\n      add\n        /* \"#utility.yul\":13547:13595   */\n      mstore\n        /* \"#utility.yul\":13612:13690   */\n      tag_396\n        /* \"#utility.yul\":13685:13689   */\n      dup2\n        /* \"#utility.yul\":13676:13682   */\n      dup9\n        /* \"#utility.yul\":13612:13690   */\n      tag_337\n      jump\t// in\n    tag_396:\n        /* \"#utility.yul\":13604:13690   */\n      swap1\n      pop\n        /* \"#utility.yul\":13737:13746   */\n      dup2\n        /* \"#utility.yul\":13731:13735   */\n      dup2\n        /* \"#utility.yul\":13727:13747   */\n      sub\n        /* \"#utility.yul\":13722:13724   */\n      0x40\n        /* \"#utility.yul\":13711:13720   */\n      dup4\n        /* \"#utility.yul\":13707:13725   */\n      add\n        /* \"#utility.yul\":13700:13748   */\n      mstore\n        /* \"#utility.yul\":13765:13843   */\n      tag_397\n        /* \"#utility.yul\":13838:13842   */\n      dup2\n        /* \"#utility.yul\":13829:13835   */\n      dup8\n        /* \"#utility.yul\":13765:13843   */\n      tag_337\n      jump\t// in\n    tag_397:\n        /* \"#utility.yul\":13757:13843   */\n      swap1\n      pop\n        /* \"#utility.yul\":13853:13919   */\n      tag_398\n        /* \"#utility.yul\":13915:13917   */\n      0x60\n        /* \"#utility.yul\":13904:13913   */\n      dup4\n        /* \"#utility.yul\":13900:13918   */\n      add\n        /* \"#utility.yul\":13891:13897   */\n      dup7\n        /* \"#utility.yul\":13853:13919   */\n      tag_333\n      jump\t// in\n    tag_398:\n        /* \"#utility.yul\":13929:14002   */\n      tag_399\n        /* \"#utility.yul\":13997:14000   */\n      0x80\n        /* \"#utility.yul\":13986:13995   */\n      dup4\n        /* \"#utility.yul\":13982:14001   */\n      add\n        /* \"#utility.yul\":13973:13979   */\n      dup6\n        /* \"#utility.yul\":13929:14002   */\n      tag_377\n      jump\t// in\n    tag_399:\n        /* \"#utility.yul\":14012:14085   */\n      tag_400\n        /* \"#utility.yul\":14080:14083   */\n      0xa0\n        /* \"#utility.yul\":14069:14078   */\n      dup4\n        /* \"#utility.yul\":14065:14084   */\n      add\n        /* \"#utility.yul\":14056:14062   */\n      dup5\n        /* \"#utility.yul\":14012:14085   */\n      tag_302\n      jump\t// in\n    tag_400:\n        /* \"#utility.yul\":13147:14092   */\n      swap8\n      swap7\n      pop\n      pop\n      pop\n      pop\n      pop\n      pop\n      pop\n      jump\t// out\n        /* \"#utility.yul\":14098:14873   */\n    tag_49:\n        /* \"#utility.yul\":14331:14335   */\n      0x00\n        /* \"#utility.yul\":14369:14372   */\n      0xc0\n        /* \"#utility.yul\":14358:14367   */\n      dup3\n        /* \"#utility.yul\":14354:14373   */\n      add\n        /* \"#utility.yul\":14346:14373   */\n      swap1\n      pop\n        /* \"#utility.yul\":14383:14454   */\n      tag_402\n        /* \"#utility.yul\":14451:14452   */\n      0x00\n        /* \"#utility.yul\":14440:14449   */\n      dup4\n        /* \"#utility.yul\":14436:14453   */\n      add\n        /* \"#utility.yul\":14427:14433   */\n      dup10\n        /* \"#utility.yul\":14383:14454   */\n      tag_377\n      jump\t// in\n    tag_402:\n        /* \"#utility.yul\":14464:14536   */\n      tag_403\n        /* \"#utility.yul\":14532:14534   */\n      0x20\n        /* \"#utility.yul\":14521:14530   */\n      dup4\n        /* \"#utility.yul\":14517:14535   */\n      add\n        /* \"#utility.yul\":14508:14514   */\n      dup9\n        /* \"#utility.yul\":14464:14536   */\n      tag_377\n      jump\t// in\n    tag_403:\n        /* \"#utility.yul\":14546:14618   */\n      tag_404\n        /* \"#utility.yul\":14614:14616   */\n      0x40\n        /* \"#utility.yul\":14603:14612   */\n      dup4\n        /* \"#utility.yul\":14599:14617   */\n      add\n        /* \"#utility.yul\":14590:14596   */\n      dup8\n        /* \"#utility.yul\":14546:14618   */\n      tag_377\n      jump\t// in\n    tag_404:\n        /* \"#utility.yul\":14628:14700   */\n      tag_405\n        /* \"#utility.yul\":14696:14698   */\n      0x60\n        /* \"#utility.yul\":14685:14694   */\n      dup4\n        /* \"#utility.yul\":14681:14699   */\n      add\n        /* \"#utility.yul\":14672:14678   */\n      dup7\n        /* \"#utility.yul\":14628:14700   */\n      tag_377\n      jump\t// in\n    tag_405:\n        /* \"#utility.yul\":14710:14783   */\n      tag_406\n        /* \"#utility.yul\":14778:14781   */\n      0x80\n        /* \"#utility.yul\":14767:14776   */\n      dup4\n        /* \"#utility.yul\":14763:14782   */\n      add\n        /* \"#utility.yul\":14754:14760   */\n      dup6\n        /* \"#utility.yul\":14710:14783   */\n      tag_377\n      jump\t// in\n    tag_406:\n        /* \"#utility.yul\":14793:14866   */\n      tag_407\n        /* \"#utility.yul\":14861:14864   */\n      0xa0\n        /* \"#utility.yul\":14850:14859   */\n      dup4\n        /* \"#utility.yul\":14846:14865   */\n      add\n        /* \"#utility.yul\":14837:14843   */\n      dup5\n        /* \"#utility.yul\":14793:14866   */\n      tag_302\n      jump\t// in\n    tag_407:\n        /* \"#utility.yul\":14098:14873   */\n      swap8\n      swap7\n      pop\n      pop\n      pop\n      pop\n      pop\n      pop\n      pop\n      jump\t// out\n        /* \"#utility.yul\":14960:15112   */\n    tag_312:\n        /* \"#utility.yul\":15047:15051   */\n      0x00\n        /* \"#utility.yul\":15070:15073   */\n      dup2\n        /* \"#utility.yul\":15062:15073   */\n      swap1\n      pop\n        /* \"#utility.yul\":15100:15104   */\n      0x20\n        /* \"#utility.yul\":15095:15098   */\n      dup3\n        /* \"#utility.yul\":15091:15105   */\n      add\n        /* \"#utility.yul\":15083:15105   */\n      swap1\n      pop\n        /* \"#utility.yul\":14960:15112   */\n      swap2\n      swap1\n      pop\n      jump\t// out\n        /* \"#utility.yul\":15118:15216   */\n    tag_326:\n        /* \"#utility.yul\":15183:15187   */\n      0x00\n        /* \"#utility.yul\":15206:15209   */\n      dup2\n        /* \"#utility.yul\":15198:15209   */\n      swap1\n      pop\n        /* \"#utility.yul\":15118:15216   */\n      swap2\n      swap1\n      pop\n      jump\t// out\n        /* \"#utility.yul\":15222:15356   */\n    tag_308:\n        /* \"#utility.yul\":15309:15315   */\n      0x00\n        /* \"#utility.yul\":15343:15348   */\n      dup2\n        /* \"#utility.yul\":15337:15349   */\n      mload\n        /* \"#utility.yul\":15327:15349   */\n      swap1\n      pop\n        /* \"#utility.yul\":15222:15356   */\n      swap2\n      swap1\n      pop\n      jump\t// out\n        /* \"#utility.yul\":15362:15466   */\n    tag_322:\n        /* \"#utility.yul\":15427:15433   */\n      0x00\n        /* \"#utility.yul\":15455:15459   */\n      0x02\n        /* \"#utility.yul\":15445:15459   */\n      swap1\n      pop\n        /* \"#utility.yul\":15362:15466   */\n      swap2\n      swap1\n      pop\n      jump\t// out\n        /* \"#utility.yul\":15472:15571   */\n    tag_340:\n        /* \"#utility.yul\":15524:15530   */\n      0x00\n        /* \"#utility.yul\":15558:15563   */\n      dup2\n        /* \"#utility.yul\":15552:15564   */\n      mload\n        /* \"#utility.yul\":15542:15564   */\n      swap1\n      pop\n        /* \"#utility.yul\":15472:15571   */\n      swap2\n      swap1\n      pop\n      jump\t// out\n        /* \"#utility.yul\":15577:15710   */\n    tag_318:\n        /* \"#utility.yul\":15667:15671   */\n      0x00\n        /* \"#utility.yul\":15699:15703   */\n      0x20\n        /* \"#utility.yul\":15694:15697   */\n      dup3\n        /* \"#utility.yul\":15690:15704   */\n      add\n        /* \"#utility.yul\":15682:15704   */\n      swap1\n      pop\n        /* \"#utility.yul\":15577:15710   */\n      swap2\n      swap1\n      pop\n      jump\t// out\n        /* \"#utility.yul\":15716:15827   */\n    tag_332:\n        /* \"#utility.yul\":15784:15788   */\n      0x00\n        /* \"#utility.yul\":15816:15820   */\n      0x20\n        /* \"#utility.yul\":15811:15814   */\n      dup3\n        /* \"#utility.yul\":15807:15821   */\n      add\n        /* \"#utility.yul\":15799:15821   */\n      swap1\n      pop\n        /* \"#utility.yul\":15716:15827   */\n      swap2\n      swap1\n      pop\n      jump\t// out\n        /* \"#utility.yul\":15833:16037   */\n    tag_310:\n        /* \"#utility.yul\":15952:15963   */\n      0x00\n        /* \"#utility.yul\":15986:15992   */\n      dup3\n        /* \"#utility.yul\":15981:15984   */\n      dup3\n        /* \"#utility.yul\":15974:15993   */\n      mstore\n        /* \"#utility.yul\":16026:16030   */\n      0x20\n        /* \"#utility.yul\":16021:16024   */\n      dup3\n        /* \"#utility.yul\":16017:16031   */\n      add\n        /* \"#utility.yul\":16002:16031   */\n      swap1\n      pop\n        /* \"#utility.yul\":15833:16037   */\n      swap3\n      swap2\n      pop\n      pop\n      jump\t// out\n        /* \"#utility.yul\":16043:16186   */\n    tag_324:\n        /* \"#utility.yul\":16140:16151   */\n      0x00\n        /* \"#utility.yul\":16177:16180   */\n      dup2\n        /* \"#utility.yul\":16162:16180   */\n      swap1\n      pop\n        /* \"#utility.yul\":16043:16186   */\n      swap3\n      swap2\n      pop\n      pop\n      jump\t// out\n        /* \"#utility.yul\":16192:16361   */\n    tag_342:\n        /* \"#utility.yul\":16276:16287   */\n      0x00\n        /* \"#utility.yul\":16310:16316   */\n      dup3\n        /* \"#utility.yul\":16305:16308   */\n      dup3\n        /* \"#utility.yul\":16298:16317   */\n      mstore\n        /* \"#utility.yul\":16350:16354   */\n      0x20\n        /* \"#utility.yul\":16345:16348   */\n      dup3\n        /* \"#utility.yul\":16341:16355   */\n      add\n        /* \"#utility.yul\":16326:16355   */\n      swap1\n      pop\n        /* \"#utility.yul\":16192:16361   */\n      swap3\n      swap2\n      pop\n      pop\n      jump\t// out\n        /* \"#utility.yul\":16367:16715   */\n    tag_174:\n        /* \"#utility.yul\":16407:16414   */\n      0x00\n        /* \"#utility.yul\":16430:16450   */\n      tag_421\n        /* \"#utility.yul\":16448:16449   */\n      dup3\n        /* \"#utility.yul\":16430:16450   */\n      tag_376\n      jump\t// in\n    tag_421:\n        /* \"#utility.yul\":16425:16450   */\n      swap2\n      pop\n        /* \"#utility.yul\":16464:16484   */\n      tag_422\n        /* \"#utility.yul\":16482:16483   */\n      dup4\n        /* \"#utility.yul\":16464:16484   */\n      tag_376\n      jump\t// in\n    tag_422:\n        /* \"#utility.yul\":16459:16484   */\n      swap3\n      pop\n        /* \"#utility.yul\":16652:16653   */\n      dup2\n        /* \"#utility.yul\":16584:16650   */\n      0xffffffffffffffffffffffffffffffffffffffffffffffffffffffffffffffff\n        /* \"#utility.yul\":16580:16654   */\n      div\n        /* \"#utility.yul\":16577:16578   */\n      dup4\n        /* \"#utility.yul\":16574:16655   */\n      gt\n        /* \"#utility.yul\":16569:16570   */\n      dup3\n        /* \"#utility.yul\":16562:16571   */\n      iszero\n        /* \"#utility.yul\":16555:16572   */\n      iszero\n        /* \"#utility.yul\":16551:16656   */\n      and\n        /* \"#utility.yul\":16548:16679   */\n      iszero\n      tag_423\n      jumpi\n        /* \"#utility.yul\":16659:16677   */\n      tag_424\n      tag_425\n      jump\t// in\n    tag_424:\n        /* \"#utility.yul\":16548:16679   */\n    tag_423:\n        /* \"#utility.yul\":16707:16708   */\n      dup3\n        /* \"#utility.yul\":16704:16705   */\n      dup3\n        /* \"#utility.yul\":16700:16709   */\n      mul\n        /* \"#utility.yul\":16689:16709   */\n      swap1\n      pop\n        /* \"#utility.yul\":16367:16715   */\n      swap3\n      swap2\n      pop\n      pop\n      jump\t// out\n        /* \"#utility.yul\":16721:16912   */\n    tag_125:\n        /* \"#utility.yul\":16761:16765   */\n      0x00\n        /* \"#utility.yul\":16781:16801   */\n      tag_427\n        /* \"#utility.yul\":16799:16800   */\n      dup3\n        /* \"#utility.yul\":16781:16801   */\n      tag_376\n      jump\t// in\n    tag_427:\n        /* \"#utility.yul\":16776:16801   */\n      swap2\n      pop\n        /* \"#utility.yul\":16815:16835   */\n      tag_428\n        /* \"#utility.yul\":16833:16834   */\n      dup4\n        /* \"#utility.yul\":16815:16835   */\n      tag_376\n      jump\t// in\n    tag_428:\n        /* \"#utility.yul\":16810:16835   */\n      swap3\n      pop\n        /* \"#utility.yul\":16854:16855   */\n      dup3\n        /* \"#utility.yul\":16851:16852   */\n      dup3\n        /* \"#utility.yul\":16848:16856   */\n      lt\n        /* \"#utility.yul\":16845:16879   */\n      iszero\n      tag_429\n      jumpi\n        /* \"#utility.yul\":16859:16877   */\n      tag_430\n      tag_425\n      jump\t// in\n    tag_430:\n        /* \"#utility.yul\":16845:16879   */\n    tag_429:\n        /* \"#utility.yul\":16904:16905   */\n      dup3\n        /* \"#utility.yul\":16901:16902   */\n      dup3\n        /* \"#utility.yul\":16897:16906   */\n      sub\n        /* \"#utility.yul\":16889:16906   */\n      swap1\n      pop\n        /* \"#utility.yul\":16721:16912   */\n      swap3\n      swap2\n      pop\n      pop\n      jump\t// out\n        /* \"#utility.yul\":16918:17014   */\n    tag_301:\n        /* \"#utility.yul\":16955:16962   */\n      0x00\n        /* \"#utility.yul\":16984:17008   */\n      tag_432\n        /* \"#utility.yul\":17002:17007   */\n      dup3\n        /* \"#utility.yul\":16984:17008   */\n      tag_433\n      jump\t// in\n    tag_432:\n        /* \"#utility.yul\":16973:17008   */\n      swap1\n      pop\n        /* \"#utility.yul\":16918:17014   */\n      swap2\n      swap1\n      pop\n      jump\t// out\n        /* \"#utility.yul\":17020:17110   */\n    tag_336:\n        /* \"#utility.yul\":17054:17061   */\n      0x00\n        /* \"#utility.yul\":17097:17102   */\n      dup2\n        /* \"#utility.yul\":17090:17103   */\n      iszero\n        /* \"#utility.yul\":17083:17104   */\n      iszero\n        /* \"#utility.yul\":17072:17104   */\n      swap1\n      pop\n        /* \"#utility.yul\":17020:17110   */\n      swap2\n      swap1\n      pop\n      jump\t// out\n        /* \"#utility.yul\":17116:17242   */\n    tag_433:\n        /* \"#utility.yul\":17153:17160   */\n      0x00\n        /* \"#utility.yul\":17193:17235   */\n      0xffffffffffffffffffffffffffffffffffffffff\n        /* \"#utility.yul\":17186:17191   */\n      dup3\n        /* \"#utility.yul\":17182:17236   */\n      and\n        /* \"#utility.yul\":17171:17236   */\n      swap1\n      pop\n        /* \"#utility.yul\":17116:17242   */\n      swap2\n      swap1\n      pop\n      jump\t// out\n        /* \"#utility.yul\":17248:17325   */\n    tag_376:\n        /* \"#utility.yul\":17285:17292   */\n      0x00\n        /* \"#utility.yul\":17314:17319   */\n      dup2\n        /* \"#utility.yul\":17303:17319   */\n      swap1\n      pop\n        /* \"#utility.yul\":17248:17325   */\n      swap2\n      swap1\n      pop\n      jump\t// out\n        /* \"#utility.yul\":17331:17638   */\n    tag_344:\n        /* \"#utility.yul\":17399:17400   */\n      0x00\n        /* \"#utility.yul\":17409:17522   */\n    tag_438:\n        /* \"#utility.yul\":17423:17429   */\n      dup4\n        /* \"#utility.yul\":17420:17421   */\n      dup2\n        /* \"#utility.yul\":17417:17430   */\n      lt\n        /* \"#utility.yul\":17409:17522   */\n      iszero\n      tag_440\n      jumpi\n        /* \"#utility.yul\":17508:17509   */\n      dup1\n        /* \"#utility.yul\":17503:17506   */\n      dup3\n        /* \"#utility.yul\":17499:17510   */\n      add\n        /* \"#utility.yul\":17493:17511   */\n      mload\n        /* \"#utility.yul\":17489:17490   */\n      dup2\n        /* \"#utility.yul\":17484:17487   */\n      dup5\n        /* \"#utility.yul\":17480:17491   */\n      add\n        /* \"#utility.yul\":17473:17512   */\n      mstore\n        /* \"#utility.yul\":17445:17447   */\n      0x20\n        /* \"#utility.yul\":17442:17443   */\n      dup2\n        /* \"#utility.yul\":17438:17448   */\n      add\n        /* \"#utility.yul\":17433:17448   */\n      swap1\n      pop\n        /* \"#utility.yul\":17409:17522   */\n      jump(tag_438)\n    tag_440:\n        /* \"#utility.yul\":17540:17546   */\n      dup4\n        /* \"#utility.yul\":17537:17538   */\n      dup2\n        /* \"#utility.yul\":17534:17547   */\n      gt\n        /* \"#utility.yul\":17531:17632   */\n      iszero\n      tag_441\n      jumpi\n        /* \"#utility.yul\":17620:17621   */\n      0x00\n        /* \"#utility.yul\":17611:17617   */\n      dup5\n        /* \"#utility.yul\":17606:17609   */\n      dup5\n        /* \"#utility.yul\":17602:17618   */\n      add\n        /* \"#utility.yul\":17595:17622   */\n      mstore\n        /* \"#utility.yul\":17531:17632   */\n    tag_441:\n        /* \"#utility.yul\":17380:17638   */\n      pop\n        /* \"#utility.yul\":17331:17638   */\n      pop\n      pop\n      pop\n      jump\t// out\n        /* \"#utility.yul\":17644:17964   */\n    tag_79:\n        /* \"#utility.yul\":17688:17694   */\n      0x00\n        /* \"#utility.yul\":17725:17726   */\n      0x02\n        /* \"#utility.yul\":17719:17723   */\n      dup3\n        /* \"#utility.yul\":17715:17727   */\n      div\n        /* \"#utility.yul\":17705:17727   */\n      swap1\n      pop\n        /* \"#utility.yul\":17772:17773   */\n      0x01\n        /* \"#utility.yul\":17766:17770   */\n      dup3\n        /* \"#utility.yul\":17762:17774   */\n      and\n        /* \"#utility.yul\":17793:17811   */\n      dup1\n        /* \"#utility.yul\":17783:17864   */\n      tag_443\n      jumpi\n        /* \"#utility.yul\":17849:17853   */\n      0x7f\n        /* \"#utility.yul\":17841:17847   */\n      dup3\n        /* \"#utility.yul\":17837:17854   */\n      and\n        /* \"#utility.yul\":17827:17854   */\n      swap2\n      pop\n        /* \"#utility.yul\":17783:17864   */\n    tag_443:\n        /* \"#utility.yul\":17911:17913   */\n      0x20\n        /* \"#utility.yul\":17903:17909   */\n      dup3\n        /* \"#utility.yul\":17900:17914   */\n      lt\n        /* \"#utility.yul\":17880:17898   */\n      dup2\n        /* \"#utility.yul\":17877:17915   */\n      eq\n        /* \"#utility.yul\":17874:17958   */\n      iszero\n      tag_444\n      jumpi\n        /* \"#utility.yul\":17930:17948   */\n      tag_445\n      tag_446\n      jump\t// in\n    tag_445:\n        /* \"#utility.yul\":17874:17958   */\n    tag_444:\n        /* \"#utility.yul\":17695:17964   */\n      pop\n        /* \"#utility.yul\":17644:17964   */\n      swap2\n      swap1\n      pop\n      jump\t// out\n        /* \"#utility.yul\":17970:18203   */\n    tag_115:\n        /* \"#utility.yul\":18009:18012   */\n      0x00\n        /* \"#utility.yul\":18032:18056   */\n      tag_448\n        /* \"#utility.yul\":18050:18055   */\n      dup3\n        /* \"#utility.yul\":18032:18056   */\n      tag_376\n      jump\t// in\n    tag_448:\n        /* \"#utility.yul\":18023:18056   */\n      swap2\n      pop\n        /* \"#utility.yul\":18078:18144   */\n      0xffffffffffffffffffffffffffffffffffffffffffffffffffffffffffffffff\n        /* \"#utility.yul\":18071:18076   */\n      dup3\n        /* \"#utility.yul\":18068:18145   */\n      eq\n        /* \"#utility.yul\":18065:18168   */\n      iszero\n      tag_449\n      jumpi\n        /* \"#utility.yul\":18148:18166   */\n      tag_450\n      tag_425\n      jump\t// in\n    tag_450:\n        /* \"#utility.yul\":18065:18168   */\n    tag_449:\n        /* \"#utility.yul\":18195:18196   */\n      0x01\n        /* \"#utility.yul\":18188:18193   */\n      dup3\n        /* \"#utility.yul\":18184:18197   */\n      add\n        /* \"#utility.yul\":18177:18197   */\n      swap1\n      pop\n        /* \"#utility.yul\":17970:18203   */\n      swap2\n      swap1\n      pop\n      jump\t// out\n        /* \"#utility.yul\":18209:18389   */\n    tag_425:\n        /* \"#utility.yul\":18257:18334   */\n      0x4e487b7100000000000000000000000000000000000000000000000000000000\n        /* \"#utility.yul\":18254:18255   */\n      0x00\n        /* \"#utility.yul\":18247:18335   */\n      mstore\n        /* \"#utility.yul\":18354:18358   */\n      0x11\n        /* \"#utility.yul\":18351:18352   */\n      0x04\n        /* \"#utility.yul\":18344:18359   */\n      mstore\n        /* \"#utility.yul\":18378:18382   */\n      0x24\n        /* \"#utility.yul\":18375:18376   */\n      0x00\n        /* \"#utility.yul\":18368:18383   */\n      revert\n        /* \"#utility.yul\":18395:18575   */\n    tag_446:\n        /* \"#utility.yul\":18443:18520   */\n      0x4e487b7100000000000000000000000000000000000000000000000000000000\n        /* \"#utility.yul\":18440:18441   */\n      0x00\n        /* \"#utility.yul\":18433:18521   */\n      mstore\n        /* \"#utility.yul\":18540:18544   */\n      0x22\n        /* \"#utility.yul\":18537:18538   */\n      0x04\n        /* \"#utility.yul\":18530:18545   */\n      mstore\n        /* \"#utility.yul\":18564:18568   */\n      0x24\n        /* \"#utility.yul\":18561:18562   */\n      0x00\n        /* \"#utility.yul\":18554:18569   */\n      revert\n        /* \"#utility.yul\":18581:18761   */\n    tag_110:\n        /* \"#utility.yul\":18629:18706   */\n      0x4e487b7100000000000000000000000000000000000000000000000000000000\n        /* \"#utility.yul\":18626:18627   */\n      0x00\n        /* \"#utility.yul\":18619:18707   */\n      mstore\n        /* \"#utility.yul\":18726:18730   */\n      0x32\n        /* \"#utility.yul\":18723:18724   */\n      0x04\n        /* \"#utility.yul\":18716:18731   */\n      mstore\n        /* \"#utility.yul\":18750:18754   */\n      0x24\n        /* \"#utility.yul\":18747:18748   */\n      0x00\n        /* \"#utility.yul\":18740:18755   */\n      revert\n        /* \"#utility.yul\":18767:18947   */\n    tag_136:\n        /* \"#utility.yul\":18815:18892   */\n      0x4e487b7100000000000000000000000000000000000000000000000000000000\n        /* \"#utility.yul\":18812:18813   */\n      0x00\n        /* \"#utility.yul\":18805:18893   */\n      mstore\n        /* \"#utility.yul\":18912:18916   */\n      0x41\n        /* \"#utility.yul\":18909:18910   */\n      0x04\n        /* \"#utility.yul\":18902:18917   */\n      mstore\n        /* \"#utility.yul\":18936:18940   */\n      0x24\n        /* \"#utility.yul\":18933:18934   */\n      0x00\n        /* \"#utility.yul\":18926:18941   */\n      revert\n        /* \"#utility.yul\":18953:19070   */\n    tag_243:\n        /* \"#utility.yul\":19062:19063   */\n      0x00\n        /* \"#utility.yul\":19059:19060   */\n      dup1\n        /* \"#utility.yul\":19052:19064   */\n      revert\n        /* \"#utility.yul\":19076:19193   */\n    tag_240:\n        /* \"#utility.yul\":19185:19186   */\n      0x00\n        /* \"#utility.yul\":19182:19183   */\n      dup1\n        /* \"#utility.yul\":19175:19187   */\n      revert\n        /* \"#utility.yul\":19199:19316   */\n    tag_246:\n        /* \"#utility.yul\":19308:19309   */\n      0x00\n        /* \"#utility.yul\":19305:19306   */\n      dup1\n        /* \"#utility.yul\":19298:19310   */\n      revert\n        /* \"#utility.yul\":19322:19439   */\n    tag_262:\n        /* \"#utility.yul\":19431:19432   */\n      0x00\n        /* \"#utility.yul\":19428:19429   */\n      dup1\n        /* \"#utility.yul\":19421:19433   */\n      revert\n        /* \"#utility.yul\":19445:19562   */\n    tag_254:\n        /* \"#utility.yul\":19554:19555   */\n      0x00\n        /* \"#utility.yul\":19551:19552   */\n      dup1\n        /* \"#utility.yul\":19544:19556   */\n      revert\n        /* \"#utility.yul\":19568:19670   */\n    tag_346:\n        /* \"#utility.yul\":19609:19615   */\n      0x00\n        /* \"#utility.yul\":19660:19662   */\n      0x1f\n        /* \"#utility.yul\":19656:19663   */\n      not\n        /* \"#utility.yul\":19651:19653   */\n      0x1f\n        /* \"#utility.yul\":19644:19649   */\n      dup4\n        /* \"#utility.yul\":19640:19654   */\n      add\n        /* \"#utility.yul\":19636:19664   */\n      and\n        /* \"#utility.yul\":19626:19664   */\n      swap1\n      pop\n        /* \"#utility.yul\":19568:19670   */\n      swap2\n      swap1\n      pop\n      jump\t// out\n        /* \"#utility.yul\":19676:19843   */\n    tag_351:\n        /* \"#utility.yul\":19816:19835   */\n      0x4e6f74206f776e6572206f6620726f6f6d000000000000000000000000000000\n        /* \"#utility.yul\":19812:19813   */\n      0x00\n        /* \"#utility.yul\":19804:19810   */\n      dup3\n        /* \"#utility.yul\":19800:19814   */\n      add\n        /* \"#utility.yul\":19793:19836   */\n      mstore\n        /* \"#utility.yul\":19676:19843   */\n      pop\n      jump\t// out\n        /* \"#utility.yul\":19849:20012   */\n    tag_356:\n        /* \"#utility.yul\":19989:20004   */\n      0x526f6f6d20696e61637469766500000000000000000000000000000000000000\n        /* \"#utility.yul\":19985:19986   */\n      0x00\n        /* \"#utility.yul\":19977:19983   */\n      dup3\n        /* \"#utility.yul\":19973:19987   */\n      add\n        /* \"#utility.yul\":19966:20005   */\n      mstore\n        /* \"#utility.yul\":19849:20012   */\n      pop\n      jump\t// out\n        /* \"#utility.yul\":20018:20181   */\n    tag_361:\n        /* \"#utility.yul\":20158:20173   */\n      0x496e76616c69642076616c756500000000000000000000000000000000000000\n        /* \"#utility.yul\":20154:20155   */\n      0x00\n        /* \"#utility.yul\":20146:20152   */\n      dup3\n        /* \"#utility.yul\":20142:20156   */\n      add\n        /* \"#utility.yul\":20135:20174   */\n      mstore\n        /* \"#utility.yul\":20018:20181   */\n      pop\n      jump\t// out\n        /* \"#utility.yul\":20187:20353   */\n    tag_366:\n        /* \"#utility.yul\":20327:20345   */\n      0x416c726561647920726573657276656400000000000000000000000000000000\n        /* \"#utility.yul\":20323:20324   */\n      0x00\n        /* \"#utility.yul\":20315:20321   */\n      dup3\n        /* \"#utility.yul\":20311:20325   */\n      add\n        /* \"#utility.yul\":20304:20346   */\n      mstore\n        /* \"#utility.yul\":20187:20353   */\n      pop\n      jump\t// out\n        /* \"#utility.yul\":20359:20481   */\n    tag_235:\n        /* \"#utility.yul\":20432:20456   */\n      tag_466\n        /* \"#utility.yul\":20450:20455   */\n      dup2\n        /* \"#utility.yul\":20432:20456   */\n      tag_301\n      jump\t// in\n    tag_466:\n        /* \"#utility.yul\":20425:20430   */\n      dup2\n        /* \"#utility.yul\":20422:20457   */\n      eq\n        /* \"#utility.yul\":20412:20475   */\n      tag_467\n      jumpi\n        /* \"#utility.yul\":20471:20472   */\n      0x00\n        /* \"#utility.yul\":20468:20469   */\n      dup1\n        /* \"#utility.yul\":20461:20473   */\n      revert\n        /* \"#utility.yul\":20412:20475   */\n    tag_467:\n        /* \"#utility.yul\":20359:20481   */\n      pop\n      jump\t// out\n        /* \"#utility.yul\":20487:20609   */\n    tag_250:\n        /* \"#utility.yul\":20560:20584   */\n      tag_469\n        /* \"#utility.yul\":20578:20583   */\n      dup2\n        /* \"#utility.yul\":20560:20584   */\n      tag_376\n      jump\t// in\n    tag_469:\n        /* \"#utility.yul\":20553:20558   */\n      dup2\n        /* \"#utility.yul\":20550:20585   */\n      eq\n        /* \"#utility.yul\":20540:20603   */\n      tag_470\n      jumpi\n        /* \"#utility.yul\":20599:20600   */\n      0x00\n        /* \"#utility.yul\":20596:20597   */\n      dup1\n        /* \"#utility.yul\":20589:20601   */\n      revert\n        /* \"#utility.yul\":20540:20603   */\n    tag_470:\n        /* \"#utility.yul\":20487:20609   */\n      pop\n      jump\t// out\n\n    auxdata: 0xa264697066735822122012f3b48dd861cd7c6179cf2d7843d91084dac5b6c33c37faa0f4e574e36b457464736f6c63430008070033\n}\n",
				"bytecode": {
					"linkReferences": {},
					"object": "608060405260008055600060015534801561001957600080fd5b506121bd806100296000396000f3fe6080604052600436106100a75760003560e01c8063835e5daf11610064578063835e5daf146101ea57806385bfa3561461022c5780638c69403414610257578063a165c0ba14610294578063f954d0d9146102b0578063facedf68146102db576100a7565b806339b0dbed146100ac57806343064aa4146100ee5780636d4d8c281461012b5780636decd419146101545780637b3191351461017f5780637dd9c1b2146101a8575b600080fd5b3480156100b857600080fd5b506100d360048036038101906100ce919061188a565b610304565b6040516100e596959493929190611cf9565b60405180910390f35b3480156100fa57600080fd5b50610115600480360381019061011091906118f7565b61047d565b6040516101229190611c43565b60405180910390f35b34801561013757600080fd5b50610152600480360381019061014d919061188a565b6107e4565b005b34801561016057600080fd5b506101696108ae565b6040516101769190611cde565b60405180910390f35b34801561018b57600080fd5b506101a660048036038101906101a191906117f5565b6108b4565b005b3480156101b457600080fd5b506101cf60048036038101906101ca91906117b5565b610b0c565b6040516101e196959493929190611d68565b60405180910390f35b3480156101f657600080fd5b50610211600480360381019061020c91906118b7565b610b85565b60405161022396959493929190611d68565b60405180910390f35b34801561023857600080fd5b50610241610bfe565b60405161024e9190611c21565b60405180910390f35b34801561026357600080fd5b5061027e6004803603810190610279919061188a565b610d22565b60405161028b9190611c21565b60405180910390f35b6102ae60048036038101906102a9919061194a565b610e1c565b005b3480156102bc57600080fd5b506102c56111c5565b6040516102d29190611cde565b60405180910390f35b3480156102e757600080fd5b5061030260048036038101906102fd919061188a565b6111cb565b005b600260205280600052604060002060009150905080600001549080600101805461032d90611f54565b80601f016020809104026020016040519081016040528092919081815260200182805461035990611f54565b80156103a65780601f1061037b576101008083540402835291602001916103a6565b820191906000526020600020905b81548152906001019060200180831161038957829003601f168201915b5050505050908060020180546103bb90611f54565b80601f01602080910402602001604051908101604052809291908181526020018280546103e790611f54565b80156104345780601f1061040957610100808354040283529160200191610434565b820191906000526020600020905b81548152906001019060200180831161041757829003601f168201915b5050505050908060030160009054906101000a900460ff16908060040154908060050160009054906101000a900473ffffffffffffffffffffffffffffffffffffffff16905086565b6104856115ca565b6000600260008681526020019081526020016000206040518060e0016040529081600082015481526020016001820180546104bf90611f54565b80601f01602080910402602001604051908101604052809291908181526020018280546104eb90611f54565b80156105385780601f1061050d57610100808354040283529160200191610538565b820191906000526020600020905b81548152906001019060200180831161051b57829003601f168201915b5050505050815260200160028201805461055190611f54565b80601f016020809104026020016040519081016040528092919081815260200182805461057d90611f54565b80156105ca5780601f1061059f576101008083540402835291602001916105ca565b820191906000526020600020905b8154815290600101906020018083116105ad57829003601f168201915b505050505081526020016003820160009054906101000a900460ff16151515158152602001600482015481526020016005820160009054906101000a900473ffffffffffffffffffffffffffffffffffffffff1673ffffffffffffffffffffffffffffffffffffffff1673ffffffffffffffffffffffffffffffffffffffff168152602001600682018054806020026020016040519081016040528092919081815260200182805480156106c257602002820191906000526020600020906000905b82829054906101000a900460ff1615158152602001906001019060208260000104928301926001038202915080841161068c5790505b50505050508152505090506106d56115ca565b60008590505b8481101561074457600115158360c0015182815181106106fe576106fd61202d565b5b6020026020010151151514156107315780826000600281106107235761072261202d565b5b602002018181525050610744565b808061073c90611f86565b9150506106db565b5060008160006002811061075b5761075a61202d565b5b602002015190505b8481116107d757600015158360c0015182815181106107855761078461202d565b5b6020026020010151151514156107c4576001816107a29190611ea5565b826001600281106107b6576107b561202d565b5b6020020181815250506107d7565b80806107cf90611f86565b915050610763565b5080925050509392505050565b60006002600083815260200190815260200160002090503373ffffffffffffffffffffffffffffffffffffffff168160050160009054906101000a900473ffffffffffffffffffffffffffffffffffffffff1673ffffffffffffffffffffffffffffffffffffffff161461088d576040517f08c379a000000000000000000000000000000000000000000000000000000000815260040161088490611c5e565b60405180910390fd5b60008160030160006101000a81548160ff0219169083151502179055505050565b60015481565b60006040518060e00160405280600054815260200187878080601f016020809104026020016040519081016040528093929190818152602001838380828437600081840152601f19601f82011690508083019250505050505050815260200185858080601f016020809104026020016040519081016040528093929190818152602001838380828437600081840152601f19601f8201169050808301925050505050505081526020016001151581526020018381526020013373ffffffffffffffffffffffffffffffffffffffff16815260200161016d67ffffffffffffffff8111156109a4576109a361205c565b5b6040519080825280602002602001820160405280156109d25781602001602082028036833780820191505090505b508152509050806002600080548152602001908152602001600020600082015181600001556020820151816001019080519060200190610a139291906115ec565b506040820151816002019080519060200190610a309291906115ec565b5060608201518160030160006101000a81548160ff0219169083151502179055506080820151816004015560a08201518160050160006101000a81548173ffffffffffffffffffffffffffffffffffffffff021916908373ffffffffffffffffffffffffffffffffffffffff16021790555060c0820151816006019080519060200190610abe929190611672565b50905050600080815480929190610ad490611f86565b919050557fe3dfa06732e0549f98a5f6d34268fbb7da76b458e78c8ea5b1d7029396cc216460405160405180910390a2505050505050565b60046020528160005260406000208181548110610b2857600080fd5b9060005260206000209060060201600091509150508060000154908060010154908060020154908060030154908060040154908060050160009054906101000a900473ffffffffffffffffffffffffffffffffffffffff16905086565b60036020528160005260406000208181548110610ba157600080fd5b9060005260206000209060060201600091509150508060000154908060010154908060020154908060030154908060040154908060050160009054906101000a900473ffffffffffffffffffffffffffffffffffffffff16905086565b6060600460003373ffffffffffffffffffffffffffffffffffffffff1673ffffffffffffffffffffffffffffffffffffffff168152602001908152602001600020805480602002602001604051908101604052809291908181526020016000905b82821015610d1957838290600052602060002090600602016040518060c001604052908160008201548152602001600182015481526020016002820154815260200160038201548152602001600482015481526020016005820160009054906101000a900473ffffffffffffffffffffffffffffffffffffffff1673ffffffffffffffffffffffffffffffffffffffff1673ffffffffffffffffffffffffffffffffffffffff168152505081526020019060010190610c5f565b50505050905090565b606060036000838152602001908152602001600020805480602002602001604051908101604052809291908181526020016000905b82821015610e1157838290600052602060002090600602016040518060c001604052908160008201548152602001600182015481526020016002820154815260200160038201548152602001600482015481526020016005820160009054906101000a900473ffffffffffffffffffffffffffffffffffffffff1673ffffffffffffffffffffffffffffffffffffffff1673ffffffffffffffffffffffffffffffffffffffff168152505081526020019060010190610d57565b505050509050919050565b6000600260008681526020019081526020016000206040518060e001604052908160008201548152602001600182018054610e5690611f54565b80601f0160208091040260200160405190810160405280929190818152602001828054610e8290611f54565b8015610ecf5780601f10610ea457610100808354040283529160200191610ecf565b820191906000526020600020905b815481529060010190602001808311610eb257829003601f168201915b50505050508152602001600282018054610ee890611f54565b80601f0160208091040260200160405190810160405280929190818152602001828054610f1490611f54565b8015610f615780601f10610f3657610100808354040283529160200191610f61565b820191906000526020600020905b815481529060010190602001808311610f4457829003601f168201915b505050505081526020016003820160009054906101000a900460ff16151515158152602001600482015481526020016005820160009054906101000a900473ffffffffffffffffffffffffffffffffffffffff1673ffffffffffffffffffffffffffffffffffffffff1673ffffffffffffffffffffffffffffffffffffffff1681526020016006820180548060200260200160405190810160405280929190818152602001828054801561105957602002820191906000526020600020906000905b82829054906101000a900460ff161515815260200190600101906020826000010492830192600103820291508084116110235790505b50505050508152505090506001151581606001511515146110af576040517f08c379a00000000000000000000000000000000000000000000000000000000081526004016110a690611c7e565b60405180910390fd5b66038d7ea4c68000816080015184846110c89190611ea5565b6110d29190611e4b565b6110dc9190611e4b565b341461111d576040517f08c379a000000000000000000000000000000000000000000000000000000000815260040161111490611c9e565b60405180910390fd5b60008390505b828110156111a357600015158260c0015182815181106111465761114561202d565b5b6020026020010151151514611190576040517f08c379a000000000000000000000000000000000000000000000000000000000815260040161118790611cbe565b60405180910390fd5b808061119b90611f86565b915050611123565b506111b28160a00151346112da565b6111be85858585611325565b5050505050565b60005481565b60006002600083815260200190815260200160002090503373ffffffffffffffffffffffffffffffffffffffff168160050160009054906101000a900473ffffffffffffffffffffffffffffffffffffffff1673ffffffffffffffffffffffffffffffffffffffff1614611274576040517f08c379a000000000000000000000000000000000000000000000000000000000815260040161126b90611c5e565b60405180910390fd5b60005b6101648110156112d55760008260060182815481106112995761129861202d565b5b90600052602060002090602091828204019190066101000a81548160ff02191690831515021790555080806112cd90611f86565b915050611277565b505050565b8173ffffffffffffffffffffffffffffffffffffffff166108fc829081150290604051600060405180830381858888f19350505050158015611320573d6000803e3d6000fd5b505050565b60006040518060c0016040528060015481526020018681526020018581526020018481526020018381526020013373ffffffffffffffffffffffffffffffffffffffff16815250905060008390505b828110156113e25760016002600088815260200190815260200160002060060182815481106113a6576113a561202d565b5b90600052602060002090602091828204019190066101000a81548160ff02191690831515021790555080806113da90611f86565b915050611374565b5060036000868152602001908152602001600020819080600181540180825580915050600190039060005260206000209060060201600090919091909150600082015181600001556020820151816001015560408201518160020155606082015181600301556080820151816004015560a08201518160050160006101000a81548173ffffffffffffffffffffffffffffffffffffffff021916908373ffffffffffffffffffffffffffffffffffffffff1602179055505050600460003373ffffffffffffffffffffffffffffffffffffffff1673ffffffffffffffffffffffffffffffffffffffff168152602001908152602001600020819080600181540180825580915050600190039060005260206000209060060201600090919091909150600082015181600001556020820151816001015560408201518160020155606082015181600301556080820151816004015560a08201518160050160006101000a81548173ffffffffffffffffffffffffffffffffffffffff021916908373ffffffffffffffffffffffffffffffffffffffff16021790555050506001600081548092919061159290611f86565b91905055857f84bad6e347d9aff08a38e6eb90827c7999f70bfaf3b0acbe288f512801b9c13960405160405180910390a35050505050565b6040518060400160405280600290602082028036833780820191505090505090565b8280546115f890611f54565b90600052602060002090601f01602090048101928261161a5760008555611661565b82601f1061163357805160ff1916838001178555611661565b82800160010185558215611661579182015b82811115611660578251825591602001919060010190611645565b5b50905061166e9190611718565b5090565b82805482825590600052602060002090601f016020900481019282156117075791602002820160005b838211156116d857835183826101000a81548160ff021916908315150217905550926020019260010160208160000104928301926001030261169b565b80156117055782816101000a81549060ff02191690556001016020816000010492830192600103026116d8565b505b5090506117149190611718565b5090565b5b80821115611731576000816000905550600101611719565b5090565b60008135905061174481612159565b92915050565b60008083601f8401126117605761175f612090565b5b8235905067ffffffffffffffff81111561177d5761177c61208b565b5b60208301915083600182028301111561179957611798612095565b5b9250929050565b6000813590506117af81612170565b92915050565b600080604083850312156117cc576117cb61209f565b5b60006117da85828601611735565b92505060206117eb858286016117a0565b9150509250929050565b6000806000806000606086880312156118115761181061209f565b5b600086013567ffffffffffffffff81111561182f5761182e61209a565b5b61183b8882890161174a565b9550955050602086013567ffffffffffffffff81111561185e5761185d61209a565b5b61186a8882890161174a565b9350935050604061187d888289016117a0565b9150509295509295909350565b6000602082840312156118a05761189f61209f565b5b60006118ae848285016117a0565b91505092915050565b600080604083850312156118ce576118cd61209f565b5b60006118dc858286016117a0565b92505060206118ed858286016117a0565b9150509250929050565b6000806000606084860312156119105761190f61209f565b5b600061191e868287016117a0565b935050602061192f868287016117a0565b9250506040611940868287016117a0565b9150509250925092565b600080600080608085870312156119645761196361209f565b5b6000611972878288016117a0565b9450506020611983878288016117a0565b9350506040611994878288016117a0565b92505060606119a5878288016117a0565b91505092959194509250565b60006119bd8383611b88565b60c08301905092915050565b60006119d58383611c03565b60208301905092915050565b6119ea81611ed9565b82525050565b6119f981611ed9565b82525050565b6000611a0a82611de3565b611a148185611e1e565b9350611a1f83611dc9565b8060005b83811015611a50578151611a3788826119b1565b9750611a4283611e04565b925050600181019050611a23565b5085935050505092915050565b611a6681611dee565b611a708184611e2f565b9250611a7b82611dd9565b8060005b83811015611aac578151611a9387826119c9565b9650611a9e83611e11565b925050600181019050611a7f565b505050505050565b611abd81611eeb565b82525050565b6000611ace82611df9565b611ad88185611e3a565b9350611ae8818560208601611f21565b611af1816120a4565b840191505092915050565b6000611b09601183611e3a565b9150611b14826120b5565b602082019050919050565b6000611b2c600d83611e3a565b9150611b37826120de565b602082019050919050565b6000611b4f600d83611e3a565b9150611b5a82612107565b602082019050919050565b6000611b72601083611e3a565b9150611b7d82612130565b602082019050919050565b60c082016000820151611b9e6000850182611c03565b506020820151611bb16020850182611c03565b506040820151611bc46040850182611c03565b506060820151611bd76060850182611c03565b506080820151611bea6080850182611c03565b5060a0820151611bfd60a08501826119e1565b50505050565b611c0c81611f17565b82525050565b611c1b81611f17565b82525050565b60006020820190508181036000830152611c3b81846119ff565b905092915050565b6000604082019050611c586000830184611a5d565b92915050565b60006020820190508181036000830152611c7781611afc565b9050919050565b60006020820190508181036000830152611c9781611b1f565b9050919050565b60006020820190508181036000830152611cb781611b42565b9050919050565b60006020820190508181036000830152611cd781611b65565b9050919050565b6000602082019050611cf36000830184611c12565b92915050565b600060c082019050611d0e6000830189611c12565b8181036020830152611d208188611ac3565b90508181036040830152611d348187611ac3565b9050611d436060830186611ab4565b611d506080830185611c12565b611d5d60a08301846119f0565b979650505050505050565b600060c082019050611d7d6000830189611c12565b611d8a6020830188611c12565b611d976040830187611c12565b611da46060830186611c12565b611db16080830185611c12565b611dbe60a08301846119f0565b979650505050505050565b6000819050602082019050919050565b6000819050919050565b600081519050919050565b600060029050919050565b600081519050919050565b6000602082019050919050565b6000602082019050919050565b600082825260208201905092915050565b600081905092915050565b600082825260208201905092915050565b6000611e5682611f17565b9150611e6183611f17565b9250817fffffffffffffffffffffffffffffffffffffffffffffffffffffffffffffffff0483118215151615611e9a57611e99611fcf565b5b828202905092915050565b6000611eb082611f17565b9150611ebb83611f17565b925082821015611ece57611ecd611fcf565b5b828203905092915050565b6000611ee482611ef7565b9050919050565b60008115159050919050565b600073ffffffffffffffffffffffffffffffffffffffff82169050919050565b6000819050919050565b60005b83811015611f3f578082015181840152602081019050611f24565b83811115611f4e576000848401525b50505050565b60006002820490506001821680611f6c57607f821691505b60208210811415611f8057611f7f611ffe565b5b50919050565b6000611f9182611f17565b91507fffffffffffffffffffffffffffffffffffffffffffffffffffffffffffffffff821415611fc457611fc3611fcf565b5b600182019050919050565b7f4e487b7100000000000000000000000000000000000000000000000000000000600052601160045260246000fd5b7f4e487b7100000000000000000000000000000000000000000000000000000000600052602260045260246000fd5b7f4e487b7100000000000000000000000000000000000000000000000000000000600052603260045260246000fd5b7f4e487b7100000000000000000000000000000000000000000000000000000000600052604160045260246000fd5b600080fd5b600080fd5b600080fd5b600080fd5b600080fd5b6000601f19601f8301169050919050565b7f4e6f74206f776e6572206f6620726f6f6d000000000000000000000000000000600082015250565b7f526f6f6d20696e61637469766500000000000000000000000000000000000000600082015250565b7f496e76616c69642076616c756500000000000000000000000000000000000000600082015250565b7f416c726561647920726573657276656400000000000000000000000000000000600082015250565b61216281611ed9565b811461216d57600080fd5b50565b61217981611f17565b811461218457600080fd5b5056fea264697066735822122012f3b48dd861cd7c6179cf2d7843d91084dac5b6c33c37faa0f4e574e36b457464736f6c63430008070033",
					"opcodes": "PUSH1 0x80 PUSH1 0x40 MSTORE PUSH1 0x0 DUP1 SSTORE PUSH1 0x0 PUSH1 0x1 SSTORE CALLVALUE DUP1 ISZERO PUSH2 0x19 JUMPI PUSH1 0x0 DUP1 REVERT JUMPDEST POP PUSH2 0x21BD DUP1 PUSH2 0x29 PUSH1 0x0 CODECOPY PUSH1 0x0 RETURN INVALID PUSH1 0x80 PUSH1 0x40 MSTORE PUSH1 0x4 CALLDATASIZE LT PUSH2 0xA7 JUMPI PUSH1 0x0 CALLDATALOAD PUSH1 0xE0 SHR DUP1 PUSH4 0x835E5DAF GT PUSH2 0x64 JUMPI DUP1 PUSH4 0x835E5DAF EQ PUSH2 0x1EA JUMPI DUP1 PUSH4 0x85BFA356 EQ PUSH2 0x22C JUMPI DUP1 PUSH4 0x8C694034 EQ PUSH2 0x257 JUMPI DUP1 PUSH4 0xA165C0BA EQ PUSH2 0x294 JUMPI DUP1 PUSH4 0xF954D0D9 EQ PUSH2 0x2B0 JUMPI DUP1 PUSH4 0xFACEDF68 EQ PUSH2 0x2DB JUMPI PUSH2 0xA7 JUMP JUMPDEST DUP1 PUSH4 0x39B0DBED EQ PUSH2 0xAC JUMPI DUP1 PUSH4 0x43064AA4 EQ PUSH2 0xEE JUMPI DUP1 PUSH4 0x6D4D8C28 EQ PUSH2 0x12B JUMPI DUP1 PUSH4 0x6DECD419 EQ PUSH2 0x154 JUMPI DUP1 PUSH4 0x7B319135 EQ PUSH2 0x17F JUMPI DUP1 PUSH4 0x7DD9C1B2 EQ PUSH2 0x1A8 JUMPI JUMPDEST PUSH1 0x0 DUP1 REVERT JUMPDEST CALLVALUE DUP1 ISZERO PUSH2 0xB8 JUMPI PUSH1 0x0 DUP1 REVERT JUMPDEST POP PUSH2 0xD3 PUSH1 0x4 DUP1 CALLDATASIZE SUB DUP2 ADD SWAP1 PUSH2 0xCE SWAP2 SWAP1 PUSH2 0x188A JUMP JUMPDEST PUSH2 0x304 JUMP JUMPDEST PUSH1 0x40 MLOAD PUSH2 0xE5 SWAP7 SWAP6 SWAP5 SWAP4 SWAP3 SWAP2 SWAP1 PUSH2 0x1CF9 JUMP JUMPDEST PUSH1 0x40 MLOAD DUP1 SWAP2 SUB SWAP1 RETURN JUMPDEST CALLVALUE DUP1 ISZERO PUSH2 0xFA JUMPI PUSH1 0x0 DUP1 REVERT JUMPDEST POP PUSH2 0x115 PUSH1 0x4 DUP1 CALLDATASIZE SUB DUP2 ADD SWAP1 PUSH2 0x110 SWAP2 SWAP1 PUSH2 0x18F7 JUMP JUMPDEST PUSH2 0x47D JUMP JUMPDEST PUSH1 0x40 MLOAD PUSH2 0x122 SWAP2 SWAP1 PUSH2 0x1C43 JUMP JUMPDEST PUSH1 0x40 MLOAD DUP1 SWAP2 SUB SWAP1 RETURN JUMPDEST CALLVALUE DUP1 ISZERO PUSH2 0x137 JUMPI PUSH1 0x0 DUP1 REVERT JUMPDEST POP PUSH2 0x152 PUSH1 0x4 DUP1 CALLDATASIZE SUB DUP2 ADD SWAP1 PUSH2 0x14D SWAP2 SWAP1 PUSH2 0x188A JUMP JUMPDEST PUSH2 0x7E4 JUMP JUMPDEST STOP JUMPDEST CALLVALUE DUP1 ISZERO PUSH2 0x160 JUMPI PUSH1 0x0 DUP1 REVERT JUMPDEST POP PUSH2 0x169 PUSH2 0x8AE JUMP JUMPDEST PUSH1 0x40 MLOAD PUSH2 0x176 SWAP2 SWAP1 PUSH2 0x1CDE JUMP JUMPDEST PUSH1 0x40 MLOAD DUP1 SWAP2 SUB SWAP1 RETURN JUMPDEST CALLVALUE DUP1 ISZERO PUSH2 0x18B JUMPI PUSH1 0x0 DUP1 REVERT JUMPDEST POP PUSH2 0x1A6 PUSH1 0x4 DUP1 CALLDATASIZE SUB DUP2 ADD SWAP1 PUSH2 0x1A1 SWAP2 SWAP1 PUSH2 0x17F5 JUMP JUMPDEST PUSH2 0x8B4 JUMP JUMPDEST STOP JUMPDEST CALLVALUE DUP1 ISZERO PUSH2 0x1B4 JUMPI PUSH1 0x0 DUP1 REVERT JUMPDEST POP PUSH2 0x1CF PUSH1 0x4 DUP1 CALLDATASIZE SUB DUP2 ADD SWAP1 PUSH2 0x1CA SWAP2 SWAP1 PUSH2 0x17B5 JUMP JUMPDEST PUSH2 0xB0C JUMP JUMPDEST PUSH1 0x40 MLOAD PUSH2 0x1E1 SWAP7 SWAP6 SWAP5 SWAP4 SWAP3 SWAP2 SWAP1 PUSH2 0x1D68 JUMP JUMPDEST PUSH1 0x40 MLOAD DUP1 SWAP2 SUB SWAP1 RETURN JUMPDEST CALLVALUE DUP1 ISZERO PUSH2 0x1F6 JUMPI PUSH1 0x0 DUP1 REVERT JUMPDEST POP PUSH2 0x211 PUSH1 0x4 DUP1 CALLDATASIZE SUB DUP2 ADD SWAP1 PUSH2 0x20C SWAP2 SWAP1 PUSH2 0x18B7 JUMP JUMPDEST PUSH2 0xB85 JUMP JUMPDEST PUSH1 0x40 MLOAD PUSH2 0x223 SWAP7 SWAP6 SWAP5 SWAP4 SWAP3 SWAP2 SWAP1 PUSH2 0x1D68 JUMP JUMPDEST PUSH1 0x40 MLOAD DUP1 SWAP2 SUB SWAP1 RETURN JUMPDEST CALLVALUE DUP1 ISZERO PUSH2 0x238 JUMPI PUSH1 0x0 DUP1 REVERT JUMPDEST POP PUSH2 0x241 PUSH2 0xBFE JUMP JUMPDEST PUSH1 0x40 MLOAD PUSH2 0x24E SWAP2 SWAP1 PUSH2 0x1C21 JUMP JUMPDEST PUSH1 0x40 MLOAD DUP1 SWAP2 SUB SWAP1 RETURN JUMPDEST CALLVALUE DUP1 ISZERO PUSH2 0x263 JUMPI PUSH1 0x0 DUP1 REVERT JUMPDEST POP PUSH2 0x27E PUSH1 0x4 DUP1 CALLDATASIZE SUB DUP2 ADD SWAP1 PUSH2 0x279 SWAP2 SWAP1 PUSH2 0x188A JUMP JUMPDEST PUSH2 0xD22 JUMP JUMPDEST PUSH1 0x40 MLOAD PUSH2 0x28B SWAP2 SWAP1 PUSH2 0x1C21 JUMP JUMPDEST PUSH1 0x40 MLOAD DUP1 SWAP2 SUB SWAP1 RETURN JUMPDEST PUSH2 0x2AE PUSH1 0x4 DUP1 CALLDATASIZE SUB DUP2 ADD SWAP1 PUSH2 0x2A9 SWAP2 SWAP1 PUSH2 0x194A JUMP JUMPDEST PUSH2 0xE1C JUMP JUMPDEST STOP JUMPDEST CALLVALUE DUP1 ISZERO PUSH2 0x2BC JUMPI PUSH1 0x0 DUP1 REVERT JUMPDEST POP PUSH2 0x2C5 PUSH2 0x11C5 JUMP JUMPDEST PUSH1 0x40 MLOAD PUSH2 0x2D2 SWAP2 SWAP1 PUSH2 0x1CDE JUMP JUMPDEST PUSH1 0x40 MLOAD DUP1 SWAP2 SUB SWAP1 RETURN JUMPDEST CALLVALUE DUP1 ISZERO PUSH2 0x2E7 JUMPI PUSH1 0x0 DUP1 REVERT JUMPDEST POP PUSH2 0x302 PUSH1 0x4 DUP1 CALLDATASIZE SUB DUP2 ADD SWAP1 PUSH2 0x2FD SWAP2 SWAP1 PUSH2 0x188A JUMP JUMPDEST PUSH2 0x11CB JUMP JUMPDEST STOP JUMPDEST PUSH1 0x2 PUSH1 0x20 MSTORE DUP1 PUSH1 0x0 MSTORE PUSH1 0x40 PUSH1 0x0 KECCAK256 PUSH1 0x0 SWAP2 POP SWAP1 POP DUP1 PUSH1 0x0 ADD SLOAD SWAP1 DUP1 PUSH1 0x1 ADD DUP1 SLOAD PUSH2 0x32D SWAP1 PUSH2 0x1F54 JUMP JUMPDEST DUP1 PUSH1 0x1F ADD PUSH1 0x20 DUP1 SWAP2 DIV MUL PUSH1 0x20 ADD PUSH1 0x40 MLOAD SWAP1 DUP2 ADD PUSH1 0x40 MSTORE DUP1 SWAP3 SWAP2 SWAP1 DUP2 DUP2 MSTORE PUSH1 0x20 ADD DUP3 DUP1 SLOAD PUSH2 0x359 SWAP1 PUSH2 0x1F54 JUMP JUMPDEST DUP1 ISZERO PUSH2 0x3A6 JUMPI DUP1 PUSH1 0x1F LT PUSH2 0x37B JUMPI PUSH2 0x100 DUP1 DUP4 SLOAD DIV MUL DUP4 MSTORE SWAP2 PUSH1 0x20 ADD SWAP2 PUSH2 0x3A6 JUMP JUMPDEST DUP3 ADD SWAP2 SWAP1 PUSH1 0x0 MSTORE PUSH1 0x20 PUSH1 0x0 KECCAK256 SWAP1 JUMPDEST DUP2 SLOAD DUP2 MSTORE SWAP1 PUSH1 0x1 ADD SWAP1 PUSH1 0x20 ADD DUP1 DUP4 GT PUSH2 0x389 JUMPI DUP3 SWAP1 SUB PUSH1 0x1F AND DUP3 ADD SWAP2 JUMPDEST POP POP POP POP POP SWAP1 DUP1 PUSH1 0x2 ADD DUP1 SLOAD PUSH2 0x3BB SWAP1 PUSH2 0x1F54 JUMP JUMPDEST DUP1 PUSH1 0x1F ADD PUSH1 0x20 DUP1 SWAP2 DIV MUL PUSH1 0x20 ADD PUSH1 0x40 MLOAD SWAP1 DUP2 ADD PUSH1 0x40 MSTORE DUP1 SWAP3 SWAP2 SWAP1 DUP2 DUP2 MSTORE PUSH1 0x20 ADD DUP3 DUP1 SLOAD PUSH2 0x3E7 SWAP1 PUSH2 0x1F54 JUMP JUMPDEST DUP1 ISZERO PUSH2 0x434 JUMPI DUP1 PUSH1 0x1F LT PUSH2 0x409 JUMPI PUSH2 0x100 DUP1 DUP4 SLOAD DIV MUL DUP4 MSTORE SWAP2 PUSH1 0x20 ADD SWAP2 PUSH2 0x434 JUMP JUMPDEST DUP3 ADD SWAP2 SWAP1 PUSH1 0x0 MSTORE PUSH1 0x20 PUSH1 0x0 KECCAK256 SWAP1 JUMPDEST DUP2 SLOAD DUP2 MSTORE SWAP1 PUSH1 0x1 ADD SWAP1 PUSH1 0x20 ADD DUP1 DUP4 GT PUSH2 0x417 JUMPI DUP3 SWAP1 SUB PUSH1 0x1F AND DUP3 ADD SWAP2 JUMPDEST POP POP POP POP POP SWAP1 DUP1 PUSH1 0x3 ADD PUSH1 0x0 SWAP1 SLOAD SWAP1 PUSH2 0x100 EXP SWAP1 DIV PUSH1 0xFF AND SWAP1 DUP1 PUSH1 0x4 ADD SLOAD SWAP1 DUP1 PUSH1 0x5 ADD PUSH1 0x0 SWAP1 SLOAD SWAP1 PUSH2 0x100 EXP SWAP1 DIV PUSH20 0xFFFFFFFFFFFFFFFFFFFFFFFFFFFFFFFFFFFFFFFF AND SWAP1 POP DUP7 JUMP JUMPDEST PUSH2 0x485 PUSH2 0x15CA JUMP JUMPDEST PUSH1 0x0 PUSH1 0x2 PUSH1 0x0 DUP7 DUP2 MSTORE PUSH1 0x20 ADD SWAP1 DUP2 MSTORE PUSH1 0x20 ADD PUSH1 0x0 KECCAK256 PUSH1 0x40 MLOAD DUP1 PUSH1 0xE0 ADD PUSH1 0x40 MSTORE SWAP1 DUP2 PUSH1 0x0 DUP3 ADD SLOAD DUP2 MSTORE PUSH1 0x20 ADD PUSH1 0x1 DUP3 ADD DUP1 SLOAD PUSH2 0x4BF SWAP1 PUSH2 0x1F54 JUMP JUMPDEST DUP1 PUSH1 0x1F ADD PUSH1 0x20 DUP1 SWAP2 DIV MUL PUSH1 0x20 ADD PUSH1 0x40 MLOAD SWAP1 DUP2 ADD PUSH1 0x40 MSTORE DUP1 SWAP3 SWAP2 SWAP1 DUP2 DUP2 MSTORE PUSH1 0x20 ADD DUP3 DUP1 SLOAD PUSH2 0x4EB SWAP1 PUSH2 0x1F54 JUMP JUMPDEST DUP1 ISZERO PUSH2 0x538 JUMPI DUP1 PUSH1 0x1F LT PUSH2 0x50D JUMPI PUSH2 0x100 DUP1 DUP4 SLOAD DIV MUL DUP4 MSTORE SWAP2 PUSH1 0x20 ADD SWAP2 PUSH2 0x538 JUMP JUMPDEST DUP3 ADD SWAP2 SWAP1 PUSH1 0x0 MSTORE PUSH1 0x20 PUSH1 0x0 KECCAK256 SWAP1 JUMPDEST DUP2 SLOAD DUP2 MSTORE SWAP1 PUSH1 0x1 ADD SWAP1 PUSH1 0x20 ADD DUP1 DUP4 GT PUSH2 0x51B JUMPI DUP3 SWAP1 SUB PUSH1 0x1F AND DUP3 ADD SWAP2 JUMPDEST POP POP POP POP POP DUP2 MSTORE PUSH1 0x20 ADD PUSH1 0x2 DUP3 ADD DUP1 SLOAD PUSH2 0x551 SWAP1 PUSH2 0x1F54 JUMP JUMPDEST DUP1 PUSH1 0x1F ADD PUSH1 0x20 DUP1 SWAP2 DIV MUL PUSH1 0x20 ADD PUSH1 0x40 MLOAD SWAP1 DUP2 ADD PUSH1 0x40 MSTORE DUP1 SWAP3 SWAP2 SWAP1 DUP2 DUP2 MSTORE PUSH1 0x20 ADD DUP3 DUP1 SLOAD PUSH2 0x57D SWAP1 PUSH2 0x1F54 JUMP JUMPDEST DUP1 ISZERO PUSH2 0x5CA JUMPI DUP1 PUSH1 0x1F LT PUSH2 0x59F JUMPI PUSH2 0x100 DUP1 DUP4 SLOAD DIV MUL DUP4 MSTORE SWAP2 PUSH1 0x20 ADD SWAP2 PUSH2 0x5CA JUMP JUMPDEST DUP3 ADD SWAP2 SWAP1 PUSH1 0x0 MSTORE PUSH1 0x20 PUSH1 0x0 KECCAK256 SWAP1 JUMPDEST DUP2 SLOAD DUP2 MSTORE SWAP1 PUSH1 0x1 ADD SWAP1 PUSH1 0x20 ADD DUP1 DUP4 GT PUSH2 0x5AD JUMPI DUP3 SWAP1 SUB PUSH1 0x1F AND DUP3 ADD SWAP2 JUMPDEST POP POP POP POP POP DUP2 MSTORE PUSH1 0x20 ADD PUSH1 0x3 DUP3 ADD PUSH1 0x0 SWAP1 SLOAD SWAP1 PUSH2 0x100 EXP SWAP1 DIV PUSH1 0xFF AND ISZERO ISZERO ISZERO ISZERO DUP2 MSTORE PUSH1 0x20 ADD PUSH1 0x4 DUP3 ADD SLOAD DUP2 MSTORE PUSH1 0x20 ADD PUSH1 0x5 DUP3 ADD PUSH1 0x0 SWAP1 SLOAD SWAP1 PUSH2 0x100 EXP SWAP1 DIV PUSH20 0xFFFFFFFFFFFFFFFFFFFFFFFFFFFFFFFFFFFFFFFF AND PUSH20 0xFFFFFFFFFFFFFFFFFFFFFFFFFFFFFFFFFFFFFFFF AND PUSH20 0xFFFFFFFFFFFFFFFFFFFFFFFFFFFFFFFFFFFFFFFF AND DUP2 MSTORE PUSH1 0x20 ADD PUSH1 0x6 DUP3 ADD DUP1 SLOAD DUP1 PUSH1 0x20 MUL PUSH1 0x20 ADD PUSH1 0x40 MLOAD SWAP1 DUP2 ADD PUSH1 0x40 MSTORE DUP1 SWAP3 SWAP2 SWAP1 DUP2 DUP2 MSTORE PUSH1 0x20 ADD DUP3 DUP1 SLOAD DUP1 ISZERO PUSH2 0x6C2 JUMPI PUSH1 0x20 MUL DUP3 ADD SWAP2 SWAP1 PUSH1 0x0 MSTORE PUSH1 0x20 PUSH1 0x0 KECCAK256 SWAP1 PUSH1 0x0 SWAP1 JUMPDEST DUP3 DUP3 SWAP1 SLOAD SWAP1 PUSH2 0x100 EXP SWAP1 DIV PUSH1 0xFF AND ISZERO ISZERO DUP2 MSTORE PUSH1 0x20 ADD SWAP1 PUSH1 0x1 ADD SWAP1 PUSH1 0x20 DUP3 PUSH1 0x0 ADD DIV SWAP3 DUP4 ADD SWAP3 PUSH1 0x1 SUB DUP3 MUL SWAP2 POP DUP1 DUP5 GT PUSH2 0x68C JUMPI SWAP1 POP JUMPDEST POP POP POP POP POP DUP2 MSTORE POP POP SWAP1 POP PUSH2 0x6D5 PUSH2 0x15CA JUMP JUMPDEST PUSH1 0x0 DUP6 SWAP1 POP JUMPDEST DUP5 DUP2 LT ISZERO PUSH2 0x744 JUMPI PUSH1 0x1 ISZERO ISZERO DUP4 PUSH1 0xC0 ADD MLOAD DUP3 DUP2 MLOAD DUP2 LT PUSH2 0x6FE JUMPI PUSH2 0x6FD PUSH2 0x202D JUMP JUMPDEST JUMPDEST PUSH1 0x20 MUL PUSH1 0x20 ADD ADD MLOAD ISZERO ISZERO EQ ISZERO PUSH2 0x731 JUMPI DUP1 DUP3 PUSH1 0x0 PUSH1 0x2 DUP2 LT PUSH2 0x723 JUMPI PUSH2 0x722 PUSH2 0x202D JUMP JUMPDEST JUMPDEST PUSH1 0x20 MUL ADD DUP2 DUP2 MSTORE POP POP PUSH2 0x744 JUMP JUMPDEST DUP1 DUP1 PUSH2 0x73C SWAP1 PUSH2 0x1F86 JUMP JUMPDEST SWAP2 POP POP PUSH2 0x6DB JUMP JUMPDEST POP PUSH1 0x0 DUP2 PUSH1 0x0 PUSH1 0x2 DUP2 LT PUSH2 0x75B JUMPI PUSH2 0x75A PUSH2 0x202D JUMP JUMPDEST JUMPDEST PUSH1 0x20 MUL ADD MLOAD SWAP1 POP JUMPDEST DUP5 DUP2 GT PUSH2 0x7D7 JUMPI PUSH1 0x0 ISZERO ISZERO DUP4 PUSH1 0xC0 ADD MLOAD DUP3 DUP2 MLOAD DUP2 LT PUSH2 0x785 JUMPI PUSH2 0x784 PUSH2 0x202D JUMP JUMPDEST JUMPDEST PUSH1 0x20 MUL PUSH1 0x20 ADD ADD MLOAD ISZERO ISZERO EQ ISZERO PUSH2 0x7C4 JUMPI PUSH1 0x1 DUP2 PUSH2 0x7A2 SWAP2 SWAP1 PUSH2 0x1EA5 JUMP JUMPDEST DUP3 PUSH1 0x1 PUSH1 0x2 DUP2 LT PUSH2 0x7B6 JUMPI PUSH2 0x7B5 PUSH2 0x202D JUMP JUMPDEST JUMPDEST PUSH1 0x20 MUL ADD DUP2 DUP2 MSTORE POP POP PUSH2 0x7D7 JUMP JUMPDEST DUP1 DUP1 PUSH2 0x7CF SWAP1 PUSH2 0x1F86 JUMP JUMPDEST SWAP2 POP POP PUSH2 0x763 JUMP JUMPDEST POP DUP1 SWAP3 POP POP POP SWAP4 SWAP3 POP POP POP JUMP JUMPDEST PUSH1 0x0 PUSH1 0x2 PUSH1 0x0 DUP4 DUP2 MSTORE PUSH1 0x20 ADD SWAP1 DUP2 MSTORE PUSH1 0x20 ADD PUSH1 0x0 KECCAK256 SWAP1 POP CALLER PUSH20 0xFFFFFFFFFFFFFFFFFFFFFFFFFFFFFFFFFFFFFFFF AND DUP2 PUSH1 0x5 ADD PUSH1 0x0 SWAP1 SLOAD SWAP1 PUSH2 0x100 EXP SWAP1 DIV PUSH20 0xFFFFFFFFFFFFFFFFFFFFFFFFFFFFFFFFFFFFFFFF AND PUSH20 0xFFFFFFFFFFFFFFFFFFFFFFFFFFFFFFFFFFFFFFFF AND EQ PUSH2 0x88D JUMPI PUSH1 0x40 MLOAD PUSH32 0x8C379A000000000000000000000000000000000000000000000000000000000 DUP2 MSTORE PUSH1 0x4 ADD PUSH2 0x884 SWAP1 PUSH2 0x1C5E JUMP JUMPDEST PUSH1 0x40 MLOAD DUP1 SWAP2 SUB SWAP1 REVERT JUMPDEST PUSH1 0x0 DUP2 PUSH1 0x3 ADD PUSH1 0x0 PUSH2 0x100 EXP DUP2 SLOAD DUP2 PUSH1 0xFF MUL NOT AND SWAP1 DUP4 ISZERO ISZERO MUL OR SWAP1 SSTORE POP POP POP JUMP JUMPDEST PUSH1 0x1 SLOAD DUP2 JUMP JUMPDEST PUSH1 0x0 PUSH1 0x40 MLOAD DUP1 PUSH1 0xE0 ADD PUSH1 0x40 MSTORE DUP1 PUSH1 0x0 SLOAD DUP2 MSTORE PUSH1 0x20 ADD DUP8 DUP8 DUP1 DUP1 PUSH1 0x1F ADD PUSH1 0x20 DUP1 SWAP2 DIV MUL PUSH1 0x20 ADD PUSH1 0x40 MLOAD SWAP1 DUP2 ADD PUSH1 0x40 MSTORE DUP1 SWAP4 SWAP3 SWAP2 SWAP1 DUP2 DUP2 MSTORE PUSH1 0x20 ADD DUP4 DUP4 DUP1 DUP3 DUP5 CALLDATACOPY PUSH1 0x0 DUP2 DUP5 ADD MSTORE PUSH1 0x1F NOT PUSH1 0x1F DUP3 ADD AND SWAP1 POP DUP1 DUP4 ADD SWAP3 POP POP POP POP POP POP POP DUP2 MSTORE PUSH1 0x20 ADD DUP6 DUP6 DUP1 DUP1 PUSH1 0x1F ADD PUSH1 0x20 DUP1 SWAP2 DIV MUL PUSH1 0x20 ADD PUSH1 0x40 MLOAD SWAP1 DUP2 ADD PUSH1 0x40 MSTORE DUP1 SWAP4 SWAP3 SWAP2 SWAP1 DUP2 DUP2 MSTORE PUSH1 0x20 ADD DUP4 DUP4 DUP1 DUP3 DUP5 CALLDATACOPY PUSH1 0x0 DUP2 DUP5 ADD MSTORE PUSH1 0x1F NOT PUSH1 0x1F DUP3 ADD AND SWAP1 POP DUP1 DUP4 ADD SWAP3 POP POP POP POP POP POP POP DUP2 MSTORE PUSH1 0x20 ADD PUSH1 0x1 ISZERO ISZERO DUP2 MSTORE PUSH1 0x20 ADD DUP4 DUP2 MSTORE PUSH1 0x20 ADD CALLER PUSH20 0xFFFFFFFFFFFFFFFFFFFFFFFFFFFFFFFFFFFFFFFF AND DUP2 MSTORE PUSH1 0x20 ADD PUSH2 0x16D PUSH8 0xFFFFFFFFFFFFFFFF DUP2 GT ISZERO PUSH2 0x9A4 JUMPI PUSH2 0x9A3 PUSH2 0x205C JUMP JUMPDEST JUMPDEST PUSH1 0x40 MLOAD SWAP1 DUP1 DUP3 MSTORE DUP1 PUSH1 0x20 MUL PUSH1 0x20 ADD DUP3 ADD PUSH1 0x40 MSTORE DUP1 ISZERO PUSH2 0x9D2 JUMPI DUP2 PUSH1 0x20 ADD PUSH1 0x20 DUP3 MUL DUP1 CALLDATASIZE DUP4 CALLDATACOPY DUP1 DUP3 ADD SWAP2 POP POP SWAP1 POP JUMPDEST POP DUP2 MSTORE POP SWAP1 POP DUP1 PUSH1 0x2 PUSH1 0x0 DUP1 SLOAD DUP2 MSTORE PUSH1 0x20 ADD SWAP1 DUP2 MSTORE PUSH1 0x20 ADD PUSH1 0x0 KECCAK256 PUSH1 0x0 DUP3 ADD MLOAD DUP2 PUSH1 0x0 ADD SSTORE PUSH1 0x20 DUP3 ADD MLOAD DUP2 PUSH1 0x1 ADD SWAP1 DUP1 MLOAD SWAP1 PUSH1 0x20 ADD SWAP1 PUSH2 0xA13 SWAP3 SWAP2 SWAP1 PUSH2 0x15EC JUMP JUMPDEST POP PUSH1 0x40 DUP3 ADD MLOAD DUP2 PUSH1 0x2 ADD SWAP1 DUP1 MLOAD SWAP1 PUSH1 0x20 ADD SWAP1 PUSH2 0xA30 SWAP3 SWAP2 SWAP1 PUSH2 0x15EC JUMP JUMPDEST POP PUSH1 0x60 DUP3 ADD MLOAD DUP2 PUSH1 0x3 ADD PUSH1 0x0 PUSH2 0x100 EXP DUP2 SLOAD DUP2 PUSH1 0xFF MUL NOT AND SWAP1 DUP4 ISZERO ISZERO MUL OR SWAP1 SSTORE POP PUSH1 0x80 DUP3 ADD MLOAD DUP2 PUSH1 0x4 ADD SSTORE PUSH1 0xA0 DUP3 ADD MLOAD DUP2 PUSH1 0x5 ADD PUSH1 0x0 PUSH2 0x100 EXP DUP2 SLOAD DUP2 PUSH20 0xFFFFFFFFFFFFFFFFFFFFFFFFFFFFFFFFFFFFFFFF MUL NOT AND SWAP1 DUP4 PUSH20 0xFFFFFFFFFFFFFFFFFFFFFFFFFFFFFFFFFFFFFFFF AND MUL OR SWAP1 SSTORE POP PUSH1 0xC0 DUP3 ADD MLOAD DUP2 PUSH1 0x6 ADD SWAP1 DUP1 MLOAD SWAP1 PUSH1 0x20 ADD SWAP1 PUSH2 0xABE SWAP3 SWAP2 SWAP1 PUSH2 0x1672 JUMP JUMPDEST POP SWAP1 POP POP PUSH1 0x0 DUP1 DUP2 SLOAD DUP1 SWAP3 SWAP2 SWAP1 PUSH2 0xAD4 SWAP1 PUSH2 0x1F86 JUMP JUMPDEST SWAP2 SWAP1 POP SSTORE PUSH32 0xE3DFA06732E0549F98A5F6D34268FBB7DA76B458E78C8EA5B1D7029396CC2164 PUSH1 0x40 MLOAD PUSH1 0x40 MLOAD DUP1 SWAP2 SUB SWAP1 LOG2 POP POP POP POP POP POP JUMP JUMPDEST PUSH1 0x4 PUSH1 0x20 MSTORE DUP2 PUSH1 0x0 MSTORE PUSH1 0x40 PUSH1 0x0 KECCAK256 DUP2 DUP2 SLOAD DUP2 LT PUSH2 0xB28 JUMPI PUSH1 0x0 DUP1 REVERT JUMPDEST SWAP1 PUSH1 0x0 MSTORE PUSH1 0x20 PUSH1 0x0 KECCAK256 SWAP1 PUSH1 0x6 MUL ADD PUSH1 0x0 SWAP2 POP SWAP2 POP POP DUP1 PUSH1 0x0 ADD SLOAD SWAP1 DUP1 PUSH1 0x1 ADD SLOAD SWAP1 DUP1 PUSH1 0x2 ADD SLOAD SWAP1 DUP1 PUSH1 0x3 ADD SLOAD SWAP1 DUP1 PUSH1 0x4 ADD SLOAD SWAP1 DUP1 PUSH1 0x5 ADD PUSH1 0x0 SWAP1 SLOAD SWAP1 PUSH2 0x100 EXP SWAP1 DIV PUSH20 0xFFFFFFFFFFFFFFFFFFFFFFFFFFFFFFFFFFFFFFFF AND SWAP1 POP DUP7 JUMP JUMPDEST PUSH1 0x3 PUSH1 0x20 MSTORE DUP2 PUSH1 0x0 MSTORE PUSH1 0x40 PUSH1 0x0 KECCAK256 DUP2 DUP2 SLOAD DUP2 LT PUSH2 0xBA1 JUMPI PUSH1 0x0 DUP1 REVERT JUMPDEST SWAP1 PUSH1 0x0 MSTORE PUSH1 0x20 PUSH1 0x0 KECCAK256 SWAP1 PUSH1 0x6 MUL ADD PUSH1 0x0 SWAP2 POP SWAP2 POP POP DUP1 PUSH1 0x0 ADD SLOAD SWAP1 DUP1 PUSH1 0x1 ADD SLOAD SWAP1 DUP1 PUSH1 0x2 ADD SLOAD SWAP1 DUP1 PUSH1 0x3 ADD SLOAD SWAP1 DUP1 PUSH1 0x4 ADD SLOAD SWAP1 DUP1 PUSH1 0x5 ADD PUSH1 0x0 SWAP1 SLOAD SWAP1 PUSH2 0x100 EXP SWAP1 DIV PUSH20 0xFFFFFFFFFFFFFFFFFFFFFFFFFFFFFFFFFFFFFFFF AND SWAP1 POP DUP7 JUMP JUMPDEST PUSH1 0x60 PUSH1 0x4 PUSH1 0x0 CALLER PUSH20 0xFFFFFFFFFFFFFFFFFFFFFFFFFFFFFFFFFFFFFFFF AND PUSH20 0xFFFFFFFFFFFFFFFFFFFFFFFFFFFFFFFFFFFFFFFF AND DUP2 MSTORE PUSH1 0x20 ADD SWAP1 DUP2 MSTORE PUSH1 0x20 ADD PUSH1 0x0 KECCAK256 DUP1 SLOAD DUP1 PUSH1 0x20 MUL PUSH1 0x20 ADD PUSH1 0x40 MLOAD SWAP1 DUP2 ADD PUSH1 0x40 MSTORE DUP1 SWAP3 SWAP2 SWAP1 DUP2 DUP2 MSTORE PUSH1 0x20 ADD PUSH1 0x0 SWAP1 JUMPDEST DUP3 DUP3 LT ISZERO PUSH2 0xD19 JUMPI DUP4 DUP3 SWAP1 PUSH1 0x0 MSTORE PUSH1 0x20 PUSH1 0x0 KECCAK256 SWAP1 PUSH1 0x6 MUL ADD PUSH1 0x40 MLOAD DUP1 PUSH1 0xC0 ADD PUSH1 0x40 MSTORE SWAP1 DUP2 PUSH1 0x0 DUP3 ADD SLOAD DUP2 MSTORE PUSH1 0x20 ADD PUSH1 0x1 DUP3 ADD SLOAD DUP2 MSTORE PUSH1 0x20 ADD PUSH1 0x2 DUP3 ADD SLOAD DUP2 MSTORE PUSH1 0x20 ADD PUSH1 0x3 DUP3 ADD SLOAD DUP2 MSTORE PUSH1 0x20 ADD PUSH1 0x4 DUP3 ADD SLOAD DUP2 MSTORE PUSH1 0x20 ADD PUSH1 0x5 DUP3 ADD PUSH1 0x0 SWAP1 SLOAD SWAP1 PUSH2 0x100 EXP SWAP1 DIV PUSH20 0xFFFFFFFFFFFFFFFFFFFFFFFFFFFFFFFFFFFFFFFF AND PUSH20 0xFFFFFFFFFFFFFFFFFFFFFFFFFFFFFFFFFFFFFFFF AND PUSH20 0xFFFFFFFFFFFFFFFFFFFFFFFFFFFFFFFFFFFFFFFF AND DUP2 MSTORE POP POP DUP2 MSTORE PUSH1 0x20 ADD SWAP1 PUSH1 0x1 ADD SWAP1 PUSH2 0xC5F JUMP JUMPDEST POP POP POP POP SWAP1 POP SWAP1 JUMP JUMPDEST PUSH1 0x60 PUSH1 0x3 PUSH1 0x0 DUP4 DUP2 MSTORE PUSH1 0x20 ADD SWAP1 DUP2 MSTORE PUSH1 0x20 ADD PUSH1 0x0 KECCAK256 DUP1 SLOAD DUP1 PUSH1 0x20 MUL PUSH1 0x20 ADD PUSH1 0x40 MLOAD SWAP1 DUP2 ADD PUSH1 0x40 MSTORE DUP1 SWAP3 SWAP2 SWAP1 DUP2 DUP2 MSTORE PUSH1 0x20 ADD PUSH1 0x0 SWAP1 JUMPDEST DUP3 DUP3 LT ISZERO PUSH2 0xE11 JUMPI DUP4 DUP3 SWAP1 PUSH1 0x0 MSTORE PUSH1 0x20 PUSH1 0x0 KECCAK256 SWAP1 PUSH1 0x6 MUL ADD PUSH1 0x40 MLOAD DUP1 PUSH1 0xC0 ADD PUSH1 0x40 MSTORE SWAP1 DUP2 PUSH1 0x0 DUP3 ADD SLOAD DUP2 MSTORE PUSH1 0x20 ADD PUSH1 0x1 DUP3 ADD SLOAD DUP2 MSTORE PUSH1 0x20 ADD PUSH1 0x2 DUP3 ADD SLOAD DUP2 MSTORE PUSH1 0x20 ADD PUSH1 0x3 DUP3 ADD SLOAD DUP2 MSTORE PUSH1 0x20 ADD PUSH1 0x4 DUP3 ADD SLOAD DUP2 MSTORE PUSH1 0x20 ADD PUSH1 0x5 DUP3 ADD PUSH1 0x0 SWAP1 SLOAD SWAP1 PUSH2 0x100 EXP SWAP1 DIV PUSH20 0xFFFFFFFFFFFFFFFFFFFFFFFFFFFFFFFFFFFFFFFF AND PUSH20 0xFFFFFFFFFFFFFFFFFFFFFFFFFFFFFFFFFFFFFFFF AND PUSH20 0xFFFFFFFFFFFFFFFFFFFFFFFFFFFFFFFFFFFFFFFF AND DUP2 MSTORE POP POP DUP2 MSTORE PUSH1 0x20 ADD SWAP1 PUSH1 0x1 ADD SWAP1 PUSH2 0xD57 JUMP JUMPDEST POP POP POP POP SWAP1 POP SWAP2 SWAP1 POP JUMP JUMPDEST PUSH1 0x0 PUSH1 0x2 PUSH1 0x0 DUP7 DUP2 MSTORE PUSH1 0x20 ADD SWAP1 DUP2 MSTORE PUSH1 0x20 ADD PUSH1 0x0 KECCAK256 PUSH1 0x40 MLOAD DUP1 PUSH1 0xE0 ADD PUSH1 0x40 MSTORE SWAP1 DUP2 PUSH1 0x0 DUP3 ADD SLOAD DUP2 MSTORE PUSH1 0x20 ADD PUSH1 0x1 DUP3 ADD DUP1 SLOAD PUSH2 0xE56 SWAP1 PUSH2 0x1F54 JUMP JUMPDEST DUP1 PUSH1 0x1F ADD PUSH1 0x20 DUP1 SWAP2 DIV MUL PUSH1 0x20 ADD PUSH1 0x40 MLOAD SWAP1 DUP2 ADD PUSH1 0x40 MSTORE DUP1 SWAP3 SWAP2 SWAP1 DUP2 DUP2 MSTORE PUSH1 0x20 ADD DUP3 DUP1 SLOAD PUSH2 0xE82 SWAP1 PUSH2 0x1F54 JUMP JUMPDEST DUP1 ISZERO PUSH2 0xECF JUMPI DUP1 PUSH1 0x1F LT PUSH2 0xEA4 JUMPI PUSH2 0x100 DUP1 DUP4 SLOAD DIV MUL DUP4 MSTORE SWAP2 PUSH1 0x20 ADD SWAP2 PUSH2 0xECF JUMP JUMPDEST DUP3 ADD SWAP2 SWAP1 PUSH1 0x0 MSTORE PUSH1 0x20 PUSH1 0x0 KECCAK256 SWAP1 JUMPDEST DUP2 SLOAD DUP2 MSTORE SWAP1 PUSH1 0x1 ADD SWAP1 PUSH1 0x20 ADD DUP1 DUP4 GT PUSH2 0xEB2 JUMPI DUP3 SWAP1 SUB PUSH1 0x1F AND DUP3 ADD SWAP2 JUMPDEST POP POP POP POP POP DUP2 MSTORE PUSH1 0x20 ADD PUSH1 0x2 DUP3 ADD DUP1 SLOAD PUSH2 0xEE8 SWAP1 PUSH2 0x1F54 JUMP JUMPDEST DUP1 PUSH1 0x1F ADD PUSH1 0x20 DUP1 SWAP2 DIV MUL PUSH1 0x20 ADD PUSH1 0x40 MLOAD SWAP1 DUP2 ADD PUSH1 0x40 MSTORE DUP1 SWAP3 SWAP2 SWAP1 DUP2 DUP2 MSTORE PUSH1 0x20 ADD DUP3 DUP1 SLOAD PUSH2 0xF14 SWAP1 PUSH2 0x1F54 JUMP JUMPDEST DUP1 ISZERO PUSH2 0xF61 JUMPI DUP1 PUSH1 0x1F LT PUSH2 0xF36 JUMPI PUSH2 0x100 DUP1 DUP4 SLOAD DIV MUL DUP4 MSTORE SWAP2 PUSH1 0x20 ADD SWAP2 PUSH2 0xF61 JUMP JUMPDEST DUP3 ADD SWAP2 SWAP1 PUSH1 0x0 MSTORE PUSH1 0x20 PUSH1 0x0 KECCAK256 SWAP1 JUMPDEST DUP2 SLOAD DUP2 MSTORE SWAP1 PUSH1 0x1 ADD SWAP1 PUSH1 0x20 ADD DUP1 DUP4 GT PUSH2 0xF44 JUMPI DUP3 SWAP1 SUB PUSH1 0x1F AND DUP3 ADD SWAP2 JUMPDEST POP POP POP POP POP DUP2 MSTORE PUSH1 0x20 ADD PUSH1 0x3 DUP3 ADD PUSH1 0x0 SWAP1 SLOAD SWAP1 PUSH2 0x100 EXP SWAP1 DIV PUSH1 0xFF AND ISZERO ISZERO ISZERO ISZERO DUP2 MSTORE PUSH1 0x20 ADD PUSH1 0x4 DUP3 ADD SLOAD DUP2 MSTORE PUSH1 0x20 ADD PUSH1 0x5 DUP3 ADD PUSH1 0x0 SWAP1 SLOAD SWAP1 PUSH2 0x100 EXP SWAP1 DIV PUSH20 0xFFFFFFFFFFFFFFFFFFFFFFFFFFFFFFFFFFFFFFFF AND PUSH20 0xFFFFFFFFFFFFFFFFFFFFFFFFFFFFFFFFFFFFFFFF AND PUSH20 0xFFFFFFFFFFFFFFFFFFFFFFFFFFFFFFFFFFFFFFFF AND DUP2 MSTORE PUSH1 0x20 ADD PUSH1 0x6 DUP3 ADD DUP1 SLOAD DUP1 PUSH1 0x20 MUL PUSH1 0x20 ADD PUSH1 0x40 MLOAD SWAP1 DUP2 ADD PUSH1 0x40 MSTORE DUP1 SWAP3 SWAP2 SWAP1 DUP2 DUP2 MSTORE PUSH1 0x20 ADD DUP3 DUP1 SLOAD DUP1 ISZERO PUSH2 0x1059 JUMPI PUSH1 0x20 MUL DUP3 ADD SWAP2 SWAP1 PUSH1 0x0 MSTORE PUSH1 0x20 PUSH1 0x0 KECCAK256 SWAP1 PUSH1 0x0 SWAP1 JUMPDEST DUP3 DUP3 SWAP1 SLOAD SWAP1 PUSH2 0x100 EXP SWAP1 DIV PUSH1 0xFF AND ISZERO ISZERO DUP2 MSTORE PUSH1 0x20 ADD SWAP1 PUSH1 0x1 ADD SWAP1 PUSH1 0x20 DUP3 PUSH1 0x0 ADD DIV SWAP3 DUP4 ADD SWAP3 PUSH1 0x1 SUB DUP3 MUL SWAP2 POP DUP1 DUP5 GT PUSH2 0x1023 JUMPI SWAP1 POP JUMPDEST POP POP POP POP POP DUP2 MSTORE POP POP SWAP1 POP PUSH1 0x1 ISZERO ISZERO DUP2 PUSH1 0x60 ADD MLOAD ISZERO ISZERO EQ PUSH2 0x10AF JUMPI PUSH1 0x40 MLOAD PUSH32 0x8C379A000000000000000000000000000000000000000000000000000000000 DUP2 MSTORE PUSH1 0x4 ADD PUSH2 0x10A6 SWAP1 PUSH2 0x1C7E JUMP JUMPDEST PUSH1 0x40 MLOAD DUP1 SWAP2 SUB SWAP1 REVERT JUMPDEST PUSH7 0x38D7EA4C68000 DUP2 PUSH1 0x80 ADD MLOAD DUP5 DUP5 PUSH2 0x10C8 SWAP2 SWAP1 PUSH2 0x1EA5 JUMP JUMPDEST PUSH2 0x10D2 SWAP2 SWAP1 PUSH2 0x1E4B JUMP JUMPDEST PUSH2 0x10DC SWAP2 SWAP1 PUSH2 0x1E4B JUMP JUMPDEST CALLVALUE EQ PUSH2 0x111D JUMPI PUSH1 0x40 MLOAD PUSH32 0x8C379A000000000000000000000000000000000000000000000000000000000 DUP2 MSTORE PUSH1 0x4 ADD PUSH2 0x1114 SWAP1 PUSH2 0x1C9E JUMP JUMPDEST PUSH1 0x40 MLOAD DUP1 SWAP2 SUB SWAP1 REVERT JUMPDEST PUSH1 0x0 DUP4 SWAP1 POP JUMPDEST DUP3 DUP2 LT ISZERO PUSH2 0x11A3 JUMPI PUSH1 0x0 ISZERO ISZERO DUP3 PUSH1 0xC0 ADD MLOAD DUP3 DUP2 MLOAD DUP2 LT PUSH2 0x1146 JUMPI PUSH2 0x1145 PUSH2 0x202D JUMP JUMPDEST JUMPDEST PUSH1 0x20 MUL PUSH1 0x20 ADD ADD MLOAD ISZERO ISZERO EQ PUSH2 0x1190 JUMPI PUSH1 0x40 MLOAD PUSH32 0x8C379A000000000000000000000000000000000000000000000000000000000 DUP2 MSTORE PUSH1 0x4 ADD PUSH2 0x1187 SWAP1 PUSH2 0x1CBE JUMP JUMPDEST PUSH1 0x40 MLOAD DUP1 SWAP2 SUB SWAP1 REVERT JUMPDEST DUP1 DUP1 PUSH2 0x119B SWAP1 PUSH2 0x1F86 JUMP JUMPDEST SWAP2 POP POP PUSH2 0x1123 JUMP JUMPDEST POP PUSH2 0x11B2 DUP2 PUSH1 0xA0 ADD MLOAD CALLVALUE PUSH2 0x12DA JUMP JUMPDEST PUSH2 0x11BE DUP6 DUP6 DUP6 DUP6 PUSH2 0x1325 JUMP JUMPDEST POP POP POP POP POP JUMP JUMPDEST PUSH1 0x0 SLOAD DUP2 JUMP JUMPDEST PUSH1 0x0 PUSH1 0x2 PUSH1 0x0 DUP4 DUP2 MSTORE PUSH1 0x20 ADD SWAP1 DUP2 MSTORE PUSH1 0x20 ADD PUSH1 0x0 KECCAK256 SWAP1 POP CALLER PUSH20 0xFFFFFFFFFFFFFFFFFFFFFFFFFFFFFFFFFFFFFFFF AND DUP2 PUSH1 0x5 ADD PUSH1 0x0 SWAP1 SLOAD SWAP1 PUSH2 0x100 EXP SWAP1 DIV PUSH20 0xFFFFFFFFFFFFFFFFFFFFFFFFFFFFFFFFFFFFFFFF AND PUSH20 0xFFFFFFFFFFFFFFFFFFFFFFFFFFFFFFFFFFFFFFFF AND EQ PUSH2 0x1274 JUMPI PUSH1 0x40 MLOAD PUSH32 0x8C379A000000000000000000000000000000000000000000000000000000000 DUP2 MSTORE PUSH1 0x4 ADD PUSH2 0x126B SWAP1 PUSH2 0x1C5E JUMP JUMPDEST PUSH1 0x40 MLOAD DUP1 SWAP2 SUB SWAP1 REVERT JUMPDEST PUSH1 0x0 JUMPDEST PUSH2 0x164 DUP2 LT ISZERO PUSH2 0x12D5 JUMPI PUSH1 0x0 DUP3 PUSH1 0x6 ADD DUP3 DUP2 SLOAD DUP2 LT PUSH2 0x1299 JUMPI PUSH2 0x1298 PUSH2 0x202D JUMP JUMPDEST JUMPDEST SWAP1 PUSH1 0x0 MSTORE PUSH1 0x20 PUSH1 0x0 KECCAK256 SWAP1 PUSH1 0x20 SWAP2 DUP3 DUP3 DIV ADD SWAP2 SWAP1 MOD PUSH2 0x100 EXP DUP2 SLOAD DUP2 PUSH1 0xFF MUL NOT AND SWAP1 DUP4 ISZERO ISZERO MUL OR SWAP1 SSTORE POP DUP1 DUP1 PUSH2 0x12CD SWAP1 PUSH2 0x1F86 JUMP JUMPDEST SWAP2 POP POP PUSH2 0x1277 JUMP JUMPDEST POP POP POP JUMP JUMPDEST DUP2 PUSH20 0xFFFFFFFFFFFFFFFFFFFFFFFFFFFFFFFFFFFFFFFF AND PUSH2 0x8FC DUP3 SWAP1 DUP2 ISZERO MUL SWAP1 PUSH1 0x40 MLOAD PUSH1 0x0 PUSH1 0x40 MLOAD DUP1 DUP4 SUB DUP2 DUP6 DUP9 DUP9 CALL SWAP4 POP POP POP POP ISZERO DUP1 ISZERO PUSH2 0x1320 JUMPI RETURNDATASIZE PUSH1 0x0 DUP1 RETURNDATACOPY RETURNDATASIZE PUSH1 0x0 REVERT JUMPDEST POP POP POP JUMP JUMPDEST PUSH1 0x0 PUSH1 0x40 MLOAD DUP1 PUSH1 0xC0 ADD PUSH1 0x40 MSTORE DUP1 PUSH1 0x1 SLOAD DUP2 MSTORE PUSH1 0x20 ADD DUP7 DUP2 MSTORE PUSH1 0x20 ADD DUP6 DUP2 MSTORE PUSH1 0x20 ADD DUP5 DUP2 MSTORE PUSH1 0x20 ADD DUP4 DUP2 MSTORE PUSH1 0x20 ADD CALLER PUSH20 0xFFFFFFFFFFFFFFFFFFFFFFFFFFFFFFFFFFFFFFFF AND DUP2 MSTORE POP SWAP1 POP PUSH1 0x0 DUP4 SWAP1 POP JUMPDEST DUP3 DUP2 LT ISZERO PUSH2 0x13E2 JUMPI PUSH1 0x1 PUSH1 0x2 PUSH1 0x0 DUP9 DUP2 MSTORE PUSH1 0x20 ADD SWAP1 DUP2 MSTORE PUSH1 0x20 ADD PUSH1 0x0 KECCAK256 PUSH1 0x6 ADD DUP3 DUP2 SLOAD DUP2 LT PUSH2 0x13A6 JUMPI PUSH2 0x13A5 PUSH2 0x202D JUMP JUMPDEST JUMPDEST SWAP1 PUSH1 0x0 MSTORE PUSH1 0x20 PUSH1 0x0 KECCAK256 SWAP1 PUSH1 0x20 SWAP2 DUP3 DUP3 DIV ADD SWAP2 SWAP1 MOD PUSH2 0x100 EXP DUP2 SLOAD DUP2 PUSH1 0xFF MUL NOT AND SWAP1 DUP4 ISZERO ISZERO MUL OR SWAP1 SSTORE POP DUP1 DUP1 PUSH2 0x13DA SWAP1 PUSH2 0x1F86 JUMP JUMPDEST SWAP2 POP POP PUSH2 0x1374 JUMP JUMPDEST POP PUSH1 0x3 PUSH1 0x0 DUP7 DUP2 MSTORE PUSH1 0x20 ADD SWAP1 DUP2 MSTORE PUSH1 0x20 ADD PUSH1 0x0 KECCAK256 DUP2 SWAP1 DUP1 PUSH1 0x1 DUP2 SLOAD ADD DUP1 DUP3 SSTORE DUP1 SWAP2 POP POP PUSH1 0x1 SWAP1 SUB SWAP1 PUSH1 0x0 MSTORE PUSH1 0x20 PUSH1 0x0 KECCAK256 SWAP1 PUSH1 0x6 MUL ADD PUSH1 0x0 SWAP1 SWAP2 SWAP1 SWAP2 SWAP1 SWAP2 POP PUSH1 0x0 DUP3 ADD MLOAD DUP2 PUSH1 0x0 ADD SSTORE PUSH1 0x20 DUP3 ADD MLOAD DUP2 PUSH1 0x1 ADD SSTORE PUSH1 0x40 DUP3 ADD MLOAD DUP2 PUSH1 0x2 ADD SSTORE PUSH1 0x60 DUP3 ADD MLOAD DUP2 PUSH1 0x3 ADD SSTORE PUSH1 0x80 DUP3 ADD MLOAD DUP2 PUSH1 0x4 ADD SSTORE PUSH1 0xA0 DUP3 ADD MLOAD DUP2 PUSH1 0x5 ADD PUSH1 0x0 PUSH2 0x100 EXP DUP2 SLOAD DUP2 PUSH20 0xFFFFFFFFFFFFFFFFFFFFFFFFFFFFFFFFFFFFFFFF MUL NOT AND SWAP1 DUP4 PUSH20 0xFFFFFFFFFFFFFFFFFFFFFFFFFFFFFFFFFFFFFFFF AND MUL OR SWAP1 SSTORE POP POP POP PUSH1 0x4 PUSH1 0x0 CALLER PUSH20 0xFFFFFFFFFFFFFFFFFFFFFFFFFFFFFFFFFFFFFFFF AND PUSH20 0xFFFFFFFFFFFFFFFFFFFFFFFFFFFFFFFFFFFFFFFF AND DUP2 MSTORE PUSH1 0x20 ADD SWAP1 DUP2 MSTORE PUSH1 0x20 ADD PUSH1 0x0 KECCAK256 DUP2 SWAP1 DUP1 PUSH1 0x1 DUP2 SLOAD ADD DUP1 DUP3 SSTORE DUP1 SWAP2 POP POP PUSH1 0x1 SWAP1 SUB SWAP1 PUSH1 0x0 MSTORE PUSH1 0x20 PUSH1 0x0 KECCAK256 SWAP1 PUSH1 0x6 MUL ADD PUSH1 0x0 SWAP1 SWAP2 SWAP1 SWAP2 SWAP1 SWAP2 POP PUSH1 0x0 DUP3 ADD MLOAD DUP2 PUSH1 0x0 ADD SSTORE PUSH1 0x20 DUP3 ADD MLOAD DUP2 PUSH1 0x1 ADD SSTORE PUSH1 0x40 DUP3 ADD MLOAD DUP2 PUSH1 0x2 ADD SSTORE PUSH1 0x60 DUP3 ADD MLOAD DUP2 PUSH1 0x3 ADD SSTORE PUSH1 0x80 DUP3 ADD MLOAD DUP2 PUSH1 0x4 ADD SSTORE PUSH1 0xA0 DUP3 ADD MLOAD DUP2 PUSH1 0x5 ADD PUSH1 0x0 PUSH2 0x100 EXP DUP2 SLOAD DUP2 PUSH20 0xFFFFFFFFFFFFFFFFFFFFFFFFFFFFFFFFFFFFFFFF MUL NOT AND SWAP1 DUP4 PUSH20 0xFFFFFFFFFFFFFFFFFFFFFFFFFFFFFFFFFFFFFFFF AND MUL OR SWAP1 SSTORE POP POP POP PUSH1 0x1 PUSH1 0x0 DUP2 SLOAD DUP1 SWAP3 SWAP2 SWAP1 PUSH2 0x1592 SWAP1 PUSH2 0x1F86 JUMP JUMPDEST SWAP2 SWAP1 POP SSTORE DUP6 PUSH32 0x84BAD6E347D9AFF08A38E6EB90827C7999F70BFAF3B0ACBE288F512801B9C139 PUSH1 0x40 MLOAD PUSH1 0x40 MLOAD DUP1 SWAP2 SUB SWAP1 LOG3 POP POP POP POP POP JUMP JUMPDEST PUSH1 0x40 MLOAD DUP1 PUSH1 0x40 ADD PUSH1 0x40 MSTORE DUP1 PUSH1 0x2 SWAP1 PUSH1 0x20 DUP3 MUL DUP1 CALLDATASIZE DUP4 CALLDATACOPY DUP1 DUP3 ADD SWAP2 POP POP SWAP1 POP POP SWAP1 JUMP JUMPDEST DUP3 DUP1 SLOAD PUSH2 0x15F8 SWAP1 PUSH2 0x1F54 JUMP JUMPDEST SWAP1 PUSH1 0x0 MSTORE PUSH1 0x20 PUSH1 0x0 KECCAK256 SWAP1 PUSH1 0x1F ADD PUSH1 0x20 SWAP1 DIV DUP2 ADD SWAP3 DUP3 PUSH2 0x161A JUMPI PUSH1 0x0 DUP6 SSTORE PUSH2 0x1661 JUMP JUMPDEST DUP3 PUSH1 0x1F LT PUSH2 0x1633 JUMPI DUP1 MLOAD PUSH1 0xFF NOT AND DUP4 DUP1 ADD OR DUP6 SSTORE PUSH2 0x1661 JUMP JUMPDEST DUP3 DUP1 ADD PUSH1 0x1 ADD DUP6 SSTORE DUP3 ISZERO PUSH2 0x1661 JUMPI SWAP2 DUP3 ADD JUMPDEST DUP3 DUP2 GT ISZERO PUSH2 0x1660 JUMPI DUP3 MLOAD DUP3 SSTORE SWAP2 PUSH1 0x20 ADD SWAP2 SWAP1 PUSH1 0x1 ADD SWAP1 PUSH2 0x1645 JUMP JUMPDEST JUMPDEST POP SWAP1 POP PUSH2 0x166E SWAP2 SWAP1 PUSH2 0x1718 JUMP JUMPDEST POP SWAP1 JUMP JUMPDEST DUP3 DUP1 SLOAD DUP3 DUP3 SSTORE SWAP1 PUSH1 0x0 MSTORE PUSH1 0x20 PUSH1 0x0 KECCAK256 SWAP1 PUSH1 0x1F ADD PUSH1 0x20 SWAP1 DIV DUP2 ADD SWAP3 DUP3 ISZERO PUSH2 0x1707 JUMPI SWAP2 PUSH1 0x20 MUL DUP3 ADD PUSH1 0x0 JUMPDEST DUP4 DUP3 GT ISZERO PUSH2 0x16D8 JUMPI DUP4 MLOAD DUP4 DUP3 PUSH2 0x100 EXP DUP2 SLOAD DUP2 PUSH1 0xFF MUL NOT AND SWAP1 DUP4 ISZERO ISZERO MUL OR SWAP1 SSTORE POP SWAP3 PUSH1 0x20 ADD SWAP3 PUSH1 0x1 ADD PUSH1 0x20 DUP2 PUSH1 0x0 ADD DIV SWAP3 DUP4 ADD SWAP3 PUSH1 0x1 SUB MUL PUSH2 0x169B JUMP JUMPDEST DUP1 ISZERO PUSH2 0x1705 JUMPI DUP3 DUP2 PUSH2 0x100 EXP DUP2 SLOAD SWAP1 PUSH1 0xFF MUL NOT AND SWAP1 SSTORE PUSH1 0x1 ADD PUSH1 0x20 DUP2 PUSH1 0x0 ADD DIV SWAP3 DUP4 ADD SWAP3 PUSH1 0x1 SUB MUL PUSH2 0x16D8 JUMP JUMPDEST POP JUMPDEST POP SWAP1 POP PUSH2 0x1714 SWAP2 SWAP1 PUSH2 0x1718 JUMP JUMPDEST POP SWAP1 JUMP JUMPDEST JUMPDEST DUP1 DUP3 GT ISZERO PUSH2 0x1731 JUMPI PUSH1 0x0 DUP2 PUSH1 0x0 SWAP1 SSTORE POP PUSH1 0x1 ADD PUSH2 0x1719 JUMP JUMPDEST POP SWAP1 JUMP JUMPDEST PUSH1 0x0 DUP2 CALLDATALOAD SWAP1 POP PUSH2 0x1744 DUP2 PUSH2 0x2159 JUMP JUMPDEST SWAP3 SWAP2 POP POP JUMP JUMPDEST PUSH1 0x0 DUP1 DUP4 PUSH1 0x1F DUP5 ADD SLT PUSH2 0x1760 JUMPI PUSH2 0x175F PUSH2 0x2090 JUMP JUMPDEST JUMPDEST DUP3 CALLDATALOAD SWAP1 POP PUSH8 0xFFFFFFFFFFFFFFFF DUP2 GT ISZERO PUSH2 0x177D JUMPI PUSH2 0x177C PUSH2 0x208B JUMP JUMPDEST JUMPDEST PUSH1 0x20 DUP4 ADD SWAP2 POP DUP4 PUSH1 0x1 DUP3 MUL DUP4 ADD GT ISZERO PUSH2 0x1799 JUMPI PUSH2 0x1798 PUSH2 0x2095 JUMP JUMPDEST JUMPDEST SWAP3 POP SWAP3 SWAP1 POP JUMP JUMPDEST PUSH1 0x0 DUP2 CALLDATALOAD SWAP1 POP PUSH2 0x17AF DUP2 PUSH2 0x2170 JUMP JUMPDEST SWAP3 SWAP2 POP POP JUMP JUMPDEST PUSH1 0x0 DUP1 PUSH1 0x40 DUP4 DUP6 SUB SLT ISZERO PUSH2 0x17CC JUMPI PUSH2 0x17CB PUSH2 0x209F JUMP JUMPDEST JUMPDEST PUSH1 0x0 PUSH2 0x17DA DUP6 DUP3 DUP7 ADD PUSH2 0x1735 JUMP JUMPDEST SWAP3 POP POP PUSH1 0x20 PUSH2 0x17EB DUP6 DUP3 DUP7 ADD PUSH2 0x17A0 JUMP JUMPDEST SWAP2 POP POP SWAP3 POP SWAP3 SWAP1 POP JUMP JUMPDEST PUSH1 0x0 DUP1 PUSH1 0x0 DUP1 PUSH1 0x0 PUSH1 0x60 DUP7 DUP9 SUB SLT ISZERO PUSH2 0x1811 JUMPI PUSH2 0x1810 PUSH2 0x209F JUMP JUMPDEST JUMPDEST PUSH1 0x0 DUP7 ADD CALLDATALOAD PUSH8 0xFFFFFFFFFFFFFFFF DUP2 GT ISZERO PUSH2 0x182F JUMPI PUSH2 0x182E PUSH2 0x209A JUMP JUMPDEST JUMPDEST PUSH2 0x183B DUP9 DUP3 DUP10 ADD PUSH2 0x174A JUMP JUMPDEST SWAP6 POP SWAP6 POP POP PUSH1 0x20 DUP7 ADD CALLDATALOAD PUSH8 0xFFFFFFFFFFFFFFFF DUP2 GT ISZERO PUSH2 0x185E JUMPI PUSH2 0x185D PUSH2 0x209A JUMP JUMPDEST JUMPDEST PUSH2 0x186A DUP9 DUP3 DUP10 ADD PUSH2 0x174A JUMP JUMPDEST SWAP4 POP SWAP4 POP POP PUSH1 0x40 PUSH2 0x187D DUP9 DUP3 DUP10 ADD PUSH2 0x17A0 JUMP JUMPDEST SWAP2 POP POP SWAP3 SWAP6 POP SWAP3 SWAP6 SWAP1 SWAP4 POP JUMP JUMPDEST PUSH1 0x0 PUSH1 0x20 DUP3 DUP5 SUB SLT ISZERO PUSH2 0x18A0 JUMPI PUSH2 0x189F PUSH2 0x209F JUMP JUMPDEST JUMPDEST PUSH1 0x0 PUSH2 0x18AE DUP5 DUP3 DUP6 ADD PUSH2 0x17A0 JUMP JUMPDEST SWAP2 POP POP SWAP3 SWAP2 POP POP JUMP JUMPDEST PUSH1 0x0 DUP1 PUSH1 0x40 DUP4 DUP6 SUB SLT ISZERO PUSH2 0x18CE JUMPI PUSH2 0x18CD PUSH2 0x209F JUMP JUMPDEST JUMPDEST PUSH1 0x0 PUSH2 0x18DC DUP6 DUP3 DUP7 ADD PUSH2 0x17A0 JUMP JUMPDEST SWAP3 POP POP PUSH1 0x20 PUSH2 0x18ED DUP6 DUP3 DUP7 ADD PUSH2 0x17A0 JUMP JUMPDEST SWAP2 POP POP SWAP3 POP SWAP3 SWAP1 POP JUMP JUMPDEST PUSH1 0x0 DUP1 PUSH1 0x0 PUSH1 0x60 DUP5 DUP7 SUB SLT ISZERO PUSH2 0x1910 JUMPI PUSH2 0x190F PUSH2 0x209F JUMP JUMPDEST JUMPDEST PUSH1 0x0 PUSH2 0x191E DUP7 DUP3 DUP8 ADD PUSH2 0x17A0 JUMP JUMPDEST SWAP4 POP POP PUSH1 0x20 PUSH2 0x192F DUP7 DUP3 DUP8 ADD PUSH2 0x17A0 JUMP JUMPDEST SWAP3 POP POP PUSH1 0x40 PUSH2 0x1940 DUP7 DUP3 DUP8 ADD PUSH2 0x17A0 JUMP JUMPDEST SWAP2 POP POP SWAP3 POP SWAP3 POP SWAP3 JUMP JUMPDEST PUSH1 0x0 DUP1 PUSH1 0x0 DUP1 PUSH1 0x80 DUP6 DUP8 SUB SLT ISZERO PUSH2 0x1964 JUMPI PUSH2 0x1963 PUSH2 0x209F JUMP JUMPDEST JUMPDEST PUSH1 0x0 PUSH2 0x1972 DUP8 DUP3 DUP9 ADD PUSH2 0x17A0 JUMP JUMPDEST SWAP5 POP POP PUSH1 0x20 PUSH2 0x1983 DUP8 DUP3 DUP9 ADD PUSH2 0x17A0 JUMP JUMPDEST SWAP4 POP POP PUSH1 0x40 PUSH2 0x1994 DUP8 DUP3 DUP9 ADD PUSH2 0x17A0 JUMP JUMPDEST SWAP3 POP POP PUSH1 0x60 PUSH2 0x19A5 DUP8 DUP3 DUP9 ADD PUSH2 0x17A0 JUMP JUMPDEST SWAP2 POP POP SWAP3 SWAP6 SWAP2 SWAP5 POP SWAP3 POP JUMP JUMPDEST PUSH1 0x0 PUSH2 0x19BD DUP4 DUP4 PUSH2 0x1B88 JUMP JUMPDEST PUSH1 0xC0 DUP4 ADD SWAP1 POP SWAP3 SWAP2 POP POP JUMP JUMPDEST PUSH1 0x0 PUSH2 0x19D5 DUP4 DUP4 PUSH2 0x1C03 JUMP JUMPDEST PUSH1 0x20 DUP4 ADD SWAP1 POP SWAP3 SWAP2 POP POP JUMP JUMPDEST PUSH2 0x19EA DUP2 PUSH2 0x1ED9 JUMP JUMPDEST DUP3 MSTORE POP POP JUMP JUMPDEST PUSH2 0x19F9 DUP2 PUSH2 0x1ED9 JUMP JUMPDEST DUP3 MSTORE POP POP JUMP JUMPDEST PUSH1 0x0 PUSH2 0x1A0A DUP3 PUSH2 0x1DE3 JUMP JUMPDEST PUSH2 0x1A14 DUP2 DUP6 PUSH2 0x1E1E JUMP JUMPDEST SWAP4 POP PUSH2 0x1A1F DUP4 PUSH2 0x1DC9 JUMP JUMPDEST DUP1 PUSH1 0x0 JUMPDEST DUP4 DUP2 LT ISZERO PUSH2 0x1A50 JUMPI DUP2 MLOAD PUSH2 0x1A37 DUP9 DUP3 PUSH2 0x19B1 JUMP JUMPDEST SWAP8 POP PUSH2 0x1A42 DUP4 PUSH2 0x1E04 JUMP JUMPDEST SWAP3 POP POP PUSH1 0x1 DUP2 ADD SWAP1 POP PUSH2 0x1A23 JUMP JUMPDEST POP DUP6 SWAP4 POP POP POP POP SWAP3 SWAP2 POP POP JUMP JUMPDEST PUSH2 0x1A66 DUP2 PUSH2 0x1DEE JUMP JUMPDEST PUSH2 0x1A70 DUP2 DUP5 PUSH2 0x1E2F JUMP JUMPDEST SWAP3 POP PUSH2 0x1A7B DUP3 PUSH2 0x1DD9 JUMP JUMPDEST DUP1 PUSH1 0x0 JUMPDEST DUP4 DUP2 LT ISZERO PUSH2 0x1AAC JUMPI DUP2 MLOAD PUSH2 0x1A93 DUP8 DUP3 PUSH2 0x19C9 JUMP JUMPDEST SWAP7 POP PUSH2 0x1A9E DUP4 PUSH2 0x1E11 JUMP JUMPDEST SWAP3 POP POP PUSH1 0x1 DUP2 ADD SWAP1 POP PUSH2 0x1A7F JUMP JUMPDEST POP POP POP POP POP POP JUMP JUMPDEST PUSH2 0x1ABD DUP2 PUSH2 0x1EEB JUMP JUMPDEST DUP3 MSTORE POP POP JUMP JUMPDEST PUSH1 0x0 PUSH2 0x1ACE DUP3 PUSH2 0x1DF9 JUMP JUMPDEST PUSH2 0x1AD8 DUP2 DUP6 PUSH2 0x1E3A JUMP JUMPDEST SWAP4 POP PUSH2 0x1AE8 DUP2 DUP6 PUSH1 0x20 DUP7 ADD PUSH2 0x1F21 JUMP JUMPDEST PUSH2 0x1AF1 DUP2 PUSH2 0x20A4 JUMP JUMPDEST DUP5 ADD SWAP2 POP POP SWAP3 SWAP2 POP POP JUMP JUMPDEST PUSH1 0x0 PUSH2 0x1B09 PUSH1 0x11 DUP4 PUSH2 0x1E3A JUMP JUMPDEST SWAP2 POP PUSH2 0x1B14 DUP3 PUSH2 0x20B5 JUMP JUMPDEST PUSH1 0x20 DUP3 ADD SWAP1 POP SWAP2 SWAP1 POP JUMP JUMPDEST PUSH1 0x0 PUSH2 0x1B2C PUSH1 0xD DUP4 PUSH2 0x1E3A JUMP JUMPDEST SWAP2 POP PUSH2 0x1B37 DUP3 PUSH2 0x20DE JUMP JUMPDEST PUSH1 0x20 DUP3 ADD SWAP1 POP SWAP2 SWAP1 POP JUMP JUMPDEST PUSH1 0x0 PUSH2 0x1B4F PUSH1 0xD DUP4 PUSH2 0x1E3A JUMP JUMPDEST SWAP2 POP PUSH2 0x1B5A DUP3 PUSH2 0x2107 JUMP JUMPDEST PUSH1 0x20 DUP3 ADD SWAP1 POP SWAP2 SWAP1 POP JUMP JUMPDEST PUSH1 0x0 PUSH2 0x1B72 PUSH1 0x10 DUP4 PUSH2 0x1E3A JUMP JUMPDEST SWAP2 POP PUSH2 0x1B7D DUP3 PUSH2 0x2130 JUMP JUMPDEST PUSH1 0x20 DUP3 ADD SWAP1 POP SWAP2 SWAP1 POP JUMP JUMPDEST PUSH1 0xC0 DUP3 ADD PUSH1 0x0 DUP3 ADD MLOAD PUSH2 0x1B9E PUSH1 0x0 DUP6 ADD DUP3 PUSH2 0x1C03 JUMP JUMPDEST POP PUSH1 0x20 DUP3 ADD MLOAD PUSH2 0x1BB1 PUSH1 0x20 DUP6 ADD DUP3 PUSH2 0x1C03 JUMP JUMPDEST POP PUSH1 0x40 DUP3 ADD MLOAD PUSH2 0x1BC4 PUSH1 0x40 DUP6 ADD DUP3 PUSH2 0x1C03 JUMP JUMPDEST POP PUSH1 0x60 DUP3 ADD MLOAD PUSH2 0x1BD7 PUSH1 0x60 DUP6 ADD DUP3 PUSH2 0x1C03 JUMP JUMPDEST POP PUSH1 0x80 DUP3 ADD MLOAD PUSH2 0x1BEA PUSH1 0x80 DUP6 ADD DUP3 PUSH2 0x1C03 JUMP JUMPDEST POP PUSH1 0xA0 DUP3 ADD MLOAD PUSH2 0x1BFD PUSH1 0xA0 DUP6 ADD DUP3 PUSH2 0x19E1 JUMP JUMPDEST POP POP POP POP JUMP JUMPDEST PUSH2 0x1C0C DUP2 PUSH2 0x1F17 JUMP JUMPDEST DUP3 MSTORE POP POP JUMP JUMPDEST PUSH2 0x1C1B DUP2 PUSH2 0x1F17 JUMP JUMPDEST DUP3 MSTORE POP POP JUMP JUMPDEST PUSH1 0x0 PUSH1 0x20 DUP3 ADD SWAP1 POP DUP2 DUP2 SUB PUSH1 0x0 DUP4 ADD MSTORE PUSH2 0x1C3B DUP2 DUP5 PUSH2 0x19FF JUMP JUMPDEST SWAP1 POP SWAP3 SWAP2 POP POP JUMP JUMPDEST PUSH1 0x0 PUSH1 0x40 DUP3 ADD SWAP1 POP PUSH2 0x1C58 PUSH1 0x0 DUP4 ADD DUP5 PUSH2 0x1A5D JUMP JUMPDEST SWAP3 SWAP2 POP POP JUMP JUMPDEST PUSH1 0x0 PUSH1 0x20 DUP3 ADD SWAP1 POP DUP2 DUP2 SUB PUSH1 0x0 DUP4 ADD MSTORE PUSH2 0x1C77 DUP2 PUSH2 0x1AFC JUMP JUMPDEST SWAP1 POP SWAP2 SWAP1 POP JUMP JUMPDEST PUSH1 0x0 PUSH1 0x20 DUP3 ADD SWAP1 POP DUP2 DUP2 SUB PUSH1 0x0 DUP4 ADD MSTORE PUSH2 0x1C97 DUP2 PUSH2 0x1B1F JUMP JUMPDEST SWAP1 POP SWAP2 SWAP1 POP JUMP JUMPDEST PUSH1 0x0 PUSH1 0x20 DUP3 ADD SWAP1 POP DUP2 DUP2 SUB PUSH1 0x0 DUP4 ADD MSTORE PUSH2 0x1CB7 DUP2 PUSH2 0x1B42 JUMP JUMPDEST SWAP1 POP SWAP2 SWAP1 POP JUMP JUMPDEST PUSH1 0x0 PUSH1 0x20 DUP3 ADD SWAP1 POP DUP2 DUP2 SUB PUSH1 0x0 DUP4 ADD MSTORE PUSH2 0x1CD7 DUP2 PUSH2 0x1B65 JUMP JUMPDEST SWAP1 POP SWAP2 SWAP1 POP JUMP JUMPDEST PUSH1 0x0 PUSH1 0x20 DUP3 ADD SWAP1 POP PUSH2 0x1CF3 PUSH1 0x0 DUP4 ADD DUP5 PUSH2 0x1C12 JUMP JUMPDEST SWAP3 SWAP2 POP POP JUMP JUMPDEST PUSH1 0x0 PUSH1 0xC0 DUP3 ADD SWAP1 POP PUSH2 0x1D0E PUSH1 0x0 DUP4 ADD DUP10 PUSH2 0x1C12 JUMP JUMPDEST DUP2 DUP2 SUB PUSH1 0x20 DUP4 ADD MSTORE PUSH2 0x1D20 DUP2 DUP9 PUSH2 0x1AC3 JUMP JUMPDEST SWAP1 POP DUP2 DUP2 SUB PUSH1 0x40 DUP4 ADD MSTORE PUSH2 0x1D34 DUP2 DUP8 PUSH2 0x1AC3 JUMP JUMPDEST SWAP1 POP PUSH2 0x1D43 PUSH1 0x60 DUP4 ADD DUP7 PUSH2 0x1AB4 JUMP JUMPDEST PUSH2 0x1D50 PUSH1 0x80 DUP4 ADD DUP6 PUSH2 0x1C12 JUMP JUMPDEST PUSH2 0x1D5D PUSH1 0xA0 DUP4 ADD DUP5 PUSH2 0x19F0 JUMP JUMPDEST SWAP8 SWAP7 POP POP POP POP POP POP POP JUMP JUMPDEST PUSH1 0x0 PUSH1 0xC0 DUP3 ADD SWAP1 POP PUSH2 0x1D7D PUSH1 0x0 DUP4 ADD DUP10 PUSH2 0x1C12 JUMP JUMPDEST PUSH2 0x1D8A PUSH1 0x20 DUP4 ADD DUP9 PUSH2 0x1C12 JUMP JUMPDEST PUSH2 0x1D97 PUSH1 0x40 DUP4 ADD DUP8 PUSH2 0x1C12 JUMP JUMPDEST PUSH2 0x1DA4 PUSH1 0x60 DUP4 ADD DUP7 PUSH2 0x1C12 JUMP JUMPDEST PUSH2 0x1DB1 PUSH1 0x80 DUP4 ADD DUP6 PUSH2 0x1C12 JUMP JUMPDEST PUSH2 0x1DBE PUSH1 0xA0 DUP4 ADD DUP5 PUSH2 0x19F0 JUMP JUMPDEST SWAP8 SWAP7 POP POP POP POP POP POP POP JUMP JUMPDEST PUSH1 0x0 DUP2 SWAP1 POP PUSH1 0x20 DUP3 ADD SWAP1 POP SWAP2 SWAP1 POP JUMP JUMPDEST PUSH1 0x0 DUP2 SWAP1 POP SWAP2 SWAP1 POP JUMP JUMPDEST PUSH1 0x0 DUP2 MLOAD SWAP1 POP SWAP2 SWAP1 POP JUMP JUMPDEST PUSH1 0x0 PUSH1 0x2 SWAP1 POP SWAP2 SWAP1 POP JUMP JUMPDEST PUSH1 0x0 DUP2 MLOAD SWAP1 POP SWAP2 SWAP1 POP JUMP JUMPDEST PUSH1 0x0 PUSH1 0x20 DUP3 ADD SWAP1 POP SWAP2 SWAP1 POP JUMP JUMPDEST PUSH1 0x0 PUSH1 0x20 DUP3 ADD SWAP1 POP SWAP2 SWAP1 POP JUMP JUMPDEST PUSH1 0x0 DUP3 DUP3 MSTORE PUSH1 0x20 DUP3 ADD SWAP1 POP SWAP3 SWAP2 POP POP JUMP JUMPDEST PUSH1 0x0 DUP2 SWAP1 POP SWAP3 SWAP2 POP POP JUMP JUMPDEST PUSH1 0x0 DUP3 DUP3 MSTORE PUSH1 0x20 DUP3 ADD SWAP1 POP SWAP3 SWAP2 POP POP JUMP JUMPDEST PUSH1 0x0 PUSH2 0x1E56 DUP3 PUSH2 0x1F17 JUMP JUMPDEST SWAP2 POP PUSH2 0x1E61 DUP4 PUSH2 0x1F17 JUMP JUMPDEST SWAP3 POP DUP2 PUSH32 0xFFFFFFFFFFFFFFFFFFFFFFFFFFFFFFFFFFFFFFFFFFFFFFFFFFFFFFFFFFFFFFFF DIV DUP4 GT DUP3 ISZERO ISZERO AND ISZERO PUSH2 0x1E9A JUMPI PUSH2 0x1E99 PUSH2 0x1FCF JUMP JUMPDEST JUMPDEST DUP3 DUP3 MUL SWAP1 POP SWAP3 SWAP2 POP POP JUMP JUMPDEST PUSH1 0x0 PUSH2 0x1EB0 DUP3 PUSH2 0x1F17 JUMP JUMPDEST SWAP2 POP PUSH2 0x1EBB DUP4 PUSH2 0x1F17 JUMP JUMPDEST SWAP3 POP DUP3 DUP3 LT ISZERO PUSH2 0x1ECE JUMPI PUSH2 0x1ECD PUSH2 0x1FCF JUMP JUMPDEST JUMPDEST DUP3 DUP3 SUB SWAP1 POP SWAP3 SWAP2 POP POP JUMP JUMPDEST PUSH1 0x0 PUSH2 0x1EE4 DUP3 PUSH2 0x1EF7 JUMP JUMPDEST SWAP1 POP SWAP2 SWAP1 POP JUMP JUMPDEST PUSH1 0x0 DUP2 ISZERO ISZERO SWAP1 POP SWAP2 SWAP1 POP JUMP JUMPDEST PUSH1 0x0 PUSH20 0xFFFFFFFFFFFFFFFFFFFFFFFFFFFFFFFFFFFFFFFF DUP3 AND SWAP1 POP SWAP2 SWAP1 POP JUMP JUMPDEST PUSH1 0x0 DUP2 SWAP1 POP SWAP2 SWAP1 POP JUMP JUMPDEST PUSH1 0x0 JUMPDEST DUP4 DUP2 LT ISZERO PUSH2 0x1F3F JUMPI DUP1 DUP3 ADD MLOAD DUP2 DUP5 ADD MSTORE PUSH1 0x20 DUP2 ADD SWAP1 POP PUSH2 0x1F24 JUMP JUMPDEST DUP4 DUP2 GT ISZERO PUSH2 0x1F4E JUMPI PUSH1 0x0 DUP5 DUP5 ADD MSTORE JUMPDEST POP POP POP POP JUMP JUMPDEST PUSH1 0x0 PUSH1 0x2 DUP3 DIV SWAP1 POP PUSH1 0x1 DUP3 AND DUP1 PUSH2 0x1F6C JUMPI PUSH1 0x7F DUP3 AND SWAP2 POP JUMPDEST PUSH1 0x20 DUP3 LT DUP2 EQ ISZERO PUSH2 0x1F80 JUMPI PUSH2 0x1F7F PUSH2 0x1FFE JUMP JUMPDEST JUMPDEST POP SWAP2 SWAP1 POP JUMP JUMPDEST PUSH1 0x0 PUSH2 0x1F91 DUP3 PUSH2 0x1F17 JUMP JUMPDEST SWAP2 POP PUSH32 0xFFFFFFFFFFFFFFFFFFFFFFFFFFFFFFFFFFFFFFFFFFFFFFFFFFFFFFFFFFFFFFFF DUP3 EQ ISZERO PUSH2 0x1FC4 JUMPI PUSH2 0x1FC3 PUSH2 0x1FCF JUMP JUMPDEST JUMPDEST PUSH1 0x1 DUP3 ADD SWAP1 POP SWAP2 SWAP1 POP JUMP JUMPDEST PUSH32 0x4E487B7100000000000000000000000000000000000000000000000000000000 PUSH1 0x0 MSTORE PUSH1 0x11 PUSH1 0x4 MSTORE PUSH1 0x24 PUSH1 0x0 REVERT JUMPDEST PUSH32 0x4E487B7100000000000000000000000000000000000000000000000000000000 PUSH1 0x0 MSTORE PUSH1 0x22 PUSH1 0x4 MSTORE PUSH1 0x24 PUSH1 0x0 REVERT JUMPDEST PUSH32 0x4E487B7100000000000000000000000000000000000000000000000000000000 PUSH1 0x0 MSTORE PUSH1 0x32 PUSH1 0x4 MSTORE PUSH1 0x24 PUSH1 0x0 REVERT JUMPDEST PUSH32 0x4E487B7100000000000000000000000000000000000000000000000000000000 PUSH1 0x0 MSTORE PUSH1 0x41 PUSH1 0x4 MSTORE PUSH1 0x24 PUSH1 0x0 REVERT JUMPDEST PUSH1 0x0 DUP1 REVERT JUMPDEST PUSH1 0x0 DUP1 REVERT JUMPDEST PUSH1 0x0 DUP1 REVERT JUMPDEST PUSH1 0x0 DUP1 REVERT JUMPDEST PUSH1 0x0 DUP1 REVERT JUMPDEST PUSH1 0x0 PUSH1 0x1F NOT PUSH1 0x1F DUP4 ADD AND SWAP1 POP SWAP2 SWAP1 POP JUMP JUMPDEST PUSH32 0x4E6F74206F776E6572206F6620726F6F6D000000000000000000000000000000 PUSH1 0x0 DUP3 ADD MSTORE POP JUMP JUMPDEST PUSH32 0x526F6F6D20696E61637469766500000000000000000000000000000000000000 PUSH1 0x0 DUP3 ADD MSTORE POP JUMP JUMPDEST PUSH32 0x496E76616C69642076616C756500000000000000000000000000000000000000 PUSH1 0x0 DUP3 ADD MSTORE POP JUMP JUMPDEST PUSH32 0x416C726561647920726573657276656400000000000000000000000000000000 PUSH1 0x0 DUP3 ADD MSTORE POP JUMP JUMPDEST PUSH2 0x2162 DUP2 PUSH2 0x1ED9 JUMP JUMPDEST DUP2 EQ PUSH2 0x216D JUMPI PUSH1 0x0 DUP1 REVERT JUMPDEST POP JUMP JUMPDEST PUSH2 0x2179 DUP2 PUSH2 0x1F17 JUMP JUMPDEST DUP2 EQ PUSH2 0x2184 JUMPI PUSH1 0x0 DUP1 REVERT JUMPDEST POP JUMP INVALID LOG2 PUSH5 0x6970667358 0x22 SLT KECCAK256 SLT RETURN 0xB4 DUP14 0xD8 PUSH2 0xCD7C PUSH2 0x79CF 0x2D PUSH25 0x43D91084DAC5B6C33C37FAA0F4E574E36B457464736F6C6343 STOP ADDMOD SMOD STOP CALLER "
				},
				"gasEstimates": {
					"creation": {
						"codeDepositCost": "1727400",
						"executionCost": "11825",
						"totalCost": "1739225"
					},
					"external": {
						"getMyRents()": "infinite",
						"getRoomRentHistory(uint256)": "infinite",
						"initializeRoomShare(uint256)": "infinite",
						"markRoomAsInactive(uint256)": "26991",
						"recommendDate(uint256,uint256,uint256)": "infinite",
						"rentDB_renter(address,uint256)": "infinite",
						"rentDB_room(uint256,uint256)": "infinite",
						"rentId()": "2496",
						"rentRoom(uint256,uint256,uint256,uint256)": "infinite",
						"roomDB(uint256)": "infinite",
						"roomId()": "2517",
						"shareRoom(string,string,uint256)": "infinite"
					},
					"internal": {
						"_createRent(uint256,uint256,uint256,uint256)": "infinite",
						"_sendFunds(address,uint256)": "infinite"
					}
				},
				"methodIdentifiers": {
					"getMyRents()": "85bfa356",
					"getRoomRentHistory(uint256)": "8c694034",
					"initializeRoomShare(uint256)": "facedf68",
					"markRoomAsInactive(uint256)": "6d4d8c28",
					"recommendDate(uint256,uint256,uint256)": "43064aa4",
					"rentDB_renter(address,uint256)": "7dd9c1b2",
					"rentDB_room(uint256,uint256)": "835e5daf",
					"rentId()": "6decd419",
					"rentRoom(uint256,uint256,uint256,uint256)": "a165c0ba",
					"roomDB(uint256)": "39b0dbed",
					"roomId()": "f954d0d9",
					"shareRoom(string,string,uint256)": "7b319135"
				}
			},
			"storageLayout": {
				"storage": [
					{
						"astId": 116,
						"contract": "dapp-project/RoomShare.sol:RoomShare",
						"label": "roomId",
						"offset": 0,
						"slot": "0",
						"type": "t_uint256"
					},
					{
						"astId": 119,
						"contract": "dapp-project/RoomShare.sol:RoomShare",
						"label": "rentId",
						"offset": 0,
						"slot": "1",
						"type": "t_uint256"
					},
					{
						"astId": 124,
						"contract": "dapp-project/RoomShare.sol:RoomShare",
						"label": "roomDB",
						"offset": 0,
						"slot": "2",
						"type": "t_mapping(t_uint256,t_struct(Room)17_storage)"
					},
					{
						"astId": 130,
						"contract": "dapp-project/RoomShare.sol:RoomShare",
						"label": "rentDB_room",
						"offset": 0,
						"slot": "3",
						"type": "t_mapping(t_uint256,t_array(t_struct(Rent)30_storage)dyn_storage)"
					},
					{
						"astId": 136,
						"contract": "dapp-project/RoomShare.sol:RoomShare",
						"label": "rentDB_renter",
						"offset": 0,
						"slot": "4",
						"type": "t_mapping(t_address,t_array(t_struct(Rent)30_storage)dyn_storage)"
					}
				],
				"types": {
					"t_address": {
						"encoding": "inplace",
						"label": "address",
						"numberOfBytes": "20"
					},
					"t_array(t_bool)dyn_storage": {
						"base": "t_bool",
						"encoding": "dynamic_array",
						"label": "bool[]",
						"numberOfBytes": "32"
					},
					"t_array(t_struct(Rent)30_storage)dyn_storage": {
						"base": "t_struct(Rent)30_storage",
						"encoding": "dynamic_array",
						"label": "struct IRoomShare.Rent[]",
						"numberOfBytes": "32"
					},
					"t_bool": {
						"encoding": "inplace",
						"label": "bool",
						"numberOfBytes": "1"
					},
					"t_mapping(t_address,t_array(t_struct(Rent)30_storage)dyn_storage)": {
						"encoding": "mapping",
						"key": "t_address",
						"label": "mapping(address => struct IRoomShare.Rent[])",
						"numberOfBytes": "32",
						"value": "t_array(t_struct(Rent)30_storage)dyn_storage"
					},
					"t_mapping(t_uint256,t_array(t_struct(Rent)30_storage)dyn_storage)": {
						"encoding": "mapping",
						"key": "t_uint256",
						"label": "mapping(uint256 => struct IRoomShare.Rent[])",
						"numberOfBytes": "32",
						"value": "t_array(t_struct(Rent)30_storage)dyn_storage"
					},
					"t_mapping(t_uint256,t_struct(Room)17_storage)": {
						"encoding": "mapping",
						"key": "t_uint256",
						"label": "mapping(uint256 => struct IRoomShare.Room)",
						"numberOfBytes": "32",
						"value": "t_struct(Room)17_storage"
					},
					"t_string_storage": {
						"encoding": "bytes",
						"label": "string",
						"numberOfBytes": "32"
					},
					"t_struct(Rent)30_storage": {
						"encoding": "inplace",
						"label": "struct IRoomShare.Rent",
						"members": [
							{
								"astId": 19,
								"contract": "dapp-project/RoomShare.sol:RoomShare",
								"label": "id",
								"offset": 0,
								"slot": "0",
								"type": "t_uint256"
							},
							{
								"astId": 21,
								"contract": "dapp-project/RoomShare.sol:RoomShare",
								"label": "rId",
								"offset": 0,
								"slot": "1",
								"type": "t_uint256"
							},
							{
								"astId": 23,
								"contract": "dapp-project/RoomShare.sol:RoomShare",
								"label": "yearOfRent",
								"offset": 0,
								"slot": "2",
								"type": "t_uint256"
							},
							{
								"astId": 25,
								"contract": "dapp-project/RoomShare.sol:RoomShare",
								"label": "checkInDate",
								"offset": 0,
								"slot": "3",
								"type": "t_uint256"
							},
							{
								"astId": 27,
								"contract": "dapp-project/RoomShare.sol:RoomShare",
								"label": "checkOutDate",
								"offset": 0,
								"slot": "4",
								"type": "t_uint256"
							},
							{
								"astId": 29,
								"contract": "dapp-project/RoomShare.sol:RoomShare",
								"label": "renter",
								"offset": 0,
								"slot": "5",
								"type": "t_address"
							}
						],
						"numberOfBytes": "192"
					},
					"t_struct(Room)17_storage": {
						"encoding": "inplace",
						"label": "struct IRoomShare.Room",
						"members": [
							{
								"astId": 3,
								"contract": "dapp-project/RoomShare.sol:RoomShare",
								"label": "id",
								"offset": 0,
								"slot": "0",
								"type": "t_uint256"
							},
							{
								"astId": 5,
								"contract": "dapp-project/RoomShare.sol:RoomShare",
								"label": "name",
								"offset": 0,
								"slot": "1",
								"type": "t_string_storage"
							},
							{
								"astId": 7,
								"contract": "dapp-project/RoomShare.sol:RoomShare",
								"label": "location",
								"offset": 0,
								"slot": "2",
								"type": "t_string_storage"
							},
							{
								"astId": 9,
								"contract": "dapp-project/RoomShare.sol:RoomShare",
								"label": "isActive",
								"offset": 0,
								"slot": "3",
								"type": "t_bool"
							},
							{
								"astId": 11,
								"contract": "dapp-project/RoomShare.sol:RoomShare",
								"label": "price",
								"offset": 0,
								"slot": "4",
								"type": "t_uint256"
							},
							{
								"astId": 13,
								"contract": "dapp-project/RoomShare.sol:RoomShare",
								"label": "owner",
								"offset": 0,
								"slot": "5",
								"type": "t_address"
							},
							{
								"astId": 16,
								"contract": "dapp-project/RoomShare.sol:RoomShare",
								"label": "isRented",
								"offset": 0,
								"slot": "6",
								"type": "t_array(t_bool)dyn_storage"
							}
						],
						"numberOfBytes": "224"
					},
					"t_uint256": {
						"encoding": "inplace",
						"label": "uint256",
						"numberOfBytes": "32"
					}
				}
			},
			"userdoc": {
				"kind": "user",
				"methods": {},
				"version": 1
			}
		}
	}
}